{
	"contracts/Savings.sol": {
		"savings": {
			"abi": [
				{
					"anonymous": false,
					"inputs": [
						{
							"indexed": false,
							"internalType": "address",
							"name": "wallet",
							"type": "address"
						},
						{
							"indexed": false,
							"internalType": "uint256",
							"name": "_amount",
							"type": "uint256"
						},
						{
							"indexed": false,
							"internalType": "string",
							"name": "message",
							"type": "string"
						}
					],
					"name": "inc",
					"type": "event"
				},
				{
					"inputs": [],
					"name": "deposit",
					"outputs": [],
					"stateMutability": "payable",
					"type": "function"
				},
				{
					"inputs": [],
					"name": "withdraw",
					"outputs": [],
					"stateMutability": "payable",
					"type": "function"
				}
			],
			"devdoc": {
				"kind": "dev",
				"methods": {},
				"version": 1
			},
			"evm": {
				"assembly": "    /* \"contracts/Savings.sol\":70:768  contract savings {... */\n  mstore(0x40, 0x80)\n  callvalue\n  dup1\n  iszero\n  tag_1\n  jumpi\n  0x00\n  dup1\n  revert\ntag_1:\n  pop\n  dataSize(sub_0)\n  dup1\n  dataOffset(sub_0)\n  0x00\n  codecopy\n  0x00\n  return\nstop\n\nsub_0: assembly {\n        /* \"contracts/Savings.sol\":70:768  contract savings {... */\n      mstore(0x40, 0x80)\n      jumpi(tag_1, lt(calldatasize, 0x04))\n      shr(0xe0, calldataload(0x00))\n      dup1\n      0x3ccfd60b\n      eq\n      tag_2\n      jumpi\n      dup1\n      0xd0e30db0\n      eq\n      tag_3\n      jumpi\n    tag_1:\n      0x00\n      dup1\n      revert\n        /* \"contracts/Savings.sol\":471:760  function withdraw() public payable   {... */\n    tag_2:\n      tag_4\n      tag_5\n      jump\t// in\n    tag_4:\n      stop\n        /* \"contracts/Savings.sol\":265:465  function deposit() public payable {... */\n    tag_3:\n      tag_6\n      tag_7\n      jump\t// in\n    tag_6:\n      stop\n        /* \"contracts/Savings.sol\":471:760  function withdraw() public payable   {... */\n    tag_5:\n        /* \"contracts/Savings.sol\":557:566  1 minutes */\n      0x3c\n        /* \"contracts/Savings.sol\":527:542  lastDepositTime */\n      0x02\n        /* \"contracts/Savings.sol\":527:554  lastDepositTime[msg.sender] */\n      0x00\n        /* \"contracts/Savings.sol\":543:553  msg.sender */\n      caller\n        /* \"contracts/Savings.sol\":527:554  lastDepositTime[msg.sender] */\n      0xffffffffffffffffffffffffffffffffffffffff\n      and\n      0xffffffffffffffffffffffffffffffffffffffff\n      and\n      dup2\n      mstore\n      0x20\n      add\n      swap1\n      dup2\n      mstore\n      0x20\n      add\n      0x00\n      keccak256\n      sload\n        /* \"contracts/Savings.sol\":527:566  lastDepositTime[msg.sender] > 1 minutes */\n      gt\n        /* \"contracts/Savings.sol\":519:606  require(lastDepositTime[msg.sender] > 1 minutes, \"Cooldown period has not elapsed yet\") */\n      tag_9\n      jumpi\n      mload(0x40)\n      0x08c379a000000000000000000000000000000000000000000000000000000000\n      dup2\n      mstore\n      0x04\n      add\n      tag_10\n      swap1\n      tag_11\n      jump\t// in\n    tag_10:\n      mload(0x40)\n      dup1\n      swap2\n      sub\n      swap1\n      revert\n    tag_9:\n        /* \"contracts/Savings.sol\":625:646  address(this).balance */\n      selfbalance\n        /* \"contracts/Savings.sol\":616:622  amount */\n      0x00\n        /* \"contracts/Savings.sol\":616:646  amount = address(this).balance */\n      dup2\n      swap1\n      sstore\n      pop\n        /* \"contracts/Savings.sol\":664:674  msg.sender */\n      caller\n        /* \"contracts/Savings.sol\":656:684  payable(msg.sender).transfer */\n      0xffffffffffffffffffffffffffffffffffffffff\n      and\n        /* \"contracts/Savings.sol\":656:692  payable(msg.sender).transfer(amount) */\n      0x08fc\n        /* \"contracts/Savings.sol\":685:691  amount */\n      sload(0x00)\n        /* \"contracts/Savings.sol\":656:692  payable(msg.sender).transfer(amount) */\n      swap1\n      dup2\n      iszero\n      mul\n      swap1\n      mload(0x40)\n      0x00\n      mload(0x40)\n      dup1\n      dup4\n      sub\n      dup2\n      dup6\n      dup9\n      dup9\n      call\n      swap4\n      pop\n      pop\n      pop\n      pop\n      iszero\n      dup1\n      iszero\n      tag_13\n      jumpi\n      returndatasize\n      0x00\n      dup1\n      returndatacopy\n      revert(0x00, returndatasize)\n    tag_13:\n      pop\n        /* \"contracts/Savings.sol\":707:753  inc(msg.sender, msg.value, \"Amount withdrawn\") */\n      0xe20fc92dd51d5f7b68f0037ff19dc725586849d8252d1b8f125ccee43d075682\n        /* \"contracts/Savings.sol\":711:721  msg.sender */\n      caller\n        /* \"contracts/Savings.sol\":723:732  msg.value */\n      callvalue\n        /* \"contracts/Savings.sol\":707:753  inc(msg.sender, msg.value, \"Amount withdrawn\") */\n      mload(0x40)\n      tag_14\n      swap3\n      swap2\n      swap1\n      tag_15\n      jump\t// in\n    tag_14:\n      mload(0x40)\n      dup1\n      swap2\n      sub\n      swap1\n      log1\n        /* \"contracts/Savings.sol\":471:760  function withdraw() public payable   {... */\n      jump\t// out\n        /* \"contracts/Savings.sol\":265:465  function deposit() public payable {... */\n    tag_7:\n        /* \"contracts/Savings.sol\":333:342  msg.value */\n      callvalue\n        /* \"contracts/Savings.sol\":310:318  balances */\n      0x01\n        /* \"contracts/Savings.sol\":310:330  balances[msg.sender] */\n      0x00\n        /* \"contracts/Savings.sol\":319:329  msg.sender */\n      caller\n        /* \"contracts/Savings.sol\":310:330  balances[msg.sender] */\n      0xffffffffffffffffffffffffffffffffffffffff\n      and\n      0xffffffffffffffffffffffffffffffffffffffff\n      and\n      dup2\n      mstore\n      0x20\n      add\n      swap1\n      dup2\n      mstore\n      0x20\n      add\n      0x00\n      keccak256\n        /* \"contracts/Savings.sol\":310:342  balances[msg.sender] = msg.value */\n      dup2\n      swap1\n      sstore\n      pop\n        /* \"contracts/Savings.sol\":382:397  block.timestamp */\n      timestamp\n        /* \"contracts/Savings.sol\":352:367  lastDepositTime */\n      0x02\n        /* \"contracts/Savings.sol\":352:379  lastDepositTime[msg.sender] */\n      0x00\n        /* \"contracts/Savings.sol\":368:378  msg.sender */\n      caller\n        /* \"contracts/Savings.sol\":352:379  lastDepositTime[msg.sender] */\n      0xffffffffffffffffffffffffffffffffffffffff\n      and\n      0xffffffffffffffffffffffffffffffffffffffff\n      and\n      dup2\n      mstore\n      0x20\n      add\n      swap1\n      dup2\n      mstore\n      0x20\n      add\n      0x00\n      keccak256\n        /* \"contracts/Savings.sol\":352:397  lastDepositTime[msg.sender] = block.timestamp */\n      dup2\n      swap1\n      sstore\n      pop\n        /* \"contracts/Savings.sol\":412:458  inc(msg.sender, msg.value, \"Amount deposited\") */\n      0xe20fc92dd51d5f7b68f0037ff19dc725586849d8252d1b8f125ccee43d075682\n        /* \"contracts/Savings.sol\":416:426  msg.sender */\n      caller\n        /* \"contracts/Savings.sol\":428:437  msg.value */\n      callvalue\n        /* \"contracts/Savings.sol\":412:458  inc(msg.sender, msg.value, \"Amount deposited\") */\n      mload(0x40)\n      tag_17\n      swap3\n      swap2\n      swap1\n      tag_18\n      jump\t// in\n    tag_17:\n      mload(0x40)\n      dup1\n      swap2\n      sub\n      swap1\n      log1\n        /* \"contracts/Savings.sol\":265:465  function deposit() public payable {... */\n      jump\t// out\n        /* \"#utility.yul\":7:176   */\n    tag_19:\n        /* \"#utility.yul\":91:102   */\n      0x00\n        /* \"#utility.yul\":125:131   */\n      dup3\n        /* \"#utility.yul\":120:123   */\n      dup3\n        /* \"#utility.yul\":113:132   */\n      mstore\n        /* \"#utility.yul\":165:169   */\n      0x20\n        /* \"#utility.yul\":160:163   */\n      dup3\n        /* \"#utility.yul\":156:170   */\n      add\n        /* \"#utility.yul\":141:170   */\n      swap1\n      pop\n        /* \"#utility.yul\":7:176   */\n      swap3\n      swap2\n      pop\n      pop\n      jump\t// out\n        /* \"#utility.yul\":182:404   */\n    tag_20:\n        /* \"#utility.yul\":322:356   */\n      0x436f6f6c646f776e20706572696f6420686173206e6f7420656c617073656420\n        /* \"#utility.yul\":318:319   */\n      0x00\n        /* \"#utility.yul\":310:316   */\n      dup3\n        /* \"#utility.yul\":306:320   */\n      add\n        /* \"#utility.yul\":299:357   */\n      mstore\n        /* \"#utility.yul\":391:396   */\n      0x7965740000000000000000000000000000000000000000000000000000000000\n        /* \"#utility.yul\":386:388   */\n      0x20\n        /* \"#utility.yul\":378:384   */\n      dup3\n        /* \"#utility.yul\":374:389   */\n      add\n        /* \"#utility.yul\":367:397   */\n      mstore\n        /* \"#utility.yul\":182:404   */\n      pop\n      jump\t// out\n        /* \"#utility.yul\":410:776   */\n    tag_21:\n        /* \"#utility.yul\":552:555   */\n      0x00\n        /* \"#utility.yul\":573:640   */\n      tag_35\n        /* \"#utility.yul\":637:639   */\n      0x23\n        /* \"#utility.yul\":632:635   */\n      dup4\n        /* \"#utility.yul\":573:640   */\n      tag_19\n      jump\t// in\n    tag_35:\n        /* \"#utility.yul\":566:640   */\n      swap2\n      pop\n        /* \"#utility.yul\":649:742   */\n      tag_36\n        /* \"#utility.yul\":738:741   */\n      dup3\n        /* \"#utility.yul\":649:742   */\n      tag_20\n      jump\t// in\n    tag_36:\n        /* \"#utility.yul\":767:769   */\n      0x40\n        /* \"#utility.yul\":762:765   */\n      dup3\n        /* \"#utility.yul\":758:770   */\n      add\n        /* \"#utility.yul\":751:770   */\n      swap1\n      pop\n        /* \"#utility.yul\":410:776   */\n      swap2\n      swap1\n      pop\n      jump\t// out\n        /* \"#utility.yul\":782:1201   */\n    tag_11:\n        /* \"#utility.yul\":948:952   */\n      0x00\n        /* \"#utility.yul\":986:988   */\n      0x20\n        /* \"#utility.yul\":975:984   */\n      dup3\n        /* \"#utility.yul\":971:989   */\n      add\n        /* \"#utility.yul\":963:989   */\n      swap1\n      pop\n        /* \"#utility.yul\":1035:1044   */\n      dup2\n        /* \"#utility.yul\":1029:1033   */\n      dup2\n        /* \"#utility.yul\":1025:1045   */\n      sub\n        /* \"#utility.yul\":1021:1022   */\n      0x00\n        /* \"#utility.yul\":1010:1019   */\n      dup4\n        /* \"#utility.yul\":1006:1023   */\n      add\n        /* \"#utility.yul\":999:1046   */\n      mstore\n        /* \"#utility.yul\":1063:1194   */\n      tag_38\n        /* \"#utility.yul\":1189:1193   */\n      dup2\n        /* \"#utility.yul\":1063:1194   */\n      tag_21\n      jump\t// in\n    tag_38:\n        /* \"#utility.yul\":1055:1194   */\n      swap1\n      pop\n        /* \"#utility.yul\":782:1201   */\n      swap2\n      swap1\n      pop\n      jump\t// out\n        /* \"#utility.yul\":1207:1333   */\n    tag_22:\n        /* \"#utility.yul\":1244:1251   */\n      0x00\n        /* \"#utility.yul\":1284:1326   */\n      0xffffffffffffffffffffffffffffffffffffffff\n        /* \"#utility.yul\":1277:1282   */\n      dup3\n        /* \"#utility.yul\":1273:1327   */\n      and\n        /* \"#utility.yul\":1262:1327   */\n      swap1\n      pop\n        /* \"#utility.yul\":1207:1333   */\n      swap2\n      swap1\n      pop\n      jump\t// out\n        /* \"#utility.yul\":1339:1435   */\n    tag_23:\n        /* \"#utility.yul\":1376:1383   */\n      0x00\n        /* \"#utility.yul\":1405:1429   */\n      tag_41\n        /* \"#utility.yul\":1423:1428   */\n      dup3\n        /* \"#utility.yul\":1405:1429   */\n      tag_22\n      jump\t// in\n    tag_41:\n        /* \"#utility.yul\":1394:1429   */\n      swap1\n      pop\n        /* \"#utility.yul\":1339:1435   */\n      swap2\n      swap1\n      pop\n      jump\t// out\n        /* \"#utility.yul\":1441:1559   */\n    tag_24:\n        /* \"#utility.yul\":1528:1552   */\n      tag_43\n        /* \"#utility.yul\":1546:1551   */\n      dup2\n        /* \"#utility.yul\":1528:1552   */\n      tag_23\n      jump\t// in\n    tag_43:\n        /* \"#utility.yul\":1523:1526   */\n      dup3\n        /* \"#utility.yul\":1516:1553   */\n      mstore\n        /* \"#utility.yul\":1441:1559   */\n      pop\n      pop\n      jump\t// out\n        /* \"#utility.yul\":1565:1642   */\n    tag_25:\n        /* \"#utility.yul\":1602:1609   */\n      0x00\n        /* \"#utility.yul\":1631:1636   */\n      dup2\n        /* \"#utility.yul\":1620:1636   */\n      swap1\n      pop\n        /* \"#utility.yul\":1565:1642   */\n      swap2\n      swap1\n      pop\n      jump\t// out\n        /* \"#utility.yul\":1648:1766   */\n    tag_26:\n        /* \"#utility.yul\":1735:1759   */\n      tag_46\n        /* \"#utility.yul\":1753:1758   */\n      dup2\n        /* \"#utility.yul\":1735:1759   */\n      tag_25\n      jump\t// in\n    tag_46:\n        /* \"#utility.yul\":1730:1733   */\n      dup3\n        /* \"#utility.yul\":1723:1760   */\n      mstore\n        /* \"#utility.yul\":1648:1766   */\n      pop\n      pop\n      jump\t// out\n        /* \"#utility.yul\":1772:1938   */\n    tag_27:\n        /* \"#utility.yul\":1912:1930   */\n      0x416d6f756e742077697468647261776e00000000000000000000000000000000\n        /* \"#utility.yul\":1908:1909   */\n      0x00\n        /* \"#utility.yul\":1900:1906   */\n      dup3\n        /* \"#utility.yul\":1896:1910   */\n      add\n        /* \"#utility.yul\":1889:1931   */\n      mstore\n        /* \"#utility.yul\":1772:1938   */\n      pop\n      jump\t// out\n        /* \"#utility.yul\":1944:2310   */\n    tag_28:\n        /* \"#utility.yul\":2086:2089   */\n      0x00\n        /* \"#utility.yul\":2107:2174   */\n      tag_49\n        /* \"#utility.yul\":2171:2173   */\n      0x10\n        /* \"#utility.yul\":2166:2169   */\n      dup4\n        /* \"#utility.yul\":2107:2174   */\n      tag_19\n      jump\t// in\n    tag_49:\n        /* \"#utility.yul\":2100:2174   */\n      swap2\n      pop\n        /* \"#utility.yul\":2183:2276   */\n      tag_50\n        /* \"#utility.yul\":2272:2275   */\n      dup3\n        /* \"#utility.yul\":2183:2276   */\n      tag_27\n      jump\t// in\n    tag_50:\n        /* \"#utility.yul\":2301:2303   */\n      0x20\n        /* \"#utility.yul\":2296:2299   */\n      dup3\n        /* \"#utility.yul\":2292:2304   */\n      add\n        /* \"#utility.yul\":2285:2304   */\n      swap1\n      pop\n        /* \"#utility.yul\":1944:2310   */\n      swap2\n      swap1\n      pop\n      jump\t// out\n        /* \"#utility.yul\":2316:2955   */\n    tag_15:\n        /* \"#utility.yul\":2538:2542   */\n      0x00\n        /* \"#utility.yul\":2576:2578   */\n      0x60\n        /* \"#utility.yul\":2565:2574   */\n      dup3\n        /* \"#utility.yul\":2561:2579   */\n      add\n        /* \"#utility.yul\":2553:2579   */\n      swap1\n      pop\n        /* \"#utility.yul\":2589:2660   */\n      tag_52\n        /* \"#utility.yul\":2657:2658   */\n      0x00\n        /* \"#utility.yul\":2646:2655   */\n      dup4\n        /* \"#utility.yul\":2642:2659   */\n      add\n        /* \"#utility.yul\":2633:2639   */\n      dup6\n        /* \"#utility.yul\":2589:2660   */\n      tag_24\n      jump\t// in\n    tag_52:\n        /* \"#utility.yul\":2670:2742   */\n      tag_53\n        /* \"#utility.yul\":2738:2740   */\n      0x20\n        /* \"#utility.yul\":2727:2736   */\n      dup4\n        /* \"#utility.yul\":2723:2741   */\n      add\n        /* \"#utility.yul\":2714:2720   */\n      dup5\n        /* \"#utility.yul\":2670:2742   */\n      tag_26\n      jump\t// in\n    tag_53:\n        /* \"#utility.yul\":2789:2798   */\n      dup2\n        /* \"#utility.yul\":2783:2787   */\n      dup2\n        /* \"#utility.yul\":2779:2799   */\n      sub\n        /* \"#utility.yul\":2774:2776   */\n      0x40\n        /* \"#utility.yul\":2763:2772   */\n      dup4\n        /* \"#utility.yul\":2759:2777   */\n      add\n        /* \"#utility.yul\":2752:2800   */\n      mstore\n        /* \"#utility.yul\":2817:2948   */\n      tag_54\n        /* \"#utility.yul\":2943:2947   */\n      dup2\n        /* \"#utility.yul\":2817:2948   */\n      tag_28\n      jump\t// in\n    tag_54:\n        /* \"#utility.yul\":2809:2948   */\n      swap1\n      pop\n        /* \"#utility.yul\":2316:2955   */\n      swap4\n      swap3\n      pop\n      pop\n      pop\n      jump\t// out\n        /* \"#utility.yul\":2961:3127   */\n    tag_29:\n        /* \"#utility.yul\":3101:3119   */\n      0x416d6f756e74206465706f736974656400000000000000000000000000000000\n        /* \"#utility.yul\":3097:3098   */\n      0x00\n        /* \"#utility.yul\":3089:3095   */\n      dup3\n        /* \"#utility.yul\":3085:3099   */\n      add\n        /* \"#utility.yul\":3078:3120   */\n      mstore\n        /* \"#utility.yul\":2961:3127   */\n      pop\n      jump\t// out\n        /* \"#utility.yul\":3133:3499   */\n    tag_30:\n        /* \"#utility.yul\":3275:3278   */\n      0x00\n        /* \"#utility.yul\":3296:3363   */\n      tag_57\n        /* \"#utility.yul\":3360:3362   */\n      0x10\n        /* \"#utility.yul\":3355:3358   */\n      dup4\n        /* \"#utility.yul\":3296:3363   */\n      tag_19\n      jump\t// in\n    tag_57:\n        /* \"#utility.yul\":3289:3363   */\n      swap2\n      pop\n        /* \"#utility.yul\":3372:3465   */\n      tag_58\n        /* \"#utility.yul\":3461:3464   */\n      dup3\n        /* \"#utility.yul\":3372:3465   */\n      tag_29\n      jump\t// in\n    tag_58:\n        /* \"#utility.yul\":3490:3492   */\n      0x20\n        /* \"#utility.yul\":3485:3488   */\n      dup3\n        /* \"#utility.yul\":3481:3493   */\n      add\n        /* \"#utility.yul\":3474:3493   */\n      swap1\n      pop\n        /* \"#utility.yul\":3133:3499   */\n      swap2\n      swap1\n      pop\n      jump\t// out\n        /* \"#utility.yul\":3505:4144   */\n    tag_18:\n        /* \"#utility.yul\":3727:3731   */\n      0x00\n        /* \"#utility.yul\":3765:3767   */\n      0x60\n        /* \"#utility.yul\":3754:3763   */\n      dup3\n        /* \"#utility.yul\":3750:3768   */\n      add\n        /* \"#utility.yul\":3742:3768   */\n      swap1\n      pop\n        /* \"#utility.yul\":3778:3849   */\n      tag_60\n        /* \"#utility.yul\":3846:3847   */\n      0x00\n        /* \"#utility.yul\":3835:3844   */\n      dup4\n        /* \"#utility.yul\":3831:3848   */\n      add\n        /* \"#utility.yul\":3822:3828   */\n      dup6\n        /* \"#utility.yul\":3778:3849   */\n      tag_24\n      jump\t// in\n    tag_60:\n        /* \"#utility.yul\":3859:3931   */\n      tag_61\n        /* \"#utility.yul\":3927:3929   */\n      0x20\n        /* \"#utility.yul\":3916:3925   */\n      dup4\n        /* \"#utility.yul\":3912:3930   */\n      add\n        /* \"#utility.yul\":3903:3909   */\n      dup5\n        /* \"#utility.yul\":3859:3931   */\n      tag_26\n      jump\t// in\n    tag_61:\n        /* \"#utility.yul\":3978:3987   */\n      dup2\n        /* \"#utility.yul\":3972:3976   */\n      dup2\n        /* \"#utility.yul\":3968:3988   */\n      sub\n        /* \"#utility.yul\":3963:3965   */\n      0x40\n        /* \"#utility.yul\":3952:3961   */\n      dup4\n        /* \"#utility.yul\":3948:3966   */\n      add\n        /* \"#utility.yul\":3941:3989   */\n      mstore\n        /* \"#utility.yul\":4006:4137   */\n      tag_62\n        /* \"#utility.yul\":4132:4136   */\n      dup2\n        /* \"#utility.yul\":4006:4137   */\n      tag_30\n      jump\t// in\n    tag_62:\n        /* \"#utility.yul\":3998:4137   */\n      swap1\n      pop\n        /* \"#utility.yul\":3505:4144   */\n      swap4\n      swap3\n      pop\n      pop\n      pop\n      jump\t// out\n\n    auxdata: 0xa2646970667358221220ca7df95ca00f4990cee8c45b521a71ee5d1eba907458d7d3222bc89be9f33b8964736f6c63430008190033\n}\n",
				"bytecode": {
					"linkReferences": {},
					"object": "6080604052348015600e575f80fd5b506104388061001c5f395ff3fe608060405260043610610028575f3560e01c80633ccfd60b1461002c578063d0e30db014610036575b5f80fd5b610034610040565b005b61003e610146565b005b603c60025f3373ffffffffffffffffffffffffffffffffffffffff1673ffffffffffffffffffffffffffffffffffffffff1681526020019081526020015f2054116100c0576040517f08c379a00000000000000000000000000000000000000000000000000000000081526004016100b790610285565b60405180910390fd5b475f819055503373ffffffffffffffffffffffffffffffffffffffff166108fc5f5490811502906040515f60405180830381858888f1935050505015801561010a573d5f803e3d5ffd5b507fe20fc92dd51d5f7b68f0037ff19dc725586849d8252d1b8f125ccee43d075682333460405161013c929190610344565b60405180910390a1565b3460015f3373ffffffffffffffffffffffffffffffffffffffff1673ffffffffffffffffffffffffffffffffffffffff1681526020019081526020015f20819055504260025f3373ffffffffffffffffffffffffffffffffffffffff1673ffffffffffffffffffffffffffffffffffffffff1681526020019081526020015f20819055507fe20fc92dd51d5f7b68f0037ff19dc725586849d8252d1b8f125ccee43d07568233346040516101fb9291906103c8565b60405180910390a1565b5f82825260208201905092915050565b7f436f6f6c646f776e20706572696f6420686173206e6f7420656c6170736564205f8201527f7965740000000000000000000000000000000000000000000000000000000000602082015250565b5f61026f602383610205565b915061027a82610215565b604082019050919050565b5f6020820190508181035f83015261029c81610263565b9050919050565b5f73ffffffffffffffffffffffffffffffffffffffff82169050919050565b5f6102cc826102a3565b9050919050565b6102dc816102c2565b82525050565b5f819050919050565b6102f4816102e2565b82525050565b7f416d6f756e742077697468647261776e000000000000000000000000000000005f82015250565b5f61032e601083610205565b9150610339826102fa565b602082019050919050565b5f6060820190506103575f8301856102d3565b61036460208301846102eb565b818103604083015261037581610322565b90509392505050565b7f416d6f756e74206465706f7369746564000000000000000000000000000000005f82015250565b5f6103b2601083610205565b91506103bd8261037e565b602082019050919050565b5f6060820190506103db5f8301856102d3565b6103e860208301846102eb565b81810360408301526103f9816103a6565b9050939250505056fea2646970667358221220ca7df95ca00f4990cee8c45b521a71ee5d1eba907458d7d3222bc89be9f33b8964736f6c63430008190033",
					"opcodes": "PUSH1 0x80 PUSH1 0x40 MSTORE CALLVALUE DUP1 ISZERO PUSH1 0xE JUMPI PUSH0 DUP1 REVERT JUMPDEST POP PUSH2 0x438 DUP1 PUSH2 0x1C PUSH0 CODECOPY PUSH0 RETURN INVALID PUSH1 0x80 PUSH1 0x40 MSTORE PUSH1 0x4 CALLDATASIZE LT PUSH2 0x28 JUMPI PUSH0 CALLDATALOAD PUSH1 0xE0 SHR DUP1 PUSH4 0x3CCFD60B EQ PUSH2 0x2C JUMPI DUP1 PUSH4 0xD0E30DB0 EQ PUSH2 0x36 JUMPI JUMPDEST PUSH0 DUP1 REVERT JUMPDEST PUSH2 0x34 PUSH2 0x40 JUMP JUMPDEST STOP JUMPDEST PUSH2 0x3E PUSH2 0x146 JUMP JUMPDEST STOP JUMPDEST PUSH1 0x3C PUSH1 0x2 PUSH0 CALLER PUSH20 0xFFFFFFFFFFFFFFFFFFFFFFFFFFFFFFFFFFFFFFFF AND PUSH20 0xFFFFFFFFFFFFFFFFFFFFFFFFFFFFFFFFFFFFFFFF AND DUP2 MSTORE PUSH1 0x20 ADD SWAP1 DUP2 MSTORE PUSH1 0x20 ADD PUSH0 KECCAK256 SLOAD GT PUSH2 0xC0 JUMPI PUSH1 0x40 MLOAD PUSH32 0x8C379A000000000000000000000000000000000000000000000000000000000 DUP2 MSTORE PUSH1 0x4 ADD PUSH2 0xB7 SWAP1 PUSH2 0x285 JUMP JUMPDEST PUSH1 0x40 MLOAD DUP1 SWAP2 SUB SWAP1 REVERT JUMPDEST SELFBALANCE PUSH0 DUP2 SWAP1 SSTORE POP CALLER PUSH20 0xFFFFFFFFFFFFFFFFFFFFFFFFFFFFFFFFFFFFFFFF AND PUSH2 0x8FC PUSH0 SLOAD SWAP1 DUP2 ISZERO MUL SWAP1 PUSH1 0x40 MLOAD PUSH0 PUSH1 0x40 MLOAD DUP1 DUP4 SUB DUP2 DUP6 DUP9 DUP9 CALL SWAP4 POP POP POP POP ISZERO DUP1 ISZERO PUSH2 0x10A JUMPI RETURNDATASIZE PUSH0 DUP1 RETURNDATACOPY RETURNDATASIZE PUSH0 REVERT JUMPDEST POP PUSH32 0xE20FC92DD51D5F7B68F0037FF19DC725586849D8252D1B8F125CCEE43D075682 CALLER CALLVALUE PUSH1 0x40 MLOAD PUSH2 0x13C SWAP3 SWAP2 SWAP1 PUSH2 0x344 JUMP JUMPDEST PUSH1 0x40 MLOAD DUP1 SWAP2 SUB SWAP1 LOG1 JUMP JUMPDEST CALLVALUE PUSH1 0x1 PUSH0 CALLER PUSH20 0xFFFFFFFFFFFFFFFFFFFFFFFFFFFFFFFFFFFFFFFF AND PUSH20 0xFFFFFFFFFFFFFFFFFFFFFFFFFFFFFFFFFFFFFFFF AND DUP2 MSTORE PUSH1 0x20 ADD SWAP1 DUP2 MSTORE PUSH1 0x20 ADD PUSH0 KECCAK256 DUP2 SWAP1 SSTORE POP TIMESTAMP PUSH1 0x2 PUSH0 CALLER PUSH20 0xFFFFFFFFFFFFFFFFFFFFFFFFFFFFFFFFFFFFFFFF AND PUSH20 0xFFFFFFFFFFFFFFFFFFFFFFFFFFFFFFFFFFFFFFFF AND DUP2 MSTORE PUSH1 0x20 ADD SWAP1 DUP2 MSTORE PUSH1 0x20 ADD PUSH0 KECCAK256 DUP2 SWAP1 SSTORE POP PUSH32 0xE20FC92DD51D5F7B68F0037FF19DC725586849D8252D1B8F125CCEE43D075682 CALLER CALLVALUE PUSH1 0x40 MLOAD PUSH2 0x1FB SWAP3 SWAP2 SWAP1 PUSH2 0x3C8 JUMP JUMPDEST PUSH1 0x40 MLOAD DUP1 SWAP2 SUB SWAP1 LOG1 JUMP JUMPDEST PUSH0 DUP3 DUP3 MSTORE PUSH1 0x20 DUP3 ADD SWAP1 POP SWAP3 SWAP2 POP POP JUMP JUMPDEST PUSH32 0x436F6F6C646F776E20706572696F6420686173206E6F7420656C617073656420 PUSH0 DUP3 ADD MSTORE PUSH32 0x7965740000000000000000000000000000000000000000000000000000000000 PUSH1 0x20 DUP3 ADD MSTORE POP JUMP JUMPDEST PUSH0 PUSH2 0x26F PUSH1 0x23 DUP4 PUSH2 0x205 JUMP JUMPDEST SWAP2 POP PUSH2 0x27A DUP3 PUSH2 0x215 JUMP JUMPDEST PUSH1 0x40 DUP3 ADD SWAP1 POP SWAP2 SWAP1 POP JUMP JUMPDEST PUSH0 PUSH1 0x20 DUP3 ADD SWAP1 POP DUP2 DUP2 SUB PUSH0 DUP4 ADD MSTORE PUSH2 0x29C DUP2 PUSH2 0x263 JUMP JUMPDEST SWAP1 POP SWAP2 SWAP1 POP JUMP JUMPDEST PUSH0 PUSH20 0xFFFFFFFFFFFFFFFFFFFFFFFFFFFFFFFFFFFFFFFF DUP3 AND SWAP1 POP SWAP2 SWAP1 POP JUMP JUMPDEST PUSH0 PUSH2 0x2CC DUP3 PUSH2 0x2A3 JUMP JUMPDEST SWAP1 POP SWAP2 SWAP1 POP JUMP JUMPDEST PUSH2 0x2DC DUP2 PUSH2 0x2C2 JUMP JUMPDEST DUP3 MSTORE POP POP JUMP JUMPDEST PUSH0 DUP2 SWAP1 POP SWAP2 SWAP1 POP JUMP JUMPDEST PUSH2 0x2F4 DUP2 PUSH2 0x2E2 JUMP JUMPDEST DUP3 MSTORE POP POP JUMP JUMPDEST PUSH32 0x416D6F756E742077697468647261776E00000000000000000000000000000000 PUSH0 DUP3 ADD MSTORE POP JUMP JUMPDEST PUSH0 PUSH2 0x32E PUSH1 0x10 DUP4 PUSH2 0x205 JUMP JUMPDEST SWAP2 POP PUSH2 0x339 DUP3 PUSH2 0x2FA JUMP JUMPDEST PUSH1 0x20 DUP3 ADD SWAP1 POP SWAP2 SWAP1 POP JUMP JUMPDEST PUSH0 PUSH1 0x60 DUP3 ADD SWAP1 POP PUSH2 0x357 PUSH0 DUP4 ADD DUP6 PUSH2 0x2D3 JUMP JUMPDEST PUSH2 0x364 PUSH1 0x20 DUP4 ADD DUP5 PUSH2 0x2EB JUMP JUMPDEST DUP2 DUP2 SUB PUSH1 0x40 DUP4 ADD MSTORE PUSH2 0x375 DUP2 PUSH2 0x322 JUMP JUMPDEST SWAP1 POP SWAP4 SWAP3 POP POP POP JUMP JUMPDEST PUSH32 0x416D6F756E74206465706F736974656400000000000000000000000000000000 PUSH0 DUP3 ADD MSTORE POP JUMP JUMPDEST PUSH0 PUSH2 0x3B2 PUSH1 0x10 DUP4 PUSH2 0x205 JUMP JUMPDEST SWAP2 POP PUSH2 0x3BD DUP3 PUSH2 0x37E JUMP JUMPDEST PUSH1 0x20 DUP3 ADD SWAP1 POP SWAP2 SWAP1 POP JUMP JUMPDEST PUSH0 PUSH1 0x60 DUP3 ADD SWAP1 POP PUSH2 0x3DB PUSH0 DUP4 ADD DUP6 PUSH2 0x2D3 JUMP JUMPDEST PUSH2 0x3E8 PUSH1 0x20 DUP4 ADD DUP5 PUSH2 0x2EB JUMP JUMPDEST DUP2 DUP2 SUB PUSH1 0x40 DUP4 ADD MSTORE PUSH2 0x3F9 DUP2 PUSH2 0x3A6 JUMP JUMPDEST SWAP1 POP SWAP4 SWAP3 POP POP POP JUMP INVALID LOG2 PUSH5 0x6970667358 0x22 SLT KECCAK256 0xCA PUSH30 0xF95CA00F4990CEE8C45B521A71EE5D1EBA907458D7D3222BC89BE9F33B89 PUSH5 0x736F6C6343 STOP ADDMOD NOT STOP CALLER "
				},
				"gasEstimates": {
					"creation": {
						"codeDepositCost": "216000",
						"executionCost": "255",
						"totalCost": "216255"
					},
					"external": {
						"deposit()": "47078",
						"withdraw()": "infinite"
					}
				},
				"methodIdentifiers": {
					"deposit()": "d0e30db0",
					"withdraw()": "3ccfd60b"
				}
			},
			"storageLayout": {
				"storage": [
					{
						"astId": 3,
						"contract": "contracts/Savings.sol:savings",
						"label": "amount",
						"offset": 0,
						"slot": "0",
						"type": "t_uint256"
					},
					{
						"astId": 7,
						"contract": "contracts/Savings.sol:savings",
						"label": "balances",
						"offset": 0,
						"slot": "1",
						"type": "t_mapping(t_address,t_uint256)"
					},
					{
						"astId": 11,
						"contract": "contracts/Savings.sol:savings",
						"label": "lastDepositTime",
						"offset": 0,
						"slot": "2",
						"type": "t_mapping(t_address,t_uint256)"
					}
				],
				"types": {
					"t_address": {
						"encoding": "inplace",
						"label": "address",
						"numberOfBytes": "20"
					},
					"t_mapping(t_address,t_uint256)": {
						"encoding": "mapping",
						"key": "t_address",
						"label": "mapping(address => uint256)",
						"numberOfBytes": "32",
						"value": "t_uint256"
					},
					"t_uint256": {
						"encoding": "inplace",
						"label": "uint256",
						"numberOfBytes": "32"
					}
				}
			},
			"userdoc": {
				"kind": "user",
				"methods": {},
				"version": 1
			}
		}
	}
}