{
	"contracts/lecture12.sol": {
		"lecture12": {
			"abi": [
				{
					"inputs": [],
					"name": "addBalance",
					"outputs": [],
					"stateMutability": "payable",
					"type": "function"
				},
				{
					"inputs": [],
					"name": "contractBalance",
					"outputs": [
						{
							"internalType": "uint256",
							"name": "",
							"type": "uint256"
						}
					],
					"stateMutability": "view",
					"type": "function"
				},
				{
					"inputs": [
						{
							"internalType": "address",
							"name": "add",
							"type": "address"
						}
					],
					"name": "getCounter",
					"outputs": [
						{
							"internalType": "uint256",
							"name": "",
							"type": "uint256"
						}
					],
					"stateMutability": "view",
					"type": "function"
				}
			],
			"devdoc": {
				"kind": "dev",
				"methods": {},
				"version": 1
			},
			"evm": {
				"assembly": "    /* \"contracts/lecture12.sol\":70:850  contract lecture12{... */\n  mstore(0x40, 0x80)\n    /* \"contracts/lecture12.sol\":206:216  msg.sender */\n  caller\n    /* \"contracts/lecture12.sol\":190:216  address owner = msg.sender */\n  0x03\n  exp(0x0100, 0x00)\n  dup2\n  sload\n  dup2\n  0xffffffffffffffffffffffffffffffffffffffff\n  mul\n  not\n  and\n  swap1\n  dup4\n  0xffffffffffffffffffffffffffffffffffffffff\n  and\n  mul\n  or\n  swap1\n  sstore\n  pop\n    /* \"contracts/lecture12.sol\":70:850  contract lecture12{... */\n  callvalue\n  dup1\n  iszero\n  tag_1\n  jumpi\n  0x00\n  dup1\n  revert\ntag_1:\n  pop\n  dataSize(sub_0)\n  dup1\n  dataOffset(sub_0)\n  0x00\n  codecopy\n  0x00\n  return\nstop\n\nsub_0: assembly {\n        /* \"contracts/lecture12.sol\":70:850  contract lecture12{... */\n      mstore(0x40, 0x80)\n      jumpi(tag_1, lt(calldatasize, 0x04))\n      shr(0xe0, calldataload(0x00))\n      dup1\n      0x8b7afe2e\n      eq\n      tag_2\n      jumpi\n      dup1\n      0xb163cc38\n      eq\n      tag_3\n      jumpi\n      dup1\n      0xf07ec373\n      eq\n      tag_4\n      jumpi\n    tag_1:\n      0x00\n      dup1\n      revert\n        /* \"contracts/lecture12.sol\":222:249  uint public contractBalance */\n    tag_2:\n      callvalue\n      dup1\n      iszero\n      tag_5\n      jumpi\n      0x00\n      dup1\n      revert\n    tag_5:\n      pop\n      tag_6\n      tag_7\n      jump\t// in\n    tag_6:\n      mload(0x40)\n      tag_8\n      swap2\n      swap1\n      tag_9\n      jump\t// in\n    tag_8:\n      mload(0x40)\n      dup1\n      swap2\n      sub\n      swap1\n      return\n        /* \"contracts/lecture12.sol\":354:736  function addBalance() payable public {... */\n    tag_3:\n      tag_10\n      tag_11\n      jump\t// in\n    tag_10:\n      stop\n        /* \"contracts/lecture12.sol\":742:848  function getCounter(address add) public view onlyOwner returns (uint) {... */\n    tag_4:\n      callvalue\n      dup1\n      iszero\n      tag_12\n      jumpi\n      0x00\n      dup1\n      revert\n    tag_12:\n      pop\n      tag_13\n      0x04\n      dup1\n      calldatasize\n      sub\n      dup2\n      add\n      swap1\n      tag_14\n      swap2\n      swap1\n      tag_15\n      jump\t// in\n    tag_14:\n      tag_16\n      jump\t// in\n    tag_13:\n      mload(0x40)\n      tag_17\n      swap2\n      swap1\n      tag_9\n      jump\t// in\n    tag_17:\n      mload(0x40)\n      dup1\n      swap2\n      sub\n      swap1\n      return\n        /* \"contracts/lecture12.sol\":222:249  uint public contractBalance */\n    tag_7:\n      sload(0x04)\n      dup2\n      jump\t// out\n        /* \"contracts/lecture12.sol\":354:736  function addBalance() payable public {... */\n    tag_11:\n        /* \"contracts/lecture12.sol\":420:441  address(this).balance */\n      selfbalance\n        /* \"contracts/lecture12.sol\":402:417  contractBalance */\n      0x04\n        /* \"contracts/lecture12.sol\":402:441  contractBalance = address(this).balance */\n      dup2\n      swap1\n      sstore\n      pop\n        /* \"contracts/lecture12.sol\":522:529  2 ether */\n      0x1bc16d674ec80000\n        /* \"contracts/lecture12.sol\":509:518  msg.value */\n      callvalue\n        /* \"contracts/lecture12.sol\":509:529  msg.value >= 2 ether */\n      lt\n      iszero\n        /* \"contracts/lecture12.sol\":501:571  require(msg.value >= 2 ether, \"Value should be greater than 2 ethers\") */\n      tag_19\n      jumpi\n      mload(0x40)\n      0x08c379a000000000000000000000000000000000000000000000000000000000\n      dup2\n      mstore\n      0x04\n      add\n      tag_20\n      swap1\n      tag_21\n      jump\t// in\n    tag_20:\n      mload(0x40)\n      dup1\n      swap2\n      sub\n      swap1\n      revert\n    tag_19:\n        /* \"contracts/lecture12.sol\":608:616  10 ether */\n      0x8ac7230489e80000\n        /* \"contracts/lecture12.sol\":589:604  contractBalance */\n      sload(0x04)\n        /* \"contracts/lecture12.sol\":589:616  contractBalance <= 10 ether */\n      gt\n      iszero\n        /* \"contracts/lecture12.sol\":581:634  require(contractBalance <= 10 ether, \"Limit reached\") */\n      tag_22\n      jumpi\n      mload(0x40)\n      0x08c379a000000000000000000000000000000000000000000000000000000000\n      dup2\n      mstore\n      0x04\n      add\n      tag_23\n      swap1\n      tag_24\n      jump\t// in\n    tag_23:\n      mload(0x40)\n      dup1\n      swap2\n      sub\n      swap1\n      revert\n    tag_22:\n        /* \"contracts/lecture12.sol\":668:677  msg.value */\n      callvalue\n        /* \"contracts/lecture12.sol\":645:653  balances */\n      0x00\n        /* \"contracts/lecture12.sol\":645:665  balances[msg.sender] */\n      dup1\n        /* \"contracts/lecture12.sol\":654:664  msg.sender */\n      caller\n        /* \"contracts/lecture12.sol\":645:665  balances[msg.sender] */\n      0xffffffffffffffffffffffffffffffffffffffff\n      and\n      0xffffffffffffffffffffffffffffffffffffffff\n      and\n      dup2\n      mstore\n      0x20\n      add\n      swap1\n      dup2\n      mstore\n      0x20\n      add\n      0x00\n      keccak256\n        /* \"contracts/lecture12.sol\":645:677  balances[msg.sender] = msg.value */\n      dup2\n      swap1\n      sstore\n      pop\n        /* \"contracts/lecture12.sol\":709:714  count */\n      0x02\n      0x00\n        /* \"contracts/lecture12.sol\":709:716  count++ */\n      dup2\n      sload\n      dup1\n      swap3\n      swap2\n      swap1\n      tag_25\n      swap1\n      tag_26\n      jump\t// in\n    tag_25:\n      swap2\n      swap1\n      pop\n      sstore\n        /* \"contracts/lecture12.sol\":687:694  counter */\n      0x01\n        /* \"contracts/lecture12.sol\":687:706  counter[msg.sender] */\n      0x00\n        /* \"contracts/lecture12.sol\":695:705  msg.sender */\n      caller\n        /* \"contracts/lecture12.sol\":687:706  counter[msg.sender] */\n      0xffffffffffffffffffffffffffffffffffffffff\n      and\n      0xffffffffffffffffffffffffffffffffffffffff\n      and\n      dup2\n      mstore\n      0x20\n      add\n      swap1\n      dup2\n      mstore\n      0x20\n      add\n      0x00\n      keccak256\n        /* \"contracts/lecture12.sol\":687:716  counter[msg.sender] = count++ */\n      dup2\n      swap1\n      sstore\n      pop\n        /* \"contracts/lecture12.sol\":354:736  function addBalance() payable public {... */\n      jump\t// out\n        /* \"contracts/lecture12.sol\":742:848  function getCounter(address add) public view onlyOwner returns (uint) {... */\n    tag_16:\n        /* \"contracts/lecture12.sol\":806:810  uint */\n      0x00\n        /* \"contracts/lecture12.sol\":308:313  owner */\n      0x03\n      0x00\n      swap1\n      sload\n      swap1\n      0x0100\n      exp\n      swap1\n      div\n      0xffffffffffffffffffffffffffffffffffffffff\n      and\n        /* \"contracts/lecture12.sol\":294:313  msg.sender == owner */\n      0xffffffffffffffffffffffffffffffffffffffff\n      and\n        /* \"contracts/lecture12.sol\":294:304  msg.sender */\n      caller\n        /* \"contracts/lecture12.sol\":294:313  msg.sender == owner */\n      0xffffffffffffffffffffffffffffffffffffffff\n      and\n      eq\n        /* \"contracts/lecture12.sol\":286:330  require(msg.sender == owner, \"Not an owner\") */\n      tag_28\n      jumpi\n      mload(0x40)\n      0x08c379a000000000000000000000000000000000000000000000000000000000\n      dup2\n      mstore\n      0x04\n      add\n      tag_29\n      swap1\n      tag_30\n      jump\t// in\n    tag_29:\n      mload(0x40)\n      dup1\n      swap2\n      sub\n      swap1\n      revert\n    tag_28:\n        /* \"contracts/lecture12.sol\":829:836  counter */\n      0x01\n        /* \"contracts/lecture12.sol\":829:841  counter[add] */\n      0x00\n        /* \"contracts/lecture12.sol\":837:840  add */\n      dup4\n        /* \"contracts/lecture12.sol\":829:841  counter[add] */\n      0xffffffffffffffffffffffffffffffffffffffff\n      and\n      0xffffffffffffffffffffffffffffffffffffffff\n      and\n      dup2\n      mstore\n      0x20\n      add\n      swap1\n      dup2\n      mstore\n      0x20\n      add\n      0x00\n      keccak256\n      sload\n        /* \"contracts/lecture12.sol\":822:841  return counter[add] */\n      swap1\n      pop\n        /* \"contracts/lecture12.sol\":742:848  function getCounter(address add) public view onlyOwner returns (uint) {... */\n      swap2\n      swap1\n      pop\n      jump\t// out\n        /* \"#utility.yul\":7:84   */\n    tag_32:\n        /* \"#utility.yul\":44:51   */\n      0x00\n        /* \"#utility.yul\":73:78   */\n      dup2\n        /* \"#utility.yul\":62:78   */\n      swap1\n      pop\n        /* \"#utility.yul\":7:84   */\n      swap2\n      swap1\n      pop\n      jump\t// out\n        /* \"#utility.yul\":90:208   */\n    tag_33:\n        /* \"#utility.yul\":177:201   */\n      tag_52\n        /* \"#utility.yul\":195:200   */\n      dup2\n        /* \"#utility.yul\":177:201   */\n      tag_32\n      jump\t// in\n    tag_52:\n        /* \"#utility.yul\":172:175   */\n      dup3\n        /* \"#utility.yul\":165:202   */\n      mstore\n        /* \"#utility.yul\":90:208   */\n      pop\n      pop\n      jump\t// out\n        /* \"#utility.yul\":214:436   */\n    tag_9:\n        /* \"#utility.yul\":307:311   */\n      0x00\n        /* \"#utility.yul\":345:347   */\n      0x20\n        /* \"#utility.yul\":334:343   */\n      dup3\n        /* \"#utility.yul\":330:348   */\n      add\n        /* \"#utility.yul\":322:348   */\n      swap1\n      pop\n        /* \"#utility.yul\":358:429   */\n      tag_54\n        /* \"#utility.yul\":426:427   */\n      0x00\n        /* \"#utility.yul\":415:424   */\n      dup4\n        /* \"#utility.yul\":411:428   */\n      add\n        /* \"#utility.yul\":402:408   */\n      dup5\n        /* \"#utility.yul\":358:429   */\n      tag_33\n      jump\t// in\n    tag_54:\n        /* \"#utility.yul\":214:436   */\n      swap3\n      swap2\n      pop\n      pop\n      jump\t// out\n        /* \"#utility.yul\":523:640   */\n    tag_35:\n        /* \"#utility.yul\":632:633   */\n      0x00\n        /* \"#utility.yul\":629:630   */\n      dup1\n        /* \"#utility.yul\":622:634   */\n      revert\n        /* \"#utility.yul\":769:895   */\n    tag_37:\n        /* \"#utility.yul\":806:813   */\n      0x00\n        /* \"#utility.yul\":846:888   */\n      0xffffffffffffffffffffffffffffffffffffffff\n        /* \"#utility.yul\":839:844   */\n      dup3\n        /* \"#utility.yul\":835:889   */\n      and\n        /* \"#utility.yul\":824:889   */\n      swap1\n      pop\n        /* \"#utility.yul\":769:895   */\n      swap2\n      swap1\n      pop\n      jump\t// out\n        /* \"#utility.yul\":901:997   */\n    tag_38:\n        /* \"#utility.yul\":938:945   */\n      0x00\n        /* \"#utility.yul\":967:991   */\n      tag_60\n        /* \"#utility.yul\":985:990   */\n      dup3\n        /* \"#utility.yul\":967:991   */\n      tag_37\n      jump\t// in\n    tag_60:\n        /* \"#utility.yul\":956:991   */\n      swap1\n      pop\n        /* \"#utility.yul\":901:997   */\n      swap2\n      swap1\n      pop\n      jump\t// out\n        /* \"#utility.yul\":1003:1125   */\n    tag_39:\n        /* \"#utility.yul\":1076:1100   */\n      tag_62\n        /* \"#utility.yul\":1094:1099   */\n      dup2\n        /* \"#utility.yul\":1076:1100   */\n      tag_38\n      jump\t// in\n    tag_62:\n        /* \"#utility.yul\":1069:1074   */\n      dup2\n        /* \"#utility.yul\":1066:1101   */\n      eq\n        /* \"#utility.yul\":1056:1119   */\n      tag_63\n      jumpi\n        /* \"#utility.yul\":1115:1116   */\n      0x00\n        /* \"#utility.yul\":1112:1113   */\n      dup1\n        /* \"#utility.yul\":1105:1117   */\n      revert\n        /* \"#utility.yul\":1056:1119   */\n    tag_63:\n        /* \"#utility.yul\":1003:1125   */\n      pop\n      jump\t// out\n        /* \"#utility.yul\":1131:1270   */\n    tag_40:\n        /* \"#utility.yul\":1177:1182   */\n      0x00\n        /* \"#utility.yul\":1215:1221   */\n      dup2\n        /* \"#utility.yul\":1202:1222   */\n      calldataload\n        /* \"#utility.yul\":1193:1222   */\n      swap1\n      pop\n        /* \"#utility.yul\":1231:1264   */\n      tag_65\n        /* \"#utility.yul\":1258:1263   */\n      dup2\n        /* \"#utility.yul\":1231:1264   */\n      tag_39\n      jump\t// in\n    tag_65:\n        /* \"#utility.yul\":1131:1270   */\n      swap3\n      swap2\n      pop\n      pop\n      jump\t// out\n        /* \"#utility.yul\":1276:1605   */\n    tag_15:\n        /* \"#utility.yul\":1335:1341   */\n      0x00\n        /* \"#utility.yul\":1384:1386   */\n      0x20\n        /* \"#utility.yul\":1372:1381   */\n      dup3\n        /* \"#utility.yul\":1363:1370   */\n      dup5\n        /* \"#utility.yul\":1359:1382   */\n      sub\n        /* \"#utility.yul\":1355:1387   */\n      slt\n        /* \"#utility.yul\":1352:1471   */\n      iszero\n      tag_67\n      jumpi\n        /* \"#utility.yul\":1390:1469   */\n      tag_68\n      tag_35\n      jump\t// in\n    tag_68:\n        /* \"#utility.yul\":1352:1471   */\n    tag_67:\n        /* \"#utility.yul\":1510:1511   */\n      0x00\n        /* \"#utility.yul\":1535:1588   */\n      tag_69\n        /* \"#utility.yul\":1580:1587   */\n      dup5\n        /* \"#utility.yul\":1571:1577   */\n      dup3\n        /* \"#utility.yul\":1560:1569   */\n      dup6\n        /* \"#utility.yul\":1556:1578   */\n      add\n        /* \"#utility.yul\":1535:1588   */\n      tag_40\n      jump\t// in\n    tag_69:\n        /* \"#utility.yul\":1525:1588   */\n      swap2\n      pop\n        /* \"#utility.yul\":1481:1598   */\n      pop\n        /* \"#utility.yul\":1276:1605   */\n      swap3\n      swap2\n      pop\n      pop\n      jump\t// out\n        /* \"#utility.yul\":1611:1780   */\n    tag_41:\n        /* \"#utility.yul\":1695:1706   */\n      0x00\n        /* \"#utility.yul\":1729:1735   */\n      dup3\n        /* \"#utility.yul\":1724:1727   */\n      dup3\n        /* \"#utility.yul\":1717:1736   */\n      mstore\n        /* \"#utility.yul\":1769:1773   */\n      0x20\n        /* \"#utility.yul\":1764:1767   */\n      dup3\n        /* \"#utility.yul\":1760:1774   */\n      add\n        /* \"#utility.yul\":1745:1774   */\n      swap1\n      pop\n        /* \"#utility.yul\":1611:1780   */\n      swap3\n      swap2\n      pop\n      pop\n      jump\t// out\n        /* \"#utility.yul\":1786:2010   */\n    tag_42:\n        /* \"#utility.yul\":1926:1960   */\n      0x56616c75652073686f756c642062652067726561746572207468616e20322065\n        /* \"#utility.yul\":1922:1923   */\n      0x00\n        /* \"#utility.yul\":1914:1920   */\n      dup3\n        /* \"#utility.yul\":1910:1924   */\n      add\n        /* \"#utility.yul\":1903:1961   */\n      mstore\n        /* \"#utility.yul\":1995:2002   */\n      0x7468657273000000000000000000000000000000000000000000000000000000\n        /* \"#utility.yul\":1990:1992   */\n      0x20\n        /* \"#utility.yul\":1982:1988   */\n      dup3\n        /* \"#utility.yul\":1978:1993   */\n      add\n        /* \"#utility.yul\":1971:2003   */\n      mstore\n        /* \"#utility.yul\":1786:2010   */\n      pop\n      jump\t// out\n        /* \"#utility.yul\":2016:2382   */\n    tag_43:\n        /* \"#utility.yul\":2158:2161   */\n      0x00\n        /* \"#utility.yul\":2179:2246   */\n      tag_73\n        /* \"#utility.yul\":2243:2245   */\n      0x25\n        /* \"#utility.yul\":2238:2241   */\n      dup4\n        /* \"#utility.yul\":2179:2246   */\n      tag_41\n      jump\t// in\n    tag_73:\n        /* \"#utility.yul\":2172:2246   */\n      swap2\n      pop\n        /* \"#utility.yul\":2255:2348   */\n      tag_74\n        /* \"#utility.yul\":2344:2347   */\n      dup3\n        /* \"#utility.yul\":2255:2348   */\n      tag_42\n      jump\t// in\n    tag_74:\n        /* \"#utility.yul\":2373:2375   */\n      0x40\n        /* \"#utility.yul\":2368:2371   */\n      dup3\n        /* \"#utility.yul\":2364:2376   */\n      add\n        /* \"#utility.yul\":2357:2376   */\n      swap1\n      pop\n        /* \"#utility.yul\":2016:2382   */\n      swap2\n      swap1\n      pop\n      jump\t// out\n        /* \"#utility.yul\":2388:2807   */\n    tag_21:\n        /* \"#utility.yul\":2554:2558   */\n      0x00\n        /* \"#utility.yul\":2592:2594   */\n      0x20\n        /* \"#utility.yul\":2581:2590   */\n      dup3\n        /* \"#utility.yul\":2577:2595   */\n      add\n        /* \"#utility.yul\":2569:2595   */\n      swap1\n      pop\n        /* \"#utility.yul\":2641:2650   */\n      dup2\n        /* \"#utility.yul\":2635:2639   */\n      dup2\n        /* \"#utility.yul\":2631:2651   */\n      sub\n        /* \"#utility.yul\":2627:2628   */\n      0x00\n        /* \"#utility.yul\":2616:2625   */\n      dup4\n        /* \"#utility.yul\":2612:2629   */\n      add\n        /* \"#utility.yul\":2605:2652   */\n      mstore\n        /* \"#utility.yul\":2669:2800   */\n      tag_76\n        /* \"#utility.yul\":2795:2799   */\n      dup2\n        /* \"#utility.yul\":2669:2800   */\n      tag_43\n      jump\t// in\n    tag_76:\n        /* \"#utility.yul\":2661:2800   */\n      swap1\n      pop\n        /* \"#utility.yul\":2388:2807   */\n      swap2\n      swap1\n      pop\n      jump\t// out\n        /* \"#utility.yul\":2813:2976   */\n    tag_44:\n        /* \"#utility.yul\":2953:2968   */\n      0x4c696d6974207265616368656400000000000000000000000000000000000000\n        /* \"#utility.yul\":2949:2950   */\n      0x00\n        /* \"#utility.yul\":2941:2947   */\n      dup3\n        /* \"#utility.yul\":2937:2951   */\n      add\n        /* \"#utility.yul\":2930:2969   */\n      mstore\n        /* \"#utility.yul\":2813:2976   */\n      pop\n      jump\t// out\n        /* \"#utility.yul\":2982:3348   */\n    tag_45:\n        /* \"#utility.yul\":3124:3127   */\n      0x00\n        /* \"#utility.yul\":3145:3212   */\n      tag_79\n        /* \"#utility.yul\":3209:3211   */\n      0x0d\n        /* \"#utility.yul\":3204:3207   */\n      dup4\n        /* \"#utility.yul\":3145:3212   */\n      tag_41\n      jump\t// in\n    tag_79:\n        /* \"#utility.yul\":3138:3212   */\n      swap2\n      pop\n        /* \"#utility.yul\":3221:3314   */\n      tag_80\n        /* \"#utility.yul\":3310:3313   */\n      dup3\n        /* \"#utility.yul\":3221:3314   */\n      tag_44\n      jump\t// in\n    tag_80:\n        /* \"#utility.yul\":3339:3341   */\n      0x20\n        /* \"#utility.yul\":3334:3337   */\n      dup3\n        /* \"#utility.yul\":3330:3342   */\n      add\n        /* \"#utility.yul\":3323:3342   */\n      swap1\n      pop\n        /* \"#utility.yul\":2982:3348   */\n      swap2\n      swap1\n      pop\n      jump\t// out\n        /* \"#utility.yul\":3354:3773   */\n    tag_24:\n        /* \"#utility.yul\":3520:3524   */\n      0x00\n        /* \"#utility.yul\":3558:3560   */\n      0x20\n        /* \"#utility.yul\":3547:3556   */\n      dup3\n        /* \"#utility.yul\":3543:3561   */\n      add\n        /* \"#utility.yul\":3535:3561   */\n      swap1\n      pop\n        /* \"#utility.yul\":3607:3616   */\n      dup2\n        /* \"#utility.yul\":3601:3605   */\n      dup2\n        /* \"#utility.yul\":3597:3617   */\n      sub\n        /* \"#utility.yul\":3593:3594   */\n      0x00\n        /* \"#utility.yul\":3582:3591   */\n      dup4\n        /* \"#utility.yul\":3578:3595   */\n      add\n        /* \"#utility.yul\":3571:3618   */\n      mstore\n        /* \"#utility.yul\":3635:3766   */\n      tag_82\n        /* \"#utility.yul\":3761:3765   */\n      dup2\n        /* \"#utility.yul\":3635:3766   */\n      tag_45\n      jump\t// in\n    tag_82:\n        /* \"#utility.yul\":3627:3766   */\n      swap1\n      pop\n        /* \"#utility.yul\":3354:3773   */\n      swap2\n      swap1\n      pop\n      jump\t// out\n        /* \"#utility.yul\":3779:3959   */\n    tag_46:\n        /* \"#utility.yul\":3827:3904   */\n      0x4e487b7100000000000000000000000000000000000000000000000000000000\n        /* \"#utility.yul\":3824:3825   */\n      0x00\n        /* \"#utility.yul\":3817:3905   */\n      mstore\n        /* \"#utility.yul\":3924:3928   */\n      0x11\n        /* \"#utility.yul\":3921:3922   */\n      0x04\n        /* \"#utility.yul\":3914:3929   */\n      mstore\n        /* \"#utility.yul\":3948:3952   */\n      0x24\n        /* \"#utility.yul\":3945:3946   */\n      0x00\n        /* \"#utility.yul\":3938:3953   */\n      revert\n        /* \"#utility.yul\":3965:4198   */\n    tag_26:\n        /* \"#utility.yul\":4004:4007   */\n      0x00\n        /* \"#utility.yul\":4027:4051   */\n      tag_85\n        /* \"#utility.yul\":4045:4050   */\n      dup3\n        /* \"#utility.yul\":4027:4051   */\n      tag_32\n      jump\t// in\n    tag_85:\n        /* \"#utility.yul\":4018:4051   */\n      swap2\n      pop\n        /* \"#utility.yul\":4073:4139   */\n      0xffffffffffffffffffffffffffffffffffffffffffffffffffffffffffffffff\n        /* \"#utility.yul\":4066:4071   */\n      dup3\n        /* \"#utility.yul\":4063:4140   */\n      sub\n        /* \"#utility.yul\":4060:4163   */\n      tag_86\n      jumpi\n        /* \"#utility.yul\":4143:4161   */\n      tag_87\n      tag_46\n      jump\t// in\n    tag_87:\n        /* \"#utility.yul\":4060:4163   */\n    tag_86:\n        /* \"#utility.yul\":4190:4191   */\n      0x01\n        /* \"#utility.yul\":4183:4188   */\n      dup3\n        /* \"#utility.yul\":4179:4192   */\n      add\n        /* \"#utility.yul\":4172:4192   */\n      swap1\n      pop\n        /* \"#utility.yul\":3965:4198   */\n      swap2\n      swap1\n      pop\n      jump\t// out\n        /* \"#utility.yul\":4204:4366   */\n    tag_47:\n        /* \"#utility.yul\":4344:4358   */\n      0x4e6f7420616e206f776e65720000000000000000000000000000000000000000\n        /* \"#utility.yul\":4340:4341   */\n      0x00\n        /* \"#utility.yul\":4332:4338   */\n      dup3\n        /* \"#utility.yul\":4328:4342   */\n      add\n        /* \"#utility.yul\":4321:4359   */\n      mstore\n        /* \"#utility.yul\":4204:4366   */\n      pop\n      jump\t// out\n        /* \"#utility.yul\":4372:4738   */\n    tag_48:\n        /* \"#utility.yul\":4514:4517   */\n      0x00\n        /* \"#utility.yul\":4535:4602   */\n      tag_90\n        /* \"#utility.yul\":4599:4601   */\n      0x0c\n        /* \"#utility.yul\":4594:4597   */\n      dup4\n        /* \"#utility.yul\":4535:4602   */\n      tag_41\n      jump\t// in\n    tag_90:\n        /* \"#utility.yul\":4528:4602   */\n      swap2\n      pop\n        /* \"#utility.yul\":4611:4704   */\n      tag_91\n        /* \"#utility.yul\":4700:4703   */\n      dup3\n        /* \"#utility.yul\":4611:4704   */\n      tag_47\n      jump\t// in\n    tag_91:\n        /* \"#utility.yul\":4729:4731   */\n      0x20\n        /* \"#utility.yul\":4724:4727   */\n      dup3\n        /* \"#utility.yul\":4720:4732   */\n      add\n        /* \"#utility.yul\":4713:4732   */\n      swap1\n      pop\n        /* \"#utility.yul\":4372:4738   */\n      swap2\n      swap1\n      pop\n      jump\t// out\n        /* \"#utility.yul\":4744:5163   */\n    tag_30:\n        /* \"#utility.yul\":4910:4914   */\n      0x00\n        /* \"#utility.yul\":4948:4950   */\n      0x20\n        /* \"#utility.yul\":4937:4946   */\n      dup3\n        /* \"#utility.yul\":4933:4951   */\n      add\n        /* \"#utility.yul\":4925:4951   */\n      swap1\n      pop\n        /* \"#utility.yul\":4997:5006   */\n      dup2\n        /* \"#utility.yul\":4991:4995   */\n      dup2\n        /* \"#utility.yul\":4987:5007   */\n      sub\n        /* \"#utility.yul\":4983:4984   */\n      0x00\n        /* \"#utility.yul\":4972:4981   */\n      dup4\n        /* \"#utility.yul\":4968:4985   */\n      add\n        /* \"#utility.yul\":4961:5008   */\n      mstore\n        /* \"#utility.yul\":5025:5156   */\n      tag_93\n        /* \"#utility.yul\":5151:5155   */\n      dup2\n        /* \"#utility.yul\":5025:5156   */\n      tag_48\n      jump\t// in\n    tag_93:\n        /* \"#utility.yul\":5017:5156   */\n      swap1\n      pop\n        /* \"#utility.yul\":4744:5163   */\n      swap2\n      swap1\n      pop\n      jump\t// out\n\n    auxdata: 0xa26469706673582212206e9fb7c1887e0f4cbfd3f79ebf36aefdb6ceb17b850253755172655b85cd6aa564736f6c63430008190033\n}\n",
				"bytecode": {
					"linkReferences": {},
					"object": "60806040523360035f6101000a81548173ffffffffffffffffffffffffffffffffffffffff021916908373ffffffffffffffffffffffffffffffffffffffff160217905550348015604e575f80fd5b5061058d8061005c5f395ff3fe608060405260043610610033575f3560e01c80638b7afe2e14610037578063b163cc3814610061578063f07ec3731461006b575b5f80fd5b348015610042575f80fd5b5061004b6100a7565b60405161005891906102d3565b60405180910390f35b6100696100ad565b005b348015610076575f80fd5b50610091600480360381019061008c919061034a565b6101e6565b60405161009e91906102d3565b60405180910390f35b60045481565b47600481905550671bc16d674ec800003410156100ff576040517f08c379a00000000000000000000000000000000000000000000000000000000081526004016100f6906103f5565b60405180910390fd5b678ac7230489e80000600454111561014c576040517f08c379a00000000000000000000000000000000000000000000000000000000081526004016101439061045d565b60405180910390fd5b345f803373ffffffffffffffffffffffffffffffffffffffff1673ffffffffffffffffffffffffffffffffffffffff1681526020019081526020015f208190555060025f81548092919061019f906104a8565b9190505560015f3373ffffffffffffffffffffffffffffffffffffffff1673ffffffffffffffffffffffffffffffffffffffff1681526020019081526020015f2081905550565b5f60035f9054906101000a900473ffffffffffffffffffffffffffffffffffffffff1673ffffffffffffffffffffffffffffffffffffffff163373ffffffffffffffffffffffffffffffffffffffff1614610276576040517f08c379a000000000000000000000000000000000000000000000000000000000815260040161026d90610539565b60405180910390fd5b60015f8373ffffffffffffffffffffffffffffffffffffffff1673ffffffffffffffffffffffffffffffffffffffff1681526020019081526020015f20549050919050565b5f819050919050565b6102cd816102bb565b82525050565b5f6020820190506102e65f8301846102c4565b92915050565b5f80fd5b5f73ffffffffffffffffffffffffffffffffffffffff82169050919050565b5f610319826102f0565b9050919050565b6103298161030f565b8114610333575f80fd5b50565b5f8135905061034481610320565b92915050565b5f6020828403121561035f5761035e6102ec565b5b5f61036c84828501610336565b91505092915050565b5f82825260208201905092915050565b7f56616c75652073686f756c642062652067726561746572207468616e203220655f8201527f7468657273000000000000000000000000000000000000000000000000000000602082015250565b5f6103df602583610375565b91506103ea82610385565b604082019050919050565b5f6020820190508181035f83015261040c816103d3565b9050919050565b7f4c696d69742072656163686564000000000000000000000000000000000000005f82015250565b5f610447600d83610375565b915061045282610413565b602082019050919050565b5f6020820190508181035f8301526104748161043b565b9050919050565b7f4e487b71000000000000000000000000000000000000000000000000000000005f52601160045260245ffd5b5f6104b2826102bb565b91507fffffffffffffffffffffffffffffffffffffffffffffffffffffffffffffffff82036104e4576104e361047b565b5b600182019050919050565b7f4e6f7420616e206f776e657200000000000000000000000000000000000000005f82015250565b5f610523600c83610375565b915061052e826104ef565b602082019050919050565b5f6020820190508181035f83015261055081610517565b905091905056fea26469706673582212206e9fb7c1887e0f4cbfd3f79ebf36aefdb6ceb17b850253755172655b85cd6aa564736f6c63430008190033",
					"opcodes": "PUSH1 0x80 PUSH1 0x40 MSTORE CALLER PUSH1 0x3 PUSH0 PUSH2 0x100 EXP DUP2 SLOAD DUP2 PUSH20 0xFFFFFFFFFFFFFFFFFFFFFFFFFFFFFFFFFFFFFFFF MUL NOT AND SWAP1 DUP4 PUSH20 0xFFFFFFFFFFFFFFFFFFFFFFFFFFFFFFFFFFFFFFFF AND MUL OR SWAP1 SSTORE POP CALLVALUE DUP1 ISZERO PUSH1 0x4E JUMPI PUSH0 DUP1 REVERT JUMPDEST POP PUSH2 0x58D DUP1 PUSH2 0x5C PUSH0 CODECOPY PUSH0 RETURN INVALID PUSH1 0x80 PUSH1 0x40 MSTORE PUSH1 0x4 CALLDATASIZE LT PUSH2 0x33 JUMPI PUSH0 CALLDATALOAD PUSH1 0xE0 SHR DUP1 PUSH4 0x8B7AFE2E EQ PUSH2 0x37 JUMPI DUP1 PUSH4 0xB163CC38 EQ PUSH2 0x61 JUMPI DUP1 PUSH4 0xF07EC373 EQ PUSH2 0x6B JUMPI JUMPDEST PUSH0 DUP1 REVERT JUMPDEST CALLVALUE DUP1 ISZERO PUSH2 0x42 JUMPI PUSH0 DUP1 REVERT JUMPDEST POP PUSH2 0x4B PUSH2 0xA7 JUMP JUMPDEST PUSH1 0x40 MLOAD PUSH2 0x58 SWAP2 SWAP1 PUSH2 0x2D3 JUMP JUMPDEST PUSH1 0x40 MLOAD DUP1 SWAP2 SUB SWAP1 RETURN JUMPDEST PUSH2 0x69 PUSH2 0xAD JUMP JUMPDEST STOP JUMPDEST CALLVALUE DUP1 ISZERO PUSH2 0x76 JUMPI PUSH0 DUP1 REVERT JUMPDEST POP PUSH2 0x91 PUSH1 0x4 DUP1 CALLDATASIZE SUB DUP2 ADD SWAP1 PUSH2 0x8C SWAP2 SWAP1 PUSH2 0x34A JUMP JUMPDEST PUSH2 0x1E6 JUMP JUMPDEST PUSH1 0x40 MLOAD PUSH2 0x9E SWAP2 SWAP1 PUSH2 0x2D3 JUMP JUMPDEST PUSH1 0x40 MLOAD DUP1 SWAP2 SUB SWAP1 RETURN JUMPDEST PUSH1 0x4 SLOAD DUP2 JUMP JUMPDEST SELFBALANCE PUSH1 0x4 DUP2 SWAP1 SSTORE POP PUSH8 0x1BC16D674EC80000 CALLVALUE LT ISZERO PUSH2 0xFF JUMPI PUSH1 0x40 MLOAD PUSH32 0x8C379A000000000000000000000000000000000000000000000000000000000 DUP2 MSTORE PUSH1 0x4 ADD PUSH2 0xF6 SWAP1 PUSH2 0x3F5 JUMP JUMPDEST PUSH1 0x40 MLOAD DUP1 SWAP2 SUB SWAP1 REVERT JUMPDEST PUSH8 0x8AC7230489E80000 PUSH1 0x4 SLOAD GT ISZERO PUSH2 0x14C JUMPI PUSH1 0x40 MLOAD PUSH32 0x8C379A000000000000000000000000000000000000000000000000000000000 DUP2 MSTORE PUSH1 0x4 ADD PUSH2 0x143 SWAP1 PUSH2 0x45D JUMP JUMPDEST PUSH1 0x40 MLOAD DUP1 SWAP2 SUB SWAP1 REVERT JUMPDEST CALLVALUE PUSH0 DUP1 CALLER PUSH20 0xFFFFFFFFFFFFFFFFFFFFFFFFFFFFFFFFFFFFFFFF AND PUSH20 0xFFFFFFFFFFFFFFFFFFFFFFFFFFFFFFFFFFFFFFFF AND DUP2 MSTORE PUSH1 0x20 ADD SWAP1 DUP2 MSTORE PUSH1 0x20 ADD PUSH0 KECCAK256 DUP2 SWAP1 SSTORE POP PUSH1 0x2 PUSH0 DUP2 SLOAD DUP1 SWAP3 SWAP2 SWAP1 PUSH2 0x19F SWAP1 PUSH2 0x4A8 JUMP JUMPDEST SWAP2 SWAP1 POP SSTORE PUSH1 0x1 PUSH0 CALLER PUSH20 0xFFFFFFFFFFFFFFFFFFFFFFFFFFFFFFFFFFFFFFFF AND PUSH20 0xFFFFFFFFFFFFFFFFFFFFFFFFFFFFFFFFFFFFFFFF AND DUP2 MSTORE PUSH1 0x20 ADD SWAP1 DUP2 MSTORE PUSH1 0x20 ADD PUSH0 KECCAK256 DUP2 SWAP1 SSTORE POP JUMP JUMPDEST PUSH0 PUSH1 0x3 PUSH0 SWAP1 SLOAD SWAP1 PUSH2 0x100 EXP SWAP1 DIV PUSH20 0xFFFFFFFFFFFFFFFFFFFFFFFFFFFFFFFFFFFFFFFF AND PUSH20 0xFFFFFFFFFFFFFFFFFFFFFFFFFFFFFFFFFFFFFFFF AND CALLER PUSH20 0xFFFFFFFFFFFFFFFFFFFFFFFFFFFFFFFFFFFFFFFF AND EQ PUSH2 0x276 JUMPI PUSH1 0x40 MLOAD PUSH32 0x8C379A000000000000000000000000000000000000000000000000000000000 DUP2 MSTORE PUSH1 0x4 ADD PUSH2 0x26D SWAP1 PUSH2 0x539 JUMP JUMPDEST PUSH1 0x40 MLOAD DUP1 SWAP2 SUB SWAP1 REVERT JUMPDEST PUSH1 0x1 PUSH0 DUP4 PUSH20 0xFFFFFFFFFFFFFFFFFFFFFFFFFFFFFFFFFFFFFFFF AND PUSH20 0xFFFFFFFFFFFFFFFFFFFFFFFFFFFFFFFFFFFFFFFF AND DUP2 MSTORE PUSH1 0x20 ADD SWAP1 DUP2 MSTORE PUSH1 0x20 ADD PUSH0 KECCAK256 SLOAD SWAP1 POP SWAP2 SWAP1 POP JUMP JUMPDEST PUSH0 DUP2 SWAP1 POP SWAP2 SWAP1 POP JUMP JUMPDEST PUSH2 0x2CD DUP2 PUSH2 0x2BB JUMP JUMPDEST DUP3 MSTORE POP POP JUMP JUMPDEST PUSH0 PUSH1 0x20 DUP3 ADD SWAP1 POP PUSH2 0x2E6 PUSH0 DUP4 ADD DUP5 PUSH2 0x2C4 JUMP JUMPDEST SWAP3 SWAP2 POP POP JUMP JUMPDEST PUSH0 DUP1 REVERT JUMPDEST PUSH0 PUSH20 0xFFFFFFFFFFFFFFFFFFFFFFFFFFFFFFFFFFFFFFFF DUP3 AND SWAP1 POP SWAP2 SWAP1 POP JUMP JUMPDEST PUSH0 PUSH2 0x319 DUP3 PUSH2 0x2F0 JUMP JUMPDEST SWAP1 POP SWAP2 SWAP1 POP JUMP JUMPDEST PUSH2 0x329 DUP2 PUSH2 0x30F JUMP JUMPDEST DUP2 EQ PUSH2 0x333 JUMPI PUSH0 DUP1 REVERT JUMPDEST POP JUMP JUMPDEST PUSH0 DUP2 CALLDATALOAD SWAP1 POP PUSH2 0x344 DUP2 PUSH2 0x320 JUMP JUMPDEST SWAP3 SWAP2 POP POP JUMP JUMPDEST PUSH0 PUSH1 0x20 DUP3 DUP5 SUB SLT ISZERO PUSH2 0x35F JUMPI PUSH2 0x35E PUSH2 0x2EC JUMP JUMPDEST JUMPDEST PUSH0 PUSH2 0x36C DUP5 DUP3 DUP6 ADD PUSH2 0x336 JUMP JUMPDEST SWAP2 POP POP SWAP3 SWAP2 POP POP JUMP JUMPDEST PUSH0 DUP3 DUP3 MSTORE PUSH1 0x20 DUP3 ADD SWAP1 POP SWAP3 SWAP2 POP POP JUMP JUMPDEST PUSH32 0x56616C75652073686F756C642062652067726561746572207468616E20322065 PUSH0 DUP3 ADD MSTORE PUSH32 0x7468657273000000000000000000000000000000000000000000000000000000 PUSH1 0x20 DUP3 ADD MSTORE POP JUMP JUMPDEST PUSH0 PUSH2 0x3DF PUSH1 0x25 DUP4 PUSH2 0x375 JUMP JUMPDEST SWAP2 POP PUSH2 0x3EA DUP3 PUSH2 0x385 JUMP JUMPDEST PUSH1 0x40 DUP3 ADD SWAP1 POP SWAP2 SWAP1 POP JUMP JUMPDEST PUSH0 PUSH1 0x20 DUP3 ADD SWAP1 POP DUP2 DUP2 SUB PUSH0 DUP4 ADD MSTORE PUSH2 0x40C DUP2 PUSH2 0x3D3 JUMP JUMPDEST SWAP1 POP SWAP2 SWAP1 POP JUMP JUMPDEST PUSH32 0x4C696D6974207265616368656400000000000000000000000000000000000000 PUSH0 DUP3 ADD MSTORE POP JUMP JUMPDEST PUSH0 PUSH2 0x447 PUSH1 0xD DUP4 PUSH2 0x375 JUMP JUMPDEST SWAP2 POP PUSH2 0x452 DUP3 PUSH2 0x413 JUMP JUMPDEST PUSH1 0x20 DUP3 ADD SWAP1 POP SWAP2 SWAP1 POP JUMP JUMPDEST PUSH0 PUSH1 0x20 DUP3 ADD SWAP1 POP DUP2 DUP2 SUB PUSH0 DUP4 ADD MSTORE PUSH2 0x474 DUP2 PUSH2 0x43B JUMP JUMPDEST SWAP1 POP SWAP2 SWAP1 POP JUMP JUMPDEST PUSH32 0x4E487B7100000000000000000000000000000000000000000000000000000000 PUSH0 MSTORE PUSH1 0x11 PUSH1 0x4 MSTORE PUSH1 0x24 PUSH0 REVERT JUMPDEST PUSH0 PUSH2 0x4B2 DUP3 PUSH2 0x2BB JUMP JUMPDEST SWAP2 POP PUSH32 0xFFFFFFFFFFFFFFFFFFFFFFFFFFFFFFFFFFFFFFFFFFFFFFFFFFFFFFFFFFFFFFFF DUP3 SUB PUSH2 0x4E4 JUMPI PUSH2 0x4E3 PUSH2 0x47B JUMP JUMPDEST JUMPDEST PUSH1 0x1 DUP3 ADD SWAP1 POP SWAP2 SWAP1 POP JUMP JUMPDEST PUSH32 0x4E6F7420616E206F776E65720000000000000000000000000000000000000000 PUSH0 DUP3 ADD MSTORE POP JUMP JUMPDEST PUSH0 PUSH2 0x523 PUSH1 0xC DUP4 PUSH2 0x375 JUMP JUMPDEST SWAP2 POP PUSH2 0x52E DUP3 PUSH2 0x4EF JUMP JUMPDEST PUSH1 0x20 DUP3 ADD SWAP1 POP SWAP2 SWAP1 POP JUMP JUMPDEST PUSH0 PUSH1 0x20 DUP3 ADD SWAP1 POP DUP2 DUP2 SUB PUSH0 DUP4 ADD MSTORE PUSH2 0x550 DUP2 PUSH2 0x517 JUMP JUMPDEST SWAP1 POP SWAP2 SWAP1 POP JUMP INVALID LOG2 PUSH5 0x6970667358 0x22 SLT KECCAK256 PUSH15 0x9FB7C1887E0F4CBFD3F79EBF36AEFD 0xB6 0xCE 0xB1 PUSH28 0x850253755172655B85CD6AA564736F6C634300081900330000000000 "
				},
				"gasEstimates": {
					"creation": {
						"codeDepositCost": "284200",
						"executionCost": "24587",
						"totalCost": "308787"
					},
					"external": {
						"addBalance()": "93136",
						"contractBalance()": "2403",
						"getCounter(address)": "5020"
					}
				},
				"methodIdentifiers": {
					"addBalance()": "b163cc38",
					"contractBalance()": "8b7afe2e",
					"getCounter(address)": "f07ec373"
				}
			},
			"storageLayout": {
				"storage": [
					{
						"astId": 5,
						"contract": "contracts/lecture12.sol:lecture12",
						"label": "balances",
						"offset": 0,
						"slot": "0",
						"type": "t_mapping(t_address,t_uint256)"
					},
					{
						"astId": 9,
						"contract": "contracts/lecture12.sol:lecture12",
						"label": "counter",
						"offset": 0,
						"slot": "1",
						"type": "t_mapping(t_address,t_uint256)"
					},
					{
						"astId": 11,
						"contract": "contracts/lecture12.sol:lecture12",
						"label": "count",
						"offset": 0,
						"slot": "2",
						"type": "t_uint256"
					},
					{
						"astId": 15,
						"contract": "contracts/lecture12.sol:lecture12",
						"label": "owner",
						"offset": 0,
						"slot": "3",
						"type": "t_address"
					},
					{
						"astId": 17,
						"contract": "contracts/lecture12.sol:lecture12",
						"label": "contractBalance",
						"offset": 0,
						"slot": "4",
						"type": "t_uint256"
					}
				],
				"types": {
					"t_address": {
						"encoding": "inplace",
						"label": "address",
						"numberOfBytes": "20"
					},
					"t_mapping(t_address,t_uint256)": {
						"encoding": "mapping",
						"key": "t_address",
						"label": "mapping(address => uint256)",
						"numberOfBytes": "32",
						"value": "t_uint256"
					},
					"t_uint256": {
						"encoding": "inplace",
						"label": "uint256",
						"numberOfBytes": "32"
					}
				}
			},
			"userdoc": {
				"kind": "user",
				"methods": {},
				"version": 1
			}
		}
	}
}