{
	"contracts/sample.sol": {
		"ownable": {
			"abi": [
				{
					"inputs": [],
					"stateMutability": "nonpayable",
					"type": "constructor"
				},
				{
					"inputs": [
						{
							"internalType": "uint256",
							"name": "",
							"type": "uint256"
						}
					],
					"name": "arr",
					"outputs": [
						{
							"internalType": "uint256",
							"name": "",
							"type": "uint256"
						}
					],
					"stateMutability": "view",
					"type": "function"
				},
				{
					"inputs": [
						{
							"internalType": "uint256",
							"name": "",
							"type": "uint256"
						}
					],
					"name": "arr2",
					"outputs": [
						{
							"internalType": "uint256",
							"name": "",
							"type": "uint256"
						}
					],
					"stateMutability": "view",
					"type": "function"
				},
				{
					"inputs": [],
					"name": "array",
					"outputs": [
						{
							"internalType": "uint256",
							"name": "",
							"type": "uint256"
						}
					],
					"stateMutability": "nonpayable",
					"type": "function"
				},
				{
					"inputs": [
						{
							"internalType": "uint256",
							"name": "_x",
							"type": "uint256"
						}
					],
					"name": "arrayWithLoop",
					"outputs": [],
					"stateMutability": "nonpayable",
					"type": "function"
				},
				{
					"inputs": [],
					"name": "createArray",
					"outputs": [
						{
							"internalType": "uint256",
							"name": "",
							"type": "uint256"
						}
					],
					"stateMutability": "pure",
					"type": "function"
				},
				{
					"inputs": [],
					"name": "loop",
					"outputs": [
						{
							"internalType": "uint256",
							"name": "",
							"type": "uint256"
						}
					],
					"stateMutability": "pure",
					"type": "function"
				},
				{
					"inputs": [],
					"name": "owner",
					"outputs": [
						{
							"internalType": "address",
							"name": "",
							"type": "address"
						}
					],
					"stateMutability": "view",
					"type": "function"
				},
				{
					"inputs": [],
					"name": "returnArray",
					"outputs": [
						{
							"internalType": "uint256[5]",
							"name": "",
							"type": "uint256[5]"
						}
					],
					"stateMutability": "view",
					"type": "function"
				},
				{
					"inputs": [
						{
							"internalType": "address",
							"name": "_newOwner",
							"type": "address"
						}
					],
					"name": "setOwner",
					"outputs": [],
					"stateMutability": "nonpayable",
					"type": "function"
				}
			],
			"devdoc": {
				"kind": "dev",
				"methods": {},
				"version": 1
			},
			"evm": {
				"assembly": "    /* \"contracts/sample.sol\":70:1514  contract ownable {... */\n  mstore(0x40, 0x80)\n    /* \"contracts/sample.sol\":120:152  uint[5] public arr = [1,2,3,4,5] */\n  mload(0x40)\n  dup1\n  0xa0\n  add\n  0x40\n  mstore\n  dup1\n    /* \"contracts/sample.sol\":142:143  1 */\n  0x01\n    /* \"contracts/sample.sol\":120:152  uint[5] public arr = [1,2,3,4,5] */\n  0xff\n  and\n  dup2\n  mstore\n  0x20\n  add\n    /* \"contracts/sample.sol\":144:145  2 */\n  0x02\n    /* \"contracts/sample.sol\":120:152  uint[5] public arr = [1,2,3,4,5] */\n  0xff\n  and\n  dup2\n  mstore\n  0x20\n  add\n    /* \"contracts/sample.sol\":146:147  3 */\n  0x03\n    /* \"contracts/sample.sol\":120:152  uint[5] public arr = [1,2,3,4,5] */\n  0xff\n  and\n  dup2\n  mstore\n  0x20\n  add\n    /* \"contracts/sample.sol\":148:149  4 */\n  0x04\n    /* \"contracts/sample.sol\":120:152  uint[5] public arr = [1,2,3,4,5] */\n  0xff\n  and\n  dup2\n  mstore\n  0x20\n  add\n    /* \"contracts/sample.sol\":150:151  5 */\n  0x05\n    /* \"contracts/sample.sol\":120:152  uint[5] public arr = [1,2,3,4,5] */\n  0xff\n  and\n  dup2\n  mstore\n  pop\n  0x01\n  swap1\n  0x05\n  tag_1\n  swap3\n  swap2\n  swap1\n  tag_2\n  jump\t// in\ntag_1:\n  pop\n    /* \"contracts/sample.sol\":184:265  constructor(){... */\n  callvalue\n  dup1\n  iszero\n  tag_3\n  jumpi\n  0x00\n  dup1\n  revert\ntag_3:\n  pop\n    /* \"contracts/sample.sol\":215:225  msg.sender */\n  caller\n    /* \"contracts/sample.sol\":207:212  owner */\n  0x00\n  dup1\n    /* \"contracts/sample.sol\":207:225  owner = msg.sender */\n  0x0100\n  exp\n  dup2\n  sload\n  dup2\n  0xffffffffffffffffffffffffffffffffffffffff\n  mul\n  not\n  and\n  swap1\n  dup4\n  0xffffffffffffffffffffffffffffffffffffffff\n  and\n  mul\n  or\n  swap1\n  sstore\n  pop\n    /* \"contracts/sample.sol\":235:258  arr2 = [10,20,30,40,50] */\n  mload(0x40)\n  dup1\n  0xa0\n  add\n  0x40\n  mstore\n  dup1\n    /* \"contracts/sample.sol\":243:245  10 */\n  0x0a\n    /* \"contracts/sample.sol\":235:258  arr2 = [10,20,30,40,50] */\n  0xff\n  and\n  dup2\n  mstore\n  0x20\n  add\n    /* \"contracts/sample.sol\":246:248  20 */\n  0x14\n    /* \"contracts/sample.sol\":235:258  arr2 = [10,20,30,40,50] */\n  0xff\n  and\n  dup2\n  mstore\n  0x20\n  add\n    /* \"contracts/sample.sol\":249:251  30 */\n  0x1e\n    /* \"contracts/sample.sol\":235:258  arr2 = [10,20,30,40,50] */\n  0xff\n  and\n  dup2\n  mstore\n  0x20\n  add\n    /* \"contracts/sample.sol\":252:254  40 */\n  0x28\n    /* \"contracts/sample.sol\":235:258  arr2 = [10,20,30,40,50] */\n  0xff\n  and\n  dup2\n  mstore\n  0x20\n  add\n    /* \"contracts/sample.sol\":255:257  50 */\n  0x32\n    /* \"contracts/sample.sol\":235:258  arr2 = [10,20,30,40,50] */\n  0xff\n  and\n  dup2\n  mstore\n  pop\n    /* \"contracts/sample.sol\":235:239  arr2 */\n  0x06\n    /* \"contracts/sample.sol\":235:258  arr2 = [10,20,30,40,50] */\n  swap1\n  0x05\n  tag_6\n  swap3\n  swap2\n  swap1\n  tag_2\n  jump\t// in\ntag_6:\n  pop\n    /* \"contracts/sample.sol\":70:1514  contract ownable {... */\n  jump(tag_7)\ntag_2:\n  dup3\n  0x05\n  dup2\n  add\n  swap3\n  dup3\n  iszero\n  tag_8\n  jumpi\n  swap2\n  0x20\n  mul\n  dup3\n  add\ntag_9:\n  dup3\n  dup2\n  gt\n  iszero\n  tag_10\n  jumpi\n  dup3\n  mload\n  dup3\n  swap1\n  0xff\n  and\n  swap1\n  sstore\n  swap2\n  0x20\n  add\n  swap2\n  swap1\n  0x01\n  add\n  swap1\n  jump(tag_9)\ntag_10:\ntag_8:\n  pop\n  swap1\n  pop\n  tag_11\n  swap2\n  swap1\n  tag_12\n  jump\t// in\ntag_11:\n  pop\n  swap1\n  jump\t// out\ntag_12:\ntag_13:\n  dup1\n  dup3\n  gt\n  iszero\n  tag_14\n  jumpi\n  0x00\n  dup2\n  0x00\n  swap1\n  sstore\n  pop\n  0x01\n  add\n  jump(tag_13)\ntag_14:\n  pop\n  swap1\n  jump\t// out\ntag_7:\n  dataSize(sub_0)\n  dup1\n  dataOffset(sub_0)\n  0x00\n  codecopy\n  0x00\n  return\nstop\n\nsub_0: assembly {\n        /* \"contracts/sample.sol\":70:1514  contract ownable {... */\n      mstore(0x40, 0x80)\n      callvalue\n      dup1\n      iszero\n      tag_1\n      jumpi\n      0x00\n      dup1\n      revert\n    tag_1:\n      pop\n      jumpi(tag_2, lt(calldatasize, 0x04))\n      shr(0xe0, calldataload(0x00))\n      dup1\n      0x71e5ee5f\n      gt\n      tag_12\n      jumpi\n      dup1\n      0x71e5ee5f\n      eq\n      tag_7\n      jumpi\n      dup1\n      0x8da5cb5b\n      eq\n      tag_8\n      jumpi\n      dup1\n      0xa92100cb\n      eq\n      tag_9\n      jumpi\n      dup1\n      0xb0ec2ae1\n      eq\n      tag_10\n      jumpi\n      dup1\n      0xedf0099b\n      eq\n      tag_11\n      jumpi\n      jump(tag_2)\n    tag_12:\n      dup1\n      0x13af4035\n      eq\n      tag_3\n      jumpi\n      dup1\n      0x38469409\n      eq\n      tag_4\n      jumpi\n      dup1\n      0x3cac14c8\n      eq\n      tag_5\n      jumpi\n      dup1\n      0x3f017e40\n      eq\n      tag_6\n      jumpi\n    tag_2:\n      0x00\n      dup1\n      revert\n        /* \"contracts/sample.sol\":366:514  function setOwner(address _newOwner) public onlyOwner{... */\n    tag_3:\n      tag_13\n      0x04\n      dup1\n      calldatasize\n      sub\n      dup2\n      add\n      swap1\n      tag_14\n      swap2\n      swap1\n      tag_15\n      jump\t// in\n    tag_14:\n      tag_16\n      jump\t// in\n    tag_13:\n      stop\n        /* \"contracts/sample.sol\":1263:1417  function createArray() public pure returns (uint) {... */\n    tag_4:\n      tag_17\n      tag_18\n      jump\t// in\n    tag_17:\n      mload(0x40)\n      tag_19\n      swap2\n      swap1\n      tag_20\n      jump\t// in\n    tag_19:\n      mload(0x40)\n      dup1\n      swap2\n      sub\n      swap1\n      return\n        /* \"contracts/sample.sol\":1423:1511  function returnArray() public view returns (uint[5] memory) {... */\n    tag_5:\n      tag_21\n      tag_22\n      jump\t// in\n    tag_21:\n      mload(0x40)\n      tag_23\n      swap2\n      swap1\n      tag_24\n      jump\t// in\n    tag_23:\n      mload(0x40)\n      dup1\n      swap2\n      sub\n      swap1\n      return\n        /* \"contracts/sample.sol\":1115:1257  function arrayWithLoop(uint _x) public {... */\n    tag_6:\n      tag_25\n      0x04\n      dup1\n      calldatasize\n      sub\n      dup2\n      add\n      swap1\n      tag_26\n      swap2\n      swap1\n      tag_27\n      jump\t// in\n    tag_26:\n      tag_28\n      jump\t// in\n    tag_25:\n      stop\n        /* \"contracts/sample.sol\":120:152  uint[5] public arr = [1,2,3,4,5] */\n    tag_7:\n      tag_29\n      0x04\n      dup1\n      calldatasize\n      sub\n      dup2\n      add\n      swap1\n      tag_30\n      swap2\n      swap1\n      tag_27\n      jump\t// in\n    tag_30:\n      tag_31\n      jump\t// in\n    tag_29:\n      mload(0x40)\n      tag_32\n      swap2\n      swap1\n      tag_20\n      jump\t// in\n    tag_32:\n      mload(0x40)\n      dup1\n      swap2\n      sub\n      swap1\n      return\n        /* \"contracts/sample.sol\":94:114  address public owner */\n    tag_8:\n      tag_33\n      tag_34\n      jump\t// in\n    tag_33:\n      mload(0x40)\n      tag_35\n      swap2\n      swap1\n      tag_36\n      jump\t// in\n    tag_35:\n      mload(0x40)\n      dup1\n      swap2\n      sub\n      swap1\n      return\n        /* \"contracts/sample.sol\":520:849  function loop() public pure returns(uint){... */\n    tag_9:\n      tag_37\n      tag_38\n      jump\t// in\n    tag_37:\n      mload(0x40)\n      tag_39\n      swap2\n      swap1\n      tag_20\n      jump\t// in\n    tag_39:\n      mload(0x40)\n      dup1\n      swap2\n      sub\n      swap1\n      return\n        /* \"contracts/sample.sol\":855:1109  function array() public returns (uint){... */\n    tag_10:\n      tag_40\n      tag_41\n      jump\t// in\n    tag_40:\n      mload(0x40)\n      tag_42\n      swap2\n      swap1\n      tag_20\n      jump\t// in\n    tag_42:\n      mload(0x40)\n      dup1\n      swap2\n      sub\n      swap1\n      return\n        /* \"contracts/sample.sol\":158:177  uint[5] public arr2 */\n    tag_11:\n      tag_43\n      0x04\n      dup1\n      calldatasize\n      sub\n      dup2\n      add\n      swap1\n      tag_44\n      swap2\n      swap1\n      tag_27\n      jump\t// in\n    tag_44:\n      tag_45\n      jump\t// in\n    tag_43:\n      mload(0x40)\n      tag_46\n      swap2\n      swap1\n      tag_20\n      jump\t// in\n    tag_46:\n      mload(0x40)\n      dup1\n      swap2\n      sub\n      swap1\n      return\n        /* \"contracts/sample.sol\":366:514  function setOwner(address _newOwner) public onlyOwner{... */\n    tag_16:\n        /* \"contracts/sample.sol\":323:328  owner */\n      0x00\n      dup1\n      sload\n      swap1\n      0x0100\n      exp\n      swap1\n      div\n      0xffffffffffffffffffffffffffffffffffffffff\n      and\n        /* \"contracts/sample.sol\":309:328  msg.sender == owner */\n      0xffffffffffffffffffffffffffffffffffffffff\n      and\n        /* \"contracts/sample.sol\":309:319  msg.sender */\n      caller\n        /* \"contracts/sample.sol\":309:328  msg.sender == owner */\n      0xffffffffffffffffffffffffffffffffffffffff\n      and\n      eq\n        /* \"contracts/sample.sol\":301:342  require(msg.sender == owner, \"not owner\") */\n      tag_48\n      jumpi\n      mload(0x40)\n      0x08c379a000000000000000000000000000000000000000000000000000000000\n      dup2\n      mstore\n      0x04\n      add\n      tag_49\n      swap1\n      tag_50\n      jump\t// in\n    tag_49:\n      mload(0x40)\n      dup1\n      swap2\n      sub\n      swap1\n      revert\n    tag_48:\n        /* \"contracts/sample.sol\":458:459  0 */\n      0x00\n        /* \"contracts/sample.sol\":437:460  _newOwner != address(0) */\n      0xffffffffffffffffffffffffffffffffffffffff\n      and\n        /* \"contracts/sample.sol\":437:446  _newOwner */\n      dup2\n        /* \"contracts/sample.sol\":437:460  _newOwner != address(0) */\n      0xffffffffffffffffffffffffffffffffffffffff\n      and\n      sub\n        /* \"contracts/sample.sol\":429:480  require(_newOwner != address(0), \"Invalid address\") */\n      tag_52\n      jumpi\n      mload(0x40)\n      0x08c379a000000000000000000000000000000000000000000000000000000000\n      dup2\n      mstore\n      0x04\n      add\n      tag_53\n      swap1\n      tag_54\n      jump\t// in\n    tag_53:\n      mload(0x40)\n      dup1\n      swap2\n      sub\n      swap1\n      revert\n    tag_52:\n        /* \"contracts/sample.sol\":498:507  _newOwner */\n      dup1\n        /* \"contracts/sample.sol\":490:495  owner */\n      0x00\n      dup1\n        /* \"contracts/sample.sol\":490:507  owner = _newOwner */\n      0x0100\n      exp\n      dup2\n      sload\n      dup2\n      0xffffffffffffffffffffffffffffffffffffffff\n      mul\n      not\n      and\n      swap1\n      dup4\n      0xffffffffffffffffffffffffffffffffffffffff\n      and\n      mul\n      or\n      swap1\n      sstore\n      pop\n        /* \"contracts/sample.sol\":366:514  function setOwner(address _newOwner) public onlyOwner{... */\n      pop\n      jump\t// out\n        /* \"contracts/sample.sol\":1263:1417  function createArray() public pure returns (uint) {... */\n    tag_18:\n        /* \"contracts/sample.sol\":1307:1311  uint */\n      0x00\n        /* \"contracts/sample.sol\":1323:1343  uint[] memory arrMem */\n      dup1\n        /* \"contracts/sample.sol\":1357:1358  3 */\n      0x03\n        /* \"contracts/sample.sol\":1346:1359  new uint[](3) */\n      0xffffffffffffffff\n      dup2\n      gt\n      iszero\n      tag_56\n      jumpi\n      tag_57\n      tag_58\n      jump\t// in\n    tag_57:\n    tag_56:\n      mload(0x40)\n      swap1\n      dup1\n      dup3\n      mstore\n      dup1\n      0x20\n      mul\n      0x20\n      add\n      dup3\n      add\n      0x40\n      mstore\n      dup1\n      iszero\n      tag_59\n      jumpi\n      dup2\n      0x20\n      add\n      0x20\n      dup3\n      mul\n      dup1\n      calldatasize\n      dup4\n      calldatacopy\n      dup1\n      dup3\n      add\n      swap2\n      pop\n      pop\n      swap1\n      pop\n    tag_59:\n      pop\n        /* \"contracts/sample.sol\":1323:1359  uint[] memory arrMem = new uint[](3) */\n      swap1\n      pop\n        /* \"contracts/sample.sol\":1381:1383  33 */\n      0x21\n        /* \"contracts/sample.sol\":1369:1375  arrMem */\n      dup2\n        /* \"contracts/sample.sol\":1376:1377  1 */\n      0x01\n        /* \"contracts/sample.sol\":1369:1378  arrMem[1] */\n      dup2\n      mload\n      dup2\n      lt\n      tag_60\n      jumpi\n      tag_61\n      tag_62\n      jump\t// in\n    tag_61:\n    tag_60:\n      0x20\n      mul\n      0x20\n      add\n      add\n        /* \"contracts/sample.sol\":1369:1383  arrMem[1] = 33 */\n      dup2\n      dup2\n      mstore\n      pop\n      pop\n        /* \"contracts/sample.sol\":1401:1407  arrMem */\n      dup1\n        /* \"contracts/sample.sol\":1408:1409  1 */\n      0x01\n        /* \"contracts/sample.sol\":1401:1410  arrMem[1] */\n      dup2\n      mload\n      dup2\n      lt\n      tag_63\n      jumpi\n      tag_64\n      tag_62\n      jump\t// in\n    tag_64:\n    tag_63:\n      0x20\n      mul\n      0x20\n      add\n      add\n      mload\n        /* \"contracts/sample.sol\":1394:1410  return arrMem[1] */\n      swap2\n      pop\n      pop\n        /* \"contracts/sample.sol\":1263:1417  function createArray() public pure returns (uint) {... */\n      swap1\n      jump\t// out\n        /* \"contracts/sample.sol\":1423:1511  function returnArray() public view returns (uint[5] memory) {... */\n    tag_22:\n        /* \"contracts/sample.sol\":1467:1481  uint[5] memory */\n      tag_65\n      tag_66\n      jump\t// in\n    tag_65:\n        /* \"contracts/sample.sol\":1500:1504  arr2 */\n      0x06\n        /* \"contracts/sample.sol\":1493:1504  return arr2 */\n      0x05\n      dup1\n      0x20\n      mul\n      mload(0x40)\n      swap1\n      dup2\n      add\n      0x40\n      mstore\n      dup1\n      swap3\n      swap2\n      swap1\n      dup3\n      0x05\n      dup1\n      iszero\n      tag_68\n      jumpi\n      0x20\n      mul\n      dup3\n      add\n      swap2\n    tag_69:\n      dup2\n      sload\n      dup2\n      mstore\n      0x20\n      add\n      swap1\n      0x01\n      add\n      swap1\n      dup1\n      dup4\n      gt\n      tag_69\n      jumpi\n    tag_68:\n      pop\n      pop\n      pop\n      pop\n      pop\n      swap1\n      pop\n        /* \"contracts/sample.sol\":1423:1511  function returnArray() public view returns (uint[5] memory) {... */\n      swap1\n      jump\t// out\n        /* \"contracts/sample.sol\":1115:1257  function arrayWithLoop(uint _x) public {... */\n    tag_28:\n        /* \"contracts/sample.sol\":1169:1175  uint i */\n      0x00\n        /* \"contracts/sample.sol\":1164:1251  for (uint i = 0; i < arr2.length; i++) ... */\n    tag_71:\n        /* \"contracts/sample.sol\":1185:1196  arr2.length */\n      0x05\n        /* \"contracts/sample.sol\":1181:1182  i */\n      dup2\n        /* \"contracts/sample.sol\":1181:1196  i < arr2.length */\n      lt\n        /* \"contracts/sample.sol\":1164:1251  for (uint i = 0; i < arr2.length; i++) ... */\n      iszero\n      tag_72\n      jumpi\n        /* \"contracts/sample.sol\":1239:1240  i */\n      dup1\n        /* \"contracts/sample.sol\":1236:1238  _x */\n      dup3\n        /* \"contracts/sample.sol\":1236:1240  _x+i */\n      tag_74\n      swap2\n      swap1\n      tag_75\n      jump\t// in\n    tag_74:\n        /* \"contracts/sample.sol\":1226:1230  arr2 */\n      0x06\n        /* \"contracts/sample.sol\":1231:1232  i */\n      dup3\n        /* \"contracts/sample.sol\":1226:1233  arr2[i] */\n      0x05\n      dup2\n      lt\n      tag_76\n      jumpi\n      tag_77\n      tag_62\n      jump\t// in\n    tag_77:\n    tag_76:\n      add\n        /* \"contracts/sample.sol\":1226:1240  arr2[i] = _x+i */\n      dup2\n      swap1\n      sstore\n      pop\n        /* \"contracts/sample.sol\":1198:1201  i++ */\n      dup1\n      dup1\n      0x01\n      add\n      swap2\n      pop\n      pop\n        /* \"contracts/sample.sol\":1164:1251  for (uint i = 0; i < arr2.length; i++) ... */\n      jump(tag_71)\n    tag_72:\n      pop\n        /* \"contracts/sample.sol\":1115:1257  function arrayWithLoop(uint _x) public {... */\n      pop\n      jump\t// out\n        /* \"contracts/sample.sol\":120:152  uint[5] public arr = [1,2,3,4,5] */\n    tag_31:\n      0x01\n      dup2\n      0x05\n      dup2\n      lt\n      tag_79\n      jumpi\n      0x00\n      dup1\n      revert\n    tag_79:\n      add\n      0x00\n      swap2\n      pop\n      swap1\n      pop\n      sload\n      dup2\n      jump\t// out\n        /* \"contracts/sample.sol\":94:114  address public owner */\n    tag_34:\n      0x00\n      dup1\n      sload\n      swap1\n      0x0100\n      exp\n      swap1\n      div\n      0xffffffffffffffffffffffffffffffffffffffff\n      and\n      dup2\n      jump\t// out\n        /* \"contracts/sample.sol\":520:849  function loop() public pure returns(uint){... */\n    tag_38:\n        /* \"contracts/sample.sol\":556:560  uint */\n      0x00\n        /* \"contracts/sample.sol\":571:581  uint count */\n      dup1\n        /* \"contracts/sample.sol\":584:585  0 */\n      0x00\n        /* \"contracts/sample.sol\":571:585  uint count = 0 */\n      swap1\n      pop\n        /* \"contracts/sample.sol\":601:607  uint i */\n      0x00\n        /* \"contracts/sample.sol\":596:821  for (uint i=0; i<10; i++) ... */\n    tag_82:\n        /* \"contracts/sample.sol\":613:615  10 */\n      0x0a\n        /* \"contracts/sample.sol\":611:612  i */\n      dup2\n        /* \"contracts/sample.sol\":611:615  i<10 */\n      lt\n        /* \"contracts/sample.sol\":596:821  for (uint i=0; i<10; i++) ... */\n      iszero\n      tag_83\n      jumpi\n        /* \"contracts/sample.sol\":654:655  8 */\n      0x08\n        /* \"contracts/sample.sol\":649:650  i */\n      dup2\n        /* \"contracts/sample.sol\":649:655  i == 8 */\n      sub\n        /* \"contracts/sample.sol\":645:780  if (i == 8){... */\n      iszero\n        /* \"contracts/sample.sol\":674:682  continue */\n      tag_84\n        /* \"contracts/sample.sol\":645:780  if (i == 8){... */\n      jumpi\n        /* \"contracts/sample.sol\":809:810  2 */\n      0x02\n        /* \"contracts/sample.sol\":801:806  count */\n      dup3\n        /* \"contracts/sample.sol\":801:810  count + 2 */\n      tag_86\n      swap2\n      swap1\n      tag_75\n      jump\t// in\n    tag_86:\n        /* \"contracts/sample.sol\":793:810  count = count + 2 */\n      swap2\n      pop\n        /* \"contracts/sample.sol\":596:821  for (uint i=0; i<10; i++) ... */\n    tag_84:\n        /* \"contracts/sample.sol\":617:620  i++ */\n      dup1\n      dup1\n      0x01\n      add\n      swap2\n      pop\n      pop\n        /* \"contracts/sample.sol\":596:821  for (uint i=0; i<10; i++) ... */\n      jump(tag_82)\n    tag_83:\n      pop\n        /* \"contracts/sample.sol\":837:842  count */\n      dup1\n        /* \"contracts/sample.sol\":830:842  return count */\n      swap2\n      pop\n      pop\n        /* \"contracts/sample.sol\":520:849  function loop() public pure returns(uint){... */\n      swap1\n      jump\t// out\n        /* \"contracts/sample.sol\":855:1109  function array() public returns (uint){... */\n    tag_41:\n        /* \"contracts/sample.sol\":888:892  uint */\n      0x00\n        /* \"contracts/sample.sol\":917:926  uint temp */\n      dup1\n        /* \"contracts/sample.sol\":943:946  arr */\n      0x01\n        /* \"contracts/sample.sol\":947:948  3 */\n      0x03\n        /* \"contracts/sample.sol\":943:949  arr[3] */\n      0x05\n      dup2\n      lt\n      tag_88\n      jumpi\n      tag_89\n      tag_62\n      jump\t// in\n    tag_89:\n    tag_88:\n      add\n      sload\n        /* \"contracts/sample.sol\":936:949  temp = arr[3] */\n      swap1\n      pop\n        /* \"contracts/sample.sol\":986:990  3000 */\n      0x0bb8\n        /* \"contracts/sample.sol\":977:980  arr */\n      0x01\n        /* \"contracts/sample.sol\":981:982  2 */\n      0x02\n        /* \"contracts/sample.sol\":977:983  arr[2] */\n      0x05\n      dup2\n      lt\n      tag_91\n      jumpi\n      tag_92\n      tag_62\n      jump\t// in\n    tag_92:\n    tag_91:\n      add\n        /* \"contracts/sample.sol\":977:990  arr[2] = 3000 */\n      dup2\n      swap1\n      sstore\n      pop\n        /* \"contracts/sample.sol\":1025:1028  arr */\n      0x01\n        /* \"contracts/sample.sol\":1029:1030  4 */\n      0x04\n        /* \"contracts/sample.sol\":1025:1031  arr[4] */\n      0x05\n      dup2\n      lt\n      tag_94\n      jumpi\n      tag_95\n      tag_62\n      jump\t// in\n    tag_95:\n    tag_94:\n      add\n        /* \"contracts/sample.sol\":1018:1031  delete arr[4] */\n      0x00\n      swap1\n      sstore\n        /* \"contracts/sample.sol\":1059:1067  uint len */\n      0x00\n        /* \"contracts/sample.sol\":1070:1080  arr.length */\n      0x05\n        /* \"contracts/sample.sol\":1059:1080  uint len = arr.length */\n      swap1\n      pop\n        /* \"contracts/sample.sol\":1098:1101  len */\n      dup1\n        /* \"contracts/sample.sol\":1091:1101  return len */\n      swap3\n      pop\n      pop\n      pop\n        /* \"contracts/sample.sol\":855:1109  function array() public returns (uint){... */\n      swap1\n      jump\t// out\n        /* \"contracts/sample.sol\":158:177  uint[5] public arr2 */\n    tag_45:\n      0x06\n      dup2\n      0x05\n      dup2\n      lt\n      tag_97\n      jumpi\n      0x00\n      dup1\n      revert\n    tag_97:\n      add\n      0x00\n      swap2\n      pop\n      swap1\n      pop\n      sload\n      dup2\n      jump\t// out\n    tag_66:\n      mload(0x40)\n      dup1\n      0xa0\n      add\n      0x40\n      mstore\n      dup1\n      0x05\n      swap1\n      0x20\n      dup3\n      mul\n      dup1\n      calldatasize\n      dup4\n      calldatacopy\n      dup1\n      dup3\n      add\n      swap2\n      pop\n      pop\n      swap1\n      pop\n      pop\n      swap1\n      jump\t// out\n        /* \"#utility.yul\":88:205   */\n    tag_100:\n        /* \"#utility.yul\":197:198   */\n      0x00\n        /* \"#utility.yul\":194:195   */\n      dup1\n        /* \"#utility.yul\":187:199   */\n      revert\n        /* \"#utility.yul\":334:460   */\n    tag_102:\n        /* \"#utility.yul\":371:378   */\n      0x00\n        /* \"#utility.yul\":411:453   */\n      0xffffffffffffffffffffffffffffffffffffffff\n        /* \"#utility.yul\":404:409   */\n      dup3\n        /* \"#utility.yul\":400:454   */\n      and\n        /* \"#utility.yul\":389:454   */\n      swap1\n      pop\n        /* \"#utility.yul\":334:460   */\n      swap2\n      swap1\n      pop\n      jump\t// out\n        /* \"#utility.yul\":466:562   */\n    tag_103:\n        /* \"#utility.yul\":503:510   */\n      0x00\n        /* \"#utility.yul\":532:556   */\n      tag_130\n        /* \"#utility.yul\":550:555   */\n      dup3\n        /* \"#utility.yul\":532:556   */\n      tag_102\n      jump\t// in\n    tag_130:\n        /* \"#utility.yul\":521:556   */\n      swap1\n      pop\n        /* \"#utility.yul\":466:562   */\n      swap2\n      swap1\n      pop\n      jump\t// out\n        /* \"#utility.yul\":568:690   */\n    tag_104:\n        /* \"#utility.yul\":641:665   */\n      tag_132\n        /* \"#utility.yul\":659:664   */\n      dup2\n        /* \"#utility.yul\":641:665   */\n      tag_103\n      jump\t// in\n    tag_132:\n        /* \"#utility.yul\":634:639   */\n      dup2\n        /* \"#utility.yul\":631:666   */\n      eq\n        /* \"#utility.yul\":621:684   */\n      tag_133\n      jumpi\n        /* \"#utility.yul\":680:681   */\n      0x00\n        /* \"#utility.yul\":677:678   */\n      dup1\n        /* \"#utility.yul\":670:682   */\n      revert\n        /* \"#utility.yul\":621:684   */\n    tag_133:\n        /* \"#utility.yul\":568:690   */\n      pop\n      jump\t// out\n        /* \"#utility.yul\":696:835   */\n    tag_105:\n        /* \"#utility.yul\":742:747   */\n      0x00\n        /* \"#utility.yul\":780:786   */\n      dup2\n        /* \"#utility.yul\":767:787   */\n      calldataload\n        /* \"#utility.yul\":758:787   */\n      swap1\n      pop\n        /* \"#utility.yul\":796:829   */\n      tag_135\n        /* \"#utility.yul\":823:828   */\n      dup2\n        /* \"#utility.yul\":796:829   */\n      tag_104\n      jump\t// in\n    tag_135:\n        /* \"#utility.yul\":696:835   */\n      swap3\n      swap2\n      pop\n      pop\n      jump\t// out\n        /* \"#utility.yul\":841:1170   */\n    tag_15:\n        /* \"#utility.yul\":900:906   */\n      0x00\n        /* \"#utility.yul\":949:951   */\n      0x20\n        /* \"#utility.yul\":937:946   */\n      dup3\n        /* \"#utility.yul\":928:935   */\n      dup5\n        /* \"#utility.yul\":924:947   */\n      sub\n        /* \"#utility.yul\":920:952   */\n      slt\n        /* \"#utility.yul\":917:1036   */\n      iszero\n      tag_137\n      jumpi\n        /* \"#utility.yul\":955:1034   */\n      tag_138\n      tag_100\n      jump\t// in\n    tag_138:\n        /* \"#utility.yul\":917:1036   */\n    tag_137:\n        /* \"#utility.yul\":1075:1076   */\n      0x00\n        /* \"#utility.yul\":1100:1153   */\n      tag_139\n        /* \"#utility.yul\":1145:1152   */\n      dup5\n        /* \"#utility.yul\":1136:1142   */\n      dup3\n        /* \"#utility.yul\":1125:1134   */\n      dup6\n        /* \"#utility.yul\":1121:1143   */\n      add\n        /* \"#utility.yul\":1100:1153   */\n      tag_105\n      jump\t// in\n    tag_139:\n        /* \"#utility.yul\":1090:1153   */\n      swap2\n      pop\n        /* \"#utility.yul\":1046:1163   */\n      pop\n        /* \"#utility.yul\":841:1170   */\n      swap3\n      swap2\n      pop\n      pop\n      jump\t// out\n        /* \"#utility.yul\":1176:1253   */\n    tag_106:\n        /* \"#utility.yul\":1213:1220   */\n      0x00\n        /* \"#utility.yul\":1242:1247   */\n      dup2\n        /* \"#utility.yul\":1231:1247   */\n      swap1\n      pop\n        /* \"#utility.yul\":1176:1253   */\n      swap2\n      swap1\n      pop\n      jump\t// out\n        /* \"#utility.yul\":1259:1377   */\n    tag_107:\n        /* \"#utility.yul\":1346:1370   */\n      tag_142\n        /* \"#utility.yul\":1364:1369   */\n      dup2\n        /* \"#utility.yul\":1346:1370   */\n      tag_106\n      jump\t// in\n    tag_142:\n        /* \"#utility.yul\":1341:1344   */\n      dup3\n        /* \"#utility.yul\":1334:1371   */\n      mstore\n        /* \"#utility.yul\":1259:1377   */\n      pop\n      pop\n      jump\t// out\n        /* \"#utility.yul\":1383:1605   */\n    tag_20:\n        /* \"#utility.yul\":1476:1480   */\n      0x00\n        /* \"#utility.yul\":1514:1516   */\n      0x20\n        /* \"#utility.yul\":1503:1512   */\n      dup3\n        /* \"#utility.yul\":1499:1517   */\n      add\n        /* \"#utility.yul\":1491:1517   */\n      swap1\n      pop\n        /* \"#utility.yul\":1527:1598   */\n      tag_144\n        /* \"#utility.yul\":1595:1596   */\n      0x00\n        /* \"#utility.yul\":1584:1593   */\n      dup4\n        /* \"#utility.yul\":1580:1597   */\n      add\n        /* \"#utility.yul\":1571:1577   */\n      dup5\n        /* \"#utility.yul\":1527:1598   */\n      tag_107\n      jump\t// in\n    tag_144:\n        /* \"#utility.yul\":1383:1605   */\n      swap3\n      swap2\n      pop\n      pop\n      jump\t// out\n        /* \"#utility.yul\":1611:1715   */\n    tag_108:\n        /* \"#utility.yul\":1676:1682   */\n      0x00\n        /* \"#utility.yul\":1704:1708   */\n      0x05\n        /* \"#utility.yul\":1694:1708   */\n      swap1\n      pop\n        /* \"#utility.yul\":1611:1715   */\n      swap2\n      swap1\n      pop\n      jump\t// out\n        /* \"#utility.yul\":1721:1864   */\n    tag_109:\n        /* \"#utility.yul\":1818:1829   */\n      0x00\n        /* \"#utility.yul\":1855:1858   */\n      dup2\n        /* \"#utility.yul\":1840:1858   */\n      swap1\n      pop\n        /* \"#utility.yul\":1721:1864   */\n      swap3\n      swap2\n      pop\n      pop\n      jump\t// out\n        /* \"#utility.yul\":1870:1968   */\n    tag_110:\n        /* \"#utility.yul\":1935:1939   */\n      0x00\n        /* \"#utility.yul\":1958:1961   */\n      dup2\n        /* \"#utility.yul\":1950:1961   */\n      swap1\n      pop\n        /* \"#utility.yul\":1870:1968   */\n      swap2\n      swap1\n      pop\n      jump\t// out\n        /* \"#utility.yul\":1974:2082   */\n    tag_111:\n        /* \"#utility.yul\":2051:2075   */\n      tag_149\n        /* \"#utility.yul\":2069:2074   */\n      dup2\n        /* \"#utility.yul\":2051:2075   */\n      tag_106\n      jump\t// in\n    tag_149:\n        /* \"#utility.yul\":2046:2049   */\n      dup3\n        /* \"#utility.yul\":2039:2076   */\n      mstore\n        /* \"#utility.yul\":1974:2082   */\n      pop\n      pop\n      jump\t// out\n        /* \"#utility.yul\":2088:2267   */\n    tag_112:\n        /* \"#utility.yul\":2157:2167   */\n      0x00\n        /* \"#utility.yul\":2178:2224   */\n      tag_151\n        /* \"#utility.yul\":2220:2223   */\n      dup4\n        /* \"#utility.yul\":2212:2218   */\n      dup4\n        /* \"#utility.yul\":2178:2224   */\n      tag_111\n      jump\t// in\n    tag_151:\n        /* \"#utility.yul\":2256:2260   */\n      0x20\n        /* \"#utility.yul\":2251:2254   */\n      dup4\n        /* \"#utility.yul\":2247:2261   */\n      add\n        /* \"#utility.yul\":2233:2261   */\n      swap1\n      pop\n        /* \"#utility.yul\":2088:2267   */\n      swap3\n      swap2\n      pop\n      pop\n      jump\t// out\n        /* \"#utility.yul\":2273:2384   */\n    tag_113:\n        /* \"#utility.yul\":2341:2345   */\n      0x00\n        /* \"#utility.yul\":2373:2377   */\n      0x20\n        /* \"#utility.yul\":2368:2371   */\n      dup3\n        /* \"#utility.yul\":2364:2378   */\n      add\n        /* \"#utility.yul\":2356:2378   */\n      swap1\n      pop\n        /* \"#utility.yul\":2273:2384   */\n      swap2\n      swap1\n      pop\n      jump\t// out\n        /* \"#utility.yul\":2422:3116   */\n    tag_114:\n        /* \"#utility.yul\":2558:2610   */\n      tag_154\n        /* \"#utility.yul\":2604:2609   */\n      dup2\n        /* \"#utility.yul\":2558:2610   */\n      tag_108\n      jump\t// in\n    tag_154:\n        /* \"#utility.yul\":2626:2710   */\n      tag_155\n        /* \"#utility.yul\":2703:2709   */\n      dup2\n        /* \"#utility.yul\":2698:2701   */\n      dup5\n        /* \"#utility.yul\":2626:2710   */\n      tag_109\n      jump\t// in\n    tag_155:\n        /* \"#utility.yul\":2619:2710   */\n      swap3\n      pop\n        /* \"#utility.yul\":2734:2788   */\n      tag_156\n        /* \"#utility.yul\":2782:2787   */\n      dup3\n        /* \"#utility.yul\":2734:2788   */\n      tag_110\n      jump\t// in\n    tag_156:\n        /* \"#utility.yul\":2811:2818   */\n      dup1\n        /* \"#utility.yul\":2842:2843   */\n      0x00\n        /* \"#utility.yul\":2827:3109   */\n    tag_157:\n        /* \"#utility.yul\":2852:2858   */\n      dup4\n        /* \"#utility.yul\":2849:2850   */\n      dup2\n        /* \"#utility.yul\":2846:2859   */\n      lt\n        /* \"#utility.yul\":2827:3109   */\n      iszero\n      tag_159\n      jumpi\n        /* \"#utility.yul\":2928:2934   */\n      dup2\n        /* \"#utility.yul\":2922:2935   */\n      mload\n        /* \"#utility.yul\":2955:3018   */\n      tag_160\n        /* \"#utility.yul\":3014:3017   */\n      dup8\n        /* \"#utility.yul\":2999:3012   */\n      dup3\n        /* \"#utility.yul\":2955:3018   */\n      tag_112\n      jump\t// in\n    tag_160:\n        /* \"#utility.yul\":2948:3018   */\n      swap7\n      pop\n        /* \"#utility.yul\":3041:3099   */\n      tag_161\n        /* \"#utility.yul\":3092:3098   */\n      dup4\n        /* \"#utility.yul\":3041:3099   */\n      tag_113\n      jump\t// in\n    tag_161:\n        /* \"#utility.yul\":3031:3099   */\n      swap3\n      pop\n        /* \"#utility.yul\":2887:3109   */\n      pop\n        /* \"#utility.yul\":2874:2875   */\n      0x01\n        /* \"#utility.yul\":2871:2872   */\n      dup2\n        /* \"#utility.yul\":2867:2876   */\n      add\n        /* \"#utility.yul\":2862:2876   */\n      swap1\n      pop\n        /* \"#utility.yul\":2827:3109   */\n      jump(tag_157)\n    tag_159:\n        /* \"#utility.yul\":2831:2845   */\n      pop\n        /* \"#utility.yul\":2534:3116   */\n      pop\n      pop\n      pop\n        /* \"#utility.yul\":2422:3116   */\n      pop\n      pop\n      jump\t// out\n        /* \"#utility.yul\":3122:3437   */\n    tag_24:\n        /* \"#utility.yul\":3261:3265   */\n      0x00\n        /* \"#utility.yul\":3299:3302   */\n      0xa0\n        /* \"#utility.yul\":3288:3297   */\n      dup3\n        /* \"#utility.yul\":3284:3303   */\n      add\n        /* \"#utility.yul\":3276:3303   */\n      swap1\n      pop\n        /* \"#utility.yul\":3313:3430   */\n      tag_163\n        /* \"#utility.yul\":3427:3428   */\n      0x00\n        /* \"#utility.yul\":3416:3425   */\n      dup4\n        /* \"#utility.yul\":3412:3429   */\n      add\n        /* \"#utility.yul\":3403:3409   */\n      dup5\n        /* \"#utility.yul\":3313:3430   */\n      tag_114\n      jump\t// in\n    tag_163:\n        /* \"#utility.yul\":3122:3437   */\n      swap3\n      swap2\n      pop\n      pop\n      jump\t// out\n        /* \"#utility.yul\":3443:3565   */\n    tag_115:\n        /* \"#utility.yul\":3516:3540   */\n      tag_165\n        /* \"#utility.yul\":3534:3539   */\n      dup2\n        /* \"#utility.yul\":3516:3540   */\n      tag_106\n      jump\t// in\n    tag_165:\n        /* \"#utility.yul\":3509:3514   */\n      dup2\n        /* \"#utility.yul\":3506:3541   */\n      eq\n        /* \"#utility.yul\":3496:3559   */\n      tag_166\n      jumpi\n        /* \"#utility.yul\":3555:3556   */\n      0x00\n        /* \"#utility.yul\":3552:3553   */\n      dup1\n        /* \"#utility.yul\":3545:3557   */\n      revert\n        /* \"#utility.yul\":3496:3559   */\n    tag_166:\n        /* \"#utility.yul\":3443:3565   */\n      pop\n      jump\t// out\n        /* \"#utility.yul\":3571:3710   */\n    tag_116:\n        /* \"#utility.yul\":3617:3622   */\n      0x00\n        /* \"#utility.yul\":3655:3661   */\n      dup2\n        /* \"#utility.yul\":3642:3662   */\n      calldataload\n        /* \"#utility.yul\":3633:3662   */\n      swap1\n      pop\n        /* \"#utility.yul\":3671:3704   */\n      tag_168\n        /* \"#utility.yul\":3698:3703   */\n      dup2\n        /* \"#utility.yul\":3671:3704   */\n      tag_115\n      jump\t// in\n    tag_168:\n        /* \"#utility.yul\":3571:3710   */\n      swap3\n      swap2\n      pop\n      pop\n      jump\t// out\n        /* \"#utility.yul\":3716:4045   */\n    tag_27:\n        /* \"#utility.yul\":3775:3781   */\n      0x00\n        /* \"#utility.yul\":3824:3826   */\n      0x20\n        /* \"#utility.yul\":3812:3821   */\n      dup3\n        /* \"#utility.yul\":3803:3810   */\n      dup5\n        /* \"#utility.yul\":3799:3822   */\n      sub\n        /* \"#utility.yul\":3795:3827   */\n      slt\n        /* \"#utility.yul\":3792:3911   */\n      iszero\n      tag_170\n      jumpi\n        /* \"#utility.yul\":3830:3909   */\n      tag_171\n      tag_100\n      jump\t// in\n    tag_171:\n        /* \"#utility.yul\":3792:3911   */\n    tag_170:\n        /* \"#utility.yul\":3950:3951   */\n      0x00\n        /* \"#utility.yul\":3975:4028   */\n      tag_172\n        /* \"#utility.yul\":4020:4027   */\n      dup5\n        /* \"#utility.yul\":4011:4017   */\n      dup3\n        /* \"#utility.yul\":4000:4009   */\n      dup6\n        /* \"#utility.yul\":3996:4018   */\n      add\n        /* \"#utility.yul\":3975:4028   */\n      tag_116\n      jump\t// in\n    tag_172:\n        /* \"#utility.yul\":3965:4028   */\n      swap2\n      pop\n        /* \"#utility.yul\":3921:4038   */\n      pop\n        /* \"#utility.yul\":3716:4045   */\n      swap3\n      swap2\n      pop\n      pop\n      jump\t// out\n        /* \"#utility.yul\":4051:4169   */\n    tag_117:\n        /* \"#utility.yul\":4138:4162   */\n      tag_174\n        /* \"#utility.yul\":4156:4161   */\n      dup2\n        /* \"#utility.yul\":4138:4162   */\n      tag_103\n      jump\t// in\n    tag_174:\n        /* \"#utility.yul\":4133:4136   */\n      dup3\n        /* \"#utility.yul\":4126:4163   */\n      mstore\n        /* \"#utility.yul\":4051:4169   */\n      pop\n      pop\n      jump\t// out\n        /* \"#utility.yul\":4175:4397   */\n    tag_36:\n        /* \"#utility.yul\":4268:4272   */\n      0x00\n        /* \"#utility.yul\":4306:4308   */\n      0x20\n        /* \"#utility.yul\":4295:4304   */\n      dup3\n        /* \"#utility.yul\":4291:4309   */\n      add\n        /* \"#utility.yul\":4283:4309   */\n      swap1\n      pop\n        /* \"#utility.yul\":4319:4390   */\n      tag_176\n        /* \"#utility.yul\":4387:4388   */\n      0x00\n        /* \"#utility.yul\":4376:4385   */\n      dup4\n        /* \"#utility.yul\":4372:4389   */\n      add\n        /* \"#utility.yul\":4363:4369   */\n      dup5\n        /* \"#utility.yul\":4319:4390   */\n      tag_117\n      jump\t// in\n    tag_176:\n        /* \"#utility.yul\":4175:4397   */\n      swap3\n      swap2\n      pop\n      pop\n      jump\t// out\n        /* \"#utility.yul\":4403:4572   */\n    tag_118:\n        /* \"#utility.yul\":4487:4498   */\n      0x00\n        /* \"#utility.yul\":4521:4527   */\n      dup3\n        /* \"#utility.yul\":4516:4519   */\n      dup3\n        /* \"#utility.yul\":4509:4528   */\n      mstore\n        /* \"#utility.yul\":4561:4565   */\n      0x20\n        /* \"#utility.yul\":4556:4559   */\n      dup3\n        /* \"#utility.yul\":4552:4566   */\n      add\n        /* \"#utility.yul\":4537:4566   */\n      swap1\n      pop\n        /* \"#utility.yul\":4403:4572   */\n      swap3\n      swap2\n      pop\n      pop\n      jump\t// out\n        /* \"#utility.yul\":4578:4737   */\n    tag_119:\n        /* \"#utility.yul\":4718:4729   */\n      0x6e6f74206f776e65720000000000000000000000000000000000000000000000\n        /* \"#utility.yul\":4714:4715   */\n      0x00\n        /* \"#utility.yul\":4706:4712   */\n      dup3\n        /* \"#utility.yul\":4702:4716   */\n      add\n        /* \"#utility.yul\":4695:4730   */\n      mstore\n        /* \"#utility.yul\":4578:4737   */\n      pop\n      jump\t// out\n        /* \"#utility.yul\":4743:5108   */\n    tag_120:\n        /* \"#utility.yul\":4885:4888   */\n      0x00\n        /* \"#utility.yul\":4906:4972   */\n      tag_180\n        /* \"#utility.yul\":4970:4971   */\n      0x09\n        /* \"#utility.yul\":4965:4968   */\n      dup4\n        /* \"#utility.yul\":4906:4972   */\n      tag_118\n      jump\t// in\n    tag_180:\n        /* \"#utility.yul\":4899:4972   */\n      swap2\n      pop\n        /* \"#utility.yul\":4981:5074   */\n      tag_181\n        /* \"#utility.yul\":5070:5073   */\n      dup3\n        /* \"#utility.yul\":4981:5074   */\n      tag_119\n      jump\t// in\n    tag_181:\n        /* \"#utility.yul\":5099:5101   */\n      0x20\n        /* \"#utility.yul\":5094:5097   */\n      dup3\n        /* \"#utility.yul\":5090:5102   */\n      add\n        /* \"#utility.yul\":5083:5102   */\n      swap1\n      pop\n        /* \"#utility.yul\":4743:5108   */\n      swap2\n      swap1\n      pop\n      jump\t// out\n        /* \"#utility.yul\":5114:5533   */\n    tag_50:\n        /* \"#utility.yul\":5280:5284   */\n      0x00\n        /* \"#utility.yul\":5318:5320   */\n      0x20\n        /* \"#utility.yul\":5307:5316   */\n      dup3\n        /* \"#utility.yul\":5303:5321   */\n      add\n        /* \"#utility.yul\":5295:5321   */\n      swap1\n      pop\n        /* \"#utility.yul\":5367:5376   */\n      dup2\n        /* \"#utility.yul\":5361:5365   */\n      dup2\n        /* \"#utility.yul\":5357:5377   */\n      sub\n        /* \"#utility.yul\":5353:5354   */\n      0x00\n        /* \"#utility.yul\":5342:5351   */\n      dup4\n        /* \"#utility.yul\":5338:5355   */\n      add\n        /* \"#utility.yul\":5331:5378   */\n      mstore\n        /* \"#utility.yul\":5395:5526   */\n      tag_183\n        /* \"#utility.yul\":5521:5525   */\n      dup2\n        /* \"#utility.yul\":5395:5526   */\n      tag_120\n      jump\t// in\n    tag_183:\n        /* \"#utility.yul\":5387:5526   */\n      swap1\n      pop\n        /* \"#utility.yul\":5114:5533   */\n      swap2\n      swap1\n      pop\n      jump\t// out\n        /* \"#utility.yul\":5539:5704   */\n    tag_121:\n        /* \"#utility.yul\":5679:5696   */\n      0x496e76616c696420616464726573730000000000000000000000000000000000\n        /* \"#utility.yul\":5675:5676   */\n      0x00\n        /* \"#utility.yul\":5667:5673   */\n      dup3\n        /* \"#utility.yul\":5663:5677   */\n      add\n        /* \"#utility.yul\":5656:5697   */\n      mstore\n        /* \"#utility.yul\":5539:5704   */\n      pop\n      jump\t// out\n        /* \"#utility.yul\":5710:6076   */\n    tag_122:\n        /* \"#utility.yul\":5852:5855   */\n      0x00\n        /* \"#utility.yul\":5873:5940   */\n      tag_186\n        /* \"#utility.yul\":5937:5939   */\n      0x0f\n        /* \"#utility.yul\":5932:5935   */\n      dup4\n        /* \"#utility.yul\":5873:5940   */\n      tag_118\n      jump\t// in\n    tag_186:\n        /* \"#utility.yul\":5866:5940   */\n      swap2\n      pop\n        /* \"#utility.yul\":5949:6042   */\n      tag_187\n        /* \"#utility.yul\":6038:6041   */\n      dup3\n        /* \"#utility.yul\":5949:6042   */\n      tag_121\n      jump\t// in\n    tag_187:\n        /* \"#utility.yul\":6067:6069   */\n      0x20\n        /* \"#utility.yul\":6062:6065   */\n      dup3\n        /* \"#utility.yul\":6058:6070   */\n      add\n        /* \"#utility.yul\":6051:6070   */\n      swap1\n      pop\n        /* \"#utility.yul\":5710:6076   */\n      swap2\n      swap1\n      pop\n      jump\t// out\n        /* \"#utility.yul\":6082:6501   */\n    tag_54:\n        /* \"#utility.yul\":6248:6252   */\n      0x00\n        /* \"#utility.yul\":6286:6288   */\n      0x20\n        /* \"#utility.yul\":6275:6284   */\n      dup3\n        /* \"#utility.yul\":6271:6289   */\n      add\n        /* \"#utility.yul\":6263:6289   */\n      swap1\n      pop\n        /* \"#utility.yul\":6335:6344   */\n      dup2\n        /* \"#utility.yul\":6329:6333   */\n      dup2\n        /* \"#utility.yul\":6325:6345   */\n      sub\n        /* \"#utility.yul\":6321:6322   */\n      0x00\n        /* \"#utility.yul\":6310:6319   */\n      dup4\n        /* \"#utility.yul\":6306:6323   */\n      add\n        /* \"#utility.yul\":6299:6346   */\n      mstore\n        /* \"#utility.yul\":6363:6494   */\n      tag_189\n        /* \"#utility.yul\":6489:6493   */\n      dup2\n        /* \"#utility.yul\":6363:6494   */\n      tag_122\n      jump\t// in\n    tag_189:\n        /* \"#utility.yul\":6355:6494   */\n      swap1\n      pop\n        /* \"#utility.yul\":6082:6501   */\n      swap2\n      swap1\n      pop\n      jump\t// out\n        /* \"#utility.yul\":6507:6687   */\n    tag_58:\n        /* \"#utility.yul\":6555:6632   */\n      0x4e487b7100000000000000000000000000000000000000000000000000000000\n        /* \"#utility.yul\":6552:6553   */\n      0x00\n        /* \"#utility.yul\":6545:6633   */\n      mstore\n        /* \"#utility.yul\":6652:6656   */\n      0x41\n        /* \"#utility.yul\":6649:6650   */\n      0x04\n        /* \"#utility.yul\":6642:6657   */\n      mstore\n        /* \"#utility.yul\":6676:6680   */\n      0x24\n        /* \"#utility.yul\":6673:6674   */\n      0x00\n        /* \"#utility.yul\":6666:6681   */\n      revert\n        /* \"#utility.yul\":6693:6873   */\n    tag_62:\n        /* \"#utility.yul\":6741:6818   */\n      0x4e487b7100000000000000000000000000000000000000000000000000000000\n        /* \"#utility.yul\":6738:6739   */\n      0x00\n        /* \"#utility.yul\":6731:6819   */\n      mstore\n        /* \"#utility.yul\":6838:6842   */\n      0x32\n        /* \"#utility.yul\":6835:6836   */\n      0x04\n        /* \"#utility.yul\":6828:6843   */\n      mstore\n        /* \"#utility.yul\":6862:6866   */\n      0x24\n        /* \"#utility.yul\":6859:6860   */\n      0x00\n        /* \"#utility.yul\":6852:6867   */\n      revert\n        /* \"#utility.yul\":6879:7059   */\n    tag_123:\n        /* \"#utility.yul\":6927:7004   */\n      0x4e487b7100000000000000000000000000000000000000000000000000000000\n        /* \"#utility.yul\":6924:6925   */\n      0x00\n        /* \"#utility.yul\":6917:7005   */\n      mstore\n        /* \"#utility.yul\":7024:7028   */\n      0x11\n        /* \"#utility.yul\":7021:7022   */\n      0x04\n        /* \"#utility.yul\":7014:7029   */\n      mstore\n        /* \"#utility.yul\":7048:7052   */\n      0x24\n        /* \"#utility.yul\":7045:7046   */\n      0x00\n        /* \"#utility.yul\":7038:7053   */\n      revert\n        /* \"#utility.yul\":7065:7256   */\n    tag_75:\n        /* \"#utility.yul\":7105:7108   */\n      0x00\n        /* \"#utility.yul\":7124:7144   */\n      tag_194\n        /* \"#utility.yul\":7142:7143   */\n      dup3\n        /* \"#utility.yul\":7124:7144   */\n      tag_106\n      jump\t// in\n    tag_194:\n        /* \"#utility.yul\":7119:7144   */\n      swap2\n      pop\n        /* \"#utility.yul\":7158:7178   */\n      tag_195\n        /* \"#utility.yul\":7176:7177   */\n      dup4\n        /* \"#utility.yul\":7158:7178   */\n      tag_106\n      jump\t// in\n    tag_195:\n        /* \"#utility.yul\":7153:7178   */\n      swap3\n      pop\n        /* \"#utility.yul\":7201:7202   */\n      dup3\n        /* \"#utility.yul\":7198:7199   */\n      dup3\n        /* \"#utility.yul\":7194:7203   */\n      add\n        /* \"#utility.yul\":7187:7203   */\n      swap1\n      pop\n        /* \"#utility.yul\":7222:7225   */\n      dup1\n        /* \"#utility.yul\":7219:7220   */\n      dup3\n        /* \"#utility.yul\":7216:7226   */\n      gt\n        /* \"#utility.yul\":7213:7249   */\n      iszero\n      tag_196\n      jumpi\n        /* \"#utility.yul\":7229:7247   */\n      tag_197\n      tag_123\n      jump\t// in\n    tag_197:\n        /* \"#utility.yul\":7213:7249   */\n    tag_196:\n        /* \"#utility.yul\":7065:7256   */\n      swap3\n      swap2\n      pop\n      pop\n      jump\t// out\n\n    auxdata: 0xa264697066735822122029be3dd1d686392ab2312681c0da51192f8222b3ed0ebe2d047283b13057c02e64736f6c63430008190033\n}\n",
				"bytecode": {
					"linkReferences": {},
					"object": "60806040526040518060a00160405280600160ff168152602001600260ff168152602001600360ff168152602001600460ff168152602001600560ff16815250600190600561004f9291906100ec565b5034801561005b575f80fd5b50335f806101000a81548173ffffffffffffffffffffffffffffffffffffffff021916908373ffffffffffffffffffffffffffffffffffffffff1602179055506040518060a00160405280600a60ff168152602001601460ff168152602001601e60ff168152602001602860ff168152602001603260ff1681525060069060056100e69291906100ec565b5061014c565b8260058101928215610120579160200282015b8281111561011f578251829060ff169055916020019190600101906100ff565b5b50905061012d9190610131565b5090565b5b80821115610148575f815f905550600101610132565b5090565b6108f6806101595f395ff3fe608060405234801561000f575f80fd5b5060043610610091575f3560e01c806371e5ee5f1161006457806371e5ee5f146101095780638da5cb5b14610139578063a92100cb14610157578063b0ec2ae114610175578063edf0099b1461019357610091565b806313af40351461009557806338469409146100b15780633cac14c8146100cf5780633f017e40146100ed575b5f80fd5b6100af60048036038101906100aa919061058f565b6101c3565b005b6100b9610300565b6040516100c691906105d2565b60405180910390f35b6100d7610392565b6040516100e49190610690565b60405180910390f35b610107600480360381019061010291906106d3565b6103dd565b005b610123600480360381019061011e91906106d3565b61041e565b60405161013091906105d2565b60405180910390f35b610141610437565b60405161014e919061070d565b60405180910390f35b61015f61045a565b60405161016c91906105d2565b60405180910390f35b61017d610498565b60405161018a91906105d2565b60405180910390f35b6101ad60048036038101906101a891906106d3565b6104f6565b6040516101ba91906105d2565b60405180910390f35b5f8054906101000a900473ffffffffffffffffffffffffffffffffffffffff1673ffffffffffffffffffffffffffffffffffffffff163373ffffffffffffffffffffffffffffffffffffffff1614610250576040517f08c379a000000000000000000000000000000000000000000000000000000000815260040161024790610780565b60405180910390fd5b5f73ffffffffffffffffffffffffffffffffffffffff168173ffffffffffffffffffffffffffffffffffffffff16036102be576040517f08c379a00000000000000000000000000000000000000000000000000000000081526004016102b5906107e8565b60405180910390fd5b805f806101000a81548173ffffffffffffffffffffffffffffffffffffffff021916908373ffffffffffffffffffffffffffffffffffffffff16021790555050565b5f80600367ffffffffffffffff81111561031d5761031c610806565b5b60405190808252806020026020018201604052801561034b5781602001602082028036833780820191505090505b50905060218160018151811061036457610363610833565b5b6020026020010181815250508060018151811061038457610383610833565b5b602002602001015191505090565b61039a61050f565b60066005806020026040519081016040528092919082600580156103d3576020028201915b8154815260200190600101908083116103bf575b5050505050905090565b5f5b600581101561041a5780826103f4919061088d565b6006826005811061040857610407610833565b5b018190555080806001019150506103df565b5050565b6001816005811061042d575f80fd5b015f915090505481565b5f8054906101000a900473ffffffffffffffffffffffffffffffffffffffff1681565b5f805f90505f5b600a81101561049057600881031561048357600282610480919061088d565b91505b8080600101915050610461565b508091505090565b5f8060016003600581106104af576104ae610833565b5b01549050610bb860016002600581106104cb576104ca610833565b5b018190555060016004600581106104e5576104e4610833565b5b015f90555f60059050809250505090565b60068160058110610505575f80fd5b015f915090505481565b6040518060a00160405280600590602082028036833780820191505090505090565b5f80fd5b5f73ffffffffffffffffffffffffffffffffffffffff82169050919050565b5f61055e82610535565b9050919050565b61056e81610554565b8114610578575f80fd5b50565b5f8135905061058981610565565b92915050565b5f602082840312156105a4576105a3610531565b5b5f6105b18482850161057b565b91505092915050565b5f819050919050565b6105cc816105ba565b82525050565b5f6020820190506105e55f8301846105c3565b92915050565b5f60059050919050565b5f81905092915050565b5f819050919050565b610611816105ba565b82525050565b5f6106228383610608565b60208301905092915050565b5f602082019050919050565b610643816105eb565b61064d81846105f5565b9250610658826105ff565b805f5b8381101561068857815161066f8782610617565b965061067a8361062e565b92505060018101905061065b565b505050505050565b5f60a0820190506106a35f83018461063a565b92915050565b6106b2816105ba565b81146106bc575f80fd5b50565b5f813590506106cd816106a9565b92915050565b5f602082840312156106e8576106e7610531565b5b5f6106f5848285016106bf565b91505092915050565b61070781610554565b82525050565b5f6020820190506107205f8301846106fe565b92915050565b5f82825260208201905092915050565b7f6e6f74206f776e657200000000000000000000000000000000000000000000005f82015250565b5f61076a600983610726565b915061077582610736565b602082019050919050565b5f6020820190508181035f8301526107978161075e565b9050919050565b7f496e76616c6964206164647265737300000000000000000000000000000000005f82015250565b5f6107d2600f83610726565b91506107dd8261079e565b602082019050919050565b5f6020820190508181035f8301526107ff816107c6565b9050919050565b7f4e487b71000000000000000000000000000000000000000000000000000000005f52604160045260245ffd5b7f4e487b71000000000000000000000000000000000000000000000000000000005f52603260045260245ffd5b7f4e487b71000000000000000000000000000000000000000000000000000000005f52601160045260245ffd5b5f610897826105ba565b91506108a2836105ba565b92508282019050808211156108ba576108b9610860565b5b9291505056fea264697066735822122029be3dd1d686392ab2312681c0da51192f8222b3ed0ebe2d047283b13057c02e64736f6c63430008190033",
					"opcodes": "PUSH1 0x80 PUSH1 0x40 MSTORE PUSH1 0x40 MLOAD DUP1 PUSH1 0xA0 ADD PUSH1 0x40 MSTORE DUP1 PUSH1 0x1 PUSH1 0xFF AND DUP2 MSTORE PUSH1 0x20 ADD PUSH1 0x2 PUSH1 0xFF AND DUP2 MSTORE PUSH1 0x20 ADD PUSH1 0x3 PUSH1 0xFF AND DUP2 MSTORE PUSH1 0x20 ADD PUSH1 0x4 PUSH1 0xFF AND DUP2 MSTORE PUSH1 0x20 ADD PUSH1 0x5 PUSH1 0xFF AND DUP2 MSTORE POP PUSH1 0x1 SWAP1 PUSH1 0x5 PUSH2 0x4F SWAP3 SWAP2 SWAP1 PUSH2 0xEC JUMP JUMPDEST POP CALLVALUE DUP1 ISZERO PUSH2 0x5B JUMPI PUSH0 DUP1 REVERT JUMPDEST POP CALLER PUSH0 DUP1 PUSH2 0x100 EXP DUP2 SLOAD DUP2 PUSH20 0xFFFFFFFFFFFFFFFFFFFFFFFFFFFFFFFFFFFFFFFF MUL NOT AND SWAP1 DUP4 PUSH20 0xFFFFFFFFFFFFFFFFFFFFFFFFFFFFFFFFFFFFFFFF AND MUL OR SWAP1 SSTORE POP PUSH1 0x40 MLOAD DUP1 PUSH1 0xA0 ADD PUSH1 0x40 MSTORE DUP1 PUSH1 0xA PUSH1 0xFF AND DUP2 MSTORE PUSH1 0x20 ADD PUSH1 0x14 PUSH1 0xFF AND DUP2 MSTORE PUSH1 0x20 ADD PUSH1 0x1E PUSH1 0xFF AND DUP2 MSTORE PUSH1 0x20 ADD PUSH1 0x28 PUSH1 0xFF AND DUP2 MSTORE PUSH1 0x20 ADD PUSH1 0x32 PUSH1 0xFF AND DUP2 MSTORE POP PUSH1 0x6 SWAP1 PUSH1 0x5 PUSH2 0xE6 SWAP3 SWAP2 SWAP1 PUSH2 0xEC JUMP JUMPDEST POP PUSH2 0x14C JUMP JUMPDEST DUP3 PUSH1 0x5 DUP2 ADD SWAP3 DUP3 ISZERO PUSH2 0x120 JUMPI SWAP2 PUSH1 0x20 MUL DUP3 ADD JUMPDEST DUP3 DUP2 GT ISZERO PUSH2 0x11F JUMPI DUP3 MLOAD DUP3 SWAP1 PUSH1 0xFF AND SWAP1 SSTORE SWAP2 PUSH1 0x20 ADD SWAP2 SWAP1 PUSH1 0x1 ADD SWAP1 PUSH2 0xFF JUMP JUMPDEST JUMPDEST POP SWAP1 POP PUSH2 0x12D SWAP2 SWAP1 PUSH2 0x131 JUMP JUMPDEST POP SWAP1 JUMP JUMPDEST JUMPDEST DUP1 DUP3 GT ISZERO PUSH2 0x148 JUMPI PUSH0 DUP2 PUSH0 SWAP1 SSTORE POP PUSH1 0x1 ADD PUSH2 0x132 JUMP JUMPDEST POP SWAP1 JUMP JUMPDEST PUSH2 0x8F6 DUP1 PUSH2 0x159 PUSH0 CODECOPY PUSH0 RETURN INVALID PUSH1 0x80 PUSH1 0x40 MSTORE CALLVALUE DUP1 ISZERO PUSH2 0xF JUMPI PUSH0 DUP1 REVERT JUMPDEST POP PUSH1 0x4 CALLDATASIZE LT PUSH2 0x91 JUMPI PUSH0 CALLDATALOAD PUSH1 0xE0 SHR DUP1 PUSH4 0x71E5EE5F GT PUSH2 0x64 JUMPI DUP1 PUSH4 0x71E5EE5F EQ PUSH2 0x109 JUMPI DUP1 PUSH4 0x8DA5CB5B EQ PUSH2 0x139 JUMPI DUP1 PUSH4 0xA92100CB EQ PUSH2 0x157 JUMPI DUP1 PUSH4 0xB0EC2AE1 EQ PUSH2 0x175 JUMPI DUP1 PUSH4 0xEDF0099B EQ PUSH2 0x193 JUMPI PUSH2 0x91 JUMP JUMPDEST DUP1 PUSH4 0x13AF4035 EQ PUSH2 0x95 JUMPI DUP1 PUSH4 0x38469409 EQ PUSH2 0xB1 JUMPI DUP1 PUSH4 0x3CAC14C8 EQ PUSH2 0xCF JUMPI DUP1 PUSH4 0x3F017E40 EQ PUSH2 0xED JUMPI JUMPDEST PUSH0 DUP1 REVERT JUMPDEST PUSH2 0xAF PUSH1 0x4 DUP1 CALLDATASIZE SUB DUP2 ADD SWAP1 PUSH2 0xAA SWAP2 SWAP1 PUSH2 0x58F JUMP JUMPDEST PUSH2 0x1C3 JUMP JUMPDEST STOP JUMPDEST PUSH2 0xB9 PUSH2 0x300 JUMP JUMPDEST PUSH1 0x40 MLOAD PUSH2 0xC6 SWAP2 SWAP1 PUSH2 0x5D2 JUMP JUMPDEST PUSH1 0x40 MLOAD DUP1 SWAP2 SUB SWAP1 RETURN JUMPDEST PUSH2 0xD7 PUSH2 0x392 JUMP JUMPDEST PUSH1 0x40 MLOAD PUSH2 0xE4 SWAP2 SWAP1 PUSH2 0x690 JUMP JUMPDEST PUSH1 0x40 MLOAD DUP1 SWAP2 SUB SWAP1 RETURN JUMPDEST PUSH2 0x107 PUSH1 0x4 DUP1 CALLDATASIZE SUB DUP2 ADD SWAP1 PUSH2 0x102 SWAP2 SWAP1 PUSH2 0x6D3 JUMP JUMPDEST PUSH2 0x3DD JUMP JUMPDEST STOP JUMPDEST PUSH2 0x123 PUSH1 0x4 DUP1 CALLDATASIZE SUB DUP2 ADD SWAP1 PUSH2 0x11E SWAP2 SWAP1 PUSH2 0x6D3 JUMP JUMPDEST PUSH2 0x41E JUMP JUMPDEST PUSH1 0x40 MLOAD PUSH2 0x130 SWAP2 SWAP1 PUSH2 0x5D2 JUMP JUMPDEST PUSH1 0x40 MLOAD DUP1 SWAP2 SUB SWAP1 RETURN JUMPDEST PUSH2 0x141 PUSH2 0x437 JUMP JUMPDEST PUSH1 0x40 MLOAD PUSH2 0x14E SWAP2 SWAP1 PUSH2 0x70D JUMP JUMPDEST PUSH1 0x40 MLOAD DUP1 SWAP2 SUB SWAP1 RETURN JUMPDEST PUSH2 0x15F PUSH2 0x45A JUMP JUMPDEST PUSH1 0x40 MLOAD PUSH2 0x16C SWAP2 SWAP1 PUSH2 0x5D2 JUMP JUMPDEST PUSH1 0x40 MLOAD DUP1 SWAP2 SUB SWAP1 RETURN JUMPDEST PUSH2 0x17D PUSH2 0x498 JUMP JUMPDEST PUSH1 0x40 MLOAD PUSH2 0x18A SWAP2 SWAP1 PUSH2 0x5D2 JUMP JUMPDEST PUSH1 0x40 MLOAD DUP1 SWAP2 SUB SWAP1 RETURN JUMPDEST PUSH2 0x1AD PUSH1 0x4 DUP1 CALLDATASIZE SUB DUP2 ADD SWAP1 PUSH2 0x1A8 SWAP2 SWAP1 PUSH2 0x6D3 JUMP JUMPDEST PUSH2 0x4F6 JUMP JUMPDEST PUSH1 0x40 MLOAD PUSH2 0x1BA SWAP2 SWAP1 PUSH2 0x5D2 JUMP JUMPDEST PUSH1 0x40 MLOAD DUP1 SWAP2 SUB SWAP1 RETURN JUMPDEST PUSH0 DUP1 SLOAD SWAP1 PUSH2 0x100 EXP SWAP1 DIV PUSH20 0xFFFFFFFFFFFFFFFFFFFFFFFFFFFFFFFFFFFFFFFF AND PUSH20 0xFFFFFFFFFFFFFFFFFFFFFFFFFFFFFFFFFFFFFFFF AND CALLER PUSH20 0xFFFFFFFFFFFFFFFFFFFFFFFFFFFFFFFFFFFFFFFF AND EQ PUSH2 0x250 JUMPI PUSH1 0x40 MLOAD PUSH32 0x8C379A000000000000000000000000000000000000000000000000000000000 DUP2 MSTORE PUSH1 0x4 ADD PUSH2 0x247 SWAP1 PUSH2 0x780 JUMP JUMPDEST PUSH1 0x40 MLOAD DUP1 SWAP2 SUB SWAP1 REVERT JUMPDEST PUSH0 PUSH20 0xFFFFFFFFFFFFFFFFFFFFFFFFFFFFFFFFFFFFFFFF AND DUP2 PUSH20 0xFFFFFFFFFFFFFFFFFFFFFFFFFFFFFFFFFFFFFFFF AND SUB PUSH2 0x2BE JUMPI PUSH1 0x40 MLOAD PUSH32 0x8C379A000000000000000000000000000000000000000000000000000000000 DUP2 MSTORE PUSH1 0x4 ADD PUSH2 0x2B5 SWAP1 PUSH2 0x7E8 JUMP JUMPDEST PUSH1 0x40 MLOAD DUP1 SWAP2 SUB SWAP1 REVERT JUMPDEST DUP1 PUSH0 DUP1 PUSH2 0x100 EXP DUP2 SLOAD DUP2 PUSH20 0xFFFFFFFFFFFFFFFFFFFFFFFFFFFFFFFFFFFFFFFF MUL NOT AND SWAP1 DUP4 PUSH20 0xFFFFFFFFFFFFFFFFFFFFFFFFFFFFFFFFFFFFFFFF AND MUL OR SWAP1 SSTORE POP POP JUMP JUMPDEST PUSH0 DUP1 PUSH1 0x3 PUSH8 0xFFFFFFFFFFFFFFFF DUP2 GT ISZERO PUSH2 0x31D JUMPI PUSH2 0x31C PUSH2 0x806 JUMP JUMPDEST JUMPDEST PUSH1 0x40 MLOAD SWAP1 DUP1 DUP3 MSTORE DUP1 PUSH1 0x20 MUL PUSH1 0x20 ADD DUP3 ADD PUSH1 0x40 MSTORE DUP1 ISZERO PUSH2 0x34B JUMPI DUP2 PUSH1 0x20 ADD PUSH1 0x20 DUP3 MUL DUP1 CALLDATASIZE DUP4 CALLDATACOPY DUP1 DUP3 ADD SWAP2 POP POP SWAP1 POP JUMPDEST POP SWAP1 POP PUSH1 0x21 DUP2 PUSH1 0x1 DUP2 MLOAD DUP2 LT PUSH2 0x364 JUMPI PUSH2 0x363 PUSH2 0x833 JUMP JUMPDEST JUMPDEST PUSH1 0x20 MUL PUSH1 0x20 ADD ADD DUP2 DUP2 MSTORE POP POP DUP1 PUSH1 0x1 DUP2 MLOAD DUP2 LT PUSH2 0x384 JUMPI PUSH2 0x383 PUSH2 0x833 JUMP JUMPDEST JUMPDEST PUSH1 0x20 MUL PUSH1 0x20 ADD ADD MLOAD SWAP2 POP POP SWAP1 JUMP JUMPDEST PUSH2 0x39A PUSH2 0x50F JUMP JUMPDEST PUSH1 0x6 PUSH1 0x5 DUP1 PUSH1 0x20 MUL PUSH1 0x40 MLOAD SWAP1 DUP2 ADD PUSH1 0x40 MSTORE DUP1 SWAP3 SWAP2 SWAP1 DUP3 PUSH1 0x5 DUP1 ISZERO PUSH2 0x3D3 JUMPI PUSH1 0x20 MUL DUP3 ADD SWAP2 JUMPDEST DUP2 SLOAD DUP2 MSTORE PUSH1 0x20 ADD SWAP1 PUSH1 0x1 ADD SWAP1 DUP1 DUP4 GT PUSH2 0x3BF JUMPI JUMPDEST POP POP POP POP POP SWAP1 POP SWAP1 JUMP JUMPDEST PUSH0 JUMPDEST PUSH1 0x5 DUP2 LT ISZERO PUSH2 0x41A JUMPI DUP1 DUP3 PUSH2 0x3F4 SWAP2 SWAP1 PUSH2 0x88D JUMP JUMPDEST PUSH1 0x6 DUP3 PUSH1 0x5 DUP2 LT PUSH2 0x408 JUMPI PUSH2 0x407 PUSH2 0x833 JUMP JUMPDEST JUMPDEST ADD DUP2 SWAP1 SSTORE POP DUP1 DUP1 PUSH1 0x1 ADD SWAP2 POP POP PUSH2 0x3DF JUMP JUMPDEST POP POP JUMP JUMPDEST PUSH1 0x1 DUP2 PUSH1 0x5 DUP2 LT PUSH2 0x42D JUMPI PUSH0 DUP1 REVERT JUMPDEST ADD PUSH0 SWAP2 POP SWAP1 POP SLOAD DUP2 JUMP JUMPDEST PUSH0 DUP1 SLOAD SWAP1 PUSH2 0x100 EXP SWAP1 DIV PUSH20 0xFFFFFFFFFFFFFFFFFFFFFFFFFFFFFFFFFFFFFFFF AND DUP2 JUMP JUMPDEST PUSH0 DUP1 PUSH0 SWAP1 POP PUSH0 JUMPDEST PUSH1 0xA DUP2 LT ISZERO PUSH2 0x490 JUMPI PUSH1 0x8 DUP2 SUB ISZERO PUSH2 0x483 JUMPI PUSH1 0x2 DUP3 PUSH2 0x480 SWAP2 SWAP1 PUSH2 0x88D JUMP JUMPDEST SWAP2 POP JUMPDEST DUP1 DUP1 PUSH1 0x1 ADD SWAP2 POP POP PUSH2 0x461 JUMP JUMPDEST POP DUP1 SWAP2 POP POP SWAP1 JUMP JUMPDEST PUSH0 DUP1 PUSH1 0x1 PUSH1 0x3 PUSH1 0x5 DUP2 LT PUSH2 0x4AF JUMPI PUSH2 0x4AE PUSH2 0x833 JUMP JUMPDEST JUMPDEST ADD SLOAD SWAP1 POP PUSH2 0xBB8 PUSH1 0x1 PUSH1 0x2 PUSH1 0x5 DUP2 LT PUSH2 0x4CB JUMPI PUSH2 0x4CA PUSH2 0x833 JUMP JUMPDEST JUMPDEST ADD DUP2 SWAP1 SSTORE POP PUSH1 0x1 PUSH1 0x4 PUSH1 0x5 DUP2 LT PUSH2 0x4E5 JUMPI PUSH2 0x4E4 PUSH2 0x833 JUMP JUMPDEST JUMPDEST ADD PUSH0 SWAP1 SSTORE PUSH0 PUSH1 0x5 SWAP1 POP DUP1 SWAP3 POP POP POP SWAP1 JUMP JUMPDEST PUSH1 0x6 DUP2 PUSH1 0x5 DUP2 LT PUSH2 0x505 JUMPI PUSH0 DUP1 REVERT JUMPDEST ADD PUSH0 SWAP2 POP SWAP1 POP SLOAD DUP2 JUMP JUMPDEST PUSH1 0x40 MLOAD DUP1 PUSH1 0xA0 ADD PUSH1 0x40 MSTORE DUP1 PUSH1 0x5 SWAP1 PUSH1 0x20 DUP3 MUL DUP1 CALLDATASIZE DUP4 CALLDATACOPY DUP1 DUP3 ADD SWAP2 POP POP SWAP1 POP POP SWAP1 JUMP JUMPDEST PUSH0 DUP1 REVERT JUMPDEST PUSH0 PUSH20 0xFFFFFFFFFFFFFFFFFFFFFFFFFFFFFFFFFFFFFFFF DUP3 AND SWAP1 POP SWAP2 SWAP1 POP JUMP JUMPDEST PUSH0 PUSH2 0x55E DUP3 PUSH2 0x535 JUMP JUMPDEST SWAP1 POP SWAP2 SWAP1 POP JUMP JUMPDEST PUSH2 0x56E DUP2 PUSH2 0x554 JUMP JUMPDEST DUP2 EQ PUSH2 0x578 JUMPI PUSH0 DUP1 REVERT JUMPDEST POP JUMP JUMPDEST PUSH0 DUP2 CALLDATALOAD SWAP1 POP PUSH2 0x589 DUP2 PUSH2 0x565 JUMP JUMPDEST SWAP3 SWAP2 POP POP JUMP JUMPDEST PUSH0 PUSH1 0x20 DUP3 DUP5 SUB SLT ISZERO PUSH2 0x5A4 JUMPI PUSH2 0x5A3 PUSH2 0x531 JUMP JUMPDEST JUMPDEST PUSH0 PUSH2 0x5B1 DUP5 DUP3 DUP6 ADD PUSH2 0x57B JUMP JUMPDEST SWAP2 POP POP SWAP3 SWAP2 POP POP JUMP JUMPDEST PUSH0 DUP2 SWAP1 POP SWAP2 SWAP1 POP JUMP JUMPDEST PUSH2 0x5CC DUP2 PUSH2 0x5BA JUMP JUMPDEST DUP3 MSTORE POP POP JUMP JUMPDEST PUSH0 PUSH1 0x20 DUP3 ADD SWAP1 POP PUSH2 0x5E5 PUSH0 DUP4 ADD DUP5 PUSH2 0x5C3 JUMP JUMPDEST SWAP3 SWAP2 POP POP JUMP JUMPDEST PUSH0 PUSH1 0x5 SWAP1 POP SWAP2 SWAP1 POP JUMP JUMPDEST PUSH0 DUP2 SWAP1 POP SWAP3 SWAP2 POP POP JUMP JUMPDEST PUSH0 DUP2 SWAP1 POP SWAP2 SWAP1 POP JUMP JUMPDEST PUSH2 0x611 DUP2 PUSH2 0x5BA JUMP JUMPDEST DUP3 MSTORE POP POP JUMP JUMPDEST PUSH0 PUSH2 0x622 DUP4 DUP4 PUSH2 0x608 JUMP JUMPDEST PUSH1 0x20 DUP4 ADD SWAP1 POP SWAP3 SWAP2 POP POP JUMP JUMPDEST PUSH0 PUSH1 0x20 DUP3 ADD SWAP1 POP SWAP2 SWAP1 POP JUMP JUMPDEST PUSH2 0x643 DUP2 PUSH2 0x5EB JUMP JUMPDEST PUSH2 0x64D DUP2 DUP5 PUSH2 0x5F5 JUMP JUMPDEST SWAP3 POP PUSH2 0x658 DUP3 PUSH2 0x5FF JUMP JUMPDEST DUP1 PUSH0 JUMPDEST DUP4 DUP2 LT ISZERO PUSH2 0x688 JUMPI DUP2 MLOAD PUSH2 0x66F DUP8 DUP3 PUSH2 0x617 JUMP JUMPDEST SWAP7 POP PUSH2 0x67A DUP4 PUSH2 0x62E JUMP JUMPDEST SWAP3 POP POP PUSH1 0x1 DUP2 ADD SWAP1 POP PUSH2 0x65B JUMP JUMPDEST POP POP POP POP POP POP JUMP JUMPDEST PUSH0 PUSH1 0xA0 DUP3 ADD SWAP1 POP PUSH2 0x6A3 PUSH0 DUP4 ADD DUP5 PUSH2 0x63A JUMP JUMPDEST SWAP3 SWAP2 POP POP JUMP JUMPDEST PUSH2 0x6B2 DUP2 PUSH2 0x5BA JUMP JUMPDEST DUP2 EQ PUSH2 0x6BC JUMPI PUSH0 DUP1 REVERT JUMPDEST POP JUMP JUMPDEST PUSH0 DUP2 CALLDATALOAD SWAP1 POP PUSH2 0x6CD DUP2 PUSH2 0x6A9 JUMP JUMPDEST SWAP3 SWAP2 POP POP JUMP JUMPDEST PUSH0 PUSH1 0x20 DUP3 DUP5 SUB SLT ISZERO PUSH2 0x6E8 JUMPI PUSH2 0x6E7 PUSH2 0x531 JUMP JUMPDEST JUMPDEST PUSH0 PUSH2 0x6F5 DUP5 DUP3 DUP6 ADD PUSH2 0x6BF JUMP JUMPDEST SWAP2 POP POP SWAP3 SWAP2 POP POP JUMP JUMPDEST PUSH2 0x707 DUP2 PUSH2 0x554 JUMP JUMPDEST DUP3 MSTORE POP POP JUMP JUMPDEST PUSH0 PUSH1 0x20 DUP3 ADD SWAP1 POP PUSH2 0x720 PUSH0 DUP4 ADD DUP5 PUSH2 0x6FE JUMP JUMPDEST SWAP3 SWAP2 POP POP JUMP JUMPDEST PUSH0 DUP3 DUP3 MSTORE PUSH1 0x20 DUP3 ADD SWAP1 POP SWAP3 SWAP2 POP POP JUMP JUMPDEST PUSH32 0x6E6F74206F776E65720000000000000000000000000000000000000000000000 PUSH0 DUP3 ADD MSTORE POP JUMP JUMPDEST PUSH0 PUSH2 0x76A PUSH1 0x9 DUP4 PUSH2 0x726 JUMP JUMPDEST SWAP2 POP PUSH2 0x775 DUP3 PUSH2 0x736 JUMP JUMPDEST PUSH1 0x20 DUP3 ADD SWAP1 POP SWAP2 SWAP1 POP JUMP JUMPDEST PUSH0 PUSH1 0x20 DUP3 ADD SWAP1 POP DUP2 DUP2 SUB PUSH0 DUP4 ADD MSTORE PUSH2 0x797 DUP2 PUSH2 0x75E JUMP JUMPDEST SWAP1 POP SWAP2 SWAP1 POP JUMP JUMPDEST PUSH32 0x496E76616C696420616464726573730000000000000000000000000000000000 PUSH0 DUP3 ADD MSTORE POP JUMP JUMPDEST PUSH0 PUSH2 0x7D2 PUSH1 0xF DUP4 PUSH2 0x726 JUMP JUMPDEST SWAP2 POP PUSH2 0x7DD DUP3 PUSH2 0x79E JUMP JUMPDEST PUSH1 0x20 DUP3 ADD SWAP1 POP SWAP2 SWAP1 POP JUMP JUMPDEST PUSH0 PUSH1 0x20 DUP3 ADD SWAP1 POP DUP2 DUP2 SUB PUSH0 DUP4 ADD MSTORE PUSH2 0x7FF DUP2 PUSH2 0x7C6 JUMP JUMPDEST SWAP1 POP SWAP2 SWAP1 POP JUMP JUMPDEST PUSH32 0x4E487B7100000000000000000000000000000000000000000000000000000000 PUSH0 MSTORE PUSH1 0x41 PUSH1 0x4 MSTORE PUSH1 0x24 PUSH0 REVERT JUMPDEST PUSH32 0x4E487B7100000000000000000000000000000000000000000000000000000000 PUSH0 MSTORE PUSH1 0x32 PUSH1 0x4 MSTORE PUSH1 0x24 PUSH0 REVERT JUMPDEST PUSH32 0x4E487B7100000000000000000000000000000000000000000000000000000000 PUSH0 MSTORE PUSH1 0x11 PUSH1 0x4 MSTORE PUSH1 0x24 PUSH0 REVERT JUMPDEST PUSH0 PUSH2 0x897 DUP3 PUSH2 0x5BA JUMP JUMPDEST SWAP2 POP PUSH2 0x8A2 DUP4 PUSH2 0x5BA JUMP JUMPDEST SWAP3 POP DUP3 DUP3 ADD SWAP1 POP DUP1 DUP3 GT ISZERO PUSH2 0x8BA JUMPI PUSH2 0x8B9 PUSH2 0x860 JUMP JUMPDEST JUMPDEST SWAP3 SWAP2 POP POP JUMP INVALID LOG2 PUSH5 0x6970667358 0x22 SLT KECCAK256 0x29 0xBE RETURNDATASIZE 0xD1 0xD6 DUP7 CODECOPY 0x2A 0xB2 BALANCE 0x26 DUP2 0xC0 0xDA MLOAD NOT 0x2F DUP3 0x22 0xB3 0xED 0xE 0xBE 0x2D DIV PUSH19 0x83B13057C02E64736F6C634300081900330000 "
				},
				"gasEstimates": {
					"creation": {
						"codeDepositCost": "458800",
						"executionCost": "infinite",
						"totalCost": "infinite"
					},
					"external": {
						"arr(uint256)": "infinite",
						"arr2(uint256)": "infinite",
						"array()": "29732",
						"arrayWithLoop(uint256)": "infinite",
						"createArray()": "infinite",
						"loop()": "infinite",
						"owner()": "2527",
						"returnArray()": "infinite",
						"setOwner(address)": "26916"
					}
				},
				"methodIdentifiers": {
					"arr(uint256)": "71e5ee5f",
					"arr2(uint256)": "edf0099b",
					"array()": "b0ec2ae1",
					"arrayWithLoop(uint256)": "3f017e40",
					"createArray()": "38469409",
					"loop()": "a92100cb",
					"owner()": "8da5cb5b",
					"returnArray()": "3cac14c8",
					"setOwner(address)": "13af4035"
				}
			},
			"storageLayout": {
				"storage": [
					{
						"astId": 3,
						"contract": "contracts/sample.sol:ownable",
						"label": "owner",
						"offset": 0,
						"slot": "0",
						"type": "t_address"
					},
					{
						"astId": 13,
						"contract": "contracts/sample.sol:ownable",
						"label": "arr",
						"offset": 0,
						"slot": "1",
						"type": "t_array(t_uint256)5_storage"
					},
					{
						"astId": 17,
						"contract": "contracts/sample.sol:ownable",
						"label": "arr2",
						"offset": 0,
						"slot": "6",
						"type": "t_array(t_uint256)5_storage"
					}
				],
				"types": {
					"t_address": {
						"encoding": "inplace",
						"label": "address",
						"numberOfBytes": "20"
					},
					"t_array(t_uint256)5_storage": {
						"base": "t_uint256",
						"encoding": "inplace",
						"label": "uint256[5]",
						"numberOfBytes": "160"
					},
					"t_uint256": {
						"encoding": "inplace",
						"label": "uint256",
						"numberOfBytes": "32"
					}
				}
			},
			"userdoc": {
				"kind": "user",
				"methods": {},
				"version": 1
			}
		}
	}
}