{
	"contracts/Practice.sol": {
		"Enums": {
			"abi": [
				{
					"inputs": [],
					"name": "getStatus",
					"outputs": [
						{
							"internalType": "enum Enums.Status",
							"name": "",
							"type": "uint8"
						}
					],
					"stateMutability": "view",
					"type": "function"
				},
				{
					"inputs": [],
					"name": "reject",
					"outputs": [],
					"stateMutability": "nonpayable",
					"type": "function"
				},
				{
					"inputs": [],
					"name": "reset",
					"outputs": [],
					"stateMutability": "nonpayable",
					"type": "function"
				},
				{
					"inputs": [
						{
							"internalType": "enum Enums.Status",
							"name": "_status",
							"type": "uint8"
						}
					],
					"name": "setStatus",
					"outputs": [],
					"stateMutability": "nonpayable",
					"type": "function"
				}
			],
			"devdoc": {
				"kind": "dev",
				"methods": {},
				"version": 1
			},
			"evm": {
				"assembly": "    /* \"contracts/Practice.sol\":2012:2460  contract Enums {... */\n  mstore(0x40, 0x80)\n  callvalue\n  dup1\n  iszero\n  tag_1\n  jumpi\n  0x00\n  dup1\n  revert\ntag_1:\n  pop\n  dataSize(sub_0)\n  dup1\n  dataOffset(sub_0)\n  0x00\n  codecopy\n  0x00\n  return\nstop\n\nsub_0: assembly {\n        /* \"contracts/Practice.sol\":2012:2460  contract Enums {... */\n      mstore(0x40, 0x80)\n      callvalue\n      dup1\n      iszero\n      tag_1\n      jumpi\n      0x00\n      dup1\n      revert\n    tag_1:\n      pop\n      jumpi(tag_2, lt(calldatasize, 0x04))\n      shr(0xe0, calldataload(0x00))\n      dup1\n      0x2e49d78b\n      eq\n      tag_3\n      jumpi\n      dup1\n      0x4dc415de\n      eq\n      tag_4\n      jumpi\n      dup1\n      0x4e69d560\n      eq\n      tag_5\n      jumpi\n      dup1\n      0xd826f88f\n      eq\n      tag_6\n      jumpi\n    tag_2:\n      0x00\n      dup1\n      revert\n        /* \"contracts/Practice.sol\":2251:2326  function setStatus(Status _status) public {... */\n    tag_3:\n      tag_7\n      0x04\n      dup1\n      calldatasize\n      sub\n      dup2\n      add\n      swap1\n      tag_8\n      swap2\n      swap1\n      tag_9\n      jump\t// in\n    tag_8:\n      tag_10\n      jump\t// in\n    tag_7:\n      stop\n        /* \"contracts/Practice.sol\":2332:2398  function reject() public {... */\n    tag_4:\n      tag_11\n      tag_12\n      jump\t// in\n    tag_11:\n      stop\n        /* \"contracts/Practice.sol\":2165:2245  function getStatus() public view returns (Status) {... */\n    tag_5:\n      tag_13\n      tag_14\n      jump\t// in\n    tag_13:\n      mload(0x40)\n      tag_15\n      swap2\n      swap1\n      tag_16\n      jump\t// in\n    tag_15:\n      mload(0x40)\n      dup1\n      swap2\n      sub\n      swap1\n      return\n        /* \"contracts/Practice.sol\":2404:2458  function reset() public {... */\n    tag_6:\n      tag_17\n      tag_18\n      jump\t// in\n    tag_17:\n      stop\n        /* \"contracts/Practice.sol\":2251:2326  function setStatus(Status _status) public {... */\n    tag_10:\n        /* \"contracts/Practice.sol\":2312:2319  _status */\n      dup1\n        /* \"contracts/Practice.sol\":2303:2309  status */\n      0x00\n      dup1\n        /* \"contracts/Practice.sol\":2303:2319  status = _status */\n      0x0100\n      exp\n      dup2\n      sload\n      dup2\n      0xff\n      mul\n      not\n      and\n      swap1\n      dup4\n      0x04\n      dup2\n      gt\n      iszero\n      tag_20\n      jumpi\n      tag_21\n      tag_22\n      jump\t// in\n    tag_21:\n    tag_20:\n      mul\n      or\n      swap1\n      sstore\n      pop\n        /* \"contracts/Practice.sol\":2251:2326  function setStatus(Status _status) public {... */\n      pop\n      jump\t// out\n        /* \"contracts/Practice.sol\":2332:2398  function reject() public {... */\n    tag_12:\n        /* \"contracts/Practice.sol\":2376:2391  Status.rejected */\n      0x03\n        /* \"contracts/Practice.sol\":2367:2373  status */\n      0x00\n      dup1\n        /* \"contracts/Practice.sol\":2367:2391  status = Status.rejected */\n      0x0100\n      exp\n      dup2\n      sload\n      dup2\n      0xff\n      mul\n      not\n      and\n      swap1\n      dup4\n      0x04\n      dup2\n      gt\n      iszero\n      tag_24\n      jumpi\n      tag_25\n      tag_22\n      jump\t// in\n    tag_25:\n    tag_24:\n      mul\n      or\n      swap1\n      sstore\n      pop\n        /* \"contracts/Practice.sol\":2332:2398  function reject() public {... */\n      jump\t// out\n        /* \"contracts/Practice.sol\":2165:2245  function getStatus() public view returns (Status) {... */\n    tag_14:\n        /* \"contracts/Practice.sol\":2207:2213  Status */\n      0x00\n        /* \"contracts/Practice.sol\":2232:2238  status */\n      dup1\n      0x00\n      swap1\n      sload\n      swap1\n      0x0100\n      exp\n      swap1\n      div\n      0xff\n      and\n        /* \"contracts/Practice.sol\":2225:2238  return status */\n      swap1\n      pop\n        /* \"contracts/Practice.sol\":2165:2245  function getStatus() public view returns (Status) {... */\n      swap1\n      jump\t// out\n        /* \"contracts/Practice.sol\":2404:2458  function reset() public {... */\n    tag_18:\n        /* \"contracts/Practice.sol\":2445:2451  status */\n      0x00\n      dup1\n        /* \"contracts/Practice.sol\":2438:2451  delete status */\n      0x0100\n      exp\n      dup2\n      sload\n      swap1\n      0xff\n      mul\n      not\n      and\n      swap1\n      sstore\n        /* \"contracts/Practice.sol\":2404:2458  function reset() public {... */\n      jump\t// out\n        /* \"#utility.yul\":88:205   */\n    tag_29:\n        /* \"#utility.yul\":197:198   */\n      0x00\n        /* \"#utility.yul\":194:195   */\n      dup1\n        /* \"#utility.yul\":187:199   */\n      revert\n        /* \"#utility.yul\":334:443   */\n    tag_31:\n        /* \"#utility.yul\":417:418   */\n      0x05\n        /* \"#utility.yul\":410:415   */\n      dup2\n        /* \"#utility.yul\":407:419   */\n      lt\n        /* \"#utility.yul\":397:437   */\n      tag_42\n      jumpi\n        /* \"#utility.yul\":433:434   */\n      0x00\n        /* \"#utility.yul\":430:431   */\n      dup1\n        /* \"#utility.yul\":423:435   */\n      revert\n        /* \"#utility.yul\":397:437   */\n    tag_42:\n        /* \"#utility.yul\":334:443   */\n      pop\n      jump\t// out\n        /* \"#utility.yul\":449:608   */\n    tag_32:\n        /* \"#utility.yul\":505:510   */\n      0x00\n        /* \"#utility.yul\":543:549   */\n      dup2\n        /* \"#utility.yul\":530:550   */\n      calldataload\n        /* \"#utility.yul\":521:550   */\n      swap1\n      pop\n        /* \"#utility.yul\":559:602   */\n      tag_44\n        /* \"#utility.yul\":596:601   */\n      dup2\n        /* \"#utility.yul\":559:602   */\n      tag_31\n      jump\t// in\n    tag_44:\n        /* \"#utility.yul\":449:608   */\n      swap3\n      swap2\n      pop\n      pop\n      jump\t// out\n        /* \"#utility.yul\":614:963   */\n    tag_9:\n        /* \"#utility.yul\":683:689   */\n      0x00\n        /* \"#utility.yul\":732:734   */\n      0x20\n        /* \"#utility.yul\":720:729   */\n      dup3\n        /* \"#utility.yul\":711:718   */\n      dup5\n        /* \"#utility.yul\":707:730   */\n      sub\n        /* \"#utility.yul\":703:735   */\n      slt\n        /* \"#utility.yul\":700:819   */\n      iszero\n      tag_46\n      jumpi\n        /* \"#utility.yul\":738:817   */\n      tag_47\n      tag_29\n      jump\t// in\n    tag_47:\n        /* \"#utility.yul\":700:819   */\n    tag_46:\n        /* \"#utility.yul\":858:859   */\n      0x00\n        /* \"#utility.yul\":883:946   */\n      tag_48\n        /* \"#utility.yul\":938:945   */\n      dup5\n        /* \"#utility.yul\":929:935   */\n      dup3\n        /* \"#utility.yul\":918:927   */\n      dup6\n        /* \"#utility.yul\":914:936   */\n      add\n        /* \"#utility.yul\":883:946   */\n      tag_32\n      jump\t// in\n    tag_48:\n        /* \"#utility.yul\":873:946   */\n      swap2\n      pop\n        /* \"#utility.yul\":829:956   */\n      pop\n        /* \"#utility.yul\":614:963   */\n      swap3\n      swap2\n      pop\n      pop\n      jump\t// out\n        /* \"#utility.yul\":969:1149   */\n    tag_22:\n        /* \"#utility.yul\":1017:1094   */\n      0x4e487b7100000000000000000000000000000000000000000000000000000000\n        /* \"#utility.yul\":1014:1015   */\n      0x00\n        /* \"#utility.yul\":1007:1095   */\n      mstore\n        /* \"#utility.yul\":1114:1118   */\n      0x21\n        /* \"#utility.yul\":1111:1112   */\n      0x04\n        /* \"#utility.yul\":1104:1119   */\n      mstore\n        /* \"#utility.yul\":1138:1142   */\n      0x24\n        /* \"#utility.yul\":1135:1136   */\n      0x00\n        /* \"#utility.yul\":1128:1143   */\n      revert\n        /* \"#utility.yul\":1155:1270   */\n    tag_33:\n        /* \"#utility.yul\":1238:1239   */\n      0x05\n        /* \"#utility.yul\":1231:1236   */\n      dup2\n        /* \"#utility.yul\":1228:1240   */\n      lt\n        /* \"#utility.yul\":1218:1264   */\n      tag_51\n      jumpi\n        /* \"#utility.yul\":1244:1262   */\n      tag_52\n      tag_22\n      jump\t// in\n    tag_52:\n        /* \"#utility.yul\":1218:1264   */\n    tag_51:\n        /* \"#utility.yul\":1155:1270   */\n      pop\n      jump\t// out\n        /* \"#utility.yul\":1276:1407   */\n    tag_34:\n        /* \"#utility.yul\":1323:1330   */\n      0x00\n        /* \"#utility.yul\":1352:1357   */\n      dup2\n        /* \"#utility.yul\":1341:1357   */\n      swap1\n      pop\n        /* \"#utility.yul\":1358:1401   */\n      tag_54\n        /* \"#utility.yul\":1395:1400   */\n      dup3\n        /* \"#utility.yul\":1358:1401   */\n      tag_33\n      jump\t// in\n    tag_54:\n        /* \"#utility.yul\":1276:1407   */\n      swap2\n      swap1\n      pop\n      jump\t// out\n        /* \"#utility.yul\":1413:1544   */\n    tag_35:\n        /* \"#utility.yul\":1471:1480   */\n      0x00\n        /* \"#utility.yul\":1504:1538   */\n      tag_56\n        /* \"#utility.yul\":1532:1537   */\n      dup3\n        /* \"#utility.yul\":1504:1538   */\n      tag_34\n      jump\t// in\n    tag_56:\n        /* \"#utility.yul\":1491:1538   */\n      swap1\n      pop\n        /* \"#utility.yul\":1413:1544   */\n      swap2\n      swap1\n      pop\n      jump\t// out\n        /* \"#utility.yul\":1550:1697   */\n    tag_36:\n        /* \"#utility.yul\":1645:1690   */\n      tag_58\n        /* \"#utility.yul\":1684:1689   */\n      dup2\n        /* \"#utility.yul\":1645:1690   */\n      tag_35\n      jump\t// in\n    tag_58:\n        /* \"#utility.yul\":1640:1643   */\n      dup3\n        /* \"#utility.yul\":1633:1691   */\n      mstore\n        /* \"#utility.yul\":1550:1697   */\n      pop\n      pop\n      jump\t// out\n        /* \"#utility.yul\":1703:1941   */\n    tag_16:\n        /* \"#utility.yul\":1804:1808   */\n      0x00\n        /* \"#utility.yul\":1842:1844   */\n      0x20\n        /* \"#utility.yul\":1831:1840   */\n      dup3\n        /* \"#utility.yul\":1827:1845   */\n      add\n        /* \"#utility.yul\":1819:1845   */\n      swap1\n      pop\n        /* \"#utility.yul\":1855:1934   */\n      tag_60\n        /* \"#utility.yul\":1931:1932   */\n      0x00\n        /* \"#utility.yul\":1920:1929   */\n      dup4\n        /* \"#utility.yul\":1916:1933   */\n      add\n        /* \"#utility.yul\":1907:1913   */\n      dup5\n        /* \"#utility.yul\":1855:1934   */\n      tag_36\n      jump\t// in\n    tag_60:\n        /* \"#utility.yul\":1703:1941   */\n      swap3\n      swap2\n      pop\n      pop\n      jump\t// out\n\n    auxdata: 0xa26469706673582212204c7db585d9e76beb4cf5e752c907f7ee184da50d9ae8486d771c09a65d95d95264736f6c63430008190033\n}\n",
				"bytecode": {
					"linkReferences": {},
					"object": "6080604052348015600e575f80fd5b5061022c8061001c5f395ff3fe608060405234801561000f575f80fd5b506004361061004a575f3560e01c80632e49d78b1461004e5780634dc415de1461006a5780634e69d56014610074578063d826f88f14610092575b5f80fd5b6100686004803603810190610063919061013f565b61009c565b005b6100726100c7565b005b61007c6100f2565b60405161008991906101dd565b60405180910390f35b61009a610106565b005b805f806101000a81548160ff021916908360048111156100bf576100be61016a565b5b021790555050565b60035f806101000a81548160ff021916908360048111156100eb576100ea61016a565b5b0217905550565b5f805f9054906101000a900460ff16905090565b5f806101000a81549060ff0219169055565b5f80fd5b60058110610128575f80fd5b50565b5f813590506101398161011c565b92915050565b5f6020828403121561015457610153610118565b5b5f6101618482850161012b565b91505092915050565b7f4e487b71000000000000000000000000000000000000000000000000000000005f52602160045260245ffd5b600581106101a8576101a761016a565b5b50565b5f8190506101b882610197565b919050565b5f6101c7826101ab565b9050919050565b6101d7816101bd565b82525050565b5f6020820190506101f05f8301846101ce565b9291505056fea26469706673582212204c7db585d9e76beb4cf5e752c907f7ee184da50d9ae8486d771c09a65d95d95264736f6c63430008190033",
					"opcodes": "PUSH1 0x80 PUSH1 0x40 MSTORE CALLVALUE DUP1 ISZERO PUSH1 0xE JUMPI PUSH0 DUP1 REVERT JUMPDEST POP PUSH2 0x22C DUP1 PUSH2 0x1C PUSH0 CODECOPY PUSH0 RETURN INVALID PUSH1 0x80 PUSH1 0x40 MSTORE CALLVALUE DUP1 ISZERO PUSH2 0xF JUMPI PUSH0 DUP1 REVERT JUMPDEST POP PUSH1 0x4 CALLDATASIZE LT PUSH2 0x4A JUMPI PUSH0 CALLDATALOAD PUSH1 0xE0 SHR DUP1 PUSH4 0x2E49D78B EQ PUSH2 0x4E JUMPI DUP1 PUSH4 0x4DC415DE EQ PUSH2 0x6A JUMPI DUP1 PUSH4 0x4E69D560 EQ PUSH2 0x74 JUMPI DUP1 PUSH4 0xD826F88F EQ PUSH2 0x92 JUMPI JUMPDEST PUSH0 DUP1 REVERT JUMPDEST PUSH2 0x68 PUSH1 0x4 DUP1 CALLDATASIZE SUB DUP2 ADD SWAP1 PUSH2 0x63 SWAP2 SWAP1 PUSH2 0x13F JUMP JUMPDEST PUSH2 0x9C JUMP JUMPDEST STOP JUMPDEST PUSH2 0x72 PUSH2 0xC7 JUMP JUMPDEST STOP JUMPDEST PUSH2 0x7C PUSH2 0xF2 JUMP JUMPDEST PUSH1 0x40 MLOAD PUSH2 0x89 SWAP2 SWAP1 PUSH2 0x1DD JUMP JUMPDEST PUSH1 0x40 MLOAD DUP1 SWAP2 SUB SWAP1 RETURN JUMPDEST PUSH2 0x9A PUSH2 0x106 JUMP JUMPDEST STOP JUMPDEST DUP1 PUSH0 DUP1 PUSH2 0x100 EXP DUP2 SLOAD DUP2 PUSH1 0xFF MUL NOT AND SWAP1 DUP4 PUSH1 0x4 DUP2 GT ISZERO PUSH2 0xBF JUMPI PUSH2 0xBE PUSH2 0x16A JUMP JUMPDEST JUMPDEST MUL OR SWAP1 SSTORE POP POP JUMP JUMPDEST PUSH1 0x3 PUSH0 DUP1 PUSH2 0x100 EXP DUP2 SLOAD DUP2 PUSH1 0xFF MUL NOT AND SWAP1 DUP4 PUSH1 0x4 DUP2 GT ISZERO PUSH2 0xEB JUMPI PUSH2 0xEA PUSH2 0x16A JUMP JUMPDEST JUMPDEST MUL OR SWAP1 SSTORE POP JUMP JUMPDEST PUSH0 DUP1 PUSH0 SWAP1 SLOAD SWAP1 PUSH2 0x100 EXP SWAP1 DIV PUSH1 0xFF AND SWAP1 POP SWAP1 JUMP JUMPDEST PUSH0 DUP1 PUSH2 0x100 EXP DUP2 SLOAD SWAP1 PUSH1 0xFF MUL NOT AND SWAP1 SSTORE JUMP JUMPDEST PUSH0 DUP1 REVERT JUMPDEST PUSH1 0x5 DUP2 LT PUSH2 0x128 JUMPI PUSH0 DUP1 REVERT JUMPDEST POP JUMP JUMPDEST PUSH0 DUP2 CALLDATALOAD SWAP1 POP PUSH2 0x139 DUP2 PUSH2 0x11C JUMP JUMPDEST SWAP3 SWAP2 POP POP JUMP JUMPDEST PUSH0 PUSH1 0x20 DUP3 DUP5 SUB SLT ISZERO PUSH2 0x154 JUMPI PUSH2 0x153 PUSH2 0x118 JUMP JUMPDEST JUMPDEST PUSH0 PUSH2 0x161 DUP5 DUP3 DUP6 ADD PUSH2 0x12B JUMP JUMPDEST SWAP2 POP POP SWAP3 SWAP2 POP POP JUMP JUMPDEST PUSH32 0x4E487B7100000000000000000000000000000000000000000000000000000000 PUSH0 MSTORE PUSH1 0x21 PUSH1 0x4 MSTORE PUSH1 0x24 PUSH0 REVERT JUMPDEST PUSH1 0x5 DUP2 LT PUSH2 0x1A8 JUMPI PUSH2 0x1A7 PUSH2 0x16A JUMP JUMPDEST JUMPDEST POP JUMP JUMPDEST PUSH0 DUP2 SWAP1 POP PUSH2 0x1B8 DUP3 PUSH2 0x197 JUMP JUMPDEST SWAP2 SWAP1 POP JUMP JUMPDEST PUSH0 PUSH2 0x1C7 DUP3 PUSH2 0x1AB JUMP JUMPDEST SWAP1 POP SWAP2 SWAP1 POP JUMP JUMPDEST PUSH2 0x1D7 DUP2 PUSH2 0x1BD JUMP JUMPDEST DUP3 MSTORE POP POP JUMP JUMPDEST PUSH0 PUSH1 0x20 DUP3 ADD SWAP1 POP PUSH2 0x1F0 PUSH0 DUP4 ADD DUP5 PUSH2 0x1CE JUMP JUMPDEST SWAP3 SWAP2 POP POP JUMP INVALID LOG2 PUSH5 0x6970667358 0x22 SLT KECCAK256 0x4C PUSH30 0xB585D9E76BEB4CF5E752C907F7EE184DA50D9AE8486D771C09A65D95D952 PUSH5 0x736F6C6343 STOP ADDMOD NOT STOP CALLER "
				},
				"gasEstimates": {
					"creation": {
						"codeDepositCost": "111200",
						"executionCost": "157",
						"totalCost": "111357"
					},
					"external": {
						"getStatus()": "2583",
						"reject()": "24429",
						"reset()": "24428",
						"setStatus(uint8)": "24623"
					}
				},
				"methodIdentifiers": {
					"getStatus()": "4e69d560",
					"reject()": "4dc415de",
					"reset()": "d826f88f",
					"setStatus(uint8)": "2e49d78b"
				}
			},
			"storageLayout": {
				"storage": [
					{
						"astId": 249,
						"contract": "contracts/Practice.sol:Enums",
						"label": "status",
						"offset": 0,
						"slot": "0",
						"type": "t_enum(Status)246"
					}
				],
				"types": {
					"t_enum(Status)246": {
						"encoding": "inplace",
						"label": "enum Enums.Status",
						"numberOfBytes": "1"
					}
				}
			},
			"userdoc": {
				"kind": "user",
				"methods": {},
				"version": 1
			}
		}
	}
}