{
	"contracts/Practice.sol": {
		"Structures": {
			"abi": [
				{
					"inputs": [],
					"stateMutability": "nonpayable",
					"type": "constructor"
				},
				{
					"inputs": [],
					"name": "emp",
					"outputs": [
						{
							"internalType": "string",
							"name": "name",
							"type": "string"
						},
						{
							"internalType": "uint256",
							"name": "age",
							"type": "uint256"
						},
						{
							"internalType": "address",
							"name": "acc",
							"type": "address"
						}
					],
					"stateMutability": "view",
					"type": "function"
				},
				{
					"inputs": [
						{
							"internalType": "uint256",
							"name": "",
							"type": "uint256"
						}
					],
					"name": "emps",
					"outputs": [
						{
							"internalType": "string",
							"name": "name",
							"type": "string"
						},
						{
							"internalType": "uint256",
							"name": "age",
							"type": "uint256"
						},
						{
							"internalType": "address",
							"name": "acc",
							"type": "address"
						}
					],
					"stateMutability": "view",
					"type": "function"
				},
				{
					"inputs": [],
					"name": "setValues",
					"outputs": [],
					"stateMutability": "nonpayable",
					"type": "function"
				}
			],
			"devdoc": {
				"kind": "dev",
				"methods": {},
				"version": 1
			},
			"evm": {
				"assembly": "    /* \"contracts/Practice.sol\":2462:3707  contract Structures {... */\n  mstore(0x40, 0x80)\n    /* \"contracts/Practice.sol\":2619:2719  constructor() {... */\n  callvalue\n  dup1\n  iszero\n  tag_1\n  jumpi\n  0x00\n  dup1\n  revert\ntag_1:\n  pop\n    /* \"contracts/Practice.sol\":2643:2660  emp.name = \"Test\" */\n  mload(0x40)\n  dup1\n  0x40\n  add\n  0x40\n  mstore\n  dup1\n  0x04\n  dup2\n  mstore\n  0x20\n  add\n  0x5465737400000000000000000000000000000000000000000000000000000000\n  dup2\n  mstore\n  pop\n    /* \"contracts/Practice.sol\":2643:2646  emp */\n  0x00\n    /* \"contracts/Practice.sol\":2643:2651  emp.name */\n  dup1\n  add\n    /* \"contracts/Practice.sol\":2643:2660  emp.name = \"Test\" */\n  swap1\n  dup2\n  tag_4\n  swap2\n  swap1\n  tag_5\n  jump\t// in\ntag_4:\n  pop\n    /* \"contracts/Practice.sol\":2680:2682  20 */\n  0x14\n    /* \"contracts/Practice.sol\":2670:2673  emp */\n  0x00\n    /* \"contracts/Practice.sol\":2670:2677  emp.age */\n  0x01\n  add\n    /* \"contracts/Practice.sol\":2670:2682  emp.age = 20 */\n  dup2\n  swap1\n  sstore\n  pop\n    /* \"contracts/Practice.sol\":2702:2712  msg.sender */\n  caller\n    /* \"contracts/Practice.sol\":2692:2695  emp */\n  0x00\n    /* \"contracts/Practice.sol\":2692:2699  emp.acc */\n  0x02\n  add\n  0x00\n    /* \"contracts/Practice.sol\":2692:2712  emp.acc = msg.sender */\n  0x0100\n  exp\n  dup2\n  sload\n  dup2\n  0xffffffffffffffffffffffffffffffffffffffff\n  mul\n  not\n  and\n  swap1\n  dup4\n  0xffffffffffffffffffffffffffffffffffffffff\n  and\n  mul\n  or\n  swap1\n  sstore\n  pop\n    /* \"contracts/Practice.sol\":2462:3707  contract Structures {... */\n  jump(tag_6)\n    /* \"#utility.yul\":7:106   */\ntag_7:\n    /* \"#utility.yul\":59:65   */\n  0x00\n    /* \"#utility.yul\":93:98   */\n  dup2\n    /* \"#utility.yul\":87:99   */\n  mload\n    /* \"#utility.yul\":77:99   */\n  swap1\n  pop\n    /* \"#utility.yul\":7:106   */\n  swap2\n  swap1\n  pop\n  jump\t// out\n    /* \"#utility.yul\":112:292   */\ntag_8:\n    /* \"#utility.yul\":160:237   */\n  0x4e487b7100000000000000000000000000000000000000000000000000000000\n    /* \"#utility.yul\":157:158   */\n  0x00\n    /* \"#utility.yul\":150:238   */\n  mstore\n    /* \"#utility.yul\":257:261   */\n  0x41\n    /* \"#utility.yul\":254:255   */\n  0x04\n    /* \"#utility.yul\":247:262   */\n  mstore\n    /* \"#utility.yul\":281:285   */\n  0x24\n    /* \"#utility.yul\":278:279   */\n  0x00\n    /* \"#utility.yul\":271:286   */\n  revert\n    /* \"#utility.yul\":298:478   */\ntag_9:\n    /* \"#utility.yul\":346:423   */\n  0x4e487b7100000000000000000000000000000000000000000000000000000000\n    /* \"#utility.yul\":343:344   */\n  0x00\n    /* \"#utility.yul\":336:424   */\n  mstore\n    /* \"#utility.yul\":443:447   */\n  0x22\n    /* \"#utility.yul\":440:441   */\n  0x04\n    /* \"#utility.yul\":433:448   */\n  mstore\n    /* \"#utility.yul\":467:471   */\n  0x24\n    /* \"#utility.yul\":464:465   */\n  0x00\n    /* \"#utility.yul\":457:472   */\n  revert\n    /* \"#utility.yul\":484:804   */\ntag_10:\n    /* \"#utility.yul\":528:534   */\n  0x00\n    /* \"#utility.yul\":565:566   */\n  0x02\n    /* \"#utility.yul\":559:563   */\n  dup3\n    /* \"#utility.yul\":555:567   */\n  div\n    /* \"#utility.yul\":545:567   */\n  swap1\n  pop\n    /* \"#utility.yul\":612:613   */\n  0x01\n    /* \"#utility.yul\":606:610   */\n  dup3\n    /* \"#utility.yul\":602:614   */\n  and\n    /* \"#utility.yul\":633:651   */\n  dup1\n    /* \"#utility.yul\":623:704   */\n  tag_32\n  jumpi\n    /* \"#utility.yul\":689:693   */\n  0x7f\n    /* \"#utility.yul\":681:687   */\n  dup3\n    /* \"#utility.yul\":677:694   */\n  and\n    /* \"#utility.yul\":667:694   */\n  swap2\n  pop\n    /* \"#utility.yul\":623:704   */\ntag_32:\n    /* \"#utility.yul\":751:753   */\n  0x20\n    /* \"#utility.yul\":743:749   */\n  dup3\n    /* \"#utility.yul\":740:754   */\n  lt\n    /* \"#utility.yul\":720:738   */\n  dup2\n    /* \"#utility.yul\":717:755   */\n  sub\n    /* \"#utility.yul\":714:798   */\n  tag_33\n  jumpi\n    /* \"#utility.yul\":770:788   */\n  tag_34\n  tag_9\n  jump\t// in\ntag_34:\n    /* \"#utility.yul\":714:798   */\ntag_33:\n    /* \"#utility.yul\":535:804   */\n  pop\n    /* \"#utility.yul\":484:804   */\n  swap2\n  swap1\n  pop\n  jump\t// out\n    /* \"#utility.yul\":810:951   */\ntag_11:\n    /* \"#utility.yul\":859:863   */\n  0x00\n    /* \"#utility.yul\":882:885   */\n  dup2\n    /* \"#utility.yul\":874:885   */\n  swap1\n  pop\n    /* \"#utility.yul\":905:908   */\n  dup2\n    /* \"#utility.yul\":902:903   */\n  0x00\n    /* \"#utility.yul\":895:909   */\n  mstore\n    /* \"#utility.yul\":939:943   */\n  0x20\n    /* \"#utility.yul\":936:937   */\n  0x00\n    /* \"#utility.yul\":926:944   */\n  keccak256\n    /* \"#utility.yul\":918:944   */\n  swap1\n  pop\n    /* \"#utility.yul\":810:951   */\n  swap2\n  swap1\n  pop\n  jump\t// out\n    /* \"#utility.yul\":957:1050   */\ntag_12:\n    /* \"#utility.yul\":994:1000   */\n  0x00\n    /* \"#utility.yul\":1041:1043   */\n  0x20\n    /* \"#utility.yul\":1036:1038   */\n  0x1f\n    /* \"#utility.yul\":1029:1034   */\n  dup4\n    /* \"#utility.yul\":1025:1039   */\n  add\n    /* \"#utility.yul\":1021:1044   */\n  div\n    /* \"#utility.yul\":1011:1044   */\n  swap1\n  pop\n    /* \"#utility.yul\":957:1050   */\n  swap2\n  swap1\n  pop\n  jump\t// out\n    /* \"#utility.yul\":1056:1163   */\ntag_13:\n    /* \"#utility.yul\":1100:1108   */\n  0x00\n    /* \"#utility.yul\":1150:1155   */\n  dup3\n    /* \"#utility.yul\":1144:1148   */\n  dup3\n    /* \"#utility.yul\":1140:1156   */\n  shl\n    /* \"#utility.yul\":1119:1156   */\n  swap1\n  pop\n    /* \"#utility.yul\":1056:1163   */\n  swap3\n  swap2\n  pop\n  pop\n  jump\t// out\n    /* \"#utility.yul\":1169:1562   */\ntag_14:\n    /* \"#utility.yul\":1238:1244   */\n  0x00\n    /* \"#utility.yul\":1288:1289   */\n  0x08\n    /* \"#utility.yul\":1276:1286   */\n  dup4\n    /* \"#utility.yul\":1272:1290   */\n  mul\n    /* \"#utility.yul\":1311:1408   */\n  tag_39\n    /* \"#utility.yul\":1341:1407   */\n  0xffffffffffffffffffffffffffffffffffffffffffffffffffffffffffffffff\n    /* \"#utility.yul\":1330:1339   */\n  dup3\n    /* \"#utility.yul\":1311:1408   */\n  tag_13\n  jump\t// in\ntag_39:\n    /* \"#utility.yul\":1429:1468   */\n  tag_40\n    /* \"#utility.yul\":1459:1467   */\n  dup7\n    /* \"#utility.yul\":1448:1457   */\n  dup4\n    /* \"#utility.yul\":1429:1468   */\n  tag_13\n  jump\t// in\ntag_40:\n    /* \"#utility.yul\":1417:1468   */\n  swap6\n  pop\n    /* \"#utility.yul\":1501:1505   */\n  dup1\n    /* \"#utility.yul\":1497:1506   */\n  not\n    /* \"#utility.yul\":1490:1495   */\n  dup5\n    /* \"#utility.yul\":1486:1507   */\n  and\n    /* \"#utility.yul\":1477:1507   */\n  swap4\n  pop\n    /* \"#utility.yul\":1550:1554   */\n  dup1\n    /* \"#utility.yul\":1540:1548   */\n  dup7\n    /* \"#utility.yul\":1536:1555   */\n  and\n    /* \"#utility.yul\":1529:1534   */\n  dup5\n    /* \"#utility.yul\":1526:1556   */\n  or\n    /* \"#utility.yul\":1516:1556   */\n  swap3\n  pop\n    /* \"#utility.yul\":1245:1562   */\n  pop\n  pop\n    /* \"#utility.yul\":1169:1562   */\n  swap4\n  swap3\n  pop\n  pop\n  pop\n  jump\t// out\n    /* \"#utility.yul\":1568:1645   */\ntag_15:\n    /* \"#utility.yul\":1605:1612   */\n  0x00\n    /* \"#utility.yul\":1634:1639   */\n  dup2\n    /* \"#utility.yul\":1623:1639   */\n  swap1\n  pop\n    /* \"#utility.yul\":1568:1645   */\n  swap2\n  swap1\n  pop\n  jump\t// out\n    /* \"#utility.yul\":1651:1711   */\ntag_16:\n    /* \"#utility.yul\":1679:1682   */\n  0x00\n    /* \"#utility.yul\":1700:1705   */\n  dup2\n    /* \"#utility.yul\":1693:1705   */\n  swap1\n  pop\n    /* \"#utility.yul\":1651:1711   */\n  swap2\n  swap1\n  pop\n  jump\t// out\n    /* \"#utility.yul\":1717:1859   */\ntag_17:\n    /* \"#utility.yul\":1767:1776   */\n  0x00\n    /* \"#utility.yul\":1800:1853   */\n  tag_44\n    /* \"#utility.yul\":1818:1852   */\n  tag_45\n    /* \"#utility.yul\":1827:1851   */\n  tag_46\n    /* \"#utility.yul\":1845:1850   */\n  dup5\n    /* \"#utility.yul\":1827:1851   */\n  tag_15\n  jump\t// in\ntag_46:\n    /* \"#utility.yul\":1818:1852   */\n  tag_16\n  jump\t// in\ntag_45:\n    /* \"#utility.yul\":1800:1853   */\n  tag_15\n  jump\t// in\ntag_44:\n    /* \"#utility.yul\":1787:1853   */\n  swap1\n  pop\n    /* \"#utility.yul\":1717:1859   */\n  swap2\n  swap1\n  pop\n  jump\t// out\n    /* \"#utility.yul\":1865:1940   */\ntag_18:\n    /* \"#utility.yul\":1908:1911   */\n  0x00\n    /* \"#utility.yul\":1929:1934   */\n  dup2\n    /* \"#utility.yul\":1922:1934   */\n  swap1\n  pop\n    /* \"#utility.yul\":1865:1940   */\n  swap2\n  swap1\n  pop\n  jump\t// out\n    /* \"#utility.yul\":1946:2215   */\ntag_19:\n    /* \"#utility.yul\":2056:2095   */\n  tag_49\n    /* \"#utility.yul\":2087:2094   */\n  dup4\n    /* \"#utility.yul\":2056:2095   */\n  tag_17\n  jump\t// in\ntag_49:\n    /* \"#utility.yul\":2117:2208   */\n  tag_50\n    /* \"#utility.yul\":2166:2207   */\n  tag_51\n    /* \"#utility.yul\":2190:2206   */\n  dup3\n    /* \"#utility.yul\":2166:2207   */\n  tag_18\n  jump\t// in\ntag_51:\n    /* \"#utility.yul\":2158:2164   */\n  dup5\n    /* \"#utility.yul\":2151:2155   */\n  dup5\n    /* \"#utility.yul\":2145:2156   */\n  sload\n    /* \"#utility.yul\":2117:2208   */\n  tag_14\n  jump\t// in\ntag_50:\n    /* \"#utility.yul\":2111:2115   */\n  dup3\n    /* \"#utility.yul\":2104:2209   */\n  sstore\n    /* \"#utility.yul\":2022:2215   */\n  pop\n    /* \"#utility.yul\":1946:2215   */\n  pop\n  pop\n  pop\n  jump\t// out\n    /* \"#utility.yul\":2221:2294   */\ntag_20:\n    /* \"#utility.yul\":2266:2269   */\n  0x00\n    /* \"#utility.yul\":2221:2294   */\n  swap1\n  jump\t// out\n    /* \"#utility.yul\":2300:2489   */\ntag_21:\n    /* \"#utility.yul\":2377:2409   */\n  tag_54\n  tag_20\n  jump\t// in\ntag_54:\n    /* \"#utility.yul\":2418:2483   */\n  tag_55\n    /* \"#utility.yul\":2476:2482   */\n  dup2\n    /* \"#utility.yul\":2468:2474   */\n  dup5\n    /* \"#utility.yul\":2462:2466   */\n  dup5\n    /* \"#utility.yul\":2418:2483   */\n  tag_19\n  jump\t// in\ntag_55:\n    /* \"#utility.yul\":2353:2489   */\n  pop\n    /* \"#utility.yul\":2300:2489   */\n  pop\n  pop\n  jump\t// out\n    /* \"#utility.yul\":2495:2681   */\ntag_22:\n    /* \"#utility.yul\":2555:2675   */\ntag_57:\n    /* \"#utility.yul\":2572:2575   */\n  dup2\n    /* \"#utility.yul\":2565:2570   */\n  dup2\n    /* \"#utility.yul\":2562:2576   */\n  lt\n    /* \"#utility.yul\":2555:2675   */\n  iszero\n  tag_59\n  jumpi\n    /* \"#utility.yul\":2626:2665   */\n  tag_60\n    /* \"#utility.yul\":2663:2664   */\n  0x00\n    /* \"#utility.yul\":2656:2661   */\n  dup3\n    /* \"#utility.yul\":2626:2665   */\n  tag_21\n  jump\t// in\ntag_60:\n    /* \"#utility.yul\":2599:2600   */\n  0x01\n    /* \"#utility.yul\":2592:2597   */\n  dup2\n    /* \"#utility.yul\":2588:2601   */\n  add\n    /* \"#utility.yul\":2579:2601   */\n  swap1\n  pop\n    /* \"#utility.yul\":2555:2675   */\n  jump(tag_57)\ntag_59:\n    /* \"#utility.yul\":2495:2681   */\n  pop\n  pop\n  jump\t// out\n    /* \"#utility.yul\":2687:3230   */\ntag_23:\n    /* \"#utility.yul\":2788:2790   */\n  0x1f\n    /* \"#utility.yul\":2783:2786   */\n  dup3\n    /* \"#utility.yul\":2780:2791   */\n  gt\n    /* \"#utility.yul\":2777:3223   */\n  iszero\n  tag_62\n  jumpi\n    /* \"#utility.yul\":2822:2860   */\n  tag_63\n    /* \"#utility.yul\":2854:2859   */\n  dup2\n    /* \"#utility.yul\":2822:2860   */\n  tag_11\n  jump\t// in\ntag_63:\n    /* \"#utility.yul\":2906:2935   */\n  tag_64\n    /* \"#utility.yul\":2924:2934   */\n  dup5\n    /* \"#utility.yul\":2906:2935   */\n  tag_12\n  jump\t// in\ntag_64:\n    /* \"#utility.yul\":2896:2904   */\n  dup2\n    /* \"#utility.yul\":2892:2936   */\n  add\n    /* \"#utility.yul\":3089:3091   */\n  0x20\n    /* \"#utility.yul\":3077:3087   */\n  dup6\n    /* \"#utility.yul\":3074:3092   */\n  lt\n    /* \"#utility.yul\":3071:3120   */\n  iszero\n  tag_65\n  jumpi\n    /* \"#utility.yul\":3110:3118   */\n  dup2\n    /* \"#utility.yul\":3095:3118   */\n  swap1\n  pop\n    /* \"#utility.yul\":3071:3120   */\ntag_65:\n    /* \"#utility.yul\":3133:3213   */\n  tag_66\n    /* \"#utility.yul\":3189:3211   */\n  tag_67\n    /* \"#utility.yul\":3207:3210   */\n  dup6\n    /* \"#utility.yul\":3189:3211   */\n  tag_12\n  jump\t// in\ntag_67:\n    /* \"#utility.yul\":3179:3187   */\n  dup4\n    /* \"#utility.yul\":3175:3212   */\n  add\n    /* \"#utility.yul\":3162:3173   */\n  dup3\n    /* \"#utility.yul\":3133:3213   */\n  tag_22\n  jump\t// in\ntag_66:\n    /* \"#utility.yul\":2792:3223   */\n  pop\n  pop\n    /* \"#utility.yul\":2777:3223   */\ntag_62:\n    /* \"#utility.yul\":2687:3230   */\n  pop\n  pop\n  pop\n  jump\t// out\n    /* \"#utility.yul\":3236:3353   */\ntag_24:\n    /* \"#utility.yul\":3290:3298   */\n  0x00\n    /* \"#utility.yul\":3340:3345   */\n  dup3\n    /* \"#utility.yul\":3334:3338   */\n  dup3\n    /* \"#utility.yul\":3330:3346   */\n  shr\n    /* \"#utility.yul\":3309:3346   */\n  swap1\n  pop\n    /* \"#utility.yul\":3236:3353   */\n  swap3\n  swap2\n  pop\n  pop\n  jump\t// out\n    /* \"#utility.yul\":3359:3528   */\ntag_25:\n    /* \"#utility.yul\":3403:3409   */\n  0x00\n    /* \"#utility.yul\":3436:3487   */\n  tag_70\n    /* \"#utility.yul\":3484:3485   */\n  0x00\n    /* \"#utility.yul\":3480:3486   */\n  not\n    /* \"#utility.yul\":3472:3477   */\n  dup5\n    /* \"#utility.yul\":3469:3470   */\n  0x08\n    /* \"#utility.yul\":3465:3478   */\n  mul\n    /* \"#utility.yul\":3436:3487   */\n  tag_24\n  jump\t// in\ntag_70:\n    /* \"#utility.yul\":3432:3488   */\n  not\n    /* \"#utility.yul\":3517:3521   */\n  dup1\n    /* \"#utility.yul\":3511:3515   */\n  dup4\n    /* \"#utility.yul\":3507:3522   */\n  and\n    /* \"#utility.yul\":3497:3522   */\n  swap2\n  pop\n    /* \"#utility.yul\":3410:3528   */\n  pop\n    /* \"#utility.yul\":3359:3528   */\n  swap3\n  swap2\n  pop\n  pop\n  jump\t// out\n    /* \"#utility.yul\":3533:3828   */\ntag_26:\n    /* \"#utility.yul\":3609:3613   */\n  0x00\n    /* \"#utility.yul\":3755:3784   */\n  tag_72\n    /* \"#utility.yul\":3780:3783   */\n  dup4\n    /* \"#utility.yul\":3774:3778   */\n  dup4\n    /* \"#utility.yul\":3755:3784   */\n  tag_25\n  jump\t// in\ntag_72:\n    /* \"#utility.yul\":3747:3784   */\n  swap2\n  pop\n    /* \"#utility.yul\":3817:3820   */\n  dup3\n    /* \"#utility.yul\":3814:3815   */\n  0x02\n    /* \"#utility.yul\":3810:3821   */\n  mul\n    /* \"#utility.yul\":3804:3808   */\n  dup3\n    /* \"#utility.yul\":3801:3822   */\n  or\n    /* \"#utility.yul\":3793:3822   */\n  swap1\n  pop\n    /* \"#utility.yul\":3533:3828   */\n  swap3\n  swap2\n  pop\n  pop\n  jump\t// out\n    /* \"#utility.yul\":3833:5228   */\ntag_5:\n    /* \"#utility.yul\":3950:3987   */\n  tag_74\n    /* \"#utility.yul\":3983:3986   */\n  dup3\n    /* \"#utility.yul\":3950:3987   */\n  tag_7\n  jump\t// in\ntag_74:\n    /* \"#utility.yul\":4052:4070   */\n  0xffffffffffffffff\n    /* \"#utility.yul\":4044:4050   */\n  dup2\n    /* \"#utility.yul\":4041:4071   */\n  gt\n    /* \"#utility.yul\":4038:4094   */\n  iszero\n  tag_75\n  jumpi\n    /* \"#utility.yul\":4074:4092   */\n  tag_76\n  tag_8\n  jump\t// in\ntag_76:\n    /* \"#utility.yul\":4038:4094   */\ntag_75:\n    /* \"#utility.yul\":4118:4156   */\n  tag_77\n    /* \"#utility.yul\":4150:4154   */\n  dup3\n    /* \"#utility.yul\":4144:4155   */\n  sload\n    /* \"#utility.yul\":4118:4156   */\n  tag_10\n  jump\t// in\ntag_77:\n    /* \"#utility.yul\":4203:4270   */\n  tag_78\n    /* \"#utility.yul\":4263:4269   */\n  dup3\n    /* \"#utility.yul\":4255:4261   */\n  dup3\n    /* \"#utility.yul\":4249:4253   */\n  dup6\n    /* \"#utility.yul\":4203:4270   */\n  tag_23\n  jump\t// in\ntag_78:\n    /* \"#utility.yul\":4297:4298   */\n  0x00\n    /* \"#utility.yul\":4321:4325   */\n  0x20\n    /* \"#utility.yul\":4308:4325   */\n  swap1\n  pop\n    /* \"#utility.yul\":4353:4355   */\n  0x1f\n    /* \"#utility.yul\":4345:4351   */\n  dup4\n    /* \"#utility.yul\":4342:4356   */\n  gt\n    /* \"#utility.yul\":4370:4371   */\n  0x01\n    /* \"#utility.yul\":4365:4983   */\n  dup2\n  eq\n  tag_80\n  jumpi\n    /* \"#utility.yul\":5027:5028   */\n  0x00\n    /* \"#utility.yul\":5044:5050   */\n  dup5\n    /* \"#utility.yul\":5041:5118   */\n  iszero\n  tag_81\n  jumpi\n    /* \"#utility.yul\":5093:5102   */\n  dup3\n    /* \"#utility.yul\":5088:5091   */\n  dup8\n    /* \"#utility.yul\":5084:5103   */\n  add\n    /* \"#utility.yul\":5078:5104   */\n  mload\n    /* \"#utility.yul\":5069:5104   */\n  swap1\n  pop\n    /* \"#utility.yul\":5041:5118   */\ntag_81:\n    /* \"#utility.yul\":5144:5211   */\n  tag_82\n    /* \"#utility.yul\":5204:5210   */\n  dup6\n    /* \"#utility.yul\":5197:5202   */\n  dup3\n    /* \"#utility.yul\":5144:5211   */\n  tag_26\n  jump\t// in\ntag_82:\n    /* \"#utility.yul\":5138:5142   */\n  dup7\n    /* \"#utility.yul\":5131:5212   */\n  sstore\n    /* \"#utility.yul\":5000:5222   */\n  pop\n    /* \"#utility.yul\":4335:5222   */\n  jump(tag_79)\n    /* \"#utility.yul\":4365:4983   */\ntag_80:\n    /* \"#utility.yul\":4417:4421   */\n  0x1f\n    /* \"#utility.yul\":4413:4422   */\n  not\n    /* \"#utility.yul\":4405:4411   */\n  dup5\n    /* \"#utility.yul\":4401:4423   */\n  and\n    /* \"#utility.yul\":4451:4488   */\n  tag_83\n    /* \"#utility.yul\":4483:4487   */\n  dup7\n    /* \"#utility.yul\":4451:4488   */\n  tag_11\n  jump\t// in\ntag_83:\n    /* \"#utility.yul\":4510:4511   */\n  0x00\n    /* \"#utility.yul\":4524:4732   */\ntag_84:\n    /* \"#utility.yul\":4538:4545   */\n  dup3\n    /* \"#utility.yul\":4535:4536   */\n  dup2\n    /* \"#utility.yul\":4532:4546   */\n  lt\n    /* \"#utility.yul\":4524:4732   */\n  iszero\n  tag_86\n  jumpi\n    /* \"#utility.yul\":4617:4626   */\n  dup5\n    /* \"#utility.yul\":4612:4615   */\n  dup10\n    /* \"#utility.yul\":4608:4627   */\n  add\n    /* \"#utility.yul\":4602:4628   */\n  mload\n    /* \"#utility.yul\":4594:4600   */\n  dup3\n    /* \"#utility.yul\":4587:4629   */\n  sstore\n    /* \"#utility.yul\":4668:4669   */\n  0x01\n    /* \"#utility.yul\":4660:4666   */\n  dup3\n    /* \"#utility.yul\":4656:4670   */\n  add\n    /* \"#utility.yul\":4646:4670   */\n  swap2\n  pop\n    /* \"#utility.yul\":4715:4717   */\n  0x20\n    /* \"#utility.yul\":4704:4713   */\n  dup6\n    /* \"#utility.yul\":4700:4718   */\n  add\n    /* \"#utility.yul\":4687:4718   */\n  swap5\n  pop\n    /* \"#utility.yul\":4561:4565   */\n  0x20\n    /* \"#utility.yul\":4558:4559   */\n  dup2\n    /* \"#utility.yul\":4554:4566   */\n  add\n    /* \"#utility.yul\":4549:4566   */\n  swap1\n  pop\n    /* \"#utility.yul\":4524:4732   */\n  jump(tag_84)\ntag_86:\n    /* \"#utility.yul\":4760:4766   */\n  dup7\n    /* \"#utility.yul\":4751:4758   */\n  dup4\n    /* \"#utility.yul\":4748:4767   */\n  lt\n    /* \"#utility.yul\":4745:4924   */\n  iszero\n  tag_87\n  jumpi\n    /* \"#utility.yul\":4818:4827   */\n  dup5\n    /* \"#utility.yul\":4813:4816   */\n  dup10\n    /* \"#utility.yul\":4809:4828   */\n  add\n    /* \"#utility.yul\":4803:4829   */\n  mload\n    /* \"#utility.yul\":4861:4909   */\n  tag_88\n    /* \"#utility.yul\":4903:4907   */\n  0x1f\n    /* \"#utility.yul\":4895:4901   */\n  dup10\n    /* \"#utility.yul\":4891:4908   */\n  and\n    /* \"#utility.yul\":4880:4889   */\n  dup3\n    /* \"#utility.yul\":4861:4909   */\n  tag_25\n  jump\t// in\ntag_88:\n    /* \"#utility.yul\":4853:4859   */\n  dup4\n    /* \"#utility.yul\":4846:4910   */\n  sstore\n    /* \"#utility.yul\":4768:4924   */\n  pop\n    /* \"#utility.yul\":4745:4924   */\ntag_87:\n    /* \"#utility.yul\":4970:4971   */\n  0x01\n    /* \"#utility.yul\":4966:4967   */\n  0x02\n    /* \"#utility.yul\":4958:4964   */\n  dup9\n    /* \"#utility.yul\":4954:4968   */\n  mul\n    /* \"#utility.yul\":4950:4972   */\n  add\n    /* \"#utility.yul\":4944:4948   */\n  dup9\n    /* \"#utility.yul\":4937:4973   */\n  sstore\n    /* \"#utility.yul\":4372:4983   */\n  pop\n  pop\n  pop\n    /* \"#utility.yul\":4335:5222   */\ntag_79:\n  pop\n    /* \"#utility.yul\":3925:5228   */\n  pop\n  pop\n  pop\n    /* \"#utility.yul\":3833:5228   */\n  pop\n  pop\n  jump\t// out\n    /* \"contracts/Practice.sol\":2462:3707  contract Structures {... */\ntag_6:\n  dataSize(sub_0)\n  dup1\n  dataOffset(sub_0)\n  0x00\n  codecopy\n  0x00\n  return\nstop\n\nsub_0: assembly {\n        /* \"contracts/Practice.sol\":2462:3707  contract Structures {... */\n      mstore(0x40, 0x80)\n      callvalue\n      dup1\n      iszero\n      tag_1\n      jumpi\n      0x00\n      dup1\n      revert\n    tag_1:\n      pop\n      jumpi(tag_2, lt(calldatasize, 0x04))\n      shr(0xe0, calldataload(0x00))\n      dup1\n      0x800509d5\n      eq\n      tag_3\n      jumpi\n      dup1\n      0xb34fad41\n      eq\n      tag_4\n      jumpi\n      dup1\n      0xe53b109e\n      eq\n      tag_5\n      jumpi\n    tag_2:\n      0x00\n      dup1\n      revert\n        /* \"contracts/Practice.sol\":2725:3705  function setValues() public {... */\n    tag_3:\n      tag_6\n      tag_7\n      jump\t// in\n    tag_6:\n      stop\n        /* \"contracts/Practice.sol\":2575:2589  Emp public emp */\n    tag_4:\n      tag_8\n      tag_9\n      jump\t// in\n    tag_8:\n      mload(0x40)\n      tag_10\n      swap4\n      swap3\n      swap2\n      swap1\n      tag_11\n      jump\t// in\n    tag_10:\n      mload(0x40)\n      dup1\n      swap2\n      sub\n      swap1\n      return\n        /* \"contracts/Practice.sol\":2595:2612  Emp[] public emps */\n    tag_5:\n      tag_12\n      0x04\n      dup1\n      calldatasize\n      sub\n      dup2\n      add\n      swap1\n      tag_13\n      swap2\n      swap1\n      tag_14\n      jump\t// in\n    tag_13:\n      tag_15\n      jump\t// in\n    tag_12:\n      mload(0x40)\n      tag_16\n      swap4\n      swap3\n      swap2\n      swap1\n      tag_11\n      jump\t// in\n    tag_16:\n      mload(0x40)\n      dup1\n      swap2\n      sub\n      swap1\n      return\n        /* \"contracts/Practice.sol\":2725:3705  function setValues() public {... */\n    tag_7:\n        /* \"contracts/Practice.sol\":2797:2812  Emp memory emp1 */\n      0x00\n        /* \"contracts/Practice.sol\":2815:2920  Emp(... */\n      mload(0x40)\n      dup1\n      0x60\n      add\n      0x40\n      mstore\n      dup1\n      mload(0x40)\n      dup1\n      0x40\n      add\n      0x40\n      mstore\n      dup1\n      0x04\n      dup2\n      mstore\n      0x20\n      add\n      0x556d657200000000000000000000000000000000000000000000000000000000\n      dup2\n      mstore\n      pop\n      dup2\n      mstore\n      0x20\n      add\n        /* \"contracts/Practice.sol\":2852:2854  21 */\n      0x15\n        /* \"contracts/Practice.sol\":2815:2920  Emp(... */\n      dup2\n      mstore\n      0x20\n      add\n        /* \"contracts/Practice.sol\":2868:2910  0x5B38Da6a701c568545dCfcB03FcB875f56beddC4 */\n      0x5b38da6a701c568545dcfcb03fcb875f56beddc4\n        /* \"contracts/Practice.sol\":2815:2920  Emp(... */\n      0xffffffffffffffffffffffffffffffffffffffff\n      and\n      dup2\n      mstore\n      pop\n        /* \"contracts/Practice.sol\":2797:2920  Emp memory emp1 = Emp(... */\n      swap1\n      pop\n        /* \"contracts/Practice.sol\":2965:2980  Emp memory emp2 */\n      0x00\n        /* \"contracts/Practice.sol\":2983:3107  Emp({... */\n      mload(0x40)\n      dup1\n      0x60\n      add\n      0x40\n      mstore\n      dup1\n      mload(0x40)\n      dup1\n      0x40\n      add\n      0x40\n      mstore\n      dup1\n      0x05\n      dup2\n      mstore\n      0x20\n      add\n      0x41686d6564000000000000000000000000000000000000000000000000000000\n      dup2\n      mstore\n      pop\n      dup2\n      mstore\n      0x20\n      add\n        /* \"contracts/Practice.sol\":3067:3069  22 */\n      0x16\n        /* \"contracts/Practice.sol\":2983:3107  Emp({... */\n      dup2\n      mstore\n      0x20\n      add\n        /* \"contracts/Practice.sol\":3006:3048  0x5B38Da6a701c568545dCfcB03FcB875f56beddC4 */\n      0x5b38da6a701c568545dcfcb03fcb875f56beddc4\n        /* \"contracts/Practice.sol\":2983:3107  Emp({... */\n      0xffffffffffffffffffffffffffffffffffffffff\n      and\n      dup2\n      mstore\n      pop\n        /* \"contracts/Practice.sol\":2965:3107  Emp memory emp2 = Emp({... */\n      swap1\n      pop\n        /* \"contracts/Practice.sol\":3152:3167  Emp memory emp3 */\n      tag_18\n      tag_19\n      jump\t// in\n    tag_18:\n        /* \"contracts/Practice.sol\":3177:3195  emp3.name = \"John\" */\n      mload(0x40)\n      dup1\n      0x40\n      add\n      0x40\n      mstore\n      dup1\n      0x04\n      dup2\n      mstore\n      0x20\n      add\n      0x4a6f686e00000000000000000000000000000000000000000000000000000000\n      dup2\n      mstore\n      pop\n        /* \"contracts/Practice.sol\":3177:3181  emp3 */\n      dup2\n        /* \"contracts/Practice.sol\":3177:3186  emp3.name */\n      0x00\n      add\n        /* \"contracts/Practice.sol\":3177:3195  emp3.name = \"John\" */\n      dup2\n      swap1\n      mstore\n      pop\n        /* \"contracts/Practice.sol\":3216:3218  23 */\n      0x17\n        /* \"contracts/Practice.sol\":3205:3209  emp3 */\n      dup2\n        /* \"contracts/Practice.sol\":3205:3213  emp3.age */\n      0x20\n      add\n        /* \"contracts/Practice.sol\":3205:3218  emp3.age = 23 */\n      dup2\n      dup2\n      mstore\n      pop\n      pop\n        /* \"contracts/Practice.sol\":3239:3281  0x5B38Da6a701c568545dCfcB03FcB875f56beddC4 */\n      0x5b38da6a701c568545dcfcb03fcb875f56beddc4\n        /* \"contracts/Practice.sol\":3228:3232  emp3 */\n      dup2\n        /* \"contracts/Practice.sol\":3228:3236  emp3.acc */\n      0x40\n      add\n        /* \"contracts/Practice.sol\":3228:3281  emp3.acc = 0x5B38Da6a701c568545dCfcB03FcB875f56beddC4 */\n      swap1\n      0xffffffffffffffffffffffffffffffffffffffff\n      and\n      swap1\n      dup2\n      0xffffffffffffffffffffffffffffffffffffffff\n      and\n      dup2\n      mstore\n      pop\n      pop\n        /* \"contracts/Practice.sol\":3292:3296  emps */\n      0x03\n        /* \"contracts/Practice.sol\":3302:3306  emp1 */\n      dup4\n        /* \"contracts/Practice.sol\":3292:3307  emps.push(emp1) */\n      swap1\n      dup1\n      0x01\n      dup2\n      sload\n      add\n      dup1\n      dup3\n      sstore\n      dup1\n      swap2\n      pop\n      pop\n      0x01\n      swap1\n      sub\n      swap1\n      0x00\n      mstore\n      keccak256(0x00, 0x20)\n      swap1\n      0x03\n      mul\n      add\n      0x00\n      swap1\n      swap2\n      swap1\n      swap2\n      swap1\n      swap2\n      pop\n      0x00\n      dup3\n      add\n      mload\n      dup2\n      0x00\n      add\n      swap1\n      dup2\n      tag_21\n      swap2\n      swap1\n      tag_22\n      jump\t// in\n    tag_21:\n      pop\n      0x20\n      dup3\n      add\n      mload\n      dup2\n      0x01\n      add\n      sstore\n      0x40\n      dup3\n      add\n      mload\n      dup2\n      0x02\n      add\n      exp(0x0100, 0x00)\n      dup2\n      sload\n      dup2\n      0xffffffffffffffffffffffffffffffffffffffff\n      mul\n      not\n      and\n      swap1\n      dup4\n      0xffffffffffffffffffffffffffffffffffffffff\n      and\n      mul\n      or\n      swap1\n      sstore\n      pop\n      pop\n      pop\n        /* \"contracts/Practice.sol\":3317:3321  emps */\n      0x03\n        /* \"contracts/Practice.sol\":3327:3331  emp2 */\n      dup3\n        /* \"contracts/Practice.sol\":3317:3332  emps.push(emp2) */\n      swap1\n      dup1\n      0x01\n      dup2\n      sload\n      add\n      dup1\n      dup3\n      sstore\n      dup1\n      swap2\n      pop\n      pop\n      0x01\n      swap1\n      sub\n      swap1\n      0x00\n      mstore\n      keccak256(0x00, 0x20)\n      swap1\n      0x03\n      mul\n      add\n      0x00\n      swap1\n      swap2\n      swap1\n      swap2\n      swap1\n      swap2\n      pop\n      0x00\n      dup3\n      add\n      mload\n      dup2\n      0x00\n      add\n      swap1\n      dup2\n      tag_24\n      swap2\n      swap1\n      tag_22\n      jump\t// in\n    tag_24:\n      pop\n      0x20\n      dup3\n      add\n      mload\n      dup2\n      0x01\n      add\n      sstore\n      0x40\n      dup3\n      add\n      mload\n      dup2\n      0x02\n      add\n      exp(0x0100, 0x00)\n      dup2\n      sload\n      dup2\n      0xffffffffffffffffffffffffffffffffffffffff\n      mul\n      not\n      and\n      swap1\n      dup4\n      0xffffffffffffffffffffffffffffffffffffffff\n      and\n      mul\n      or\n      swap1\n      sstore\n      pop\n      pop\n      pop\n        /* \"contracts/Practice.sol\":3342:3346  emps */\n      0x03\n        /* \"contracts/Practice.sol\":3352:3356  emp3 */\n      dup2\n        /* \"contracts/Practice.sol\":3342:3357  emps.push(emp3) */\n      swap1\n      dup1\n      0x01\n      dup2\n      sload\n      add\n      dup1\n      dup3\n      sstore\n      dup1\n      swap2\n      pop\n      pop\n      0x01\n      swap1\n      sub\n      swap1\n      0x00\n      mstore\n      keccak256(0x00, 0x20)\n      swap1\n      0x03\n      mul\n      add\n      0x00\n      swap1\n      swap2\n      swap1\n      swap2\n      swap1\n      swap2\n      pop\n      0x00\n      dup3\n      add\n      mload\n      dup2\n      0x00\n      add\n      swap1\n      dup2\n      tag_26\n      swap2\n      swap1\n      tag_22\n      jump\t// in\n    tag_26:\n      pop\n      0x20\n      dup3\n      add\n      mload\n      dup2\n      0x01\n      add\n      sstore\n      0x40\n      dup3\n      add\n      mload\n      dup2\n      0x02\n      add\n      exp(0x0100, 0x00)\n      dup2\n      sload\n      dup2\n      0xffffffffffffffffffffffffffffffffffffffff\n      mul\n      not\n      and\n      swap1\n      dup4\n      0xffffffffffffffffffffffffffffffffffffffff\n      and\n      mul\n      or\n      swap1\n      sstore\n      pop\n      pop\n      pop\n        /* \"contracts/Practice.sol\":3368:3372  emps */\n      0x03\n        /* \"contracts/Practice.sol\":3378:3404  Emp(\"Doe\", 30, msg.sender) */\n      mload(0x40)\n      dup1\n      0x60\n      add\n      0x40\n      mstore\n      dup1\n      mload(0x40)\n      dup1\n      0x40\n      add\n      0x40\n      mstore\n      dup1\n      0x03\n      dup2\n      mstore\n      0x20\n      add\n      0x446f650000000000000000000000000000000000000000000000000000000000\n      dup2\n      mstore\n      pop\n      dup2\n      mstore\n      0x20\n      add\n        /* \"contracts/Practice.sol\":3389:3391  30 */\n      0x1e\n        /* \"contracts/Practice.sol\":3378:3404  Emp(\"Doe\", 30, msg.sender) */\n      dup2\n      mstore\n      0x20\n      add\n        /* \"contracts/Practice.sol\":3393:3403  msg.sender */\n      caller\n        /* \"contracts/Practice.sol\":3378:3404  Emp(\"Doe\", 30, msg.sender) */\n      0xffffffffffffffffffffffffffffffffffffffff\n      and\n      dup2\n      mstore\n      pop\n        /* \"contracts/Practice.sol\":3368:3405  emps.push(Emp(\"Doe\", 30, msg.sender)) */\n      swap1\n      dup1\n      0x01\n      dup2\n      sload\n      add\n      dup1\n      dup3\n      sstore\n      dup1\n      swap2\n      pop\n      pop\n      0x01\n      swap1\n      sub\n      swap1\n      0x00\n      mstore\n      keccak256(0x00, 0x20)\n      swap1\n      0x03\n      mul\n      add\n      0x00\n      swap1\n      swap2\n      swap1\n      swap2\n      swap1\n      swap2\n      pop\n      0x00\n      dup3\n      add\n      mload\n      dup2\n      0x00\n      add\n      swap1\n      dup2\n      tag_28\n      swap2\n      swap1\n      tag_22\n      jump\t// in\n    tag_28:\n      pop\n      0x20\n      dup3\n      add\n      mload\n      dup2\n      0x01\n      add\n      sstore\n      0x40\n      dup3\n      add\n      mload\n      dup2\n      0x02\n      add\n      exp(0x0100, 0x00)\n      dup2\n      sload\n      dup2\n      0xffffffffffffffffffffffffffffffffffffffff\n      mul\n      not\n      and\n      swap1\n      dup4\n      0xffffffffffffffffffffffffffffffffffffffff\n      and\n      mul\n      or\n      swap1\n      sstore\n      pop\n      pop\n      pop\n        /* \"contracts/Practice.sol\":3416:3436  Emp storage emp_temp */\n      0x00\n        /* \"contracts/Practice.sol\":3605:3628  emp_temp.name = \"James\" */\n      mload(0x40)\n      dup1\n      0x40\n      add\n      0x40\n      mstore\n      dup1\n      0x05\n      dup2\n      mstore\n      0x20\n      add\n      0x4a616d6573000000000000000000000000000000000000000000000000000000\n      dup2\n      mstore\n      pop\n        /* \"contracts/Practice.sol\":3605:3613  emp_temp */\n      dup2\n        /* \"contracts/Practice.sol\":3605:3618  emp_temp.name */\n      0x00\n      add\n        /* \"contracts/Practice.sol\":3605:3628  emp_temp.name = \"James\" */\n      swap1\n      dup2\n      tag_29\n      swap2\n      swap1\n      tag_22\n      jump\t// in\n    tag_29:\n      pop\n        /* \"contracts/Practice.sol\":3639:3660  Emp storage emp_temp2 */\n      0x00\n        /* \"contracts/Practice.sol\":3663:3667  emps */\n      0x03\n        /* \"contracts/Practice.sol\":3668:3669  1 */\n      0x01\n        /* \"contracts/Practice.sol\":3663:3670  emps[1] */\n      dup2\n      sload\n      dup2\n      lt\n      tag_30\n      jumpi\n      tag_31\n      tag_32\n      jump\t// in\n    tag_31:\n    tag_30:\n      swap1\n      0x00\n      mstore\n      keccak256(0x00, 0x20)\n      swap1\n      0x03\n      mul\n      add\n        /* \"contracts/Practice.sol\":3639:3670  Emp storage emp_temp2 = emps[1] */\n      swap1\n      pop\n        /* \"contracts/Practice.sol\":3696:3698  31 */\n      0x1f\n        /* \"contracts/Practice.sol\":3680:3689  emp_temp2 */\n      dup2\n        /* \"contracts/Practice.sol\":3680:3693  emp_temp2.age */\n      0x01\n      add\n        /* \"contracts/Practice.sol\":3680:3698  emp_temp2.age = 31 */\n      dup2\n      swap1\n      sstore\n      pop\n        /* \"contracts/Practice.sol\":2753:3705  {... */\n      pop\n      pop\n      pop\n      pop\n      pop\n        /* \"contracts/Practice.sol\":2725:3705  function setValues() public {... */\n      jump\t// out\n        /* \"contracts/Practice.sol\":2575:2589  Emp public emp */\n    tag_9:\n      0x00\n      dup1\n      0x00\n      add\n      dup1\n      sload\n      tag_34\n      swap1\n      tag_35\n      jump\t// in\n    tag_34:\n      dup1\n      0x1f\n      add\n      0x20\n      dup1\n      swap2\n      div\n      mul\n      0x20\n      add\n      mload(0x40)\n      swap1\n      dup2\n      add\n      0x40\n      mstore\n      dup1\n      swap3\n      swap2\n      swap1\n      dup2\n      dup2\n      mstore\n      0x20\n      add\n      dup3\n      dup1\n      sload\n      tag_36\n      swap1\n      tag_35\n      jump\t// in\n    tag_36:\n      dup1\n      iszero\n      tag_37\n      jumpi\n      dup1\n      0x1f\n      lt\n      tag_38\n      jumpi\n      0x0100\n      dup1\n      dup4\n      sload\n      div\n      mul\n      dup4\n      mstore\n      swap2\n      0x20\n      add\n      swap2\n      jump(tag_37)\n    tag_38:\n      dup3\n      add\n      swap2\n      swap1\n      0x00\n      mstore\n      keccak256(0x00, 0x20)\n      swap1\n    tag_39:\n      dup2\n      sload\n      dup2\n      mstore\n      swap1\n      0x01\n      add\n      swap1\n      0x20\n      add\n      dup1\n      dup4\n      gt\n      tag_39\n      jumpi\n      dup3\n      swap1\n      sub\n      0x1f\n      and\n      dup3\n      add\n      swap2\n    tag_37:\n      pop\n      pop\n      pop\n      pop\n      pop\n      swap1\n      dup1\n      0x01\n      add\n      sload\n      swap1\n      dup1\n      0x02\n      add\n      0x00\n      swap1\n      sload\n      swap1\n      0x0100\n      exp\n      swap1\n      div\n      0xffffffffffffffffffffffffffffffffffffffff\n      and\n      swap1\n      pop\n      dup4\n      jump\t// out\n        /* \"contracts/Practice.sol\":2595:2612  Emp[] public emps */\n    tag_15:\n      0x03\n      dup2\n      dup2\n      sload\n      dup2\n      lt\n      tag_40\n      jumpi\n      0x00\n      dup1\n      revert\n    tag_40:\n      swap1\n      0x00\n      mstore\n      keccak256(0x00, 0x20)\n      swap1\n      0x03\n      mul\n      add\n      0x00\n      swap2\n      pop\n      swap1\n      pop\n      dup1\n      0x00\n      add\n      dup1\n      sload\n      tag_42\n      swap1\n      tag_35\n      jump\t// in\n    tag_42:\n      dup1\n      0x1f\n      add\n      0x20\n      dup1\n      swap2\n      div\n      mul\n      0x20\n      add\n      mload(0x40)\n      swap1\n      dup2\n      add\n      0x40\n      mstore\n      dup1\n      swap3\n      swap2\n      swap1\n      dup2\n      dup2\n      mstore\n      0x20\n      add\n      dup3\n      dup1\n      sload\n      tag_43\n      swap1\n      tag_35\n      jump\t// in\n    tag_43:\n      dup1\n      iszero\n      tag_44\n      jumpi\n      dup1\n      0x1f\n      lt\n      tag_45\n      jumpi\n      0x0100\n      dup1\n      dup4\n      sload\n      div\n      mul\n      dup4\n      mstore\n      swap2\n      0x20\n      add\n      swap2\n      jump(tag_44)\n    tag_45:\n      dup3\n      add\n      swap2\n      swap1\n      0x00\n      mstore\n      keccak256(0x00, 0x20)\n      swap1\n    tag_46:\n      dup2\n      sload\n      dup2\n      mstore\n      swap1\n      0x01\n      add\n      swap1\n      0x20\n      add\n      dup1\n      dup4\n      gt\n      tag_46\n      jumpi\n      dup3\n      swap1\n      sub\n      0x1f\n      and\n      dup3\n      add\n      swap2\n    tag_44:\n      pop\n      pop\n      pop\n      pop\n      pop\n      swap1\n      dup1\n      0x01\n      add\n      sload\n      swap1\n      dup1\n      0x02\n      add\n      0x00\n      swap1\n      sload\n      swap1\n      0x0100\n      exp\n      swap1\n      div\n      0xffffffffffffffffffffffffffffffffffffffff\n      and\n      swap1\n      pop\n      dup4\n      jump\t// out\n    tag_19:\n      mload(0x40)\n      dup1\n      0x60\n      add\n      0x40\n      mstore\n      dup1\n      0x60\n      dup2\n      mstore\n      0x20\n      add\n      0x00\n      dup2\n      mstore\n      0x20\n      add\n      and(0xffffffffffffffffffffffffffffffffffffffff, 0x00)\n      dup2\n      mstore\n      pop\n      swap1\n      jump\t// out\n        /* \"#utility.yul\":7:106   */\n    tag_47:\n        /* \"#utility.yul\":59:65   */\n      0x00\n        /* \"#utility.yul\":93:98   */\n      dup2\n        /* \"#utility.yul\":87:99   */\n      mload\n        /* \"#utility.yul\":77:99   */\n      swap1\n      pop\n        /* \"#utility.yul\":7:106   */\n      swap2\n      swap1\n      pop\n      jump\t// out\n        /* \"#utility.yul\":112:281   */\n    tag_48:\n        /* \"#utility.yul\":196:207   */\n      0x00\n        /* \"#utility.yul\":230:236   */\n      dup3\n        /* \"#utility.yul\":225:228   */\n      dup3\n        /* \"#utility.yul\":218:237   */\n      mstore\n        /* \"#utility.yul\":270:274   */\n      0x20\n        /* \"#utility.yul\":265:268   */\n      dup3\n        /* \"#utility.yul\":261:275   */\n      add\n        /* \"#utility.yul\":246:275   */\n      swap1\n      pop\n        /* \"#utility.yul\":112:281   */\n      swap3\n      swap2\n      pop\n      pop\n      jump\t// out\n        /* \"#utility.yul\":287:426   */\n    tag_49:\n        /* \"#utility.yul\":376:382   */\n      dup3\n        /* \"#utility.yul\":371:374   */\n      dup2\n        /* \"#utility.yul\":366:369   */\n      dup4\n        /* \"#utility.yul\":360:383   */\n      mcopy\n        /* \"#utility.yul\":417:418   */\n      0x00\n        /* \"#utility.yul\":408:414   */\n      dup4\n        /* \"#utility.yul\":403:406   */\n      dup4\n        /* \"#utility.yul\":399:415   */\n      add\n        /* \"#utility.yul\":392:419   */\n      mstore\n        /* \"#utility.yul\":287:426   */\n      pop\n      pop\n      pop\n      jump\t// out\n        /* \"#utility.yul\":432:534   */\n    tag_50:\n        /* \"#utility.yul\":473:479   */\n      0x00\n        /* \"#utility.yul\":524:526   */\n      0x1f\n        /* \"#utility.yul\":520:527   */\n      not\n        /* \"#utility.yul\":515:517   */\n      0x1f\n        /* \"#utility.yul\":508:513   */\n      dup4\n        /* \"#utility.yul\":504:518   */\n      add\n        /* \"#utility.yul\":500:528   */\n      and\n        /* \"#utility.yul\":490:528   */\n      swap1\n      pop\n        /* \"#utility.yul\":432:534   */\n      swap2\n      swap1\n      pop\n      jump\t// out\n        /* \"#utility.yul\":540:917   */\n    tag_51:\n        /* \"#utility.yul\":628:631   */\n      0x00\n        /* \"#utility.yul\":656:695   */\n      tag_85\n        /* \"#utility.yul\":689:694   */\n      dup3\n        /* \"#utility.yul\":656:695   */\n      tag_47\n      jump\t// in\n    tag_85:\n        /* \"#utility.yul\":711:782   */\n      tag_86\n        /* \"#utility.yul\":775:781   */\n      dup2\n        /* \"#utility.yul\":770:773   */\n      dup6\n        /* \"#utility.yul\":711:782   */\n      tag_48\n      jump\t// in\n    tag_86:\n        /* \"#utility.yul\":704:782   */\n      swap4\n      pop\n        /* \"#utility.yul\":791:856   */\n      tag_87\n        /* \"#utility.yul\":849:855   */\n      dup2\n        /* \"#utility.yul\":844:847   */\n      dup6\n        /* \"#utility.yul\":837:841   */\n      0x20\n        /* \"#utility.yul\":830:835   */\n      dup7\n        /* \"#utility.yul\":826:842   */\n      add\n        /* \"#utility.yul\":791:856   */\n      tag_49\n      jump\t// in\n    tag_87:\n        /* \"#utility.yul\":881:910   */\n      tag_88\n        /* \"#utility.yul\":903:909   */\n      dup2\n        /* \"#utility.yul\":881:910   */\n      tag_50\n      jump\t// in\n    tag_88:\n        /* \"#utility.yul\":876:879   */\n      dup5\n        /* \"#utility.yul\":872:911   */\n      add\n        /* \"#utility.yul\":865:911   */\n      swap2\n      pop\n        /* \"#utility.yul\":632:917   */\n      pop\n        /* \"#utility.yul\":540:917   */\n      swap3\n      swap2\n      pop\n      pop\n      jump\t// out\n        /* \"#utility.yul\":923:1000   */\n    tag_52:\n        /* \"#utility.yul\":960:967   */\n      0x00\n        /* \"#utility.yul\":989:994   */\n      dup2\n        /* \"#utility.yul\":978:994   */\n      swap1\n      pop\n        /* \"#utility.yul\":923:1000   */\n      swap2\n      swap1\n      pop\n      jump\t// out\n        /* \"#utility.yul\":1006:1124   */\n    tag_53:\n        /* \"#utility.yul\":1093:1117   */\n      tag_91\n        /* \"#utility.yul\":1111:1116   */\n      dup2\n        /* \"#utility.yul\":1093:1117   */\n      tag_52\n      jump\t// in\n    tag_91:\n        /* \"#utility.yul\":1088:1091   */\n      dup3\n        /* \"#utility.yul\":1081:1118   */\n      mstore\n        /* \"#utility.yul\":1006:1124   */\n      pop\n      pop\n      jump\t// out\n        /* \"#utility.yul\":1130:1256   */\n    tag_54:\n        /* \"#utility.yul\":1167:1174   */\n      0x00\n        /* \"#utility.yul\":1207:1249   */\n      0xffffffffffffffffffffffffffffffffffffffff\n        /* \"#utility.yul\":1200:1205   */\n      dup3\n        /* \"#utility.yul\":1196:1250   */\n      and\n        /* \"#utility.yul\":1185:1250   */\n      swap1\n      pop\n        /* \"#utility.yul\":1130:1256   */\n      swap2\n      swap1\n      pop\n      jump\t// out\n        /* \"#utility.yul\":1262:1358   */\n    tag_55:\n        /* \"#utility.yul\":1299:1306   */\n      0x00\n        /* \"#utility.yul\":1328:1352   */\n      tag_94\n        /* \"#utility.yul\":1346:1351   */\n      dup3\n        /* \"#utility.yul\":1328:1352   */\n      tag_54\n      jump\t// in\n    tag_94:\n        /* \"#utility.yul\":1317:1352   */\n      swap1\n      pop\n        /* \"#utility.yul\":1262:1358   */\n      swap2\n      swap1\n      pop\n      jump\t// out\n        /* \"#utility.yul\":1364:1482   */\n    tag_56:\n        /* \"#utility.yul\":1451:1475   */\n      tag_96\n        /* \"#utility.yul\":1469:1474   */\n      dup2\n        /* \"#utility.yul\":1451:1475   */\n      tag_55\n      jump\t// in\n    tag_96:\n        /* \"#utility.yul\":1446:1449   */\n      dup3\n        /* \"#utility.yul\":1439:1476   */\n      mstore\n        /* \"#utility.yul\":1364:1482   */\n      pop\n      pop\n      jump\t// out\n        /* \"#utility.yul\":1488:2021   */\n    tag_11:\n        /* \"#utility.yul\":1657:1661   */\n      0x00\n        /* \"#utility.yul\":1695:1697   */\n      0x60\n        /* \"#utility.yul\":1684:1693   */\n      dup3\n        /* \"#utility.yul\":1680:1698   */\n      add\n        /* \"#utility.yul\":1672:1698   */\n      swap1\n      pop\n        /* \"#utility.yul\":1744:1753   */\n      dup2\n        /* \"#utility.yul\":1738:1742   */\n      dup2\n        /* \"#utility.yul\":1734:1754   */\n      sub\n        /* \"#utility.yul\":1730:1731   */\n      0x00\n        /* \"#utility.yul\":1719:1728   */\n      dup4\n        /* \"#utility.yul\":1715:1732   */\n      add\n        /* \"#utility.yul\":1708:1755   */\n      mstore\n        /* \"#utility.yul\":1772:1850   */\n      tag_98\n        /* \"#utility.yul\":1845:1849   */\n      dup2\n        /* \"#utility.yul\":1836:1842   */\n      dup7\n        /* \"#utility.yul\":1772:1850   */\n      tag_51\n      jump\t// in\n    tag_98:\n        /* \"#utility.yul\":1764:1850   */\n      swap1\n      pop\n        /* \"#utility.yul\":1860:1932   */\n      tag_99\n        /* \"#utility.yul\":1928:1930   */\n      0x20\n        /* \"#utility.yul\":1917:1926   */\n      dup4\n        /* \"#utility.yul\":1913:1931   */\n      add\n        /* \"#utility.yul\":1904:1910   */\n      dup6\n        /* \"#utility.yul\":1860:1932   */\n      tag_53\n      jump\t// in\n    tag_99:\n        /* \"#utility.yul\":1942:2014   */\n      tag_100\n        /* \"#utility.yul\":2010:2012   */\n      0x40\n        /* \"#utility.yul\":1999:2008   */\n      dup4\n        /* \"#utility.yul\":1995:2013   */\n      add\n        /* \"#utility.yul\":1986:1992   */\n      dup5\n        /* \"#utility.yul\":1942:2014   */\n      tag_56\n      jump\t// in\n    tag_100:\n        /* \"#utility.yul\":1488:2021   */\n      swap5\n      swap4\n      pop\n      pop\n      pop\n      pop\n      jump\t// out\n        /* \"#utility.yul\":2108:2225   */\n    tag_58:\n        /* \"#utility.yul\":2217:2218   */\n      0x00\n        /* \"#utility.yul\":2214:2215   */\n      dup1\n        /* \"#utility.yul\":2207:2219   */\n      revert\n        /* \"#utility.yul\":2354:2476   */\n    tag_60:\n        /* \"#utility.yul\":2427:2451   */\n      tag_105\n        /* \"#utility.yul\":2445:2450   */\n      dup2\n        /* \"#utility.yul\":2427:2451   */\n      tag_52\n      jump\t// in\n    tag_105:\n        /* \"#utility.yul\":2420:2425   */\n      dup2\n        /* \"#utility.yul\":2417:2452   */\n      eq\n        /* \"#utility.yul\":2407:2470   */\n      tag_106\n      jumpi\n        /* \"#utility.yul\":2466:2467   */\n      0x00\n        /* \"#utility.yul\":2463:2464   */\n      dup1\n        /* \"#utility.yul\":2456:2468   */\n      revert\n        /* \"#utility.yul\":2407:2470   */\n    tag_106:\n        /* \"#utility.yul\":2354:2476   */\n      pop\n      jump\t// out\n        /* \"#utility.yul\":2482:2621   */\n    tag_61:\n        /* \"#utility.yul\":2528:2533   */\n      0x00\n        /* \"#utility.yul\":2566:2572   */\n      dup2\n        /* \"#utility.yul\":2553:2573   */\n      calldataload\n        /* \"#utility.yul\":2544:2573   */\n      swap1\n      pop\n        /* \"#utility.yul\":2582:2615   */\n      tag_108\n        /* \"#utility.yul\":2609:2614   */\n      dup2\n        /* \"#utility.yul\":2582:2615   */\n      tag_60\n      jump\t// in\n    tag_108:\n        /* \"#utility.yul\":2482:2621   */\n      swap3\n      swap2\n      pop\n      pop\n      jump\t// out\n        /* \"#utility.yul\":2627:2956   */\n    tag_14:\n        /* \"#utility.yul\":2686:2692   */\n      0x00\n        /* \"#utility.yul\":2735:2737   */\n      0x20\n        /* \"#utility.yul\":2723:2732   */\n      dup3\n        /* \"#utility.yul\":2714:2721   */\n      dup5\n        /* \"#utility.yul\":2710:2733   */\n      sub\n        /* \"#utility.yul\":2706:2738   */\n      slt\n        /* \"#utility.yul\":2703:2822   */\n      iszero\n      tag_110\n      jumpi\n        /* \"#utility.yul\":2741:2820   */\n      tag_111\n      tag_58\n      jump\t// in\n    tag_111:\n        /* \"#utility.yul\":2703:2822   */\n    tag_110:\n        /* \"#utility.yul\":2861:2862   */\n      0x00\n        /* \"#utility.yul\":2886:2939   */\n      tag_112\n        /* \"#utility.yul\":2931:2938   */\n      dup5\n        /* \"#utility.yul\":2922:2928   */\n      dup3\n        /* \"#utility.yul\":2911:2920   */\n      dup6\n        /* \"#utility.yul\":2907:2929   */\n      add\n        /* \"#utility.yul\":2886:2939   */\n      tag_61\n      jump\t// in\n    tag_112:\n        /* \"#utility.yul\":2876:2939   */\n      swap2\n      pop\n        /* \"#utility.yul\":2832:2949   */\n      pop\n        /* \"#utility.yul\":2627:2956   */\n      swap3\n      swap2\n      pop\n      pop\n      jump\t// out\n        /* \"#utility.yul\":2962:3142   */\n    tag_62:\n        /* \"#utility.yul\":3010:3087   */\n      0x4e487b7100000000000000000000000000000000000000000000000000000000\n        /* \"#utility.yul\":3007:3008   */\n      0x00\n        /* \"#utility.yul\":3000:3088   */\n      mstore\n        /* \"#utility.yul\":3107:3111   */\n      0x41\n        /* \"#utility.yul\":3104:3105   */\n      0x04\n        /* \"#utility.yul\":3097:3112   */\n      mstore\n        /* \"#utility.yul\":3131:3135   */\n      0x24\n        /* \"#utility.yul\":3128:3129   */\n      0x00\n        /* \"#utility.yul\":3121:3136   */\n      revert\n        /* \"#utility.yul\":3148:3328   */\n    tag_63:\n        /* \"#utility.yul\":3196:3273   */\n      0x4e487b7100000000000000000000000000000000000000000000000000000000\n        /* \"#utility.yul\":3193:3194   */\n      0x00\n        /* \"#utility.yul\":3186:3274   */\n      mstore\n        /* \"#utility.yul\":3293:3297   */\n      0x22\n        /* \"#utility.yul\":3290:3291   */\n      0x04\n        /* \"#utility.yul\":3283:3298   */\n      mstore\n        /* \"#utility.yul\":3317:3321   */\n      0x24\n        /* \"#utility.yul\":3314:3315   */\n      0x00\n        /* \"#utility.yul\":3307:3322   */\n      revert\n        /* \"#utility.yul\":3334:3654   */\n    tag_35:\n        /* \"#utility.yul\":3378:3384   */\n      0x00\n        /* \"#utility.yul\":3415:3416   */\n      0x02\n        /* \"#utility.yul\":3409:3413   */\n      dup3\n        /* \"#utility.yul\":3405:3417   */\n      div\n        /* \"#utility.yul\":3395:3417   */\n      swap1\n      pop\n        /* \"#utility.yul\":3462:3463   */\n      0x01\n        /* \"#utility.yul\":3456:3460   */\n      dup3\n        /* \"#utility.yul\":3452:3464   */\n      and\n        /* \"#utility.yul\":3483:3501   */\n      dup1\n        /* \"#utility.yul\":3473:3554   */\n      tag_116\n      jumpi\n        /* \"#utility.yul\":3539:3543   */\n      0x7f\n        /* \"#utility.yul\":3531:3537   */\n      dup3\n        /* \"#utility.yul\":3527:3544   */\n      and\n        /* \"#utility.yul\":3517:3544   */\n      swap2\n      pop\n        /* \"#utility.yul\":3473:3554   */\n    tag_116:\n        /* \"#utility.yul\":3601:3603   */\n      0x20\n        /* \"#utility.yul\":3593:3599   */\n      dup3\n        /* \"#utility.yul\":3590:3604   */\n      lt\n        /* \"#utility.yul\":3570:3588   */\n      dup2\n        /* \"#utility.yul\":3567:3605   */\n      sub\n        /* \"#utility.yul\":3564:3648   */\n      tag_117\n      jumpi\n        /* \"#utility.yul\":3620:3638   */\n      tag_118\n      tag_63\n      jump\t// in\n    tag_118:\n        /* \"#utility.yul\":3564:3648   */\n    tag_117:\n        /* \"#utility.yul\":3385:3654   */\n      pop\n        /* \"#utility.yul\":3334:3654   */\n      swap2\n      swap1\n      pop\n      jump\t// out\n        /* \"#utility.yul\":3660:3801   */\n    tag_64:\n        /* \"#utility.yul\":3709:3713   */\n      0x00\n        /* \"#utility.yul\":3732:3735   */\n      dup2\n        /* \"#utility.yul\":3724:3735   */\n      swap1\n      pop\n        /* \"#utility.yul\":3755:3758   */\n      dup2\n        /* \"#utility.yul\":3752:3753   */\n      0x00\n        /* \"#utility.yul\":3745:3759   */\n      mstore\n        /* \"#utility.yul\":3789:3793   */\n      0x20\n        /* \"#utility.yul\":3786:3787   */\n      0x00\n        /* \"#utility.yul\":3776:3794   */\n      keccak256\n        /* \"#utility.yul\":3768:3794   */\n      swap1\n      pop\n        /* \"#utility.yul\":3660:3801   */\n      swap2\n      swap1\n      pop\n      jump\t// out\n        /* \"#utility.yul\":3807:3900   */\n    tag_65:\n        /* \"#utility.yul\":3844:3850   */\n      0x00\n        /* \"#utility.yul\":3891:3893   */\n      0x20\n        /* \"#utility.yul\":3886:3888   */\n      0x1f\n        /* \"#utility.yul\":3879:3884   */\n      dup4\n        /* \"#utility.yul\":3875:3889   */\n      add\n        /* \"#utility.yul\":3871:3894   */\n      div\n        /* \"#utility.yul\":3861:3894   */\n      swap1\n      pop\n        /* \"#utility.yul\":3807:3900   */\n      swap2\n      swap1\n      pop\n      jump\t// out\n        /* \"#utility.yul\":3906:4013   */\n    tag_66:\n        /* \"#utility.yul\":3950:3958   */\n      0x00\n        /* \"#utility.yul\":4000:4005   */\n      dup3\n        /* \"#utility.yul\":3994:3998   */\n      dup3\n        /* \"#utility.yul\":3990:4006   */\n      shl\n        /* \"#utility.yul\":3969:4006   */\n      swap1\n      pop\n        /* \"#utility.yul\":3906:4013   */\n      swap3\n      swap2\n      pop\n      pop\n      jump\t// out\n        /* \"#utility.yul\":4019:4412   */\n    tag_67:\n        /* \"#utility.yul\":4088:4094   */\n      0x00\n        /* \"#utility.yul\":4138:4139   */\n      0x08\n        /* \"#utility.yul\":4126:4136   */\n      dup4\n        /* \"#utility.yul\":4122:4140   */\n      mul\n        /* \"#utility.yul\":4161:4258   */\n      tag_123\n        /* \"#utility.yul\":4191:4257   */\n      0xffffffffffffffffffffffffffffffffffffffffffffffffffffffffffffffff\n        /* \"#utility.yul\":4180:4189   */\n      dup3\n        /* \"#utility.yul\":4161:4258   */\n      tag_66\n      jump\t// in\n    tag_123:\n        /* \"#utility.yul\":4279:4318   */\n      tag_124\n        /* \"#utility.yul\":4309:4317   */\n      dup7\n        /* \"#utility.yul\":4298:4307   */\n      dup4\n        /* \"#utility.yul\":4279:4318   */\n      tag_66\n      jump\t// in\n    tag_124:\n        /* \"#utility.yul\":4267:4318   */\n      swap6\n      pop\n        /* \"#utility.yul\":4351:4355   */\n      dup1\n        /* \"#utility.yul\":4347:4356   */\n      not\n        /* \"#utility.yul\":4340:4345   */\n      dup5\n        /* \"#utility.yul\":4336:4357   */\n      and\n        /* \"#utility.yul\":4327:4357   */\n      swap4\n      pop\n        /* \"#utility.yul\":4400:4404   */\n      dup1\n        /* \"#utility.yul\":4390:4398   */\n      dup7\n        /* \"#utility.yul\":4386:4405   */\n      and\n        /* \"#utility.yul\":4379:4384   */\n      dup5\n        /* \"#utility.yul\":4376:4406   */\n      or\n        /* \"#utility.yul\":4366:4406   */\n      swap3\n      pop\n        /* \"#utility.yul\":4095:4412   */\n      pop\n      pop\n        /* \"#utility.yul\":4019:4412   */\n      swap4\n      swap3\n      pop\n      pop\n      pop\n      jump\t// out\n        /* \"#utility.yul\":4418:4478   */\n    tag_68:\n        /* \"#utility.yul\":4446:4449   */\n      0x00\n        /* \"#utility.yul\":4467:4472   */\n      dup2\n        /* \"#utility.yul\":4460:4472   */\n      swap1\n      pop\n        /* \"#utility.yul\":4418:4478   */\n      swap2\n      swap1\n      pop\n      jump\t// out\n        /* \"#utility.yul\":4484:4626   */\n    tag_69:\n        /* \"#utility.yul\":4534:4543   */\n      0x00\n        /* \"#utility.yul\":4567:4620   */\n      tag_127\n        /* \"#utility.yul\":4585:4619   */\n      tag_128\n        /* \"#utility.yul\":4594:4618   */\n      tag_129\n        /* \"#utility.yul\":4612:4617   */\n      dup5\n        /* \"#utility.yul\":4594:4618   */\n      tag_52\n      jump\t// in\n    tag_129:\n        /* \"#utility.yul\":4585:4619   */\n      tag_68\n      jump\t// in\n    tag_128:\n        /* \"#utility.yul\":4567:4620   */\n      tag_52\n      jump\t// in\n    tag_127:\n        /* \"#utility.yul\":4554:4620   */\n      swap1\n      pop\n        /* \"#utility.yul\":4484:4626   */\n      swap2\n      swap1\n      pop\n      jump\t// out\n        /* \"#utility.yul\":4632:4707   */\n    tag_70:\n        /* \"#utility.yul\":4675:4678   */\n      0x00\n        /* \"#utility.yul\":4696:4701   */\n      dup2\n        /* \"#utility.yul\":4689:4701   */\n      swap1\n      pop\n        /* \"#utility.yul\":4632:4707   */\n      swap2\n      swap1\n      pop\n      jump\t// out\n        /* \"#utility.yul\":4713:4982   */\n    tag_71:\n        /* \"#utility.yul\":4823:4862   */\n      tag_132\n        /* \"#utility.yul\":4854:4861   */\n      dup4\n        /* \"#utility.yul\":4823:4862   */\n      tag_69\n      jump\t// in\n    tag_132:\n        /* \"#utility.yul\":4884:4975   */\n      tag_133\n        /* \"#utility.yul\":4933:4974   */\n      tag_134\n        /* \"#utility.yul\":4957:4973   */\n      dup3\n        /* \"#utility.yul\":4933:4974   */\n      tag_70\n      jump\t// in\n    tag_134:\n        /* \"#utility.yul\":4925:4931   */\n      dup5\n        /* \"#utility.yul\":4918:4922   */\n      dup5\n        /* \"#utility.yul\":4912:4923   */\n      sload\n        /* \"#utility.yul\":4884:4975   */\n      tag_67\n      jump\t// in\n    tag_133:\n        /* \"#utility.yul\":4878:4882   */\n      dup3\n        /* \"#utility.yul\":4871:4976   */\n      sstore\n        /* \"#utility.yul\":4789:4982   */\n      pop\n        /* \"#utility.yul\":4713:4982   */\n      pop\n      pop\n      pop\n      jump\t// out\n        /* \"#utility.yul\":4988:5061   */\n    tag_72:\n        /* \"#utility.yul\":5033:5036   */\n      0x00\n        /* \"#utility.yul\":4988:5061   */\n      swap1\n      jump\t// out\n        /* \"#utility.yul\":5067:5256   */\n    tag_73:\n        /* \"#utility.yul\":5144:5176   */\n      tag_137\n      tag_72\n      jump\t// in\n    tag_137:\n        /* \"#utility.yul\":5185:5250   */\n      tag_138\n        /* \"#utility.yul\":5243:5249   */\n      dup2\n        /* \"#utility.yul\":5235:5241   */\n      dup5\n        /* \"#utility.yul\":5229:5233   */\n      dup5\n        /* \"#utility.yul\":5185:5250   */\n      tag_71\n      jump\t// in\n    tag_138:\n        /* \"#utility.yul\":5120:5256   */\n      pop\n        /* \"#utility.yul\":5067:5256   */\n      pop\n      pop\n      jump\t// out\n        /* \"#utility.yul\":5262:5448   */\n    tag_74:\n        /* \"#utility.yul\":5322:5442   */\n    tag_140:\n        /* \"#utility.yul\":5339:5342   */\n      dup2\n        /* \"#utility.yul\":5332:5337   */\n      dup2\n        /* \"#utility.yul\":5329:5343   */\n      lt\n        /* \"#utility.yul\":5322:5442   */\n      iszero\n      tag_142\n      jumpi\n        /* \"#utility.yul\":5393:5432   */\n      tag_143\n        /* \"#utility.yul\":5430:5431   */\n      0x00\n        /* \"#utility.yul\":5423:5428   */\n      dup3\n        /* \"#utility.yul\":5393:5432   */\n      tag_73\n      jump\t// in\n    tag_143:\n        /* \"#utility.yul\":5366:5367   */\n      0x01\n        /* \"#utility.yul\":5359:5364   */\n      dup2\n        /* \"#utility.yul\":5355:5368   */\n      add\n        /* \"#utility.yul\":5346:5368   */\n      swap1\n      pop\n        /* \"#utility.yul\":5322:5442   */\n      jump(tag_140)\n    tag_142:\n        /* \"#utility.yul\":5262:5448   */\n      pop\n      pop\n      jump\t// out\n        /* \"#utility.yul\":5454:5997   */\n    tag_75:\n        /* \"#utility.yul\":5555:5557   */\n      0x1f\n        /* \"#utility.yul\":5550:5553   */\n      dup3\n        /* \"#utility.yul\":5547:5558   */\n      gt\n        /* \"#utility.yul\":5544:5990   */\n      iszero\n      tag_145\n      jumpi\n        /* \"#utility.yul\":5589:5627   */\n      tag_146\n        /* \"#utility.yul\":5621:5626   */\n      dup2\n        /* \"#utility.yul\":5589:5627   */\n      tag_64\n      jump\t// in\n    tag_146:\n        /* \"#utility.yul\":5673:5702   */\n      tag_147\n        /* \"#utility.yul\":5691:5701   */\n      dup5\n        /* \"#utility.yul\":5673:5702   */\n      tag_65\n      jump\t// in\n    tag_147:\n        /* \"#utility.yul\":5663:5671   */\n      dup2\n        /* \"#utility.yul\":5659:5703   */\n      add\n        /* \"#utility.yul\":5856:5858   */\n      0x20\n        /* \"#utility.yul\":5844:5854   */\n      dup6\n        /* \"#utility.yul\":5841:5859   */\n      lt\n        /* \"#utility.yul\":5838:5887   */\n      iszero\n      tag_148\n      jumpi\n        /* \"#utility.yul\":5877:5885   */\n      dup2\n        /* \"#utility.yul\":5862:5885   */\n      swap1\n      pop\n        /* \"#utility.yul\":5838:5887   */\n    tag_148:\n        /* \"#utility.yul\":5900:5980   */\n      tag_149\n        /* \"#utility.yul\":5956:5978   */\n      tag_150\n        /* \"#utility.yul\":5974:5977   */\n      dup6\n        /* \"#utility.yul\":5956:5978   */\n      tag_65\n      jump\t// in\n    tag_150:\n        /* \"#utility.yul\":5946:5954   */\n      dup4\n        /* \"#utility.yul\":5942:5979   */\n      add\n        /* \"#utility.yul\":5929:5940   */\n      dup3\n        /* \"#utility.yul\":5900:5980   */\n      tag_74\n      jump\t// in\n    tag_149:\n        /* \"#utility.yul\":5559:5990   */\n      pop\n      pop\n        /* \"#utility.yul\":5544:5990   */\n    tag_145:\n        /* \"#utility.yul\":5454:5997   */\n      pop\n      pop\n      pop\n      jump\t// out\n        /* \"#utility.yul\":6003:6120   */\n    tag_76:\n        /* \"#utility.yul\":6057:6065   */\n      0x00\n        /* \"#utility.yul\":6107:6112   */\n      dup3\n        /* \"#utility.yul\":6101:6105   */\n      dup3\n        /* \"#utility.yul\":6097:6113   */\n      shr\n        /* \"#utility.yul\":6076:6113   */\n      swap1\n      pop\n        /* \"#utility.yul\":6003:6120   */\n      swap3\n      swap2\n      pop\n      pop\n      jump\t// out\n        /* \"#utility.yul\":6126:6295   */\n    tag_77:\n        /* \"#utility.yul\":6170:6176   */\n      0x00\n        /* \"#utility.yul\":6203:6254   */\n      tag_153\n        /* \"#utility.yul\":6251:6252   */\n      0x00\n        /* \"#utility.yul\":6247:6253   */\n      not\n        /* \"#utility.yul\":6239:6244   */\n      dup5\n        /* \"#utility.yul\":6236:6237   */\n      0x08\n        /* \"#utility.yul\":6232:6245   */\n      mul\n        /* \"#utility.yul\":6203:6254   */\n      tag_76\n      jump\t// in\n    tag_153:\n        /* \"#utility.yul\":6199:6255   */\n      not\n        /* \"#utility.yul\":6284:6288   */\n      dup1\n        /* \"#utility.yul\":6278:6282   */\n      dup4\n        /* \"#utility.yul\":6274:6289   */\n      and\n        /* \"#utility.yul\":6264:6289   */\n      swap2\n      pop\n        /* \"#utility.yul\":6177:6295   */\n      pop\n        /* \"#utility.yul\":6126:6295   */\n      swap3\n      swap2\n      pop\n      pop\n      jump\t// out\n        /* \"#utility.yul\":6300:6595   */\n    tag_78:\n        /* \"#utility.yul\":6376:6380   */\n      0x00\n        /* \"#utility.yul\":6522:6551   */\n      tag_155\n        /* \"#utility.yul\":6547:6550   */\n      dup4\n        /* \"#utility.yul\":6541:6545   */\n      dup4\n        /* \"#utility.yul\":6522:6551   */\n      tag_77\n      jump\t// in\n    tag_155:\n        /* \"#utility.yul\":6514:6551   */\n      swap2\n      pop\n        /* \"#utility.yul\":6584:6587   */\n      dup3\n        /* \"#utility.yul\":6581:6582   */\n      0x02\n        /* \"#utility.yul\":6577:6588   */\n      mul\n        /* \"#utility.yul\":6571:6575   */\n      dup3\n        /* \"#utility.yul\":6568:6589   */\n      or\n        /* \"#utility.yul\":6560:6589   */\n      swap1\n      pop\n        /* \"#utility.yul\":6300:6595   */\n      swap3\n      swap2\n      pop\n      pop\n      jump\t// out\n        /* \"#utility.yul\":6600:7995   */\n    tag_22:\n        /* \"#utility.yul\":6717:6754   */\n      tag_157\n        /* \"#utility.yul\":6750:6753   */\n      dup3\n        /* \"#utility.yul\":6717:6754   */\n      tag_47\n      jump\t// in\n    tag_157:\n        /* \"#utility.yul\":6819:6837   */\n      0xffffffffffffffff\n        /* \"#utility.yul\":6811:6817   */\n      dup2\n        /* \"#utility.yul\":6808:6838   */\n      gt\n        /* \"#utility.yul\":6805:6861   */\n      iszero\n      tag_158\n      jumpi\n        /* \"#utility.yul\":6841:6859   */\n      tag_159\n      tag_62\n      jump\t// in\n    tag_159:\n        /* \"#utility.yul\":6805:6861   */\n    tag_158:\n        /* \"#utility.yul\":6885:6923   */\n      tag_160\n        /* \"#utility.yul\":6917:6921   */\n      dup3\n        /* \"#utility.yul\":6911:6922   */\n      sload\n        /* \"#utility.yul\":6885:6923   */\n      tag_35\n      jump\t// in\n    tag_160:\n        /* \"#utility.yul\":6970:7037   */\n      tag_161\n        /* \"#utility.yul\":7030:7036   */\n      dup3\n        /* \"#utility.yul\":7022:7028   */\n      dup3\n        /* \"#utility.yul\":7016:7020   */\n      dup6\n        /* \"#utility.yul\":6970:7037   */\n      tag_75\n      jump\t// in\n    tag_161:\n        /* \"#utility.yul\":7064:7065   */\n      0x00\n        /* \"#utility.yul\":7088:7092   */\n      0x20\n        /* \"#utility.yul\":7075:7092   */\n      swap1\n      pop\n        /* \"#utility.yul\":7120:7122   */\n      0x1f\n        /* \"#utility.yul\":7112:7118   */\n      dup4\n        /* \"#utility.yul\":7109:7123   */\n      gt\n        /* \"#utility.yul\":7137:7138   */\n      0x01\n        /* \"#utility.yul\":7132:7750   */\n      dup2\n      eq\n      tag_163\n      jumpi\n        /* \"#utility.yul\":7794:7795   */\n      0x00\n        /* \"#utility.yul\":7811:7817   */\n      dup5\n        /* \"#utility.yul\":7808:7885   */\n      iszero\n      tag_164\n      jumpi\n        /* \"#utility.yul\":7860:7869   */\n      dup3\n        /* \"#utility.yul\":7855:7858   */\n      dup8\n        /* \"#utility.yul\":7851:7870   */\n      add\n        /* \"#utility.yul\":7845:7871   */\n      mload\n        /* \"#utility.yul\":7836:7871   */\n      swap1\n      pop\n        /* \"#utility.yul\":7808:7885   */\n    tag_164:\n        /* \"#utility.yul\":7911:7978   */\n      tag_165\n        /* \"#utility.yul\":7971:7977   */\n      dup6\n        /* \"#utility.yul\":7964:7969   */\n      dup3\n        /* \"#utility.yul\":7911:7978   */\n      tag_78\n      jump\t// in\n    tag_165:\n        /* \"#utility.yul\":7905:7909   */\n      dup7\n        /* \"#utility.yul\":7898:7979   */\n      sstore\n        /* \"#utility.yul\":7767:7989   */\n      pop\n        /* \"#utility.yul\":7102:7989   */\n      jump(tag_162)\n        /* \"#utility.yul\":7132:7750   */\n    tag_163:\n        /* \"#utility.yul\":7184:7188   */\n      0x1f\n        /* \"#utility.yul\":7180:7189   */\n      not\n        /* \"#utility.yul\":7172:7178   */\n      dup5\n        /* \"#utility.yul\":7168:7190   */\n      and\n        /* \"#utility.yul\":7218:7255   */\n      tag_166\n        /* \"#utility.yul\":7250:7254   */\n      dup7\n        /* \"#utility.yul\":7218:7255   */\n      tag_64\n      jump\t// in\n    tag_166:\n        /* \"#utility.yul\":7277:7278   */\n      0x00\n        /* \"#utility.yul\":7291:7499   */\n    tag_167:\n        /* \"#utility.yul\":7305:7312   */\n      dup3\n        /* \"#utility.yul\":7302:7303   */\n      dup2\n        /* \"#utility.yul\":7299:7313   */\n      lt\n        /* \"#utility.yul\":7291:7499   */\n      iszero\n      tag_169\n      jumpi\n        /* \"#utility.yul\":7384:7393   */\n      dup5\n        /* \"#utility.yul\":7379:7382   */\n      dup10\n        /* \"#utility.yul\":7375:7394   */\n      add\n        /* \"#utility.yul\":7369:7395   */\n      mload\n        /* \"#utility.yul\":7361:7367   */\n      dup3\n        /* \"#utility.yul\":7354:7396   */\n      sstore\n        /* \"#utility.yul\":7435:7436   */\n      0x01\n        /* \"#utility.yul\":7427:7433   */\n      dup3\n        /* \"#utility.yul\":7423:7437   */\n      add\n        /* \"#utility.yul\":7413:7437   */\n      swap2\n      pop\n        /* \"#utility.yul\":7482:7484   */\n      0x20\n        /* \"#utility.yul\":7471:7480   */\n      dup6\n        /* \"#utility.yul\":7467:7485   */\n      add\n        /* \"#utility.yul\":7454:7485   */\n      swap5\n      pop\n        /* \"#utility.yul\":7328:7332   */\n      0x20\n        /* \"#utility.yul\":7325:7326   */\n      dup2\n        /* \"#utility.yul\":7321:7333   */\n      add\n        /* \"#utility.yul\":7316:7333   */\n      swap1\n      pop\n        /* \"#utility.yul\":7291:7499   */\n      jump(tag_167)\n    tag_169:\n        /* \"#utility.yul\":7527:7533   */\n      dup7\n        /* \"#utility.yul\":7518:7525   */\n      dup4\n        /* \"#utility.yul\":7515:7534   */\n      lt\n        /* \"#utility.yul\":7512:7691   */\n      iszero\n      tag_170\n      jumpi\n        /* \"#utility.yul\":7585:7594   */\n      dup5\n        /* \"#utility.yul\":7580:7583   */\n      dup10\n        /* \"#utility.yul\":7576:7595   */\n      add\n        /* \"#utility.yul\":7570:7596   */\n      mload\n        /* \"#utility.yul\":7628:7676   */\n      tag_171\n        /* \"#utility.yul\":7670:7674   */\n      0x1f\n        /* \"#utility.yul\":7662:7668   */\n      dup10\n        /* \"#utility.yul\":7658:7675   */\n      and\n        /* \"#utility.yul\":7647:7656   */\n      dup3\n        /* \"#utility.yul\":7628:7676   */\n      tag_77\n      jump\t// in\n    tag_171:\n        /* \"#utility.yul\":7620:7626   */\n      dup4\n        /* \"#utility.yul\":7613:7677   */\n      sstore\n        /* \"#utility.yul\":7535:7691   */\n      pop\n        /* \"#utility.yul\":7512:7691   */\n    tag_170:\n        /* \"#utility.yul\":7737:7738   */\n      0x01\n        /* \"#utility.yul\":7733:7734   */\n      0x02\n        /* \"#utility.yul\":7725:7731   */\n      dup9\n        /* \"#utility.yul\":7721:7735   */\n      mul\n        /* \"#utility.yul\":7717:7739   */\n      add\n        /* \"#utility.yul\":7711:7715   */\n      dup9\n        /* \"#utility.yul\":7704:7740   */\n      sstore\n        /* \"#utility.yul\":7139:7750   */\n      pop\n      pop\n      pop\n        /* \"#utility.yul\":7102:7989   */\n    tag_162:\n      pop\n        /* \"#utility.yul\":6692:7995   */\n      pop\n      pop\n      pop\n        /* \"#utility.yul\":6600:7995   */\n      pop\n      pop\n      jump\t// out\n        /* \"#utility.yul\":8001:8181   */\n    tag_32:\n        /* \"#utility.yul\":8049:8126   */\n      0x4e487b7100000000000000000000000000000000000000000000000000000000\n        /* \"#utility.yul\":8046:8047   */\n      0x00\n        /* \"#utility.yul\":8039:8127   */\n      mstore\n        /* \"#utility.yul\":8146:8150   */\n      0x32\n        /* \"#utility.yul\":8143:8144   */\n      0x04\n        /* \"#utility.yul\":8136:8151   */\n      mstore\n        /* \"#utility.yul\":8170:8174   */\n      0x24\n        /* \"#utility.yul\":8167:8168   */\n      0x00\n        /* \"#utility.yul\":8160:8175   */\n      revert\n\n    auxdata: 0xa2646970667358221220f37d6c32ce8907727f05874c5ae10dd4ee187776a57d3aec2517403292c471e064736f6c63430008190033\n}\n",
				"bytecode": {
					"linkReferences": {},
					"object": "608060405234801561000f575f80fd5b506040518060400160405280600481526020017f54657374000000000000000000000000000000000000000000000000000000008152505f8001908161005591906102e1565b5060145f60010181905550335f6002015f6101000a81548173ffffffffffffffffffffffffffffffffffffffff021916908373ffffffffffffffffffffffffffffffffffffffff1602179055506103b0565b5f81519050919050565b7f4e487b71000000000000000000000000000000000000000000000000000000005f52604160045260245ffd5b7f4e487b71000000000000000000000000000000000000000000000000000000005f52602260045260245ffd5b5f600282049050600182168061012257607f821691505b602082108103610135576101346100de565b5b50919050565b5f819050815f5260205f209050919050565b5f6020601f8301049050919050565b5f82821b905092915050565b5f600883026101977fffffffffffffffffffffffffffffffffffffffffffffffffffffffffffffffff8261015c565b6101a1868361015c565b95508019841693508086168417925050509392505050565b5f819050919050565b5f819050919050565b5f6101e56101e06101db846101b9565b6101c2565b6101b9565b9050919050565b5f819050919050565b6101fe836101cb565b61021261020a826101ec565b848454610168565b825550505050565b5f90565b61022661021a565b6102318184846101f5565b505050565b5b81811015610254576102495f8261021e565b600181019050610237565b5050565b601f8211156102995761026a8161013b565b6102738461014d565b81016020851015610282578190505b61029661028e8561014d565b830182610236565b50505b505050565b5f82821c905092915050565b5f6102b95f198460080261029e565b1980831691505092915050565b5f6102d183836102aa565b9150826002028217905092915050565b6102ea826100a7565b67ffffffffffffffff811115610303576103026100b1565b5b61030d825461010b565b610318828285610258565b5f60209050601f831160018114610349575f8415610337578287015190505b61034185826102c6565b8655506103a8565b601f1984166103578661013b565b5f5b8281101561037e57848901518255600182019150602085019450602081019050610359565b8683101561039b5784890151610397601f8916826102aa565b8355505b6001600288020188555050505b505050505050565b610bd4806103bd5f395ff3fe608060405234801561000f575f80fd5b506004361061003f575f3560e01c8063800509d514610043578063b34fad411461004d578063e53b109e1461006d575b5f80fd5b61004b61009f565b005b610055610555565b604051610064939291906107e6565b60405180910390f35b61008760048036038101906100829190610850565b610610565b604051610096939291906107e6565b60405180910390f35b5f60405180606001604052806040518060400160405280600481526020017f556d657200000000000000000000000000000000000000000000000000000000815250815260200160158152602001735b38da6a701c568545dcfcb03fcb875f56beddc473ffffffffffffffffffffffffffffffffffffffff1681525090505f60405180606001604052806040518060400160405280600581526020017f41686d6564000000000000000000000000000000000000000000000000000000815250815260200160168152602001735b38da6a701c568545dcfcb03fcb875f56beddc473ffffffffffffffffffffffffffffffffffffffff1681525090506101a36106ea565b6040518060400160405280600481526020017f4a6f686e00000000000000000000000000000000000000000000000000000000815250815f01819052506017816020018181525050735b38da6a701c568545dcfcb03fcb875f56beddc4816040019073ffffffffffffffffffffffffffffffffffffffff16908173ffffffffffffffffffffffffffffffffffffffff1681525050600383908060018154018082558091505060019003905f5260205f2090600302015f909190919091505f820151815f0190816102739190610aa2565b50602082015181600101556040820151816002015f6101000a81548173ffffffffffffffffffffffffffffffffffffffff021916908373ffffffffffffffffffffffffffffffffffffffff1602179055505050600382908060018154018082558091505060019003905f5260205f2090600302015f909190919091505f820151815f0190816103029190610aa2565b50602082015181600101556040820151816002015f6101000a81548173ffffffffffffffffffffffffffffffffffffffff021916908373ffffffffffffffffffffffffffffffffffffffff1602179055505050600381908060018154018082558091505060019003905f5260205f2090600302015f909190919091505f820151815f0190816103919190610aa2565b50602082015181600101556040820151816002015f6101000a81548173ffffffffffffffffffffffffffffffffffffffff021916908373ffffffffffffffffffffffffffffffffffffffff1602179055505050600360405180606001604052806040518060400160405280600381526020017f446f6500000000000000000000000000000000000000000000000000000000008152508152602001601e81526020013373ffffffffffffffffffffffffffffffffffffffff16815250908060018154018082558091505060019003905f5260205f2090600302015f909190919091505f820151815f0190816104869190610aa2565b50602082015181600101556040820151816002015f6101000a81548173ffffffffffffffffffffffffffffffffffffffff021916908373ffffffffffffffffffffffffffffffffffffffff16021790555050505f6040518060400160405280600581526020017f4a616d6573000000000000000000000000000000000000000000000000000000815250815f01908161051f9190610aa2565b505f600360018154811061053657610535610b71565b5b905f5260205f2090600302019050601f81600101819055505050505050565b5f805f018054610564906108d5565b80601f0160208091040260200160405190810160405280929190818152602001828054610590906108d5565b80156105db5780601f106105b2576101008083540402835291602001916105db565b820191905f5260205f20905b8154815290600101906020018083116105be57829003601f168201915b505050505090806001015490806002015f9054906101000a900473ffffffffffffffffffffffffffffffffffffffff16905083565b6003818154811061061f575f80fd5b905f5260205f2090600302015f91509050805f01805461063e906108d5565b80601f016020809104026020016040519081016040528092919081815260200182805461066a906108d5565b80156106b55780601f1061068c576101008083540402835291602001916106b5565b820191905f5260205f20905b81548152906001019060200180831161069857829003601f168201915b505050505090806001015490806002015f9054906101000a900473ffffffffffffffffffffffffffffffffffffffff16905083565b6040518060600160405280606081526020015f81526020015f73ffffffffffffffffffffffffffffffffffffffff1681525090565b5f81519050919050565b5f82825260208201905092915050565b8281835e5f83830152505050565b5f601f19601f8301169050919050565b5f6107618261071f565b61076b8185610729565b935061077b818560208601610739565b61078481610747565b840191505092915050565b5f819050919050565b6107a18161078f565b82525050565b5f73ffffffffffffffffffffffffffffffffffffffff82169050919050565b5f6107d0826107a7565b9050919050565b6107e0816107c6565b82525050565b5f6060820190508181035f8301526107fe8186610757565b905061080d6020830185610798565b61081a60408301846107d7565b949350505050565b5f80fd5b61082f8161078f565b8114610839575f80fd5b50565b5f8135905061084a81610826565b92915050565b5f6020828403121561086557610864610822565b5b5f6108728482850161083c565b91505092915050565b7f4e487b71000000000000000000000000000000000000000000000000000000005f52604160045260245ffd5b7f4e487b71000000000000000000000000000000000000000000000000000000005f52602260045260245ffd5b5f60028204905060018216806108ec57607f821691505b6020821081036108ff576108fe6108a8565b5b50919050565b5f819050815f5260205f209050919050565b5f6020601f8301049050919050565b5f82821b905092915050565b5f600883026109617fffffffffffffffffffffffffffffffffffffffffffffffffffffffffffffffff82610926565b61096b8683610926565b95508019841693508086168417925050509392505050565b5f819050919050565b5f6109a66109a161099c8461078f565b610983565b61078f565b9050919050565b5f819050919050565b6109bf8361098c565b6109d36109cb826109ad565b848454610932565b825550505050565b5f90565b6109e76109db565b6109f28184846109b6565b505050565b5b81811015610a1557610a0a5f826109df565b6001810190506109f8565b5050565b601f821115610a5a57610a2b81610905565b610a3484610917565b81016020851015610a43578190505b610a57610a4f85610917565b8301826109f7565b50505b505050565b5f82821c905092915050565b5f610a7a5f1984600802610a5f565b1980831691505092915050565b5f610a928383610a6b565b9150826002028217905092915050565b610aab8261071f565b67ffffffffffffffff811115610ac457610ac361087b565b5b610ace82546108d5565b610ad9828285610a19565b5f60209050601f831160018114610b0a575f8415610af8578287015190505b610b028582610a87565b865550610b69565b601f198416610b1886610905565b5f5b82811015610b3f57848901518255600182019150602085019450602081019050610b1a565b86831015610b5c5784890151610b58601f891682610a6b565b8355505b6001600288020188555050505b505050505050565b7f4e487b71000000000000000000000000000000000000000000000000000000005f52603260045260245ffdfea2646970667358221220f37d6c32ce8907727f05874c5ae10dd4ee187776a57d3aec2517403292c471e064736f6c63430008190033",
					"opcodes": "PUSH1 0x80 PUSH1 0x40 MSTORE CALLVALUE DUP1 ISZERO PUSH2 0xF JUMPI PUSH0 DUP1 REVERT JUMPDEST POP PUSH1 0x40 MLOAD DUP1 PUSH1 0x40 ADD PUSH1 0x40 MSTORE DUP1 PUSH1 0x4 DUP2 MSTORE PUSH1 0x20 ADD PUSH32 0x5465737400000000000000000000000000000000000000000000000000000000 DUP2 MSTORE POP PUSH0 DUP1 ADD SWAP1 DUP2 PUSH2 0x55 SWAP2 SWAP1 PUSH2 0x2E1 JUMP JUMPDEST POP PUSH1 0x14 PUSH0 PUSH1 0x1 ADD DUP2 SWAP1 SSTORE POP CALLER PUSH0 PUSH1 0x2 ADD PUSH0 PUSH2 0x100 EXP DUP2 SLOAD DUP2 PUSH20 0xFFFFFFFFFFFFFFFFFFFFFFFFFFFFFFFFFFFFFFFF MUL NOT AND SWAP1 DUP4 PUSH20 0xFFFFFFFFFFFFFFFFFFFFFFFFFFFFFFFFFFFFFFFF AND MUL OR SWAP1 SSTORE POP PUSH2 0x3B0 JUMP JUMPDEST PUSH0 DUP2 MLOAD SWAP1 POP SWAP2 SWAP1 POP JUMP JUMPDEST PUSH32 0x4E487B7100000000000000000000000000000000000000000000000000000000 PUSH0 MSTORE PUSH1 0x41 PUSH1 0x4 MSTORE PUSH1 0x24 PUSH0 REVERT JUMPDEST PUSH32 0x4E487B7100000000000000000000000000000000000000000000000000000000 PUSH0 MSTORE PUSH1 0x22 PUSH1 0x4 MSTORE PUSH1 0x24 PUSH0 REVERT JUMPDEST PUSH0 PUSH1 0x2 DUP3 DIV SWAP1 POP PUSH1 0x1 DUP3 AND DUP1 PUSH2 0x122 JUMPI PUSH1 0x7F DUP3 AND SWAP2 POP JUMPDEST PUSH1 0x20 DUP3 LT DUP2 SUB PUSH2 0x135 JUMPI PUSH2 0x134 PUSH2 0xDE JUMP JUMPDEST JUMPDEST POP SWAP2 SWAP1 POP JUMP JUMPDEST PUSH0 DUP2 SWAP1 POP DUP2 PUSH0 MSTORE PUSH1 0x20 PUSH0 KECCAK256 SWAP1 POP SWAP2 SWAP1 POP JUMP JUMPDEST PUSH0 PUSH1 0x20 PUSH1 0x1F DUP4 ADD DIV SWAP1 POP SWAP2 SWAP1 POP JUMP JUMPDEST PUSH0 DUP3 DUP3 SHL SWAP1 POP SWAP3 SWAP2 POP POP JUMP JUMPDEST PUSH0 PUSH1 0x8 DUP4 MUL PUSH2 0x197 PUSH32 0xFFFFFFFFFFFFFFFFFFFFFFFFFFFFFFFFFFFFFFFFFFFFFFFFFFFFFFFFFFFFFFFF DUP3 PUSH2 0x15C JUMP JUMPDEST PUSH2 0x1A1 DUP7 DUP4 PUSH2 0x15C JUMP JUMPDEST SWAP6 POP DUP1 NOT DUP5 AND SWAP4 POP DUP1 DUP7 AND DUP5 OR SWAP3 POP POP POP SWAP4 SWAP3 POP POP POP JUMP JUMPDEST PUSH0 DUP2 SWAP1 POP SWAP2 SWAP1 POP JUMP JUMPDEST PUSH0 DUP2 SWAP1 POP SWAP2 SWAP1 POP JUMP JUMPDEST PUSH0 PUSH2 0x1E5 PUSH2 0x1E0 PUSH2 0x1DB DUP5 PUSH2 0x1B9 JUMP JUMPDEST PUSH2 0x1C2 JUMP JUMPDEST PUSH2 0x1B9 JUMP JUMPDEST SWAP1 POP SWAP2 SWAP1 POP JUMP JUMPDEST PUSH0 DUP2 SWAP1 POP SWAP2 SWAP1 POP JUMP JUMPDEST PUSH2 0x1FE DUP4 PUSH2 0x1CB JUMP JUMPDEST PUSH2 0x212 PUSH2 0x20A DUP3 PUSH2 0x1EC JUMP JUMPDEST DUP5 DUP5 SLOAD PUSH2 0x168 JUMP JUMPDEST DUP3 SSTORE POP POP POP POP JUMP JUMPDEST PUSH0 SWAP1 JUMP JUMPDEST PUSH2 0x226 PUSH2 0x21A JUMP JUMPDEST PUSH2 0x231 DUP2 DUP5 DUP5 PUSH2 0x1F5 JUMP JUMPDEST POP POP POP JUMP JUMPDEST JUMPDEST DUP2 DUP2 LT ISZERO PUSH2 0x254 JUMPI PUSH2 0x249 PUSH0 DUP3 PUSH2 0x21E JUMP JUMPDEST PUSH1 0x1 DUP2 ADD SWAP1 POP PUSH2 0x237 JUMP JUMPDEST POP POP JUMP JUMPDEST PUSH1 0x1F DUP3 GT ISZERO PUSH2 0x299 JUMPI PUSH2 0x26A DUP2 PUSH2 0x13B JUMP JUMPDEST PUSH2 0x273 DUP5 PUSH2 0x14D JUMP JUMPDEST DUP2 ADD PUSH1 0x20 DUP6 LT ISZERO PUSH2 0x282 JUMPI DUP2 SWAP1 POP JUMPDEST PUSH2 0x296 PUSH2 0x28E DUP6 PUSH2 0x14D JUMP JUMPDEST DUP4 ADD DUP3 PUSH2 0x236 JUMP JUMPDEST POP POP JUMPDEST POP POP POP JUMP JUMPDEST PUSH0 DUP3 DUP3 SHR SWAP1 POP SWAP3 SWAP2 POP POP JUMP JUMPDEST PUSH0 PUSH2 0x2B9 PUSH0 NOT DUP5 PUSH1 0x8 MUL PUSH2 0x29E JUMP JUMPDEST NOT DUP1 DUP4 AND SWAP2 POP POP SWAP3 SWAP2 POP POP JUMP JUMPDEST PUSH0 PUSH2 0x2D1 DUP4 DUP4 PUSH2 0x2AA JUMP JUMPDEST SWAP2 POP DUP3 PUSH1 0x2 MUL DUP3 OR SWAP1 POP SWAP3 SWAP2 POP POP JUMP JUMPDEST PUSH2 0x2EA DUP3 PUSH2 0xA7 JUMP JUMPDEST PUSH8 0xFFFFFFFFFFFFFFFF DUP2 GT ISZERO PUSH2 0x303 JUMPI PUSH2 0x302 PUSH2 0xB1 JUMP JUMPDEST JUMPDEST PUSH2 0x30D DUP3 SLOAD PUSH2 0x10B JUMP JUMPDEST PUSH2 0x318 DUP3 DUP3 DUP6 PUSH2 0x258 JUMP JUMPDEST PUSH0 PUSH1 0x20 SWAP1 POP PUSH1 0x1F DUP4 GT PUSH1 0x1 DUP2 EQ PUSH2 0x349 JUMPI PUSH0 DUP5 ISZERO PUSH2 0x337 JUMPI DUP3 DUP8 ADD MLOAD SWAP1 POP JUMPDEST PUSH2 0x341 DUP6 DUP3 PUSH2 0x2C6 JUMP JUMPDEST DUP7 SSTORE POP PUSH2 0x3A8 JUMP JUMPDEST PUSH1 0x1F NOT DUP5 AND PUSH2 0x357 DUP7 PUSH2 0x13B JUMP JUMPDEST PUSH0 JUMPDEST DUP3 DUP2 LT ISZERO PUSH2 0x37E JUMPI DUP5 DUP10 ADD MLOAD DUP3 SSTORE PUSH1 0x1 DUP3 ADD SWAP2 POP PUSH1 0x20 DUP6 ADD SWAP5 POP PUSH1 0x20 DUP2 ADD SWAP1 POP PUSH2 0x359 JUMP JUMPDEST DUP7 DUP4 LT ISZERO PUSH2 0x39B JUMPI DUP5 DUP10 ADD MLOAD PUSH2 0x397 PUSH1 0x1F DUP10 AND DUP3 PUSH2 0x2AA JUMP JUMPDEST DUP4 SSTORE POP JUMPDEST PUSH1 0x1 PUSH1 0x2 DUP9 MUL ADD DUP9 SSTORE POP POP POP JUMPDEST POP POP POP POP POP POP JUMP JUMPDEST PUSH2 0xBD4 DUP1 PUSH2 0x3BD PUSH0 CODECOPY PUSH0 RETURN INVALID PUSH1 0x80 PUSH1 0x40 MSTORE CALLVALUE DUP1 ISZERO PUSH2 0xF JUMPI PUSH0 DUP1 REVERT JUMPDEST POP PUSH1 0x4 CALLDATASIZE LT PUSH2 0x3F JUMPI PUSH0 CALLDATALOAD PUSH1 0xE0 SHR DUP1 PUSH4 0x800509D5 EQ PUSH2 0x43 JUMPI DUP1 PUSH4 0xB34FAD41 EQ PUSH2 0x4D JUMPI DUP1 PUSH4 0xE53B109E EQ PUSH2 0x6D JUMPI JUMPDEST PUSH0 DUP1 REVERT JUMPDEST PUSH2 0x4B PUSH2 0x9F JUMP JUMPDEST STOP JUMPDEST PUSH2 0x55 PUSH2 0x555 JUMP JUMPDEST PUSH1 0x40 MLOAD PUSH2 0x64 SWAP4 SWAP3 SWAP2 SWAP1 PUSH2 0x7E6 JUMP JUMPDEST PUSH1 0x40 MLOAD DUP1 SWAP2 SUB SWAP1 RETURN JUMPDEST PUSH2 0x87 PUSH1 0x4 DUP1 CALLDATASIZE SUB DUP2 ADD SWAP1 PUSH2 0x82 SWAP2 SWAP1 PUSH2 0x850 JUMP JUMPDEST PUSH2 0x610 JUMP JUMPDEST PUSH1 0x40 MLOAD PUSH2 0x96 SWAP4 SWAP3 SWAP2 SWAP1 PUSH2 0x7E6 JUMP JUMPDEST PUSH1 0x40 MLOAD DUP1 SWAP2 SUB SWAP1 RETURN JUMPDEST PUSH0 PUSH1 0x40 MLOAD DUP1 PUSH1 0x60 ADD PUSH1 0x40 MSTORE DUP1 PUSH1 0x40 MLOAD DUP1 PUSH1 0x40 ADD PUSH1 0x40 MSTORE DUP1 PUSH1 0x4 DUP2 MSTORE PUSH1 0x20 ADD PUSH32 0x556D657200000000000000000000000000000000000000000000000000000000 DUP2 MSTORE POP DUP2 MSTORE PUSH1 0x20 ADD PUSH1 0x15 DUP2 MSTORE PUSH1 0x20 ADD PUSH20 0x5B38DA6A701C568545DCFCB03FCB875F56BEDDC4 PUSH20 0xFFFFFFFFFFFFFFFFFFFFFFFFFFFFFFFFFFFFFFFF AND DUP2 MSTORE POP SWAP1 POP PUSH0 PUSH1 0x40 MLOAD DUP1 PUSH1 0x60 ADD PUSH1 0x40 MSTORE DUP1 PUSH1 0x40 MLOAD DUP1 PUSH1 0x40 ADD PUSH1 0x40 MSTORE DUP1 PUSH1 0x5 DUP2 MSTORE PUSH1 0x20 ADD PUSH32 0x41686D6564000000000000000000000000000000000000000000000000000000 DUP2 MSTORE POP DUP2 MSTORE PUSH1 0x20 ADD PUSH1 0x16 DUP2 MSTORE PUSH1 0x20 ADD PUSH20 0x5B38DA6A701C568545DCFCB03FCB875F56BEDDC4 PUSH20 0xFFFFFFFFFFFFFFFFFFFFFFFFFFFFFFFFFFFFFFFF AND DUP2 MSTORE POP SWAP1 POP PUSH2 0x1A3 PUSH2 0x6EA JUMP JUMPDEST PUSH1 0x40 MLOAD DUP1 PUSH1 0x40 ADD PUSH1 0x40 MSTORE DUP1 PUSH1 0x4 DUP2 MSTORE PUSH1 0x20 ADD PUSH32 0x4A6F686E00000000000000000000000000000000000000000000000000000000 DUP2 MSTORE POP DUP2 PUSH0 ADD DUP2 SWAP1 MSTORE POP PUSH1 0x17 DUP2 PUSH1 0x20 ADD DUP2 DUP2 MSTORE POP POP PUSH20 0x5B38DA6A701C568545DCFCB03FCB875F56BEDDC4 DUP2 PUSH1 0x40 ADD SWAP1 PUSH20 0xFFFFFFFFFFFFFFFFFFFFFFFFFFFFFFFFFFFFFFFF AND SWAP1 DUP2 PUSH20 0xFFFFFFFFFFFFFFFFFFFFFFFFFFFFFFFFFFFFFFFF AND DUP2 MSTORE POP POP PUSH1 0x3 DUP4 SWAP1 DUP1 PUSH1 0x1 DUP2 SLOAD ADD DUP1 DUP3 SSTORE DUP1 SWAP2 POP POP PUSH1 0x1 SWAP1 SUB SWAP1 PUSH0 MSTORE PUSH1 0x20 PUSH0 KECCAK256 SWAP1 PUSH1 0x3 MUL ADD PUSH0 SWAP1 SWAP2 SWAP1 SWAP2 SWAP1 SWAP2 POP PUSH0 DUP3 ADD MLOAD DUP2 PUSH0 ADD SWAP1 DUP2 PUSH2 0x273 SWAP2 SWAP1 PUSH2 0xAA2 JUMP JUMPDEST POP PUSH1 0x20 DUP3 ADD MLOAD DUP2 PUSH1 0x1 ADD SSTORE PUSH1 0x40 DUP3 ADD MLOAD DUP2 PUSH1 0x2 ADD PUSH0 PUSH2 0x100 EXP DUP2 SLOAD DUP2 PUSH20 0xFFFFFFFFFFFFFFFFFFFFFFFFFFFFFFFFFFFFFFFF MUL NOT AND SWAP1 DUP4 PUSH20 0xFFFFFFFFFFFFFFFFFFFFFFFFFFFFFFFFFFFFFFFF AND MUL OR SWAP1 SSTORE POP POP POP PUSH1 0x3 DUP3 SWAP1 DUP1 PUSH1 0x1 DUP2 SLOAD ADD DUP1 DUP3 SSTORE DUP1 SWAP2 POP POP PUSH1 0x1 SWAP1 SUB SWAP1 PUSH0 MSTORE PUSH1 0x20 PUSH0 KECCAK256 SWAP1 PUSH1 0x3 MUL ADD PUSH0 SWAP1 SWAP2 SWAP1 SWAP2 SWAP1 SWAP2 POP PUSH0 DUP3 ADD MLOAD DUP2 PUSH0 ADD SWAP1 DUP2 PUSH2 0x302 SWAP2 SWAP1 PUSH2 0xAA2 JUMP JUMPDEST POP PUSH1 0x20 DUP3 ADD MLOAD DUP2 PUSH1 0x1 ADD SSTORE PUSH1 0x40 DUP3 ADD MLOAD DUP2 PUSH1 0x2 ADD PUSH0 PUSH2 0x100 EXP DUP2 SLOAD DUP2 PUSH20 0xFFFFFFFFFFFFFFFFFFFFFFFFFFFFFFFFFFFFFFFF MUL NOT AND SWAP1 DUP4 PUSH20 0xFFFFFFFFFFFFFFFFFFFFFFFFFFFFFFFFFFFFFFFF AND MUL OR SWAP1 SSTORE POP POP POP PUSH1 0x3 DUP2 SWAP1 DUP1 PUSH1 0x1 DUP2 SLOAD ADD DUP1 DUP3 SSTORE DUP1 SWAP2 POP POP PUSH1 0x1 SWAP1 SUB SWAP1 PUSH0 MSTORE PUSH1 0x20 PUSH0 KECCAK256 SWAP1 PUSH1 0x3 MUL ADD PUSH0 SWAP1 SWAP2 SWAP1 SWAP2 SWAP1 SWAP2 POP PUSH0 DUP3 ADD MLOAD DUP2 PUSH0 ADD SWAP1 DUP2 PUSH2 0x391 SWAP2 SWAP1 PUSH2 0xAA2 JUMP JUMPDEST POP PUSH1 0x20 DUP3 ADD MLOAD DUP2 PUSH1 0x1 ADD SSTORE PUSH1 0x40 DUP3 ADD MLOAD DUP2 PUSH1 0x2 ADD PUSH0 PUSH2 0x100 EXP DUP2 SLOAD DUP2 PUSH20 0xFFFFFFFFFFFFFFFFFFFFFFFFFFFFFFFFFFFFFFFF MUL NOT AND SWAP1 DUP4 PUSH20 0xFFFFFFFFFFFFFFFFFFFFFFFFFFFFFFFFFFFFFFFF AND MUL OR SWAP1 SSTORE POP POP POP PUSH1 0x3 PUSH1 0x40 MLOAD DUP1 PUSH1 0x60 ADD PUSH1 0x40 MSTORE DUP1 PUSH1 0x40 MLOAD DUP1 PUSH1 0x40 ADD PUSH1 0x40 MSTORE DUP1 PUSH1 0x3 DUP2 MSTORE PUSH1 0x20 ADD PUSH32 0x446F650000000000000000000000000000000000000000000000000000000000 DUP2 MSTORE POP DUP2 MSTORE PUSH1 0x20 ADD PUSH1 0x1E DUP2 MSTORE PUSH1 0x20 ADD CALLER PUSH20 0xFFFFFFFFFFFFFFFFFFFFFFFFFFFFFFFFFFFFFFFF AND DUP2 MSTORE POP SWAP1 DUP1 PUSH1 0x1 DUP2 SLOAD ADD DUP1 DUP3 SSTORE DUP1 SWAP2 POP POP PUSH1 0x1 SWAP1 SUB SWAP1 PUSH0 MSTORE PUSH1 0x20 PUSH0 KECCAK256 SWAP1 PUSH1 0x3 MUL ADD PUSH0 SWAP1 SWAP2 SWAP1 SWAP2 SWAP1 SWAP2 POP PUSH0 DUP3 ADD MLOAD DUP2 PUSH0 ADD SWAP1 DUP2 PUSH2 0x486 SWAP2 SWAP1 PUSH2 0xAA2 JUMP JUMPDEST POP PUSH1 0x20 DUP3 ADD MLOAD DUP2 PUSH1 0x1 ADD SSTORE PUSH1 0x40 DUP3 ADD MLOAD DUP2 PUSH1 0x2 ADD PUSH0 PUSH2 0x100 EXP DUP2 SLOAD DUP2 PUSH20 0xFFFFFFFFFFFFFFFFFFFFFFFFFFFFFFFFFFFFFFFF MUL NOT AND SWAP1 DUP4 PUSH20 0xFFFFFFFFFFFFFFFFFFFFFFFFFFFFFFFFFFFFFFFF AND MUL OR SWAP1 SSTORE POP POP POP PUSH0 PUSH1 0x40 MLOAD DUP1 PUSH1 0x40 ADD PUSH1 0x40 MSTORE DUP1 PUSH1 0x5 DUP2 MSTORE PUSH1 0x20 ADD PUSH32 0x4A616D6573000000000000000000000000000000000000000000000000000000 DUP2 MSTORE POP DUP2 PUSH0 ADD SWAP1 DUP2 PUSH2 0x51F SWAP2 SWAP1 PUSH2 0xAA2 JUMP JUMPDEST POP PUSH0 PUSH1 0x3 PUSH1 0x1 DUP2 SLOAD DUP2 LT PUSH2 0x536 JUMPI PUSH2 0x535 PUSH2 0xB71 JUMP JUMPDEST JUMPDEST SWAP1 PUSH0 MSTORE PUSH1 0x20 PUSH0 KECCAK256 SWAP1 PUSH1 0x3 MUL ADD SWAP1 POP PUSH1 0x1F DUP2 PUSH1 0x1 ADD DUP2 SWAP1 SSTORE POP POP POP POP POP POP JUMP JUMPDEST PUSH0 DUP1 PUSH0 ADD DUP1 SLOAD PUSH2 0x564 SWAP1 PUSH2 0x8D5 JUMP JUMPDEST DUP1 PUSH1 0x1F ADD PUSH1 0x20 DUP1 SWAP2 DIV MUL PUSH1 0x20 ADD PUSH1 0x40 MLOAD SWAP1 DUP2 ADD PUSH1 0x40 MSTORE DUP1 SWAP3 SWAP2 SWAP1 DUP2 DUP2 MSTORE PUSH1 0x20 ADD DUP3 DUP1 SLOAD PUSH2 0x590 SWAP1 PUSH2 0x8D5 JUMP JUMPDEST DUP1 ISZERO PUSH2 0x5DB JUMPI DUP1 PUSH1 0x1F LT PUSH2 0x5B2 JUMPI PUSH2 0x100 DUP1 DUP4 SLOAD DIV MUL DUP4 MSTORE SWAP2 PUSH1 0x20 ADD SWAP2 PUSH2 0x5DB JUMP JUMPDEST DUP3 ADD SWAP2 SWAP1 PUSH0 MSTORE PUSH1 0x20 PUSH0 KECCAK256 SWAP1 JUMPDEST DUP2 SLOAD DUP2 MSTORE SWAP1 PUSH1 0x1 ADD SWAP1 PUSH1 0x20 ADD DUP1 DUP4 GT PUSH2 0x5BE JUMPI DUP3 SWAP1 SUB PUSH1 0x1F AND DUP3 ADD SWAP2 JUMPDEST POP POP POP POP POP SWAP1 DUP1 PUSH1 0x1 ADD SLOAD SWAP1 DUP1 PUSH1 0x2 ADD PUSH0 SWAP1 SLOAD SWAP1 PUSH2 0x100 EXP SWAP1 DIV PUSH20 0xFFFFFFFFFFFFFFFFFFFFFFFFFFFFFFFFFFFFFFFF AND SWAP1 POP DUP4 JUMP JUMPDEST PUSH1 0x3 DUP2 DUP2 SLOAD DUP2 LT PUSH2 0x61F JUMPI PUSH0 DUP1 REVERT JUMPDEST SWAP1 PUSH0 MSTORE PUSH1 0x20 PUSH0 KECCAK256 SWAP1 PUSH1 0x3 MUL ADD PUSH0 SWAP2 POP SWAP1 POP DUP1 PUSH0 ADD DUP1 SLOAD PUSH2 0x63E SWAP1 PUSH2 0x8D5 JUMP JUMPDEST DUP1 PUSH1 0x1F ADD PUSH1 0x20 DUP1 SWAP2 DIV MUL PUSH1 0x20 ADD PUSH1 0x40 MLOAD SWAP1 DUP2 ADD PUSH1 0x40 MSTORE DUP1 SWAP3 SWAP2 SWAP1 DUP2 DUP2 MSTORE PUSH1 0x20 ADD DUP3 DUP1 SLOAD PUSH2 0x66A SWAP1 PUSH2 0x8D5 JUMP JUMPDEST DUP1 ISZERO PUSH2 0x6B5 JUMPI DUP1 PUSH1 0x1F LT PUSH2 0x68C JUMPI PUSH2 0x100 DUP1 DUP4 SLOAD DIV MUL DUP4 MSTORE SWAP2 PUSH1 0x20 ADD SWAP2 PUSH2 0x6B5 JUMP JUMPDEST DUP3 ADD SWAP2 SWAP1 PUSH0 MSTORE PUSH1 0x20 PUSH0 KECCAK256 SWAP1 JUMPDEST DUP2 SLOAD DUP2 MSTORE SWAP1 PUSH1 0x1 ADD SWAP1 PUSH1 0x20 ADD DUP1 DUP4 GT PUSH2 0x698 JUMPI DUP3 SWAP1 SUB PUSH1 0x1F AND DUP3 ADD SWAP2 JUMPDEST POP POP POP POP POP SWAP1 DUP1 PUSH1 0x1 ADD SLOAD SWAP1 DUP1 PUSH1 0x2 ADD PUSH0 SWAP1 SLOAD SWAP1 PUSH2 0x100 EXP SWAP1 DIV PUSH20 0xFFFFFFFFFFFFFFFFFFFFFFFFFFFFFFFFFFFFFFFF AND SWAP1 POP DUP4 JUMP JUMPDEST PUSH1 0x40 MLOAD DUP1 PUSH1 0x60 ADD PUSH1 0x40 MSTORE DUP1 PUSH1 0x60 DUP2 MSTORE PUSH1 0x20 ADD PUSH0 DUP2 MSTORE PUSH1 0x20 ADD PUSH0 PUSH20 0xFFFFFFFFFFFFFFFFFFFFFFFFFFFFFFFFFFFFFFFF AND DUP2 MSTORE POP SWAP1 JUMP JUMPDEST PUSH0 DUP2 MLOAD SWAP1 POP SWAP2 SWAP1 POP JUMP JUMPDEST PUSH0 DUP3 DUP3 MSTORE PUSH1 0x20 DUP3 ADD SWAP1 POP SWAP3 SWAP2 POP POP JUMP JUMPDEST DUP3 DUP2 DUP4 MCOPY PUSH0 DUP4 DUP4 ADD MSTORE POP POP POP JUMP JUMPDEST PUSH0 PUSH1 0x1F NOT PUSH1 0x1F DUP4 ADD AND SWAP1 POP SWAP2 SWAP1 POP JUMP JUMPDEST PUSH0 PUSH2 0x761 DUP3 PUSH2 0x71F JUMP JUMPDEST PUSH2 0x76B DUP2 DUP6 PUSH2 0x729 JUMP JUMPDEST SWAP4 POP PUSH2 0x77B DUP2 DUP6 PUSH1 0x20 DUP7 ADD PUSH2 0x739 JUMP JUMPDEST PUSH2 0x784 DUP2 PUSH2 0x747 JUMP JUMPDEST DUP5 ADD SWAP2 POP POP SWAP3 SWAP2 POP POP JUMP JUMPDEST PUSH0 DUP2 SWAP1 POP SWAP2 SWAP1 POP JUMP JUMPDEST PUSH2 0x7A1 DUP2 PUSH2 0x78F JUMP JUMPDEST DUP3 MSTORE POP POP JUMP JUMPDEST PUSH0 PUSH20 0xFFFFFFFFFFFFFFFFFFFFFFFFFFFFFFFFFFFFFFFF DUP3 AND SWAP1 POP SWAP2 SWAP1 POP JUMP JUMPDEST PUSH0 PUSH2 0x7D0 DUP3 PUSH2 0x7A7 JUMP JUMPDEST SWAP1 POP SWAP2 SWAP1 POP JUMP JUMPDEST PUSH2 0x7E0 DUP2 PUSH2 0x7C6 JUMP JUMPDEST DUP3 MSTORE POP POP JUMP JUMPDEST PUSH0 PUSH1 0x60 DUP3 ADD SWAP1 POP DUP2 DUP2 SUB PUSH0 DUP4 ADD MSTORE PUSH2 0x7FE DUP2 DUP7 PUSH2 0x757 JUMP JUMPDEST SWAP1 POP PUSH2 0x80D PUSH1 0x20 DUP4 ADD DUP6 PUSH2 0x798 JUMP JUMPDEST PUSH2 0x81A PUSH1 0x40 DUP4 ADD DUP5 PUSH2 0x7D7 JUMP JUMPDEST SWAP5 SWAP4 POP POP POP POP JUMP JUMPDEST PUSH0 DUP1 REVERT JUMPDEST PUSH2 0x82F DUP2 PUSH2 0x78F JUMP JUMPDEST DUP2 EQ PUSH2 0x839 JUMPI PUSH0 DUP1 REVERT JUMPDEST POP JUMP JUMPDEST PUSH0 DUP2 CALLDATALOAD SWAP1 POP PUSH2 0x84A DUP2 PUSH2 0x826 JUMP JUMPDEST SWAP3 SWAP2 POP POP JUMP JUMPDEST PUSH0 PUSH1 0x20 DUP3 DUP5 SUB SLT ISZERO PUSH2 0x865 JUMPI PUSH2 0x864 PUSH2 0x822 JUMP JUMPDEST JUMPDEST PUSH0 PUSH2 0x872 DUP5 DUP3 DUP6 ADD PUSH2 0x83C JUMP JUMPDEST SWAP2 POP POP SWAP3 SWAP2 POP POP JUMP JUMPDEST PUSH32 0x4E487B7100000000000000000000000000000000000000000000000000000000 PUSH0 MSTORE PUSH1 0x41 PUSH1 0x4 MSTORE PUSH1 0x24 PUSH0 REVERT JUMPDEST PUSH32 0x4E487B7100000000000000000000000000000000000000000000000000000000 PUSH0 MSTORE PUSH1 0x22 PUSH1 0x4 MSTORE PUSH1 0x24 PUSH0 REVERT JUMPDEST PUSH0 PUSH1 0x2 DUP3 DIV SWAP1 POP PUSH1 0x1 DUP3 AND DUP1 PUSH2 0x8EC JUMPI PUSH1 0x7F DUP3 AND SWAP2 POP JUMPDEST PUSH1 0x20 DUP3 LT DUP2 SUB PUSH2 0x8FF JUMPI PUSH2 0x8FE PUSH2 0x8A8 JUMP JUMPDEST JUMPDEST POP SWAP2 SWAP1 POP JUMP JUMPDEST PUSH0 DUP2 SWAP1 POP DUP2 PUSH0 MSTORE PUSH1 0x20 PUSH0 KECCAK256 SWAP1 POP SWAP2 SWAP1 POP JUMP JUMPDEST PUSH0 PUSH1 0x20 PUSH1 0x1F DUP4 ADD DIV SWAP1 POP SWAP2 SWAP1 POP JUMP JUMPDEST PUSH0 DUP3 DUP3 SHL SWAP1 POP SWAP3 SWAP2 POP POP JUMP JUMPDEST PUSH0 PUSH1 0x8 DUP4 MUL PUSH2 0x961 PUSH32 0xFFFFFFFFFFFFFFFFFFFFFFFFFFFFFFFFFFFFFFFFFFFFFFFFFFFFFFFFFFFFFFFF DUP3 PUSH2 0x926 JUMP JUMPDEST PUSH2 0x96B DUP7 DUP4 PUSH2 0x926 JUMP JUMPDEST SWAP6 POP DUP1 NOT DUP5 AND SWAP4 POP DUP1 DUP7 AND DUP5 OR SWAP3 POP POP POP SWAP4 SWAP3 POP POP POP JUMP JUMPDEST PUSH0 DUP2 SWAP1 POP SWAP2 SWAP1 POP JUMP JUMPDEST PUSH0 PUSH2 0x9A6 PUSH2 0x9A1 PUSH2 0x99C DUP5 PUSH2 0x78F JUMP JUMPDEST PUSH2 0x983 JUMP JUMPDEST PUSH2 0x78F JUMP JUMPDEST SWAP1 POP SWAP2 SWAP1 POP JUMP JUMPDEST PUSH0 DUP2 SWAP1 POP SWAP2 SWAP1 POP JUMP JUMPDEST PUSH2 0x9BF DUP4 PUSH2 0x98C JUMP JUMPDEST PUSH2 0x9D3 PUSH2 0x9CB DUP3 PUSH2 0x9AD JUMP JUMPDEST DUP5 DUP5 SLOAD PUSH2 0x932 JUMP JUMPDEST DUP3 SSTORE POP POP POP POP JUMP JUMPDEST PUSH0 SWAP1 JUMP JUMPDEST PUSH2 0x9E7 PUSH2 0x9DB JUMP JUMPDEST PUSH2 0x9F2 DUP2 DUP5 DUP5 PUSH2 0x9B6 JUMP JUMPDEST POP POP POP JUMP JUMPDEST JUMPDEST DUP2 DUP2 LT ISZERO PUSH2 0xA15 JUMPI PUSH2 0xA0A PUSH0 DUP3 PUSH2 0x9DF JUMP JUMPDEST PUSH1 0x1 DUP2 ADD SWAP1 POP PUSH2 0x9F8 JUMP JUMPDEST POP POP JUMP JUMPDEST PUSH1 0x1F DUP3 GT ISZERO PUSH2 0xA5A JUMPI PUSH2 0xA2B DUP2 PUSH2 0x905 JUMP JUMPDEST PUSH2 0xA34 DUP5 PUSH2 0x917 JUMP JUMPDEST DUP2 ADD PUSH1 0x20 DUP6 LT ISZERO PUSH2 0xA43 JUMPI DUP2 SWAP1 POP JUMPDEST PUSH2 0xA57 PUSH2 0xA4F DUP6 PUSH2 0x917 JUMP JUMPDEST DUP4 ADD DUP3 PUSH2 0x9F7 JUMP JUMPDEST POP POP JUMPDEST POP POP POP JUMP JUMPDEST PUSH0 DUP3 DUP3 SHR SWAP1 POP SWAP3 SWAP2 POP POP JUMP JUMPDEST PUSH0 PUSH2 0xA7A PUSH0 NOT DUP5 PUSH1 0x8 MUL PUSH2 0xA5F JUMP JUMPDEST NOT DUP1 DUP4 AND SWAP2 POP POP SWAP3 SWAP2 POP POP JUMP JUMPDEST PUSH0 PUSH2 0xA92 DUP4 DUP4 PUSH2 0xA6B JUMP JUMPDEST SWAP2 POP DUP3 PUSH1 0x2 MUL DUP3 OR SWAP1 POP SWAP3 SWAP2 POP POP JUMP JUMPDEST PUSH2 0xAAB DUP3 PUSH2 0x71F JUMP JUMPDEST PUSH8 0xFFFFFFFFFFFFFFFF DUP2 GT ISZERO PUSH2 0xAC4 JUMPI PUSH2 0xAC3 PUSH2 0x87B JUMP JUMPDEST JUMPDEST PUSH2 0xACE DUP3 SLOAD PUSH2 0x8D5 JUMP JUMPDEST PUSH2 0xAD9 DUP3 DUP3 DUP6 PUSH2 0xA19 JUMP JUMPDEST PUSH0 PUSH1 0x20 SWAP1 POP PUSH1 0x1F DUP4 GT PUSH1 0x1 DUP2 EQ PUSH2 0xB0A JUMPI PUSH0 DUP5 ISZERO PUSH2 0xAF8 JUMPI DUP3 DUP8 ADD MLOAD SWAP1 POP JUMPDEST PUSH2 0xB02 DUP6 DUP3 PUSH2 0xA87 JUMP JUMPDEST DUP7 SSTORE POP PUSH2 0xB69 JUMP JUMPDEST PUSH1 0x1F NOT DUP5 AND PUSH2 0xB18 DUP7 PUSH2 0x905 JUMP JUMPDEST PUSH0 JUMPDEST DUP3 DUP2 LT ISZERO PUSH2 0xB3F JUMPI DUP5 DUP10 ADD MLOAD DUP3 SSTORE PUSH1 0x1 DUP3 ADD SWAP2 POP PUSH1 0x20 DUP6 ADD SWAP5 POP PUSH1 0x20 DUP2 ADD SWAP1 POP PUSH2 0xB1A JUMP JUMPDEST DUP7 DUP4 LT ISZERO PUSH2 0xB5C JUMPI DUP5 DUP10 ADD MLOAD PUSH2 0xB58 PUSH1 0x1F DUP10 AND DUP3 PUSH2 0xA6B JUMP JUMPDEST DUP4 SSTORE POP JUMPDEST PUSH1 0x1 PUSH1 0x2 DUP9 MUL ADD DUP9 SSTORE POP POP POP JUMPDEST POP POP POP POP POP POP JUMP JUMPDEST PUSH32 0x4E487B7100000000000000000000000000000000000000000000000000000000 PUSH0 MSTORE PUSH1 0x32 PUSH1 0x4 MSTORE PUSH1 0x24 PUSH0 REVERT INVALID LOG2 PUSH5 0x6970667358 0x22 SLT KECCAK256 RETURN PUSH30 0x6C32CE8907727F05874C5AE10DD4EE187776A57D3AEC2517403292C471E0 PUSH5 0x736F6C6343 STOP ADDMOD NOT STOP CALLER "
				},
				"gasEstimates": {
					"creation": {
						"codeDepositCost": "605600",
						"executionCost": "infinite",
						"totalCost": "infinite"
					},
					"external": {
						"emp()": "infinite",
						"emps(uint256)": "infinite",
						"setValues()": "infinite"
					}
				},
				"methodIdentifiers": {
					"emp()": "b34fad41",
					"emps(uint256)": "e53b109e",
					"setValues()": "800509d5"
				}
			},
			"storageLayout": {
				"storage": [
					{
						"astId": 296,
						"contract": "contracts/Practice.sol:Structures",
						"label": "emp",
						"offset": 0,
						"slot": "0",
						"type": "t_struct(Emp)293_storage"
					},
					{
						"astId": 300,
						"contract": "contracts/Practice.sol:Structures",
						"label": "emps",
						"offset": 0,
						"slot": "3",
						"type": "t_array(t_struct(Emp)293_storage)dyn_storage"
					}
				],
				"types": {
					"t_address": {
						"encoding": "inplace",
						"label": "address",
						"numberOfBytes": "20"
					},
					"t_array(t_struct(Emp)293_storage)dyn_storage": {
						"base": "t_struct(Emp)293_storage",
						"encoding": "dynamic_array",
						"label": "struct Structures.Emp[]",
						"numberOfBytes": "32"
					},
					"t_string_storage": {
						"encoding": "bytes",
						"label": "string",
						"numberOfBytes": "32"
					},
					"t_struct(Emp)293_storage": {
						"encoding": "inplace",
						"label": "struct Structures.Emp",
						"members": [
							{
								"astId": 288,
								"contract": "contracts/Practice.sol:Structures",
								"label": "name",
								"offset": 0,
								"slot": "0",
								"type": "t_string_storage"
							},
							{
								"astId": 290,
								"contract": "contracts/Practice.sol:Structures",
								"label": "age",
								"offset": 0,
								"slot": "1",
								"type": "t_uint256"
							},
							{
								"astId": 292,
								"contract": "contracts/Practice.sol:Structures",
								"label": "acc",
								"offset": 0,
								"slot": "2",
								"type": "t_address"
							}
						],
						"numberOfBytes": "96"
					},
					"t_uint256": {
						"encoding": "inplace",
						"label": "uint256",
						"numberOfBytes": "32"
					}
				}
			},
			"userdoc": {
				"kind": "user",
				"methods": {},
				"version": 1
			}
		}
	}
}