{
	"contracts/Practice.sol": {
		"AdvancedMapping": {
			"abi": [
				{
					"inputs": [
						{
							"internalType": "address",
							"name": "",
							"type": "address"
						}
					],
					"name": "acc_info",
					"outputs": [
						{
							"internalType": "string",
							"name": "name",
							"type": "string"
						},
						{
							"internalType": "uint256",
							"name": "age",
							"type": "uint256"
						},
						{
							"internalType": "string",
							"name": "add",
							"type": "string"
						},
						{
							"internalType": "uint256",
							"name": "don",
							"type": "uint256"
						}
					],
					"stateMutability": "view",
					"type": "function"
				},
				{
					"inputs": [],
					"name": "delete_info",
					"outputs": [],
					"stateMutability": "nonpayable",
					"type": "function"
				},
				{
					"inputs": [
						{
							"internalType": "string",
							"name": "_name",
							"type": "string"
						},
						{
							"internalType": "uint256",
							"name": "_age",
							"type": "uint256"
						},
						{
							"internalType": "string",
							"name": "_add",
							"type": "string"
						},
						{
							"internalType": "uint256",
							"name": "_don",
							"type": "uint256"
						}
					],
					"name": "set",
					"outputs": [],
					"stateMutability": "nonpayable",
					"type": "function"
				}
			],
			"devdoc": {
				"kind": "dev",
				"methods": {},
				"version": 1
			},
			"evm": {
				"assembly": "    /* \"contracts/Practice.sol\":4070:4527  contract AdvancedMapping {... */\n  mstore(0x40, 0x80)\n  callvalue\n  dup1\n  iszero\n  tag_1\n  jumpi\n  0x00\n  dup1\n  revert\ntag_1:\n  pop\n  dataSize(sub_0)\n  dup1\n  dataOffset(sub_0)\n  0x00\n  codecopy\n  0x00\n  return\nstop\n\nsub_0: assembly {\n        /* \"contracts/Practice.sol\":4070:4527  contract AdvancedMapping {... */\n      mstore(0x40, 0x80)\n      callvalue\n      dup1\n      iszero\n      tag_1\n      jumpi\n      0x00\n      dup1\n      revert\n    tag_1:\n      pop\n      jumpi(tag_2, lt(calldatasize, 0x04))\n      shr(0xe0, calldataload(0x00))\n      dup1\n      0x0d0d1e2b\n      eq\n      tag_3\n      jumpi\n      dup1\n      0x2f4864c5\n      eq\n      tag_4\n      jumpi\n      dup1\n      0x628e48f9\n      eq\n      tag_5\n      jumpi\n    tag_2:\n      0x00\n      dup1\n      revert\n        /* \"contracts/Practice.sol\":4208:4253  mapping(address => donor_dts) public acc_info */\n    tag_3:\n      tag_6\n      0x04\n      dup1\n      calldatasize\n      sub\n      dup2\n      add\n      swap1\n      tag_7\n      swap2\n      swap1\n      tag_8\n      jump\t// in\n    tag_7:\n      tag_9\n      jump\t// in\n    tag_6:\n      mload(0x40)\n      tag_10\n      swap5\n      swap4\n      swap3\n      swap2\n      swap1\n      tag_11\n      jump\t// in\n    tag_10:\n      mload(0x40)\n      dup1\n      swap2\n      sub\n      swap1\n      return\n        /* \"contracts/Practice.sol\":4451:4525  function delete_info() public {... */\n    tag_4:\n      tag_12\n      tag_13\n      jump\t// in\n    tag_12:\n      stop\n        /* \"contracts/Practice.sol\":4260:4444  function set(string memory _name, uint _age, string memory _add, uint _don) public {... */\n    tag_5:\n      tag_14\n      0x04\n      dup1\n      calldatasize\n      sub\n      dup2\n      add\n      swap1\n      tag_15\n      swap2\n      swap1\n      tag_16\n      jump\t// in\n    tag_15:\n      tag_17\n      jump\t// in\n    tag_14:\n      stop\n        /* \"contracts/Practice.sol\":4208:4253  mapping(address => donor_dts) public acc_info */\n    tag_9:\n      mstore(0x20, 0x00)\n      dup1\n      0x00\n      mstore\n      keccak256(0x00, 0x40)\n      0x00\n      swap2\n      pop\n      swap1\n      pop\n      dup1\n      0x00\n      add\n      dup1\n      sload\n      tag_18\n      swap1\n      tag_19\n      jump\t// in\n    tag_18:\n      dup1\n      0x1f\n      add\n      0x20\n      dup1\n      swap2\n      div\n      mul\n      0x20\n      add\n      mload(0x40)\n      swap1\n      dup2\n      add\n      0x40\n      mstore\n      dup1\n      swap3\n      swap2\n      swap1\n      dup2\n      dup2\n      mstore\n      0x20\n      add\n      dup3\n      dup1\n      sload\n      tag_20\n      swap1\n      tag_19\n      jump\t// in\n    tag_20:\n      dup1\n      iszero\n      tag_21\n      jumpi\n      dup1\n      0x1f\n      lt\n      tag_22\n      jumpi\n      0x0100\n      dup1\n      dup4\n      sload\n      div\n      mul\n      dup4\n      mstore\n      swap2\n      0x20\n      add\n      swap2\n      jump(tag_21)\n    tag_22:\n      dup3\n      add\n      swap2\n      swap1\n      0x00\n      mstore\n      keccak256(0x00, 0x20)\n      swap1\n    tag_23:\n      dup2\n      sload\n      dup2\n      mstore\n      swap1\n      0x01\n      add\n      swap1\n      0x20\n      add\n      dup1\n      dup4\n      gt\n      tag_23\n      jumpi\n      dup3\n      swap1\n      sub\n      0x1f\n      and\n      dup3\n      add\n      swap2\n    tag_21:\n      pop\n      pop\n      pop\n      pop\n      pop\n      swap1\n      dup1\n      0x01\n      add\n      sload\n      swap1\n      dup1\n      0x02\n      add\n      dup1\n      sload\n      tag_24\n      swap1\n      tag_19\n      jump\t// in\n    tag_24:\n      dup1\n      0x1f\n      add\n      0x20\n      dup1\n      swap2\n      div\n      mul\n      0x20\n      add\n      mload(0x40)\n      swap1\n      dup2\n      add\n      0x40\n      mstore\n      dup1\n      swap3\n      swap2\n      swap1\n      dup2\n      dup2\n      mstore\n      0x20\n      add\n      dup3\n      dup1\n      sload\n      tag_25\n      swap1\n      tag_19\n      jump\t// in\n    tag_25:\n      dup1\n      iszero\n      tag_26\n      jumpi\n      dup1\n      0x1f\n      lt\n      tag_27\n      jumpi\n      0x0100\n      dup1\n      dup4\n      sload\n      div\n      mul\n      dup4\n      mstore\n      swap2\n      0x20\n      add\n      swap2\n      jump(tag_26)\n    tag_27:\n      dup3\n      add\n      swap2\n      swap1\n      0x00\n      mstore\n      keccak256(0x00, 0x20)\n      swap1\n    tag_28:\n      dup2\n      sload\n      dup2\n      mstore\n      swap1\n      0x01\n      add\n      swap1\n      0x20\n      add\n      dup1\n      dup4\n      gt\n      tag_28\n      jumpi\n      dup3\n      swap1\n      sub\n      0x1f\n      and\n      dup3\n      add\n      swap2\n    tag_26:\n      pop\n      pop\n      pop\n      pop\n      pop\n      swap1\n      dup1\n      0x03\n      add\n      sload\n      swap1\n      pop\n      dup5\n      jump\t// out\n        /* \"contracts/Practice.sol\":4451:4525  function delete_info() public {... */\n    tag_13:\n        /* \"contracts/Practice.sol\":4498:4506  acc_info */\n      0x00\n        /* \"contracts/Practice.sol\":4498:4518  acc_info[msg.sender] */\n      dup1\n        /* \"contracts/Practice.sol\":4507:4517  msg.sender */\n      caller\n        /* \"contracts/Practice.sol\":4498:4518  acc_info[msg.sender] */\n      0xffffffffffffffffffffffffffffffffffffffff\n      and\n      0xffffffffffffffffffffffffffffffffffffffff\n      and\n      dup2\n      mstore\n      0x20\n      add\n      swap1\n      dup2\n      mstore\n      0x20\n      add\n      0x00\n      keccak256\n      0x00\n        /* \"contracts/Practice.sol\":4491:4518  delete acc_info[msg.sender] */\n      dup1\n      dup3\n      add\n      0x00\n      tag_30\n      swap2\n      swap1\n      tag_31\n      jump\t// in\n    tag_30:\n      0x01\n      dup3\n      add\n      0x00\n      swap1\n      sstore\n      0x02\n      dup3\n      add\n      0x00\n      tag_32\n      swap2\n      swap1\n      tag_31\n      jump\t// in\n    tag_32:\n      0x03\n      dup3\n      add\n      0x00\n      swap1\n      sstore\n      pop\n      pop\n        /* \"contracts/Practice.sol\":4451:4525  function delete_info() public {... */\n      jump\t// out\n        /* \"contracts/Practice.sol\":4260:4444  function set(string memory _name, uint _age, string memory _add, uint _don) public {... */\n    tag_17:\n        /* \"contracts/Practice.sol\":4376:4437  donor_dts(_name, _age, _add, acc_info[msg.sender].don + _don) */\n      mload(0x40)\n      dup1\n      0x80\n      add\n      0x40\n      mstore\n      dup1\n        /* \"contracts/Practice.sol\":4386:4391  _name */\n      dup6\n        /* \"contracts/Practice.sol\":4376:4437  donor_dts(_name, _age, _add, acc_info[msg.sender].don + _don) */\n      dup2\n      mstore\n      0x20\n      add\n        /* \"contracts/Practice.sol\":4393:4397  _age */\n      dup5\n        /* \"contracts/Practice.sol\":4376:4437  donor_dts(_name, _age, _add, acc_info[msg.sender].don + _don) */\n      dup2\n      mstore\n      0x20\n      add\n        /* \"contracts/Practice.sol\":4399:4403  _add */\n      dup4\n        /* \"contracts/Practice.sol\":4376:4437  donor_dts(_name, _age, _add, acc_info[msg.sender].don + _don) */\n      dup2\n      mstore\n      0x20\n      add\n        /* \"contracts/Practice.sol\":4432:4436  _don */\n      dup3\n        /* \"contracts/Practice.sol\":4405:4413  acc_info */\n      0x00\n        /* \"contracts/Practice.sol\":4405:4425  acc_info[msg.sender] */\n      dup1\n        /* \"contracts/Practice.sol\":4414:4424  msg.sender */\n      caller\n        /* \"contracts/Practice.sol\":4405:4425  acc_info[msg.sender] */\n      0xffffffffffffffffffffffffffffffffffffffff\n      and\n      0xffffffffffffffffffffffffffffffffffffffff\n      and\n      dup2\n      mstore\n      0x20\n      add\n      swap1\n      dup2\n      mstore\n      0x20\n      add\n      0x00\n      keccak256\n        /* \"contracts/Practice.sol\":4405:4429  acc_info[msg.sender].don */\n      0x03\n      add\n      sload\n        /* \"contracts/Practice.sol\":4405:4436  acc_info[msg.sender].don + _don */\n      tag_34\n      swap2\n      swap1\n      tag_35\n      jump\t// in\n    tag_34:\n        /* \"contracts/Practice.sol\":4376:4437  donor_dts(_name, _age, _add, acc_info[msg.sender].don + _don) */\n      dup2\n      mstore\n      pop\n        /* \"contracts/Practice.sol\":4353:4361  acc_info */\n      0x00\n        /* \"contracts/Practice.sol\":4353:4373  acc_info[msg.sender] */\n      dup1\n        /* \"contracts/Practice.sol\":4362:4372  msg.sender */\n      caller\n        /* \"contracts/Practice.sol\":4353:4373  acc_info[msg.sender] */\n      0xffffffffffffffffffffffffffffffffffffffff\n      and\n      0xffffffffffffffffffffffffffffffffffffffff\n      and\n      dup2\n      mstore\n      0x20\n      add\n      swap1\n      dup2\n      mstore\n      0x20\n      add\n      0x00\n      keccak256\n        /* \"contracts/Practice.sol\":4353:4437  acc_info[msg.sender] = donor_dts(_name, _age, _add, acc_info[msg.sender].don + _don) */\n      0x00\n      dup3\n      add\n      mload\n      dup2\n      0x00\n      add\n      swap1\n      dup2\n      tag_36\n      swap2\n      swap1\n      tag_37\n      jump\t// in\n    tag_36:\n      pop\n      0x20\n      dup3\n      add\n      mload\n      dup2\n      0x01\n      add\n      sstore\n      0x40\n      dup3\n      add\n      mload\n      dup2\n      0x02\n      add\n      swap1\n      dup2\n      tag_38\n      swap2\n      swap1\n      tag_37\n      jump\t// in\n    tag_38:\n      pop\n      0x60\n      dup3\n      add\n      mload\n      dup2\n      0x03\n      add\n      sstore\n      swap1\n      pop\n      pop\n        /* \"contracts/Practice.sol\":4260:4444  function set(string memory _name, uint _age, string memory _add, uint _don) public {... */\n      pop\n      pop\n      pop\n      pop\n      jump\t// out\n    tag_31:\n      pop\n      dup1\n      sload\n      tag_39\n      swap1\n      tag_19\n      jump\t// in\n    tag_39:\n      0x00\n      dup3\n      sstore\n      dup1\n      0x1f\n      lt\n      tag_41\n      jumpi\n      pop\n      jump(tag_40)\n    tag_41:\n      0x1f\n      add\n      0x20\n      swap1\n      div\n      swap1\n      0x00\n      mstore\n      keccak256(0x00, 0x20)\n      swap1\n      dup2\n      add\n      swap1\n      tag_42\n      swap2\n      swap1\n      tag_43\n      jump\t// in\n    tag_42:\n    tag_40:\n      pop\n      jump\t// out\n    tag_43:\n    tag_44:\n      dup1\n      dup3\n      gt\n      iszero\n      tag_45\n      jumpi\n      0x00\n      dup2\n      0x00\n      swap1\n      sstore\n      pop\n      0x01\n      add\n      jump(tag_44)\n    tag_45:\n      pop\n      swap1\n      jump\t// out\n        /* \"#utility.yul\":7:82   */\n    tag_46:\n        /* \"#utility.yul\":40:46   */\n      0x00\n        /* \"#utility.yul\":73:75   */\n      0x40\n        /* \"#utility.yul\":67:76   */\n      mload\n        /* \"#utility.yul\":57:76   */\n      swap1\n      pop\n        /* \"#utility.yul\":7:82   */\n      swap1\n      jump\t// out\n        /* \"#utility.yul\":88:205   */\n    tag_47:\n        /* \"#utility.yul\":197:198   */\n      0x00\n        /* \"#utility.yul\":194:195   */\n      dup1\n        /* \"#utility.yul\":187:199   */\n      revert\n        /* \"#utility.yul\":211:328   */\n    tag_48:\n        /* \"#utility.yul\":320:321   */\n      0x00\n        /* \"#utility.yul\":317:318   */\n      dup1\n        /* \"#utility.yul\":310:322   */\n      revert\n        /* \"#utility.yul\":334:460   */\n    tag_49:\n        /* \"#utility.yul\":371:378   */\n      0x00\n        /* \"#utility.yul\":411:453   */\n      0xffffffffffffffffffffffffffffffffffffffff\n        /* \"#utility.yul\":404:409   */\n      dup3\n        /* \"#utility.yul\":400:454   */\n      and\n        /* \"#utility.yul\":389:454   */\n      swap1\n      pop\n        /* \"#utility.yul\":334:460   */\n      swap2\n      swap1\n      pop\n      jump\t// out\n        /* \"#utility.yul\":466:562   */\n    tag_50:\n        /* \"#utility.yul\":503:510   */\n      0x00\n        /* \"#utility.yul\":532:556   */\n      tag_94\n        /* \"#utility.yul\":550:555   */\n      dup3\n        /* \"#utility.yul\":532:556   */\n      tag_49\n      jump\t// in\n    tag_94:\n        /* \"#utility.yul\":521:556   */\n      swap1\n      pop\n        /* \"#utility.yul\":466:562   */\n      swap2\n      swap1\n      pop\n      jump\t// out\n        /* \"#utility.yul\":568:690   */\n    tag_51:\n        /* \"#utility.yul\":641:665   */\n      tag_96\n        /* \"#utility.yul\":659:664   */\n      dup2\n        /* \"#utility.yul\":641:665   */\n      tag_50\n      jump\t// in\n    tag_96:\n        /* \"#utility.yul\":634:639   */\n      dup2\n        /* \"#utility.yul\":631:666   */\n      eq\n        /* \"#utility.yul\":621:684   */\n      tag_97\n      jumpi\n        /* \"#utility.yul\":680:681   */\n      0x00\n        /* \"#utility.yul\":677:678   */\n      dup1\n        /* \"#utility.yul\":670:682   */\n      revert\n        /* \"#utility.yul\":621:684   */\n    tag_97:\n        /* \"#utility.yul\":568:690   */\n      pop\n      jump\t// out\n        /* \"#utility.yul\":696:835   */\n    tag_52:\n        /* \"#utility.yul\":742:747   */\n      0x00\n        /* \"#utility.yul\":780:786   */\n      dup2\n        /* \"#utility.yul\":767:787   */\n      calldataload\n        /* \"#utility.yul\":758:787   */\n      swap1\n      pop\n        /* \"#utility.yul\":796:829   */\n      tag_99\n        /* \"#utility.yul\":823:828   */\n      dup2\n        /* \"#utility.yul\":796:829   */\n      tag_51\n      jump\t// in\n    tag_99:\n        /* \"#utility.yul\":696:835   */\n      swap3\n      swap2\n      pop\n      pop\n      jump\t// out\n        /* \"#utility.yul\":841:1170   */\n    tag_8:\n        /* \"#utility.yul\":900:906   */\n      0x00\n        /* \"#utility.yul\":949:951   */\n      0x20\n        /* \"#utility.yul\":937:946   */\n      dup3\n        /* \"#utility.yul\":928:935   */\n      dup5\n        /* \"#utility.yul\":924:947   */\n      sub\n        /* \"#utility.yul\":920:952   */\n      slt\n        /* \"#utility.yul\":917:1036   */\n      iszero\n      tag_101\n      jumpi\n        /* \"#utility.yul\":955:1034   */\n      tag_102\n      tag_47\n      jump\t// in\n    tag_102:\n        /* \"#utility.yul\":917:1036   */\n    tag_101:\n        /* \"#utility.yul\":1075:1076   */\n      0x00\n        /* \"#utility.yul\":1100:1153   */\n      tag_103\n        /* \"#utility.yul\":1145:1152   */\n      dup5\n        /* \"#utility.yul\":1136:1142   */\n      dup3\n        /* \"#utility.yul\":1125:1134   */\n      dup6\n        /* \"#utility.yul\":1121:1143   */\n      add\n        /* \"#utility.yul\":1100:1153   */\n      tag_52\n      jump\t// in\n    tag_103:\n        /* \"#utility.yul\":1090:1153   */\n      swap2\n      pop\n        /* \"#utility.yul\":1046:1163   */\n      pop\n        /* \"#utility.yul\":841:1170   */\n      swap3\n      swap2\n      pop\n      pop\n      jump\t// out\n        /* \"#utility.yul\":1176:1275   */\n    tag_53:\n        /* \"#utility.yul\":1228:1234   */\n      0x00\n        /* \"#utility.yul\":1262:1267   */\n      dup2\n        /* \"#utility.yul\":1256:1268   */\n      mload\n        /* \"#utility.yul\":1246:1268   */\n      swap1\n      pop\n        /* \"#utility.yul\":1176:1275   */\n      swap2\n      swap1\n      pop\n      jump\t// out\n        /* \"#utility.yul\":1281:1450   */\n    tag_54:\n        /* \"#utility.yul\":1365:1376   */\n      0x00\n        /* \"#utility.yul\":1399:1405   */\n      dup3\n        /* \"#utility.yul\":1394:1397   */\n      dup3\n        /* \"#utility.yul\":1387:1406   */\n      mstore\n        /* \"#utility.yul\":1439:1443   */\n      0x20\n        /* \"#utility.yul\":1434:1437   */\n      dup3\n        /* \"#utility.yul\":1430:1444   */\n      add\n        /* \"#utility.yul\":1415:1444   */\n      swap1\n      pop\n        /* \"#utility.yul\":1281:1450   */\n      swap3\n      swap2\n      pop\n      pop\n      jump\t// out\n        /* \"#utility.yul\":1456:1595   */\n    tag_55:\n        /* \"#utility.yul\":1545:1551   */\n      dup3\n        /* \"#utility.yul\":1540:1543   */\n      dup2\n        /* \"#utility.yul\":1535:1538   */\n      dup4\n        /* \"#utility.yul\":1529:1552   */\n      mcopy\n        /* \"#utility.yul\":1586:1587   */\n      0x00\n        /* \"#utility.yul\":1577:1583   */\n      dup4\n        /* \"#utility.yul\":1572:1575   */\n      dup4\n        /* \"#utility.yul\":1568:1584   */\n      add\n        /* \"#utility.yul\":1561:1588   */\n      mstore\n        /* \"#utility.yul\":1456:1595   */\n      pop\n      pop\n      pop\n      jump\t// out\n        /* \"#utility.yul\":1601:1703   */\n    tag_56:\n        /* \"#utility.yul\":1642:1648   */\n      0x00\n        /* \"#utility.yul\":1693:1695   */\n      0x1f\n        /* \"#utility.yul\":1689:1696   */\n      not\n        /* \"#utility.yul\":1684:1686   */\n      0x1f\n        /* \"#utility.yul\":1677:1682   */\n      dup4\n        /* \"#utility.yul\":1673:1687   */\n      add\n        /* \"#utility.yul\":1669:1697   */\n      and\n        /* \"#utility.yul\":1659:1697   */\n      swap1\n      pop\n        /* \"#utility.yul\":1601:1703   */\n      swap2\n      swap1\n      pop\n      jump\t// out\n        /* \"#utility.yul\":1709:2086   */\n    tag_57:\n        /* \"#utility.yul\":1797:1800   */\n      0x00\n        /* \"#utility.yul\":1825:1864   */\n      tag_109\n        /* \"#utility.yul\":1858:1863   */\n      dup3\n        /* \"#utility.yul\":1825:1864   */\n      tag_53\n      jump\t// in\n    tag_109:\n        /* \"#utility.yul\":1880:1951   */\n      tag_110\n        /* \"#utility.yul\":1944:1950   */\n      dup2\n        /* \"#utility.yul\":1939:1942   */\n      dup6\n        /* \"#utility.yul\":1880:1951   */\n      tag_54\n      jump\t// in\n    tag_110:\n        /* \"#utility.yul\":1873:1951   */\n      swap4\n      pop\n        /* \"#utility.yul\":1960:2025   */\n      tag_111\n        /* \"#utility.yul\":2018:2024   */\n      dup2\n        /* \"#utility.yul\":2013:2016   */\n      dup6\n        /* \"#utility.yul\":2006:2010   */\n      0x20\n        /* \"#utility.yul\":1999:2004   */\n      dup7\n        /* \"#utility.yul\":1995:2011   */\n      add\n        /* \"#utility.yul\":1960:2025   */\n      tag_55\n      jump\t// in\n    tag_111:\n        /* \"#utility.yul\":2050:2079   */\n      tag_112\n        /* \"#utility.yul\":2072:2078   */\n      dup2\n        /* \"#utility.yul\":2050:2079   */\n      tag_56\n      jump\t// in\n    tag_112:\n        /* \"#utility.yul\":2045:2048   */\n      dup5\n        /* \"#utility.yul\":2041:2080   */\n      add\n        /* \"#utility.yul\":2034:2080   */\n      swap2\n      pop\n        /* \"#utility.yul\":1801:2086   */\n      pop\n        /* \"#utility.yul\":1709:2086   */\n      swap3\n      swap2\n      pop\n      pop\n      jump\t// out\n        /* \"#utility.yul\":2092:2169   */\n    tag_58:\n        /* \"#utility.yul\":2129:2136   */\n      0x00\n        /* \"#utility.yul\":2158:2163   */\n      dup2\n        /* \"#utility.yul\":2147:2163   */\n      swap1\n      pop\n        /* \"#utility.yul\":2092:2169   */\n      swap2\n      swap1\n      pop\n      jump\t// out\n        /* \"#utility.yul\":2175:2293   */\n    tag_59:\n        /* \"#utility.yul\":2262:2286   */\n      tag_115\n        /* \"#utility.yul\":2280:2285   */\n      dup2\n        /* \"#utility.yul\":2262:2286   */\n      tag_58\n      jump\t// in\n    tag_115:\n        /* \"#utility.yul\":2257:2260   */\n      dup3\n        /* \"#utility.yul\":2250:2287   */\n      mstore\n        /* \"#utility.yul\":2175:2293   */\n      pop\n      pop\n      jump\t// out\n        /* \"#utility.yul\":2299:3034   */\n    tag_11:\n        /* \"#utility.yul\":2516:2520   */\n      0x00\n        /* \"#utility.yul\":2554:2557   */\n      0x80\n        /* \"#utility.yul\":2543:2552   */\n      dup3\n        /* \"#utility.yul\":2539:2558   */\n      add\n        /* \"#utility.yul\":2531:2558   */\n      swap1\n      pop\n        /* \"#utility.yul\":2604:2613   */\n      dup2\n        /* \"#utility.yul\":2598:2602   */\n      dup2\n        /* \"#utility.yul\":2594:2614   */\n      sub\n        /* \"#utility.yul\":2590:2591   */\n      0x00\n        /* \"#utility.yul\":2579:2588   */\n      dup4\n        /* \"#utility.yul\":2575:2592   */\n      add\n        /* \"#utility.yul\":2568:2615   */\n      mstore\n        /* \"#utility.yul\":2632:2710   */\n      tag_117\n        /* \"#utility.yul\":2705:2709   */\n      dup2\n        /* \"#utility.yul\":2696:2702   */\n      dup8\n        /* \"#utility.yul\":2632:2710   */\n      tag_57\n      jump\t// in\n    tag_117:\n        /* \"#utility.yul\":2624:2710   */\n      swap1\n      pop\n        /* \"#utility.yul\":2720:2792   */\n      tag_118\n        /* \"#utility.yul\":2788:2790   */\n      0x20\n        /* \"#utility.yul\":2777:2786   */\n      dup4\n        /* \"#utility.yul\":2773:2791   */\n      add\n        /* \"#utility.yul\":2764:2770   */\n      dup7\n        /* \"#utility.yul\":2720:2792   */\n      tag_59\n      jump\t// in\n    tag_118:\n        /* \"#utility.yul\":2839:2848   */\n      dup2\n        /* \"#utility.yul\":2833:2837   */\n      dup2\n        /* \"#utility.yul\":2829:2849   */\n      sub\n        /* \"#utility.yul\":2824:2826   */\n      0x40\n        /* \"#utility.yul\":2813:2822   */\n      dup4\n        /* \"#utility.yul\":2809:2827   */\n      add\n        /* \"#utility.yul\":2802:2850   */\n      mstore\n        /* \"#utility.yul\":2867:2945   */\n      tag_119\n        /* \"#utility.yul\":2940:2944   */\n      dup2\n        /* \"#utility.yul\":2931:2937   */\n      dup6\n        /* \"#utility.yul\":2867:2945   */\n      tag_57\n      jump\t// in\n    tag_119:\n        /* \"#utility.yul\":2859:2945   */\n      swap1\n      pop\n        /* \"#utility.yul\":2955:3027   */\n      tag_120\n        /* \"#utility.yul\":3023:3025   */\n      0x60\n        /* \"#utility.yul\":3012:3021   */\n      dup4\n        /* \"#utility.yul\":3008:3026   */\n      add\n        /* \"#utility.yul\":2999:3005   */\n      dup5\n        /* \"#utility.yul\":2955:3027   */\n      tag_59\n      jump\t// in\n    tag_120:\n        /* \"#utility.yul\":2299:3034   */\n      swap6\n      swap5\n      pop\n      pop\n      pop\n      pop\n      pop\n      jump\t// out\n        /* \"#utility.yul\":3040:3157   */\n    tag_60:\n        /* \"#utility.yul\":3149:3150   */\n      0x00\n        /* \"#utility.yul\":3146:3147   */\n      dup1\n        /* \"#utility.yul\":3139:3151   */\n      revert\n        /* \"#utility.yul\":3163:3280   */\n    tag_61:\n        /* \"#utility.yul\":3272:3273   */\n      0x00\n        /* \"#utility.yul\":3269:3270   */\n      dup1\n        /* \"#utility.yul\":3262:3274   */\n      revert\n        /* \"#utility.yul\":3286:3466   */\n    tag_62:\n        /* \"#utility.yul\":3334:3411   */\n      0x4e487b7100000000000000000000000000000000000000000000000000000000\n        /* \"#utility.yul\":3331:3332   */\n      0x00\n        /* \"#utility.yul\":3324:3412   */\n      mstore\n        /* \"#utility.yul\":3431:3435   */\n      0x41\n        /* \"#utility.yul\":3428:3429   */\n      0x04\n        /* \"#utility.yul\":3421:3436   */\n      mstore\n        /* \"#utility.yul\":3455:3459   */\n      0x24\n        /* \"#utility.yul\":3452:3453   */\n      0x00\n        /* \"#utility.yul\":3445:3460   */\n      revert\n        /* \"#utility.yul\":3472:3753   */\n    tag_63:\n        /* \"#utility.yul\":3555:3582   */\n      tag_125\n        /* \"#utility.yul\":3577:3581   */\n      dup3\n        /* \"#utility.yul\":3555:3582   */\n      tag_56\n      jump\t// in\n    tag_125:\n        /* \"#utility.yul\":3547:3553   */\n      dup2\n        /* \"#utility.yul\":3543:3583   */\n      add\n        /* \"#utility.yul\":3685:3691   */\n      dup2\n        /* \"#utility.yul\":3673:3683   */\n      dup2\n        /* \"#utility.yul\":3670:3692   */\n      lt\n        /* \"#utility.yul\":3649:3667   */\n      0xffffffffffffffff\n        /* \"#utility.yul\":3637:3647   */\n      dup3\n        /* \"#utility.yul\":3634:3668   */\n      gt\n        /* \"#utility.yul\":3631:3693   */\n      or\n        /* \"#utility.yul\":3628:3716   */\n      iszero\n      tag_126\n      jumpi\n        /* \"#utility.yul\":3696:3714   */\n      tag_127\n      tag_62\n      jump\t// in\n    tag_127:\n        /* \"#utility.yul\":3628:3716   */\n    tag_126:\n        /* \"#utility.yul\":3736:3746   */\n      dup1\n        /* \"#utility.yul\":3732:3734   */\n      0x40\n        /* \"#utility.yul\":3725:3747   */\n      mstore\n        /* \"#utility.yul\":3515:3753   */\n      pop\n        /* \"#utility.yul\":3472:3753   */\n      pop\n      pop\n      jump\t// out\n        /* \"#utility.yul\":3759:3888   */\n    tag_64:\n        /* \"#utility.yul\":3793:3799   */\n      0x00\n        /* \"#utility.yul\":3820:3840   */\n      tag_129\n      tag_46\n      jump\t// in\n    tag_129:\n        /* \"#utility.yul\":3810:3840   */\n      swap1\n      pop\n        /* \"#utility.yul\":3849:3882   */\n      tag_130\n        /* \"#utility.yul\":3877:3881   */\n      dup3\n        /* \"#utility.yul\":3869:3875   */\n      dup3\n        /* \"#utility.yul\":3849:3882   */\n      tag_63\n      jump\t// in\n    tag_130:\n        /* \"#utility.yul\":3759:3888   */\n      swap2\n      swap1\n      pop\n      jump\t// out\n        /* \"#utility.yul\":3894:4202   */\n    tag_65:\n        /* \"#utility.yul\":3956:3960   */\n      0x00\n        /* \"#utility.yul\":4046:4064   */\n      0xffffffffffffffff\n        /* \"#utility.yul\":4038:4044   */\n      dup3\n        /* \"#utility.yul\":4035:4065   */\n      gt\n        /* \"#utility.yul\":4032:4088   */\n      iszero\n      tag_132\n      jumpi\n        /* \"#utility.yul\":4068:4086   */\n      tag_133\n      tag_62\n      jump\t// in\n    tag_133:\n        /* \"#utility.yul\":4032:4088   */\n    tag_132:\n        /* \"#utility.yul\":4106:4135   */\n      tag_134\n        /* \"#utility.yul\":4128:4134   */\n      dup3\n        /* \"#utility.yul\":4106:4135   */\n      tag_56\n      jump\t// in\n    tag_134:\n        /* \"#utility.yul\":4098:4135   */\n      swap1\n      pop\n        /* \"#utility.yul\":4190:4194   */\n      0x20\n        /* \"#utility.yul\":4184:4188   */\n      dup2\n        /* \"#utility.yul\":4180:4195   */\n      add\n        /* \"#utility.yul\":4172:4195   */\n      swap1\n      pop\n        /* \"#utility.yul\":3894:4202   */\n      swap2\n      swap1\n      pop\n      jump\t// out\n        /* \"#utility.yul\":4208:4356   */\n    tag_66:\n        /* \"#utility.yul\":4306:4312   */\n      dup3\n        /* \"#utility.yul\":4301:4304   */\n      dup2\n        /* \"#utility.yul\":4296:4299   */\n      dup4\n        /* \"#utility.yul\":4283:4313   */\n      calldatacopy\n        /* \"#utility.yul\":4347:4348   */\n      0x00\n        /* \"#utility.yul\":4338:4344   */\n      dup4\n        /* \"#utility.yul\":4333:4336   */\n      dup4\n        /* \"#utility.yul\":4329:4345   */\n      add\n        /* \"#utility.yul\":4322:4349   */\n      mstore\n        /* \"#utility.yul\":4208:4356   */\n      pop\n      pop\n      pop\n      jump\t// out\n        /* \"#utility.yul\":4362:4787   */\n    tag_67:\n        /* \"#utility.yul\":4440:4445   */\n      0x00\n        /* \"#utility.yul\":4465:4531   */\n      tag_137\n        /* \"#utility.yul\":4481:4530   */\n      tag_138\n        /* \"#utility.yul\":4523:4529   */\n      dup5\n        /* \"#utility.yul\":4481:4530   */\n      tag_65\n      jump\t// in\n    tag_138:\n        /* \"#utility.yul\":4465:4531   */\n      tag_64\n      jump\t// in\n    tag_137:\n        /* \"#utility.yul\":4456:4531   */\n      swap1\n      pop\n        /* \"#utility.yul\":4554:4560   */\n      dup3\n        /* \"#utility.yul\":4547:4552   */\n      dup2\n        /* \"#utility.yul\":4540:4561   */\n      mstore\n        /* \"#utility.yul\":4592:4596   */\n      0x20\n        /* \"#utility.yul\":4585:4590   */\n      dup2\n        /* \"#utility.yul\":4581:4597   */\n      add\n        /* \"#utility.yul\":4630:4633   */\n      dup5\n        /* \"#utility.yul\":4621:4627   */\n      dup5\n        /* \"#utility.yul\":4616:4619   */\n      dup5\n        /* \"#utility.yul\":4612:4628   */\n      add\n        /* \"#utility.yul\":4609:4634   */\n      gt\n        /* \"#utility.yul\":4606:4718   */\n      iszero\n      tag_139\n      jumpi\n        /* \"#utility.yul\":4637:4716   */\n      tag_140\n      tag_61\n      jump\t// in\n    tag_140:\n        /* \"#utility.yul\":4606:4718   */\n    tag_139:\n        /* \"#utility.yul\":4727:4781   */\n      tag_141\n        /* \"#utility.yul\":4774:4780   */\n      dup5\n        /* \"#utility.yul\":4769:4772   */\n      dup3\n        /* \"#utility.yul\":4764:4767   */\n      dup6\n        /* \"#utility.yul\":4727:4781   */\n      tag_66\n      jump\t// in\n    tag_141:\n        /* \"#utility.yul\":4446:4787   */\n      pop\n        /* \"#utility.yul\":4362:4787   */\n      swap4\n      swap3\n      pop\n      pop\n      pop\n      jump\t// out\n        /* \"#utility.yul\":4807:5147   */\n    tag_68:\n        /* \"#utility.yul\":4863:4868   */\n      0x00\n        /* \"#utility.yul\":4912:4915   */\n      dup3\n        /* \"#utility.yul\":4905:4909   */\n      0x1f\n        /* \"#utility.yul\":4897:4903   */\n      dup4\n        /* \"#utility.yul\":4893:4910   */\n      add\n        /* \"#utility.yul\":4889:4916   */\n      slt\n        /* \"#utility.yul\":4879:5001   */\n      tag_143\n      jumpi\n        /* \"#utility.yul\":4920:4999   */\n      tag_144\n      tag_60\n      jump\t// in\n    tag_144:\n        /* \"#utility.yul\":4879:5001   */\n    tag_143:\n        /* \"#utility.yul\":5037:5043   */\n      dup2\n        /* \"#utility.yul\":5024:5044   */\n      calldataload\n        /* \"#utility.yul\":5062:5141   */\n      tag_145\n        /* \"#utility.yul\":5137:5140   */\n      dup5\n        /* \"#utility.yul\":5129:5135   */\n      dup3\n        /* \"#utility.yul\":5122:5126   */\n      0x20\n        /* \"#utility.yul\":5114:5120   */\n      dup7\n        /* \"#utility.yul\":5110:5127   */\n      add\n        /* \"#utility.yul\":5062:5141   */\n      tag_67\n      jump\t// in\n    tag_145:\n        /* \"#utility.yul\":5053:5141   */\n      swap2\n      pop\n        /* \"#utility.yul\":4869:5147   */\n      pop\n        /* \"#utility.yul\":4807:5147   */\n      swap3\n      swap2\n      pop\n      pop\n      jump\t// out\n        /* \"#utility.yul\":5153:5275   */\n    tag_69:\n        /* \"#utility.yul\":5226:5250   */\n      tag_147\n        /* \"#utility.yul\":5244:5249   */\n      dup2\n        /* \"#utility.yul\":5226:5250   */\n      tag_58\n      jump\t// in\n    tag_147:\n        /* \"#utility.yul\":5219:5224   */\n      dup2\n        /* \"#utility.yul\":5216:5251   */\n      eq\n        /* \"#utility.yul\":5206:5269   */\n      tag_148\n      jumpi\n        /* \"#utility.yul\":5265:5266   */\n      0x00\n        /* \"#utility.yul\":5262:5263   */\n      dup1\n        /* \"#utility.yul\":5255:5267   */\n      revert\n        /* \"#utility.yul\":5206:5269   */\n    tag_148:\n        /* \"#utility.yul\":5153:5275   */\n      pop\n      jump\t// out\n        /* \"#utility.yul\":5281:5420   */\n    tag_70:\n        /* \"#utility.yul\":5327:5332   */\n      0x00\n        /* \"#utility.yul\":5365:5371   */\n      dup2\n        /* \"#utility.yul\":5352:5372   */\n      calldataload\n        /* \"#utility.yul\":5343:5372   */\n      swap1\n      pop\n        /* \"#utility.yul\":5381:5414   */\n      tag_150\n        /* \"#utility.yul\":5408:5413   */\n      dup2\n        /* \"#utility.yul\":5381:5414   */\n      tag_69\n      jump\t// in\n    tag_150:\n        /* \"#utility.yul\":5281:5420   */\n      swap3\n      swap2\n      pop\n      pop\n      jump\t// out\n        /* \"#utility.yul\":5426:6551   */\n    tag_16:\n        /* \"#utility.yul\":5532:5538   */\n      0x00\n        /* \"#utility.yul\":5540:5546   */\n      dup1\n        /* \"#utility.yul\":5548:5554   */\n      0x00\n        /* \"#utility.yul\":5556:5562   */\n      dup1\n        /* \"#utility.yul\":5605:5608   */\n      0x80\n        /* \"#utility.yul\":5593:5602   */\n      dup6\n        /* \"#utility.yul\":5584:5591   */\n      dup8\n        /* \"#utility.yul\":5580:5603   */\n      sub\n        /* \"#utility.yul\":5576:5609   */\n      slt\n        /* \"#utility.yul\":5573:5693   */\n      iszero\n      tag_152\n      jumpi\n        /* \"#utility.yul\":5612:5691   */\n      tag_153\n      tag_47\n      jump\t// in\n    tag_153:\n        /* \"#utility.yul\":5573:5693   */\n    tag_152:\n        /* \"#utility.yul\":5760:5761   */\n      0x00\n        /* \"#utility.yul\":5749:5758   */\n      dup6\n        /* \"#utility.yul\":5745:5762   */\n      add\n        /* \"#utility.yul\":5732:5763   */\n      calldataload\n        /* \"#utility.yul\":5790:5808   */\n      0xffffffffffffffff\n        /* \"#utility.yul\":5782:5788   */\n      dup2\n        /* \"#utility.yul\":5779:5809   */\n      gt\n        /* \"#utility.yul\":5776:5893   */\n      iszero\n      tag_154\n      jumpi\n        /* \"#utility.yul\":5812:5891   */\n      tag_155\n      tag_48\n      jump\t// in\n    tag_155:\n        /* \"#utility.yul\":5776:5893   */\n    tag_154:\n        /* \"#utility.yul\":5917:5980   */\n      tag_156\n        /* \"#utility.yul\":5972:5979   */\n      dup8\n        /* \"#utility.yul\":5963:5969   */\n      dup3\n        /* \"#utility.yul\":5952:5961   */\n      dup9\n        /* \"#utility.yul\":5948:5970   */\n      add\n        /* \"#utility.yul\":5917:5980   */\n      tag_68\n      jump\t// in\n    tag_156:\n        /* \"#utility.yul\":5907:5980   */\n      swap5\n      pop\n        /* \"#utility.yul\":5703:5990   */\n      pop\n        /* \"#utility.yul\":6029:6031   */\n      0x20\n        /* \"#utility.yul\":6055:6108   */\n      tag_157\n        /* \"#utility.yul\":6100:6107   */\n      dup8\n        /* \"#utility.yul\":6091:6097   */\n      dup3\n        /* \"#utility.yul\":6080:6089   */\n      dup9\n        /* \"#utility.yul\":6076:6098   */\n      add\n        /* \"#utility.yul\":6055:6108   */\n      tag_70\n      jump\t// in\n    tag_157:\n        /* \"#utility.yul\":6045:6108   */\n      swap4\n      pop\n        /* \"#utility.yul\":6000:6118   */\n      pop\n        /* \"#utility.yul\":6185:6187   */\n      0x40\n        /* \"#utility.yul\":6174:6183   */\n      dup6\n        /* \"#utility.yul\":6170:6188   */\n      add\n        /* \"#utility.yul\":6157:6189   */\n      calldataload\n        /* \"#utility.yul\":6216:6234   */\n      0xffffffffffffffff\n        /* \"#utility.yul\":6208:6214   */\n      dup2\n        /* \"#utility.yul\":6205:6235   */\n      gt\n        /* \"#utility.yul\":6202:6319   */\n      iszero\n      tag_158\n      jumpi\n        /* \"#utility.yul\":6238:6317   */\n      tag_159\n      tag_48\n      jump\t// in\n    tag_159:\n        /* \"#utility.yul\":6202:6319   */\n    tag_158:\n        /* \"#utility.yul\":6343:6406   */\n      tag_160\n        /* \"#utility.yul\":6398:6405   */\n      dup8\n        /* \"#utility.yul\":6389:6395   */\n      dup3\n        /* \"#utility.yul\":6378:6387   */\n      dup9\n        /* \"#utility.yul\":6374:6396   */\n      add\n        /* \"#utility.yul\":6343:6406   */\n      tag_68\n      jump\t// in\n    tag_160:\n        /* \"#utility.yul\":6333:6406   */\n      swap3\n      pop\n        /* \"#utility.yul\":6128:6416   */\n      pop\n        /* \"#utility.yul\":6455:6457   */\n      0x60\n        /* \"#utility.yul\":6481:6534   */\n      tag_161\n        /* \"#utility.yul\":6526:6533   */\n      dup8\n        /* \"#utility.yul\":6517:6523   */\n      dup3\n        /* \"#utility.yul\":6506:6515   */\n      dup9\n        /* \"#utility.yul\":6502:6524   */\n      add\n        /* \"#utility.yul\":6481:6534   */\n      tag_70\n      jump\t// in\n    tag_161:\n        /* \"#utility.yul\":6471:6534   */\n      swap2\n      pop\n        /* \"#utility.yul\":6426:6544   */\n      pop\n        /* \"#utility.yul\":5426:6551   */\n      swap3\n      swap6\n      swap2\n      swap5\n      pop\n      swap3\n      pop\n      jump\t// out\n        /* \"#utility.yul\":6557:6737   */\n    tag_71:\n        /* \"#utility.yul\":6605:6682   */\n      0x4e487b7100000000000000000000000000000000000000000000000000000000\n        /* \"#utility.yul\":6602:6603   */\n      0x00\n        /* \"#utility.yul\":6595:6683   */\n      mstore\n        /* \"#utility.yul\":6702:6706   */\n      0x22\n        /* \"#utility.yul\":6699:6700   */\n      0x04\n        /* \"#utility.yul\":6692:6707   */\n      mstore\n        /* \"#utility.yul\":6726:6730   */\n      0x24\n        /* \"#utility.yul\":6723:6724   */\n      0x00\n        /* \"#utility.yul\":6716:6731   */\n      revert\n        /* \"#utility.yul\":6743:7063   */\n    tag_19:\n        /* \"#utility.yul\":6787:6793   */\n      0x00\n        /* \"#utility.yul\":6824:6825   */\n      0x02\n        /* \"#utility.yul\":6818:6822   */\n      dup3\n        /* \"#utility.yul\":6814:6826   */\n      div\n        /* \"#utility.yul\":6804:6826   */\n      swap1\n      pop\n        /* \"#utility.yul\":6871:6872   */\n      0x01\n        /* \"#utility.yul\":6865:6869   */\n      dup3\n        /* \"#utility.yul\":6861:6873   */\n      and\n        /* \"#utility.yul\":6892:6910   */\n      dup1\n        /* \"#utility.yul\":6882:6963   */\n      tag_164\n      jumpi\n        /* \"#utility.yul\":6948:6952   */\n      0x7f\n        /* \"#utility.yul\":6940:6946   */\n      dup3\n        /* \"#utility.yul\":6936:6953   */\n      and\n        /* \"#utility.yul\":6926:6953   */\n      swap2\n      pop\n        /* \"#utility.yul\":6882:6963   */\n    tag_164:\n        /* \"#utility.yul\":7010:7012   */\n      0x20\n        /* \"#utility.yul\":7002:7008   */\n      dup3\n        /* \"#utility.yul\":6999:7013   */\n      lt\n        /* \"#utility.yul\":6979:6997   */\n      dup2\n        /* \"#utility.yul\":6976:7014   */\n      sub\n        /* \"#utility.yul\":6973:7057   */\n      tag_165\n      jumpi\n        /* \"#utility.yul\":7029:7047   */\n      tag_166\n      tag_71\n      jump\t// in\n    tag_166:\n        /* \"#utility.yul\":6973:7057   */\n    tag_165:\n        /* \"#utility.yul\":6794:7063   */\n      pop\n        /* \"#utility.yul\":6743:7063   */\n      swap2\n      swap1\n      pop\n      jump\t// out\n        /* \"#utility.yul\":7069:7249   */\n    tag_72:\n        /* \"#utility.yul\":7117:7194   */\n      0x4e487b7100000000000000000000000000000000000000000000000000000000\n        /* \"#utility.yul\":7114:7115   */\n      0x00\n        /* \"#utility.yul\":7107:7195   */\n      mstore\n        /* \"#utility.yul\":7214:7218   */\n      0x11\n        /* \"#utility.yul\":7211:7212   */\n      0x04\n        /* \"#utility.yul\":7204:7219   */\n      mstore\n        /* \"#utility.yul\":7238:7242   */\n      0x24\n        /* \"#utility.yul\":7235:7236   */\n      0x00\n        /* \"#utility.yul\":7228:7243   */\n      revert\n        /* \"#utility.yul\":7255:7446   */\n    tag_35:\n        /* \"#utility.yul\":7295:7298   */\n      0x00\n        /* \"#utility.yul\":7314:7334   */\n      tag_169\n        /* \"#utility.yul\":7332:7333   */\n      dup3\n        /* \"#utility.yul\":7314:7334   */\n      tag_58\n      jump\t// in\n    tag_169:\n        /* \"#utility.yul\":7309:7334   */\n      swap2\n      pop\n        /* \"#utility.yul\":7348:7368   */\n      tag_170\n        /* \"#utility.yul\":7366:7367   */\n      dup4\n        /* \"#utility.yul\":7348:7368   */\n      tag_58\n      jump\t// in\n    tag_170:\n        /* \"#utility.yul\":7343:7368   */\n      swap3\n      pop\n        /* \"#utility.yul\":7391:7392   */\n      dup3\n        /* \"#utility.yul\":7388:7389   */\n      dup3\n        /* \"#utility.yul\":7384:7393   */\n      add\n        /* \"#utility.yul\":7377:7393   */\n      swap1\n      pop\n        /* \"#utility.yul\":7412:7415   */\n      dup1\n        /* \"#utility.yul\":7409:7410   */\n      dup3\n        /* \"#utility.yul\":7406:7416   */\n      gt\n        /* \"#utility.yul\":7403:7439   */\n      iszero\n      tag_171\n      jumpi\n        /* \"#utility.yul\":7419:7437   */\n      tag_172\n      tag_72\n      jump\t// in\n    tag_172:\n        /* \"#utility.yul\":7403:7439   */\n    tag_171:\n        /* \"#utility.yul\":7255:7446   */\n      swap3\n      swap2\n      pop\n      pop\n      jump\t// out\n        /* \"#utility.yul\":7452:7593   */\n    tag_73:\n        /* \"#utility.yul\":7501:7505   */\n      0x00\n        /* \"#utility.yul\":7524:7527   */\n      dup2\n        /* \"#utility.yul\":7516:7527   */\n      swap1\n      pop\n        /* \"#utility.yul\":7547:7550   */\n      dup2\n        /* \"#utility.yul\":7544:7545   */\n      0x00\n        /* \"#utility.yul\":7537:7551   */\n      mstore\n        /* \"#utility.yul\":7581:7585   */\n      0x20\n        /* \"#utility.yul\":7578:7579   */\n      0x00\n        /* \"#utility.yul\":7568:7586   */\n      keccak256\n        /* \"#utility.yul\":7560:7586   */\n      swap1\n      pop\n        /* \"#utility.yul\":7452:7593   */\n      swap2\n      swap1\n      pop\n      jump\t// out\n        /* \"#utility.yul\":7599:7692   */\n    tag_74:\n        /* \"#utility.yul\":7636:7642   */\n      0x00\n        /* \"#utility.yul\":7683:7685   */\n      0x20\n        /* \"#utility.yul\":7678:7680   */\n      0x1f\n        /* \"#utility.yul\":7671:7676   */\n      dup4\n        /* \"#utility.yul\":7667:7681   */\n      add\n        /* \"#utility.yul\":7663:7686   */\n      div\n        /* \"#utility.yul\":7653:7686   */\n      swap1\n      pop\n        /* \"#utility.yul\":7599:7692   */\n      swap2\n      swap1\n      pop\n      jump\t// out\n        /* \"#utility.yul\":7698:7805   */\n    tag_75:\n        /* \"#utility.yul\":7742:7750   */\n      0x00\n        /* \"#utility.yul\":7792:7797   */\n      dup3\n        /* \"#utility.yul\":7786:7790   */\n      dup3\n        /* \"#utility.yul\":7782:7798   */\n      shl\n        /* \"#utility.yul\":7761:7798   */\n      swap1\n      pop\n        /* \"#utility.yul\":7698:7805   */\n      swap3\n      swap2\n      pop\n      pop\n      jump\t// out\n        /* \"#utility.yul\":7811:8204   */\n    tag_76:\n        /* \"#utility.yul\":7880:7886   */\n      0x00\n        /* \"#utility.yul\":7930:7931   */\n      0x08\n        /* \"#utility.yul\":7918:7928   */\n      dup4\n        /* \"#utility.yul\":7914:7932   */\n      mul\n        /* \"#utility.yul\":7953:8050   */\n      tag_177\n        /* \"#utility.yul\":7983:8049   */\n      0xffffffffffffffffffffffffffffffffffffffffffffffffffffffffffffffff\n        /* \"#utility.yul\":7972:7981   */\n      dup3\n        /* \"#utility.yul\":7953:8050   */\n      tag_75\n      jump\t// in\n    tag_177:\n        /* \"#utility.yul\":8071:8110   */\n      tag_178\n        /* \"#utility.yul\":8101:8109   */\n      dup7\n        /* \"#utility.yul\":8090:8099   */\n      dup4\n        /* \"#utility.yul\":8071:8110   */\n      tag_75\n      jump\t// in\n    tag_178:\n        /* \"#utility.yul\":8059:8110   */\n      swap6\n      pop\n        /* \"#utility.yul\":8143:8147   */\n      dup1\n        /* \"#utility.yul\":8139:8148   */\n      not\n        /* \"#utility.yul\":8132:8137   */\n      dup5\n        /* \"#utility.yul\":8128:8149   */\n      and\n        /* \"#utility.yul\":8119:8149   */\n      swap4\n      pop\n        /* \"#utility.yul\":8192:8196   */\n      dup1\n        /* \"#utility.yul\":8182:8190   */\n      dup7\n        /* \"#utility.yul\":8178:8197   */\n      and\n        /* \"#utility.yul\":8171:8176   */\n      dup5\n        /* \"#utility.yul\":8168:8198   */\n      or\n        /* \"#utility.yul\":8158:8198   */\n      swap3\n      pop\n        /* \"#utility.yul\":7887:8204   */\n      pop\n      pop\n        /* \"#utility.yul\":7811:8204   */\n      swap4\n      swap3\n      pop\n      pop\n      pop\n      jump\t// out\n        /* \"#utility.yul\":8210:8270   */\n    tag_77:\n        /* \"#utility.yul\":8238:8241   */\n      0x00\n        /* \"#utility.yul\":8259:8264   */\n      dup2\n        /* \"#utility.yul\":8252:8264   */\n      swap1\n      pop\n        /* \"#utility.yul\":8210:8270   */\n      swap2\n      swap1\n      pop\n      jump\t// out\n        /* \"#utility.yul\":8276:8418   */\n    tag_78:\n        /* \"#utility.yul\":8326:8335   */\n      0x00\n        /* \"#utility.yul\":8359:8412   */\n      tag_181\n        /* \"#utility.yul\":8377:8411   */\n      tag_182\n        /* \"#utility.yul\":8386:8410   */\n      tag_183\n        /* \"#utility.yul\":8404:8409   */\n      dup5\n        /* \"#utility.yul\":8386:8410   */\n      tag_58\n      jump\t// in\n    tag_183:\n        /* \"#utility.yul\":8377:8411   */\n      tag_77\n      jump\t// in\n    tag_182:\n        /* \"#utility.yul\":8359:8412   */\n      tag_58\n      jump\t// in\n    tag_181:\n        /* \"#utility.yul\":8346:8412   */\n      swap1\n      pop\n        /* \"#utility.yul\":8276:8418   */\n      swap2\n      swap1\n      pop\n      jump\t// out\n        /* \"#utility.yul\":8424:8499   */\n    tag_79:\n        /* \"#utility.yul\":8467:8470   */\n      0x00\n        /* \"#utility.yul\":8488:8493   */\n      dup2\n        /* \"#utility.yul\":8481:8493   */\n      swap1\n      pop\n        /* \"#utility.yul\":8424:8499   */\n      swap2\n      swap1\n      pop\n      jump\t// out\n        /* \"#utility.yul\":8505:8774   */\n    tag_80:\n        /* \"#utility.yul\":8615:8654   */\n      tag_186\n        /* \"#utility.yul\":8646:8653   */\n      dup4\n        /* \"#utility.yul\":8615:8654   */\n      tag_78\n      jump\t// in\n    tag_186:\n        /* \"#utility.yul\":8676:8767   */\n      tag_187\n        /* \"#utility.yul\":8725:8766   */\n      tag_188\n        /* \"#utility.yul\":8749:8765   */\n      dup3\n        /* \"#utility.yul\":8725:8766   */\n      tag_79\n      jump\t// in\n    tag_188:\n        /* \"#utility.yul\":8717:8723   */\n      dup5\n        /* \"#utility.yul\":8710:8714   */\n      dup5\n        /* \"#utility.yul\":8704:8715   */\n      sload\n        /* \"#utility.yul\":8676:8767   */\n      tag_76\n      jump\t// in\n    tag_187:\n        /* \"#utility.yul\":8670:8674   */\n      dup3\n        /* \"#utility.yul\":8663:8768   */\n      sstore\n        /* \"#utility.yul\":8581:8774   */\n      pop\n        /* \"#utility.yul\":8505:8774   */\n      pop\n      pop\n      pop\n      jump\t// out\n        /* \"#utility.yul\":8780:8853   */\n    tag_81:\n        /* \"#utility.yul\":8825:8828   */\n      0x00\n        /* \"#utility.yul\":8780:8853   */\n      swap1\n      jump\t// out\n        /* \"#utility.yul\":8859:9048   */\n    tag_82:\n        /* \"#utility.yul\":8936:8968   */\n      tag_191\n      tag_81\n      jump\t// in\n    tag_191:\n        /* \"#utility.yul\":8977:9042   */\n      tag_192\n        /* \"#utility.yul\":9035:9041   */\n      dup2\n        /* \"#utility.yul\":9027:9033   */\n      dup5\n        /* \"#utility.yul\":9021:9025   */\n      dup5\n        /* \"#utility.yul\":8977:9042   */\n      tag_80\n      jump\t// in\n    tag_192:\n        /* \"#utility.yul\":8912:9048   */\n      pop\n        /* \"#utility.yul\":8859:9048   */\n      pop\n      pop\n      jump\t// out\n        /* \"#utility.yul\":9054:9240   */\n    tag_83:\n        /* \"#utility.yul\":9114:9234   */\n    tag_194:\n        /* \"#utility.yul\":9131:9134   */\n      dup2\n        /* \"#utility.yul\":9124:9129   */\n      dup2\n        /* \"#utility.yul\":9121:9135   */\n      lt\n        /* \"#utility.yul\":9114:9234   */\n      iszero\n      tag_196\n      jumpi\n        /* \"#utility.yul\":9185:9224   */\n      tag_197\n        /* \"#utility.yul\":9222:9223   */\n      0x00\n        /* \"#utility.yul\":9215:9220   */\n      dup3\n        /* \"#utility.yul\":9185:9224   */\n      tag_82\n      jump\t// in\n    tag_197:\n        /* \"#utility.yul\":9158:9159   */\n      0x01\n        /* \"#utility.yul\":9151:9156   */\n      dup2\n        /* \"#utility.yul\":9147:9160   */\n      add\n        /* \"#utility.yul\":9138:9160   */\n      swap1\n      pop\n        /* \"#utility.yul\":9114:9234   */\n      jump(tag_194)\n    tag_196:\n        /* \"#utility.yul\":9054:9240   */\n      pop\n      pop\n      jump\t// out\n        /* \"#utility.yul\":9246:9789   */\n    tag_84:\n        /* \"#utility.yul\":9347:9349   */\n      0x1f\n        /* \"#utility.yul\":9342:9345   */\n      dup3\n        /* \"#utility.yul\":9339:9350   */\n      gt\n        /* \"#utility.yul\":9336:9782   */\n      iszero\n      tag_199\n      jumpi\n        /* \"#utility.yul\":9381:9419   */\n      tag_200\n        /* \"#utility.yul\":9413:9418   */\n      dup2\n        /* \"#utility.yul\":9381:9419   */\n      tag_73\n      jump\t// in\n    tag_200:\n        /* \"#utility.yul\":9465:9494   */\n      tag_201\n        /* \"#utility.yul\":9483:9493   */\n      dup5\n        /* \"#utility.yul\":9465:9494   */\n      tag_74\n      jump\t// in\n    tag_201:\n        /* \"#utility.yul\":9455:9463   */\n      dup2\n        /* \"#utility.yul\":9451:9495   */\n      add\n        /* \"#utility.yul\":9648:9650   */\n      0x20\n        /* \"#utility.yul\":9636:9646   */\n      dup6\n        /* \"#utility.yul\":9633:9651   */\n      lt\n        /* \"#utility.yul\":9630:9679   */\n      iszero\n      tag_202\n      jumpi\n        /* \"#utility.yul\":9669:9677   */\n      dup2\n        /* \"#utility.yul\":9654:9677   */\n      swap1\n      pop\n        /* \"#utility.yul\":9630:9679   */\n    tag_202:\n        /* \"#utility.yul\":9692:9772   */\n      tag_203\n        /* \"#utility.yul\":9748:9770   */\n      tag_204\n        /* \"#utility.yul\":9766:9769   */\n      dup6\n        /* \"#utility.yul\":9748:9770   */\n      tag_74\n      jump\t// in\n    tag_204:\n        /* \"#utility.yul\":9738:9746   */\n      dup4\n        /* \"#utility.yul\":9734:9771   */\n      add\n        /* \"#utility.yul\":9721:9732   */\n      dup3\n        /* \"#utility.yul\":9692:9772   */\n      tag_83\n      jump\t// in\n    tag_203:\n        /* \"#utility.yul\":9351:9782   */\n      pop\n      pop\n        /* \"#utility.yul\":9336:9782   */\n    tag_199:\n        /* \"#utility.yul\":9246:9789   */\n      pop\n      pop\n      pop\n      jump\t// out\n        /* \"#utility.yul\":9795:9912   */\n    tag_85:\n        /* \"#utility.yul\":9849:9857   */\n      0x00\n        /* \"#utility.yul\":9899:9904   */\n      dup3\n        /* \"#utility.yul\":9893:9897   */\n      dup3\n        /* \"#utility.yul\":9889:9905   */\n      shr\n        /* \"#utility.yul\":9868:9905   */\n      swap1\n      pop\n        /* \"#utility.yul\":9795:9912   */\n      swap3\n      swap2\n      pop\n      pop\n      jump\t// out\n        /* \"#utility.yul\":9918:10087   */\n    tag_86:\n        /* \"#utility.yul\":9962:9968   */\n      0x00\n        /* \"#utility.yul\":9995:10046   */\n      tag_207\n        /* \"#utility.yul\":10043:10044   */\n      0x00\n        /* \"#utility.yul\":10039:10045   */\n      not\n        /* \"#utility.yul\":10031:10036   */\n      dup5\n        /* \"#utility.yul\":10028:10029   */\n      0x08\n        /* \"#utility.yul\":10024:10037   */\n      mul\n        /* \"#utility.yul\":9995:10046   */\n      tag_85\n      jump\t// in\n    tag_207:\n        /* \"#utility.yul\":9991:10047   */\n      not\n        /* \"#utility.yul\":10076:10080   */\n      dup1\n        /* \"#utility.yul\":10070:10074   */\n      dup4\n        /* \"#utility.yul\":10066:10081   */\n      and\n        /* \"#utility.yul\":10056:10081   */\n      swap2\n      pop\n        /* \"#utility.yul\":9969:10087   */\n      pop\n        /* \"#utility.yul\":9918:10087   */\n      swap3\n      swap2\n      pop\n      pop\n      jump\t// out\n        /* \"#utility.yul\":10092:10387   */\n    tag_87:\n        /* \"#utility.yul\":10168:10172   */\n      0x00\n        /* \"#utility.yul\":10314:10343   */\n      tag_209\n        /* \"#utility.yul\":10339:10342   */\n      dup4\n        /* \"#utility.yul\":10333:10337   */\n      dup4\n        /* \"#utility.yul\":10314:10343   */\n      tag_86\n      jump\t// in\n    tag_209:\n        /* \"#utility.yul\":10306:10343   */\n      swap2\n      pop\n        /* \"#utility.yul\":10376:10379   */\n      dup3\n        /* \"#utility.yul\":10373:10374   */\n      0x02\n        /* \"#utility.yul\":10369:10380   */\n      mul\n        /* \"#utility.yul\":10363:10367   */\n      dup3\n        /* \"#utility.yul\":10360:10381   */\n      or\n        /* \"#utility.yul\":10352:10381   */\n      swap1\n      pop\n        /* \"#utility.yul\":10092:10387   */\n      swap3\n      swap2\n      pop\n      pop\n      jump\t// out\n        /* \"#utility.yul\":10392:11787   */\n    tag_37:\n        /* \"#utility.yul\":10509:10546   */\n      tag_211\n        /* \"#utility.yul\":10542:10545   */\n      dup3\n        /* \"#utility.yul\":10509:10546   */\n      tag_53\n      jump\t// in\n    tag_211:\n        /* \"#utility.yul\":10611:10629   */\n      0xffffffffffffffff\n        /* \"#utility.yul\":10603:10609   */\n      dup2\n        /* \"#utility.yul\":10600:10630   */\n      gt\n        /* \"#utility.yul\":10597:10653   */\n      iszero\n      tag_212\n      jumpi\n        /* \"#utility.yul\":10633:10651   */\n      tag_213\n      tag_62\n      jump\t// in\n    tag_213:\n        /* \"#utility.yul\":10597:10653   */\n    tag_212:\n        /* \"#utility.yul\":10677:10715   */\n      tag_214\n        /* \"#utility.yul\":10709:10713   */\n      dup3\n        /* \"#utility.yul\":10703:10714   */\n      sload\n        /* \"#utility.yul\":10677:10715   */\n      tag_19\n      jump\t// in\n    tag_214:\n        /* \"#utility.yul\":10762:10829   */\n      tag_215\n        /* \"#utility.yul\":10822:10828   */\n      dup3\n        /* \"#utility.yul\":10814:10820   */\n      dup3\n        /* \"#utility.yul\":10808:10812   */\n      dup6\n        /* \"#utility.yul\":10762:10829   */\n      tag_84\n      jump\t// in\n    tag_215:\n        /* \"#utility.yul\":10856:10857   */\n      0x00\n        /* \"#utility.yul\":10880:10884   */\n      0x20\n        /* \"#utility.yul\":10867:10884   */\n      swap1\n      pop\n        /* \"#utility.yul\":10912:10914   */\n      0x1f\n        /* \"#utility.yul\":10904:10910   */\n      dup4\n        /* \"#utility.yul\":10901:10915   */\n      gt\n        /* \"#utility.yul\":10929:10930   */\n      0x01\n        /* \"#utility.yul\":10924:11542   */\n      dup2\n      eq\n      tag_217\n      jumpi\n        /* \"#utility.yul\":11586:11587   */\n      0x00\n        /* \"#utility.yul\":11603:11609   */\n      dup5\n        /* \"#utility.yul\":11600:11677   */\n      iszero\n      tag_218\n      jumpi\n        /* \"#utility.yul\":11652:11661   */\n      dup3\n        /* \"#utility.yul\":11647:11650   */\n      dup8\n        /* \"#utility.yul\":11643:11662   */\n      add\n        /* \"#utility.yul\":11637:11663   */\n      mload\n        /* \"#utility.yul\":11628:11663   */\n      swap1\n      pop\n        /* \"#utility.yul\":11600:11677   */\n    tag_218:\n        /* \"#utility.yul\":11703:11770   */\n      tag_219\n        /* \"#utility.yul\":11763:11769   */\n      dup6\n        /* \"#utility.yul\":11756:11761   */\n      dup3\n        /* \"#utility.yul\":11703:11770   */\n      tag_87\n      jump\t// in\n    tag_219:\n        /* \"#utility.yul\":11697:11701   */\n      dup7\n        /* \"#utility.yul\":11690:11771   */\n      sstore\n        /* \"#utility.yul\":11559:11781   */\n      pop\n        /* \"#utility.yul\":10894:11781   */\n      jump(tag_216)\n        /* \"#utility.yul\":10924:11542   */\n    tag_217:\n        /* \"#utility.yul\":10976:10980   */\n      0x1f\n        /* \"#utility.yul\":10972:10981   */\n      not\n        /* \"#utility.yul\":10964:10970   */\n      dup5\n        /* \"#utility.yul\":10960:10982   */\n      and\n        /* \"#utility.yul\":11010:11047   */\n      tag_220\n        /* \"#utility.yul\":11042:11046   */\n      dup7\n        /* \"#utility.yul\":11010:11047   */\n      tag_73\n      jump\t// in\n    tag_220:\n        /* \"#utility.yul\":11069:11070   */\n      0x00\n        /* \"#utility.yul\":11083:11291   */\n    tag_221:\n        /* \"#utility.yul\":11097:11104   */\n      dup3\n        /* \"#utility.yul\":11094:11095   */\n      dup2\n        /* \"#utility.yul\":11091:11105   */\n      lt\n        /* \"#utility.yul\":11083:11291   */\n      iszero\n      tag_223\n      jumpi\n        /* \"#utility.yul\":11176:11185   */\n      dup5\n        /* \"#utility.yul\":11171:11174   */\n      dup10\n        /* \"#utility.yul\":11167:11186   */\n      add\n        /* \"#utility.yul\":11161:11187   */\n      mload\n        /* \"#utility.yul\":11153:11159   */\n      dup3\n        /* \"#utility.yul\":11146:11188   */\n      sstore\n        /* \"#utility.yul\":11227:11228   */\n      0x01\n        /* \"#utility.yul\":11219:11225   */\n      dup3\n        /* \"#utility.yul\":11215:11229   */\n      add\n        /* \"#utility.yul\":11205:11229   */\n      swap2\n      pop\n        /* \"#utility.yul\":11274:11276   */\n      0x20\n        /* \"#utility.yul\":11263:11272   */\n      dup6\n        /* \"#utility.yul\":11259:11277   */\n      add\n        /* \"#utility.yul\":11246:11277   */\n      swap5\n      pop\n        /* \"#utility.yul\":11120:11124   */\n      0x20\n        /* \"#utility.yul\":11117:11118   */\n      dup2\n        /* \"#utility.yul\":11113:11125   */\n      add\n        /* \"#utility.yul\":11108:11125   */\n      swap1\n      pop\n        /* \"#utility.yul\":11083:11291   */\n      jump(tag_221)\n    tag_223:\n        /* \"#utility.yul\":11319:11325   */\n      dup7\n        /* \"#utility.yul\":11310:11317   */\n      dup4\n        /* \"#utility.yul\":11307:11326   */\n      lt\n        /* \"#utility.yul\":11304:11483   */\n      iszero\n      tag_224\n      jumpi\n        /* \"#utility.yul\":11377:11386   */\n      dup5\n        /* \"#utility.yul\":11372:11375   */\n      dup10\n        /* \"#utility.yul\":11368:11387   */\n      add\n        /* \"#utility.yul\":11362:11388   */\n      mload\n        /* \"#utility.yul\":11420:11468   */\n      tag_225\n        /* \"#utility.yul\":11462:11466   */\n      0x1f\n        /* \"#utility.yul\":11454:11460   */\n      dup10\n        /* \"#utility.yul\":11450:11467   */\n      and\n        /* \"#utility.yul\":11439:11448   */\n      dup3\n        /* \"#utility.yul\":11420:11468   */\n      tag_86\n      jump\t// in\n    tag_225:\n        /* \"#utility.yul\":11412:11418   */\n      dup4\n        /* \"#utility.yul\":11405:11469   */\n      sstore\n        /* \"#utility.yul\":11327:11483   */\n      pop\n        /* \"#utility.yul\":11304:11483   */\n    tag_224:\n        /* \"#utility.yul\":11529:11530   */\n      0x01\n        /* \"#utility.yul\":11525:11526   */\n      0x02\n        /* \"#utility.yul\":11517:11523   */\n      dup9\n        /* \"#utility.yul\":11513:11527   */\n      mul\n        /* \"#utility.yul\":11509:11531   */\n      add\n        /* \"#utility.yul\":11503:11507   */\n      dup9\n        /* \"#utility.yul\":11496:11532   */\n      sstore\n        /* \"#utility.yul\":10931:11542   */\n      pop\n      pop\n      pop\n        /* \"#utility.yul\":10894:11781   */\n    tag_216:\n      pop\n        /* \"#utility.yul\":10484:11787   */\n      pop\n      pop\n      pop\n        /* \"#utility.yul\":10392:11787   */\n      pop\n      pop\n      jump\t// out\n\n    auxdata: 0xa26469706673582212207390dbaf88ad8bd88a074c1bafa6e4dfbe728ec492e90a5dcacfd8762e51cbb164736f6c63430008190033\n}\n",
				"bytecode": {
					"linkReferences": {},
					"object": "6080604052348015600e575f80fd5b50610a458061001c5f395ff3fe608060405234801561000f575f80fd5b506004361061003f575f3560e01c80630d0d1e2b146100435780632f4864c514610076578063628e48f914610080575b5f80fd5b61005d600480360381019061005891906103f0565b61009c565b60405161006d94939291906104a3565b60405180910390f35b61007e6101d3565b005b61009a6004803603810190610095919061064a565b61023f565b005b5f602052805f5260405f205f91509050805f0180546100ba90610713565b80601f01602080910402602001604051908101604052809291908181526020018280546100e690610713565b80156101315780601f1061010857610100808354040283529160200191610131565b820191905f5260205f20905b81548152906001019060200180831161011457829003601f168201915b50505050509080600101549080600201805461014c90610713565b80601f016020809104026020016040519081016040528092919081815260200182805461017890610713565b80156101c35780601f1061019a576101008083540402835291602001916101c3565b820191905f5260205f20905b8154815290600101906020018083116101a657829003601f168201915b5050505050908060030154905084565b5f803373ffffffffffffffffffffffffffffffffffffffff1673ffffffffffffffffffffffffffffffffffffffff1681526020019081526020015f205f8082015f61021e919061032d565b600182015f9055600282015f610234919061032d565b600382015f90555050565b6040518060800160405280858152602001848152602001838152602001825f803373ffffffffffffffffffffffffffffffffffffffff1673ffffffffffffffffffffffffffffffffffffffff1681526020019081526020015f20600301546102a79190610770565b8152505f803373ffffffffffffffffffffffffffffffffffffffff1673ffffffffffffffffffffffffffffffffffffffff1681526020019081526020015f205f820151815f0190816102f99190610940565b506020820151816001015560408201518160020190816103199190610940565b506060820151816003015590505050505050565b50805461033990610713565b5f825580601f1061034a5750610367565b601f0160209004905f5260205f2090810190610366919061036a565b5b50565b5b80821115610381575f815f90555060010161036b565b5090565b5f604051905090565b5f80fd5b5f80fd5b5f73ffffffffffffffffffffffffffffffffffffffff82169050919050565b5f6103bf82610396565b9050919050565b6103cf816103b5565b81146103d9575f80fd5b50565b5f813590506103ea816103c6565b92915050565b5f602082840312156104055761040461038e565b5b5f610412848285016103dc565b91505092915050565b5f81519050919050565b5f82825260208201905092915050565b8281835e5f83830152505050565b5f601f19601f8301169050919050565b5f61045d8261041b565b6104678185610425565b9350610477818560208601610435565b61048081610443565b840191505092915050565b5f819050919050565b61049d8161048b565b82525050565b5f6080820190508181035f8301526104bb8187610453565b90506104ca6020830186610494565b81810360408301526104dc8185610453565b90506104eb6060830184610494565b95945050505050565b5f80fd5b5f80fd5b7f4e487b71000000000000000000000000000000000000000000000000000000005f52604160045260245ffd5b61053282610443565b810181811067ffffffffffffffff82111715610551576105506104fc565b5b80604052505050565b5f610563610385565b905061056f8282610529565b919050565b5f67ffffffffffffffff82111561058e5761058d6104fc565b5b61059782610443565b9050602081019050919050565b828183375f83830152505050565b5f6105c46105bf84610574565b61055a565b9050828152602081018484840111156105e0576105df6104f8565b5b6105eb8482856105a4565b509392505050565b5f82601f830112610607576106066104f4565b5b81356106178482602086016105b2565b91505092915050565b6106298161048b565b8114610633575f80fd5b50565b5f8135905061064481610620565b92915050565b5f805f80608085870312156106625761066161038e565b5b5f85013567ffffffffffffffff81111561067f5761067e610392565b5b61068b878288016105f3565b945050602061069c87828801610636565b935050604085013567ffffffffffffffff8111156106bd576106bc610392565b5b6106c9878288016105f3565b92505060606106da87828801610636565b91505092959194509250565b7f4e487b71000000000000000000000000000000000000000000000000000000005f52602260045260245ffd5b5f600282049050600182168061072a57607f821691505b60208210810361073d5761073c6106e6565b5b50919050565b7f4e487b71000000000000000000000000000000000000000000000000000000005f52601160045260245ffd5b5f61077a8261048b565b91506107858361048b565b925082820190508082111561079d5761079c610743565b5b92915050565b5f819050815f5260205f209050919050565b5f6020601f8301049050919050565b5f82821b905092915050565b5f600883026107ff7fffffffffffffffffffffffffffffffffffffffffffffffffffffffffffffffff826107c4565b61080986836107c4565b95508019841693508086168417925050509392505050565b5f819050919050565b5f61084461083f61083a8461048b565b610821565b61048b565b9050919050565b5f819050919050565b61085d8361082a565b6108716108698261084b565b8484546107d0565b825550505050565b5f90565b610885610879565b610890818484610854565b505050565b5b818110156108b3576108a85f8261087d565b600181019050610896565b5050565b601f8211156108f8576108c9816107a3565b6108d2846107b5565b810160208510156108e1578190505b6108f56108ed856107b5565b830182610895565b50505b505050565b5f82821c905092915050565b5f6109185f19846008026108fd565b1980831691505092915050565b5f6109308383610909565b9150826002028217905092915050565b6109498261041b565b67ffffffffffffffff811115610962576109616104fc565b5b61096c8254610713565b6109778282856108b7565b5f60209050601f8311600181146109a8575f8415610996578287015190505b6109a08582610925565b865550610a07565b601f1984166109b6866107a3565b5f5b828110156109dd578489015182556001820191506020850194506020810190506109b8565b868310156109fa57848901516109f6601f891682610909565b8355505b6001600288020188555050505b50505050505056fea26469706673582212207390dbaf88ad8bd88a074c1bafa6e4dfbe728ec492e90a5dcacfd8762e51cbb164736f6c63430008190033",
					"opcodes": "PUSH1 0x80 PUSH1 0x40 MSTORE CALLVALUE DUP1 ISZERO PUSH1 0xE JUMPI PUSH0 DUP1 REVERT JUMPDEST POP PUSH2 0xA45 DUP1 PUSH2 0x1C PUSH0 CODECOPY PUSH0 RETURN INVALID PUSH1 0x80 PUSH1 0x40 MSTORE CALLVALUE DUP1 ISZERO PUSH2 0xF JUMPI PUSH0 DUP1 REVERT JUMPDEST POP PUSH1 0x4 CALLDATASIZE LT PUSH2 0x3F JUMPI PUSH0 CALLDATALOAD PUSH1 0xE0 SHR DUP1 PUSH4 0xD0D1E2B EQ PUSH2 0x43 JUMPI DUP1 PUSH4 0x2F4864C5 EQ PUSH2 0x76 JUMPI DUP1 PUSH4 0x628E48F9 EQ PUSH2 0x80 JUMPI JUMPDEST PUSH0 DUP1 REVERT JUMPDEST PUSH2 0x5D PUSH1 0x4 DUP1 CALLDATASIZE SUB DUP2 ADD SWAP1 PUSH2 0x58 SWAP2 SWAP1 PUSH2 0x3F0 JUMP JUMPDEST PUSH2 0x9C JUMP JUMPDEST PUSH1 0x40 MLOAD PUSH2 0x6D SWAP5 SWAP4 SWAP3 SWAP2 SWAP1 PUSH2 0x4A3 JUMP JUMPDEST PUSH1 0x40 MLOAD DUP1 SWAP2 SUB SWAP1 RETURN JUMPDEST PUSH2 0x7E PUSH2 0x1D3 JUMP JUMPDEST STOP JUMPDEST PUSH2 0x9A PUSH1 0x4 DUP1 CALLDATASIZE SUB DUP2 ADD SWAP1 PUSH2 0x95 SWAP2 SWAP1 PUSH2 0x64A JUMP JUMPDEST PUSH2 0x23F JUMP JUMPDEST STOP JUMPDEST PUSH0 PUSH1 0x20 MSTORE DUP1 PUSH0 MSTORE PUSH1 0x40 PUSH0 KECCAK256 PUSH0 SWAP2 POP SWAP1 POP DUP1 PUSH0 ADD DUP1 SLOAD PUSH2 0xBA SWAP1 PUSH2 0x713 JUMP JUMPDEST DUP1 PUSH1 0x1F ADD PUSH1 0x20 DUP1 SWAP2 DIV MUL PUSH1 0x20 ADD PUSH1 0x40 MLOAD SWAP1 DUP2 ADD PUSH1 0x40 MSTORE DUP1 SWAP3 SWAP2 SWAP1 DUP2 DUP2 MSTORE PUSH1 0x20 ADD DUP3 DUP1 SLOAD PUSH2 0xE6 SWAP1 PUSH2 0x713 JUMP JUMPDEST DUP1 ISZERO PUSH2 0x131 JUMPI DUP1 PUSH1 0x1F LT PUSH2 0x108 JUMPI PUSH2 0x100 DUP1 DUP4 SLOAD DIV MUL DUP4 MSTORE SWAP2 PUSH1 0x20 ADD SWAP2 PUSH2 0x131 JUMP JUMPDEST DUP3 ADD SWAP2 SWAP1 PUSH0 MSTORE PUSH1 0x20 PUSH0 KECCAK256 SWAP1 JUMPDEST DUP2 SLOAD DUP2 MSTORE SWAP1 PUSH1 0x1 ADD SWAP1 PUSH1 0x20 ADD DUP1 DUP4 GT PUSH2 0x114 JUMPI DUP3 SWAP1 SUB PUSH1 0x1F AND DUP3 ADD SWAP2 JUMPDEST POP POP POP POP POP SWAP1 DUP1 PUSH1 0x1 ADD SLOAD SWAP1 DUP1 PUSH1 0x2 ADD DUP1 SLOAD PUSH2 0x14C SWAP1 PUSH2 0x713 JUMP JUMPDEST DUP1 PUSH1 0x1F ADD PUSH1 0x20 DUP1 SWAP2 DIV MUL PUSH1 0x20 ADD PUSH1 0x40 MLOAD SWAP1 DUP2 ADD PUSH1 0x40 MSTORE DUP1 SWAP3 SWAP2 SWAP1 DUP2 DUP2 MSTORE PUSH1 0x20 ADD DUP3 DUP1 SLOAD PUSH2 0x178 SWAP1 PUSH2 0x713 JUMP JUMPDEST DUP1 ISZERO PUSH2 0x1C3 JUMPI DUP1 PUSH1 0x1F LT PUSH2 0x19A JUMPI PUSH2 0x100 DUP1 DUP4 SLOAD DIV MUL DUP4 MSTORE SWAP2 PUSH1 0x20 ADD SWAP2 PUSH2 0x1C3 JUMP JUMPDEST DUP3 ADD SWAP2 SWAP1 PUSH0 MSTORE PUSH1 0x20 PUSH0 KECCAK256 SWAP1 JUMPDEST DUP2 SLOAD DUP2 MSTORE SWAP1 PUSH1 0x1 ADD SWAP1 PUSH1 0x20 ADD DUP1 DUP4 GT PUSH2 0x1A6 JUMPI DUP3 SWAP1 SUB PUSH1 0x1F AND DUP3 ADD SWAP2 JUMPDEST POP POP POP POP POP SWAP1 DUP1 PUSH1 0x3 ADD SLOAD SWAP1 POP DUP5 JUMP JUMPDEST PUSH0 DUP1 CALLER PUSH20 0xFFFFFFFFFFFFFFFFFFFFFFFFFFFFFFFFFFFFFFFF AND PUSH20 0xFFFFFFFFFFFFFFFFFFFFFFFFFFFFFFFFFFFFFFFF AND DUP2 MSTORE PUSH1 0x20 ADD SWAP1 DUP2 MSTORE PUSH1 0x20 ADD PUSH0 KECCAK256 PUSH0 DUP1 DUP3 ADD PUSH0 PUSH2 0x21E SWAP2 SWAP1 PUSH2 0x32D JUMP JUMPDEST PUSH1 0x1 DUP3 ADD PUSH0 SWAP1 SSTORE PUSH1 0x2 DUP3 ADD PUSH0 PUSH2 0x234 SWAP2 SWAP1 PUSH2 0x32D JUMP JUMPDEST PUSH1 0x3 DUP3 ADD PUSH0 SWAP1 SSTORE POP POP JUMP JUMPDEST PUSH1 0x40 MLOAD DUP1 PUSH1 0x80 ADD PUSH1 0x40 MSTORE DUP1 DUP6 DUP2 MSTORE PUSH1 0x20 ADD DUP5 DUP2 MSTORE PUSH1 0x20 ADD DUP4 DUP2 MSTORE PUSH1 0x20 ADD DUP3 PUSH0 DUP1 CALLER PUSH20 0xFFFFFFFFFFFFFFFFFFFFFFFFFFFFFFFFFFFFFFFF AND PUSH20 0xFFFFFFFFFFFFFFFFFFFFFFFFFFFFFFFFFFFFFFFF AND DUP2 MSTORE PUSH1 0x20 ADD SWAP1 DUP2 MSTORE PUSH1 0x20 ADD PUSH0 KECCAK256 PUSH1 0x3 ADD SLOAD PUSH2 0x2A7 SWAP2 SWAP1 PUSH2 0x770 JUMP JUMPDEST DUP2 MSTORE POP PUSH0 DUP1 CALLER PUSH20 0xFFFFFFFFFFFFFFFFFFFFFFFFFFFFFFFFFFFFFFFF AND PUSH20 0xFFFFFFFFFFFFFFFFFFFFFFFFFFFFFFFFFFFFFFFF AND DUP2 MSTORE PUSH1 0x20 ADD SWAP1 DUP2 MSTORE PUSH1 0x20 ADD PUSH0 KECCAK256 PUSH0 DUP3 ADD MLOAD DUP2 PUSH0 ADD SWAP1 DUP2 PUSH2 0x2F9 SWAP2 SWAP1 PUSH2 0x940 JUMP JUMPDEST POP PUSH1 0x20 DUP3 ADD MLOAD DUP2 PUSH1 0x1 ADD SSTORE PUSH1 0x40 DUP3 ADD MLOAD DUP2 PUSH1 0x2 ADD SWAP1 DUP2 PUSH2 0x319 SWAP2 SWAP1 PUSH2 0x940 JUMP JUMPDEST POP PUSH1 0x60 DUP3 ADD MLOAD DUP2 PUSH1 0x3 ADD SSTORE SWAP1 POP POP POP POP POP POP JUMP JUMPDEST POP DUP1 SLOAD PUSH2 0x339 SWAP1 PUSH2 0x713 JUMP JUMPDEST PUSH0 DUP3 SSTORE DUP1 PUSH1 0x1F LT PUSH2 0x34A JUMPI POP PUSH2 0x367 JUMP JUMPDEST PUSH1 0x1F ADD PUSH1 0x20 SWAP1 DIV SWAP1 PUSH0 MSTORE PUSH1 0x20 PUSH0 KECCAK256 SWAP1 DUP2 ADD SWAP1 PUSH2 0x366 SWAP2 SWAP1 PUSH2 0x36A JUMP JUMPDEST JUMPDEST POP JUMP JUMPDEST JUMPDEST DUP1 DUP3 GT ISZERO PUSH2 0x381 JUMPI PUSH0 DUP2 PUSH0 SWAP1 SSTORE POP PUSH1 0x1 ADD PUSH2 0x36B JUMP JUMPDEST POP SWAP1 JUMP JUMPDEST PUSH0 PUSH1 0x40 MLOAD SWAP1 POP SWAP1 JUMP JUMPDEST PUSH0 DUP1 REVERT JUMPDEST PUSH0 DUP1 REVERT JUMPDEST PUSH0 PUSH20 0xFFFFFFFFFFFFFFFFFFFFFFFFFFFFFFFFFFFFFFFF DUP3 AND SWAP1 POP SWAP2 SWAP1 POP JUMP JUMPDEST PUSH0 PUSH2 0x3BF DUP3 PUSH2 0x396 JUMP JUMPDEST SWAP1 POP SWAP2 SWAP1 POP JUMP JUMPDEST PUSH2 0x3CF DUP2 PUSH2 0x3B5 JUMP JUMPDEST DUP2 EQ PUSH2 0x3D9 JUMPI PUSH0 DUP1 REVERT JUMPDEST POP JUMP JUMPDEST PUSH0 DUP2 CALLDATALOAD SWAP1 POP PUSH2 0x3EA DUP2 PUSH2 0x3C6 JUMP JUMPDEST SWAP3 SWAP2 POP POP JUMP JUMPDEST PUSH0 PUSH1 0x20 DUP3 DUP5 SUB SLT ISZERO PUSH2 0x405 JUMPI PUSH2 0x404 PUSH2 0x38E JUMP JUMPDEST JUMPDEST PUSH0 PUSH2 0x412 DUP5 DUP3 DUP6 ADD PUSH2 0x3DC JUMP JUMPDEST SWAP2 POP POP SWAP3 SWAP2 POP POP JUMP JUMPDEST PUSH0 DUP2 MLOAD SWAP1 POP SWAP2 SWAP1 POP JUMP JUMPDEST PUSH0 DUP3 DUP3 MSTORE PUSH1 0x20 DUP3 ADD SWAP1 POP SWAP3 SWAP2 POP POP JUMP JUMPDEST DUP3 DUP2 DUP4 MCOPY PUSH0 DUP4 DUP4 ADD MSTORE POP POP POP JUMP JUMPDEST PUSH0 PUSH1 0x1F NOT PUSH1 0x1F DUP4 ADD AND SWAP1 POP SWAP2 SWAP1 POP JUMP JUMPDEST PUSH0 PUSH2 0x45D DUP3 PUSH2 0x41B JUMP JUMPDEST PUSH2 0x467 DUP2 DUP6 PUSH2 0x425 JUMP JUMPDEST SWAP4 POP PUSH2 0x477 DUP2 DUP6 PUSH1 0x20 DUP7 ADD PUSH2 0x435 JUMP JUMPDEST PUSH2 0x480 DUP2 PUSH2 0x443 JUMP JUMPDEST DUP5 ADD SWAP2 POP POP SWAP3 SWAP2 POP POP JUMP JUMPDEST PUSH0 DUP2 SWAP1 POP SWAP2 SWAP1 POP JUMP JUMPDEST PUSH2 0x49D DUP2 PUSH2 0x48B JUMP JUMPDEST DUP3 MSTORE POP POP JUMP JUMPDEST PUSH0 PUSH1 0x80 DUP3 ADD SWAP1 POP DUP2 DUP2 SUB PUSH0 DUP4 ADD MSTORE PUSH2 0x4BB DUP2 DUP8 PUSH2 0x453 JUMP JUMPDEST SWAP1 POP PUSH2 0x4CA PUSH1 0x20 DUP4 ADD DUP7 PUSH2 0x494 JUMP JUMPDEST DUP2 DUP2 SUB PUSH1 0x40 DUP4 ADD MSTORE PUSH2 0x4DC DUP2 DUP6 PUSH2 0x453 JUMP JUMPDEST SWAP1 POP PUSH2 0x4EB PUSH1 0x60 DUP4 ADD DUP5 PUSH2 0x494 JUMP JUMPDEST SWAP6 SWAP5 POP POP POP POP POP JUMP JUMPDEST PUSH0 DUP1 REVERT JUMPDEST PUSH0 DUP1 REVERT JUMPDEST PUSH32 0x4E487B7100000000000000000000000000000000000000000000000000000000 PUSH0 MSTORE PUSH1 0x41 PUSH1 0x4 MSTORE PUSH1 0x24 PUSH0 REVERT JUMPDEST PUSH2 0x532 DUP3 PUSH2 0x443 JUMP JUMPDEST DUP2 ADD DUP2 DUP2 LT PUSH8 0xFFFFFFFFFFFFFFFF DUP3 GT OR ISZERO PUSH2 0x551 JUMPI PUSH2 0x550 PUSH2 0x4FC JUMP JUMPDEST JUMPDEST DUP1 PUSH1 0x40 MSTORE POP POP POP JUMP JUMPDEST PUSH0 PUSH2 0x563 PUSH2 0x385 JUMP JUMPDEST SWAP1 POP PUSH2 0x56F DUP3 DUP3 PUSH2 0x529 JUMP JUMPDEST SWAP2 SWAP1 POP JUMP JUMPDEST PUSH0 PUSH8 0xFFFFFFFFFFFFFFFF DUP3 GT ISZERO PUSH2 0x58E JUMPI PUSH2 0x58D PUSH2 0x4FC JUMP JUMPDEST JUMPDEST PUSH2 0x597 DUP3 PUSH2 0x443 JUMP JUMPDEST SWAP1 POP PUSH1 0x20 DUP2 ADD SWAP1 POP SWAP2 SWAP1 POP JUMP JUMPDEST DUP3 DUP2 DUP4 CALLDATACOPY PUSH0 DUP4 DUP4 ADD MSTORE POP POP POP JUMP JUMPDEST PUSH0 PUSH2 0x5C4 PUSH2 0x5BF DUP5 PUSH2 0x574 JUMP JUMPDEST PUSH2 0x55A JUMP JUMPDEST SWAP1 POP DUP3 DUP2 MSTORE PUSH1 0x20 DUP2 ADD DUP5 DUP5 DUP5 ADD GT ISZERO PUSH2 0x5E0 JUMPI PUSH2 0x5DF PUSH2 0x4F8 JUMP JUMPDEST JUMPDEST PUSH2 0x5EB DUP5 DUP3 DUP6 PUSH2 0x5A4 JUMP JUMPDEST POP SWAP4 SWAP3 POP POP POP JUMP JUMPDEST PUSH0 DUP3 PUSH1 0x1F DUP4 ADD SLT PUSH2 0x607 JUMPI PUSH2 0x606 PUSH2 0x4F4 JUMP JUMPDEST JUMPDEST DUP2 CALLDATALOAD PUSH2 0x617 DUP5 DUP3 PUSH1 0x20 DUP7 ADD PUSH2 0x5B2 JUMP JUMPDEST SWAP2 POP POP SWAP3 SWAP2 POP POP JUMP JUMPDEST PUSH2 0x629 DUP2 PUSH2 0x48B JUMP JUMPDEST DUP2 EQ PUSH2 0x633 JUMPI PUSH0 DUP1 REVERT JUMPDEST POP JUMP JUMPDEST PUSH0 DUP2 CALLDATALOAD SWAP1 POP PUSH2 0x644 DUP2 PUSH2 0x620 JUMP JUMPDEST SWAP3 SWAP2 POP POP JUMP JUMPDEST PUSH0 DUP1 PUSH0 DUP1 PUSH1 0x80 DUP6 DUP8 SUB SLT ISZERO PUSH2 0x662 JUMPI PUSH2 0x661 PUSH2 0x38E JUMP JUMPDEST JUMPDEST PUSH0 DUP6 ADD CALLDATALOAD PUSH8 0xFFFFFFFFFFFFFFFF DUP2 GT ISZERO PUSH2 0x67F JUMPI PUSH2 0x67E PUSH2 0x392 JUMP JUMPDEST JUMPDEST PUSH2 0x68B DUP8 DUP3 DUP9 ADD PUSH2 0x5F3 JUMP JUMPDEST SWAP5 POP POP PUSH1 0x20 PUSH2 0x69C DUP8 DUP3 DUP9 ADD PUSH2 0x636 JUMP JUMPDEST SWAP4 POP POP PUSH1 0x40 DUP6 ADD CALLDATALOAD PUSH8 0xFFFFFFFFFFFFFFFF DUP2 GT ISZERO PUSH2 0x6BD JUMPI PUSH2 0x6BC PUSH2 0x392 JUMP JUMPDEST JUMPDEST PUSH2 0x6C9 DUP8 DUP3 DUP9 ADD PUSH2 0x5F3 JUMP JUMPDEST SWAP3 POP POP PUSH1 0x60 PUSH2 0x6DA DUP8 DUP3 DUP9 ADD PUSH2 0x636 JUMP JUMPDEST SWAP2 POP POP SWAP3 SWAP6 SWAP2 SWAP5 POP SWAP3 POP JUMP JUMPDEST PUSH32 0x4E487B7100000000000000000000000000000000000000000000000000000000 PUSH0 MSTORE PUSH1 0x22 PUSH1 0x4 MSTORE PUSH1 0x24 PUSH0 REVERT JUMPDEST PUSH0 PUSH1 0x2 DUP3 DIV SWAP1 POP PUSH1 0x1 DUP3 AND DUP1 PUSH2 0x72A JUMPI PUSH1 0x7F DUP3 AND SWAP2 POP JUMPDEST PUSH1 0x20 DUP3 LT DUP2 SUB PUSH2 0x73D JUMPI PUSH2 0x73C PUSH2 0x6E6 JUMP JUMPDEST JUMPDEST POP SWAP2 SWAP1 POP JUMP JUMPDEST PUSH32 0x4E487B7100000000000000000000000000000000000000000000000000000000 PUSH0 MSTORE PUSH1 0x11 PUSH1 0x4 MSTORE PUSH1 0x24 PUSH0 REVERT JUMPDEST PUSH0 PUSH2 0x77A DUP3 PUSH2 0x48B JUMP JUMPDEST SWAP2 POP PUSH2 0x785 DUP4 PUSH2 0x48B JUMP JUMPDEST SWAP3 POP DUP3 DUP3 ADD SWAP1 POP DUP1 DUP3 GT ISZERO PUSH2 0x79D JUMPI PUSH2 0x79C PUSH2 0x743 JUMP JUMPDEST JUMPDEST SWAP3 SWAP2 POP POP JUMP JUMPDEST PUSH0 DUP2 SWAP1 POP DUP2 PUSH0 MSTORE PUSH1 0x20 PUSH0 KECCAK256 SWAP1 POP SWAP2 SWAP1 POP JUMP JUMPDEST PUSH0 PUSH1 0x20 PUSH1 0x1F DUP4 ADD DIV SWAP1 POP SWAP2 SWAP1 POP JUMP JUMPDEST PUSH0 DUP3 DUP3 SHL SWAP1 POP SWAP3 SWAP2 POP POP JUMP JUMPDEST PUSH0 PUSH1 0x8 DUP4 MUL PUSH2 0x7FF PUSH32 0xFFFFFFFFFFFFFFFFFFFFFFFFFFFFFFFFFFFFFFFFFFFFFFFFFFFFFFFFFFFFFFFF DUP3 PUSH2 0x7C4 JUMP JUMPDEST PUSH2 0x809 DUP7 DUP4 PUSH2 0x7C4 JUMP JUMPDEST SWAP6 POP DUP1 NOT DUP5 AND SWAP4 POP DUP1 DUP7 AND DUP5 OR SWAP3 POP POP POP SWAP4 SWAP3 POP POP POP JUMP JUMPDEST PUSH0 DUP2 SWAP1 POP SWAP2 SWAP1 POP JUMP JUMPDEST PUSH0 PUSH2 0x844 PUSH2 0x83F PUSH2 0x83A DUP5 PUSH2 0x48B JUMP JUMPDEST PUSH2 0x821 JUMP JUMPDEST PUSH2 0x48B JUMP JUMPDEST SWAP1 POP SWAP2 SWAP1 POP JUMP JUMPDEST PUSH0 DUP2 SWAP1 POP SWAP2 SWAP1 POP JUMP JUMPDEST PUSH2 0x85D DUP4 PUSH2 0x82A JUMP JUMPDEST PUSH2 0x871 PUSH2 0x869 DUP3 PUSH2 0x84B JUMP JUMPDEST DUP5 DUP5 SLOAD PUSH2 0x7D0 JUMP JUMPDEST DUP3 SSTORE POP POP POP POP JUMP JUMPDEST PUSH0 SWAP1 JUMP JUMPDEST PUSH2 0x885 PUSH2 0x879 JUMP JUMPDEST PUSH2 0x890 DUP2 DUP5 DUP5 PUSH2 0x854 JUMP JUMPDEST POP POP POP JUMP JUMPDEST JUMPDEST DUP2 DUP2 LT ISZERO PUSH2 0x8B3 JUMPI PUSH2 0x8A8 PUSH0 DUP3 PUSH2 0x87D JUMP JUMPDEST PUSH1 0x1 DUP2 ADD SWAP1 POP PUSH2 0x896 JUMP JUMPDEST POP POP JUMP JUMPDEST PUSH1 0x1F DUP3 GT ISZERO PUSH2 0x8F8 JUMPI PUSH2 0x8C9 DUP2 PUSH2 0x7A3 JUMP JUMPDEST PUSH2 0x8D2 DUP5 PUSH2 0x7B5 JUMP JUMPDEST DUP2 ADD PUSH1 0x20 DUP6 LT ISZERO PUSH2 0x8E1 JUMPI DUP2 SWAP1 POP JUMPDEST PUSH2 0x8F5 PUSH2 0x8ED DUP6 PUSH2 0x7B5 JUMP JUMPDEST DUP4 ADD DUP3 PUSH2 0x895 JUMP JUMPDEST POP POP JUMPDEST POP POP POP JUMP JUMPDEST PUSH0 DUP3 DUP3 SHR SWAP1 POP SWAP3 SWAP2 POP POP JUMP JUMPDEST PUSH0 PUSH2 0x918 PUSH0 NOT DUP5 PUSH1 0x8 MUL PUSH2 0x8FD JUMP JUMPDEST NOT DUP1 DUP4 AND SWAP2 POP POP SWAP3 SWAP2 POP POP JUMP JUMPDEST PUSH0 PUSH2 0x930 DUP4 DUP4 PUSH2 0x909 JUMP JUMPDEST SWAP2 POP DUP3 PUSH1 0x2 MUL DUP3 OR SWAP1 POP SWAP3 SWAP2 POP POP JUMP JUMPDEST PUSH2 0x949 DUP3 PUSH2 0x41B JUMP JUMPDEST PUSH8 0xFFFFFFFFFFFFFFFF DUP2 GT ISZERO PUSH2 0x962 JUMPI PUSH2 0x961 PUSH2 0x4FC JUMP JUMPDEST JUMPDEST PUSH2 0x96C DUP3 SLOAD PUSH2 0x713 JUMP JUMPDEST PUSH2 0x977 DUP3 DUP3 DUP6 PUSH2 0x8B7 JUMP JUMPDEST PUSH0 PUSH1 0x20 SWAP1 POP PUSH1 0x1F DUP4 GT PUSH1 0x1 DUP2 EQ PUSH2 0x9A8 JUMPI PUSH0 DUP5 ISZERO PUSH2 0x996 JUMPI DUP3 DUP8 ADD MLOAD SWAP1 POP JUMPDEST PUSH2 0x9A0 DUP6 DUP3 PUSH2 0x925 JUMP JUMPDEST DUP7 SSTORE POP PUSH2 0xA07 JUMP JUMPDEST PUSH1 0x1F NOT DUP5 AND PUSH2 0x9B6 DUP7 PUSH2 0x7A3 JUMP JUMPDEST PUSH0 JUMPDEST DUP3 DUP2 LT ISZERO PUSH2 0x9DD JUMPI DUP5 DUP10 ADD MLOAD DUP3 SSTORE PUSH1 0x1 DUP3 ADD SWAP2 POP PUSH1 0x20 DUP6 ADD SWAP5 POP PUSH1 0x20 DUP2 ADD SWAP1 POP PUSH2 0x9B8 JUMP JUMPDEST DUP7 DUP4 LT ISZERO PUSH2 0x9FA JUMPI DUP5 DUP10 ADD MLOAD PUSH2 0x9F6 PUSH1 0x1F DUP10 AND DUP3 PUSH2 0x909 JUMP JUMPDEST DUP4 SSTORE POP JUMPDEST PUSH1 0x1 PUSH1 0x2 DUP9 MUL ADD DUP9 SSTORE POP POP POP JUMPDEST POP POP POP POP POP POP JUMP INVALID LOG2 PUSH5 0x6970667358 0x22 SLT KECCAK256 PUSH20 0x90DBAF88AD8BD88A074C1BAFA6E4DFBE728EC492 0xE9 EXP TSTORE 0xCA 0xCF 0xD8 PUSH23 0x2E51CBB164736F6C634300081900330000000000000000 "
				},
				"gasEstimates": {
					"creation": {
						"codeDepositCost": "525800",
						"executionCost": "560",
						"totalCost": "526360"
					},
					"external": {
						"acc_info(address)": "infinite",
						"delete_info()": "infinite",
						"set(string,uint256,string,uint256)": "infinite"
					}
				},
				"methodIdentifiers": {
					"acc_info(address)": "0d0d1e2b",
					"delete_info()": "2f4864c5",
					"set(string,uint256,string,uint256)": "628e48f9"
				}
			},
			"storageLayout": {
				"storage": [
					{
						"astId": 486,
						"contract": "contracts/Practice.sol:AdvancedMapping",
						"label": "acc_info",
						"offset": 0,
						"slot": "0",
						"type": "t_mapping(t_address,t_struct(donor_dts)481_storage)"
					}
				],
				"types": {
					"t_address": {
						"encoding": "inplace",
						"label": "address",
						"numberOfBytes": "20"
					},
					"t_mapping(t_address,t_struct(donor_dts)481_storage)": {
						"encoding": "mapping",
						"key": "t_address",
						"label": "mapping(address => struct AdvancedMapping.donor_dts)",
						"numberOfBytes": "32",
						"value": "t_struct(donor_dts)481_storage"
					},
					"t_string_storage": {
						"encoding": "bytes",
						"label": "string",
						"numberOfBytes": "32"
					},
					"t_struct(donor_dts)481_storage": {
						"encoding": "inplace",
						"label": "struct AdvancedMapping.donor_dts",
						"members": [
							{
								"astId": 474,
								"contract": "contracts/Practice.sol:AdvancedMapping",
								"label": "name",
								"offset": 0,
								"slot": "0",
								"type": "t_string_storage"
							},
							{
								"astId": 476,
								"contract": "contracts/Practice.sol:AdvancedMapping",
								"label": "age",
								"offset": 0,
								"slot": "1",
								"type": "t_uint256"
							},
							{
								"astId": 478,
								"contract": "contracts/Practice.sol:AdvancedMapping",
								"label": "add",
								"offset": 0,
								"slot": "2",
								"type": "t_string_storage"
							},
							{
								"astId": 480,
								"contract": "contracts/Practice.sol:AdvancedMapping",
								"label": "don",
								"offset": 0,
								"slot": "3",
								"type": "t_uint256"
							}
						],
						"numberOfBytes": "128"
					},
					"t_uint256": {
						"encoding": "inplace",
						"label": "uint256",
						"numberOfBytes": "32"
					}
				}
			},
			"userdoc": {
				"kind": "user",
				"methods": {},
				"version": 1
			}
		}
	}
}