{
	"data": {
		"bytecode": {
			"linkReferences": {},
			"object": "6080604052348015600e575f80fd5b506102898061001c5f395ff3fe608060405234801561000f575f80fd5b506004361061003f575f3560e01c8063157b516714610043578063446a45b7146100615780637b8239fa1461007f575b5f80fd5b61004b61009d565b6040516100589190610152565b60405180910390f35b6100696100c1565b60405161007691906101db565b60405180910390f35b610087610117565b604051610094919061023a565b60405180910390f35b5f805f90505b600a8110156100b95780806001019150506100a3565b506014905090565b60605f5b600a8110156100db5780806001019150506100c5565b506040518060400160405280600c81526020017f66756e3120736179732068690000000000000000000000000000000000000000815250905090565b5f805f90505b600a81101561013357808060010191505061011d565b5033905090565b5f819050919050565b61014c8161013a565b82525050565b5f6020820190506101655f830184610143565b92915050565b5f81519050919050565b5f82825260208201905092915050565b8281835e5f83830152505050565b5f601f19601f8301169050919050565b5f6101ad8261016b565b6101b78185610175565b93506101c7818560208601610185565b6101d081610193565b840191505092915050565b5f6020820190508181035f8301526101f381846101a3565b905092915050565b5f73ffffffffffffffffffffffffffffffffffffffff82169050919050565b5f610224826101fb565b9050919050565b6102348161021a565b82525050565b5f60208201905061024d5f83018461022b565b9291505056fea26469706673582212209bca6892c99dd1a71fb5439cbabf9eca2f78f859283f050f450f7e1d805cd68464736f6c63430008190033",
			"opcodes": "PUSH1 0x80 PUSH1 0x40 MSTORE CALLVALUE DUP1 ISZERO PUSH1 0xE JUMPI PUSH0 DUP1 REVERT JUMPDEST POP PUSH2 0x289 DUP1 PUSH2 0x1C PUSH0 CODECOPY PUSH0 RETURN INVALID PUSH1 0x80 PUSH1 0x40 MSTORE CALLVALUE DUP1 ISZERO PUSH2 0xF JUMPI PUSH0 DUP1 REVERT JUMPDEST POP PUSH1 0x4 CALLDATASIZE LT PUSH2 0x3F JUMPI PUSH0 CALLDATALOAD PUSH1 0xE0 SHR DUP1 PUSH4 0x157B5167 EQ PUSH2 0x43 JUMPI DUP1 PUSH4 0x446A45B7 EQ PUSH2 0x61 JUMPI DUP1 PUSH4 0x7B8239FA EQ PUSH2 0x7F JUMPI JUMPDEST PUSH0 DUP1 REVERT JUMPDEST PUSH2 0x4B PUSH2 0x9D JUMP JUMPDEST PUSH1 0x40 MLOAD PUSH2 0x58 SWAP2 SWAP1 PUSH2 0x152 JUMP JUMPDEST PUSH1 0x40 MLOAD DUP1 SWAP2 SUB SWAP1 RETURN JUMPDEST PUSH2 0x69 PUSH2 0xC1 JUMP JUMPDEST PUSH1 0x40 MLOAD PUSH2 0x76 SWAP2 SWAP1 PUSH2 0x1DB JUMP JUMPDEST PUSH1 0x40 MLOAD DUP1 SWAP2 SUB SWAP1 RETURN JUMPDEST PUSH2 0x87 PUSH2 0x117 JUMP JUMPDEST PUSH1 0x40 MLOAD PUSH2 0x94 SWAP2 SWAP1 PUSH2 0x23A JUMP JUMPDEST PUSH1 0x40 MLOAD DUP1 SWAP2 SUB SWAP1 RETURN JUMPDEST PUSH0 DUP1 PUSH0 SWAP1 POP JUMPDEST PUSH1 0xA DUP2 LT ISZERO PUSH2 0xB9 JUMPI DUP1 DUP1 PUSH1 0x1 ADD SWAP2 POP POP PUSH2 0xA3 JUMP JUMPDEST POP PUSH1 0x14 SWAP1 POP SWAP1 JUMP JUMPDEST PUSH1 0x60 PUSH0 JUMPDEST PUSH1 0xA DUP2 LT ISZERO PUSH2 0xDB JUMPI DUP1 DUP1 PUSH1 0x1 ADD SWAP2 POP POP PUSH2 0xC5 JUMP JUMPDEST POP PUSH1 0x40 MLOAD DUP1 PUSH1 0x40 ADD PUSH1 0x40 MSTORE DUP1 PUSH1 0xC DUP2 MSTORE PUSH1 0x20 ADD PUSH32 0x66756E3120736179732068690000000000000000000000000000000000000000 DUP2 MSTORE POP SWAP1 POP SWAP1 JUMP JUMPDEST PUSH0 DUP1 PUSH0 SWAP1 POP JUMPDEST PUSH1 0xA DUP2 LT ISZERO PUSH2 0x133 JUMPI DUP1 DUP1 PUSH1 0x1 ADD SWAP2 POP POP PUSH2 0x11D JUMP JUMPDEST POP CALLER SWAP1 POP SWAP1 JUMP JUMPDEST PUSH0 DUP2 SWAP1 POP SWAP2 SWAP1 POP JUMP JUMPDEST PUSH2 0x14C DUP2 PUSH2 0x13A JUMP JUMPDEST DUP3 MSTORE POP POP JUMP JUMPDEST PUSH0 PUSH1 0x20 DUP3 ADD SWAP1 POP PUSH2 0x165 PUSH0 DUP4 ADD DUP5 PUSH2 0x143 JUMP JUMPDEST SWAP3 SWAP2 POP POP JUMP JUMPDEST PUSH0 DUP2 MLOAD SWAP1 POP SWAP2 SWAP1 POP JUMP JUMPDEST PUSH0 DUP3 DUP3 MSTORE PUSH1 0x20 DUP3 ADD SWAP1 POP SWAP3 SWAP2 POP POP JUMP JUMPDEST DUP3 DUP2 DUP4 MCOPY PUSH0 DUP4 DUP4 ADD MSTORE POP POP POP JUMP JUMPDEST PUSH0 PUSH1 0x1F NOT PUSH1 0x1F DUP4 ADD AND SWAP1 POP SWAP2 SWAP1 POP JUMP JUMPDEST PUSH0 PUSH2 0x1AD DUP3 PUSH2 0x16B JUMP JUMPDEST PUSH2 0x1B7 DUP2 DUP6 PUSH2 0x175 JUMP JUMPDEST SWAP4 POP PUSH2 0x1C7 DUP2 DUP6 PUSH1 0x20 DUP7 ADD PUSH2 0x185 JUMP JUMPDEST PUSH2 0x1D0 DUP2 PUSH2 0x193 JUMP JUMPDEST DUP5 ADD SWAP2 POP POP SWAP3 SWAP2 POP POP JUMP JUMPDEST PUSH0 PUSH1 0x20 DUP3 ADD SWAP1 POP DUP2 DUP2 SUB PUSH0 DUP4 ADD MSTORE PUSH2 0x1F3 DUP2 DUP5 PUSH2 0x1A3 JUMP JUMPDEST SWAP1 POP SWAP3 SWAP2 POP POP JUMP JUMPDEST PUSH0 PUSH20 0xFFFFFFFFFFFFFFFFFFFFFFFFFFFFFFFFFFFFFFFF DUP3 AND SWAP1 POP SWAP2 SWAP1 POP JUMP JUMPDEST PUSH0 PUSH2 0x224 DUP3 PUSH2 0x1FB JUMP JUMPDEST SWAP1 POP SWAP2 SWAP1 POP JUMP JUMPDEST PUSH2 0x234 DUP2 PUSH2 0x21A JUMP JUMPDEST DUP3 MSTORE POP POP JUMP JUMPDEST PUSH0 PUSH1 0x20 DUP3 ADD SWAP1 POP PUSH2 0x24D PUSH0 DUP4 ADD DUP5 PUSH2 0x22B JUMP JUMPDEST SWAP3 SWAP2 POP POP JUMP INVALID LOG2 PUSH5 0x6970667358 0x22 SLT KECCAK256 SWAP12 0xCA PUSH9 0x92C99DD1A71FB5439C 0xBA 0xBF SWAP15 0xCA 0x2F PUSH25 0xF859283F050F450F7E1D805CD68464736F6C63430008190033 "
		},
		"gasEstimates": {
			"creation": {
				"codeDepositCost": "129800",
				"executionCost": "175",
				"totalCost": "129975"
			},
			"external": {
				"fun1()": "infinite",
				"fun2()": "infinite",
				"fun3()": "infinite"
			}
		},
		"methodIdentifiers": {
			"fun1()": "446a45b7",
			"fun2()": "157b5167",
			"fun3()": "7b8239fa"
		}
	},
	"abi": [
		{
			"inputs": [],
			"name": "fun1",
			"outputs": [
				{
					"internalType": "string",
					"name": "",
					"type": "string"
				}
			],
			"stateMutability": "pure",
			"type": "function"
		},
		{
			"inputs": [],
			"name": "fun2",
			"outputs": [
				{
					"internalType": "uint256",
					"name": "x",
					"type": "uint256"
				}
			],
			"stateMutability": "pure",
			"type": "function"
		},
		{
			"inputs": [],
			"name": "fun3",
			"outputs": [
				{
					"internalType": "address",
					"name": "",
					"type": "address"
				}
			],
			"stateMutability": "view",
			"type": "function"
		}
	]
}